:0A28E70000010202030304040505CA
:101D8E00C200C202C20112148DC2AF750A1D750BBC
:101D9E000075121D75131275081D75091C75101D21
:101DAE0075113C75141D75155CD2E890E668E0441B
:101DBE0009F090E65CE04435F0D2AF90E680E0208A
:101DCE00E105D2051225FE90E680E054F7F0538E21
:101DDE00F8122329122779300105120F83C2013020
:101DEE0003F212290750EDC2031227542000169059
:101DFE00E682E030E704E020E1EF90E682E030E6B4
:0D1E0E0004E020E0E412265B12290B80C7DF
:02290F00D322D1
:100F830090E6B9E0120B46102100109601111103EF
:100F93000FA606101B08101509100F0A117C0B0071
:100FA30000117090E6BBE024FE602714603824FD36
:100FB300601114602724067050E50A90E6B3F0E54B
:100FC3000B803C12290F503EE51290E6B3F0E51377
:100FD300802DE50C90E6B3F0E50D8023E50E90E659
:100FE300B3F0E50F801990E6BAE0FF122687AA0650
:100FF300A9077B01EA494B600DEE90E6B3F0EF9051
:10100300E6B4F002117C02116B02116B1228860206
:10101300117C1225CF02117C12287602117C90E6F6
:10102300B8E0247F601514601924027063A200E401
:101033003325E0FFA202E4334F8041E490E740F020
:10104300803F90E6BCE0547EFF7E00E0D394807C3A
:101053000040047D0180027D00EC4EFEED4F24E74D
:10106300F58274283EF583E493FF3395E0FEEF2485
:10107300A1FFEE34E68F82F583E0540190E740F060
:10108300E4A3F090E68AF090E68B7402F002117C00
:1010930002116B90E6B8E024FE601624026003029E
:1010A300117C90E6BAE0B40105C20002117C021182
:1010B3006B90E6BAE0705590E6BCE0547EFF7E008C
:1010C300E0D394807C0040047D0180027D00EC4EDF
:1010D300FEED4F24E7F58274283EF583E493FF3356
:1010E30095E0FEEF24A1FFEE34E68F82F583E05412
:1010F300FEF090E6BCE05480131313541FFFE0543A
:101103000F2F90E683F0E04420F0806D805A90E644
:10111300B8E024FE60192402704E90E6BAE0B401F0
:1011230004D200805490E6BAE06402604C803990A7
:10113300E6BCE0547EFF7E00E0D394807C00400454
:101143007D0180027D00EC4EFEED4F24E7F58274B5
:10115300283EF583E493FF3395E0FEEF24A1FFEEF1
:1011630034E68F82F583800D90E6A080081202009A
:10117300500790E6A0E04401F090E6A0E04480F040
:011183002249
:030033000219FCB3
:0419FC0053D8EF329B
:101D000012010002000000402A15058400000102B3
:101D100003010A0600020000004001000902200041
:101D200001010080640904000002FF0000000705B3
:101D3000810240000107058602000200090220001E
:101D400001010080640904000002FF000000070593
:101D500081024000000705860240000004030904D8
:101D6000080349004E0049001A0343006F00630056
:101D700068006C006500610041004D0053003100B7
:0E1D800062000A033000300030003000000026
:10148D0090E6007412F0E4F5A0F580F5B175B28B1D
:10149D0075B40F75B5FF75B67F00000090E6017449
:1014AD00A3F000000075A80053E8E3000000E490ED
:1014BD00E671F000000090E670F000000090E6721A
:1014CD00F090E610F000000090E61174A0F000001E
:1014DD0000E490E612F000000090E613F00000002A
:1014ED0090E61474E0F0000000E490E615F00000C2
:1014FD000090E60B7403F000000090E6047480F099
:10150D000000007406F0000000E4F000000090E61A
:10151D00247402F0000000E490E625F00000009035
:10152D00E61A7408F0000000E490E618F0000000E0
:10153D0090E619F000000090E61BF000000090E628
:10154D000274E8F0000000E4F51CF51BF51AF5191E
:10155D00D287D2A0C2A1C2B4C2B51228FAD204D287
:10156D0088C2A8D28AC2AAE4F5C8F5CA75CBFFC253
:10157D00AD43B12000000000000053B1DF000000BA
:0C158D0090E6017423F00000000228A684
:102779007819120AD17BA07A8679017800D3120AD6
:0F27890034500BB287E4F51CF51BF51AF5192235
:0C262D007F0C1226397F35122639E4FF9D
:102639007E08AD061EED6019D2A37801EF0880016E
:1026490023D8FDFF30E004D2A28002C2A2C2A38037
:01265900E19F
:01265A00225D
:0F28A600C2B012262D12262DD2B00000D2A322CE
:102705007E08AD061EED601F7801EF08800123D815
:10271500FDFF30E004D2A18002C2A1D2A0000000DA
:07272500000000C2A080DBF0
:01272C00228A
:102502008D2DC374089DF8EF08800123D8FDFFAE1E
:10251200051DEE601F7801EF08800123D8FDFF3012
:10252200E004D2A18002C2A1D2A0000000000000FB
:04253200C2A080DBE8
:012536002282
:102329007F03122687AA06A9077521018A22892314
:102339007A337B3A7D047FFC7E7F1221E8E4FF74C7
:102349003A2FF582E43433F583E0FEAB21AA22A9C2
:102359002375F002EF900002120B21EE1209560FBD
:03236900BF04DCD2
:01236C00224E
:05290200D283D2812206
:10242600C281E490E61AF000000090E6A9E0700987
:1024360090E6487406F000000090E6047480F00010
:1024460000007406F0000000E4F000000090E61AB8
:072456007408F000000022F1
:04224100AB07AA0637
:10224500E4F533AF02AE33053374CA2EF582E434B8
:1022550034F583EFF0AF03AE33053374CA2EF58240
:10226500E43434F583EFF0AF33053374CA2FF582C8
:10227500E43434F583EDF0E57370FC7A347BCAAD54
:0D228500337F501227EF50F37F500223EEFD
:0A245D008E2D8F2E8D2F8A308B31CB
:10246700B287E4F532E532C3952F5020052EE52ECD
:10247700AE2D7002052D14FFE5312532F582E435C6
:0C24870030F583E0FD122241053280D9BF
:012493002226
:0A21E8008E2D8F2E8D2F8A308B3143
:1021F200E4FDE52DFF7E000DEE24CAF582E43434C1
:10220200F583EFF00E0D74CA2EF582E43434F583B3
:10221200E52EF07A347BCA7F501227EFE4FFEFC33A
:10222200952F5010E5312FF582E43530F58374CDCA
:0F223200F00F80EAAB31AA30AD2F7F500227D3D7
:04290700C283D32292
:04290B00D283D3227E
:1025CF0090E680E030E71200000090E6247402F0FD
:1025DF00000000E490E6258010000000E490E6245F
:0F25EF00F000000090E6257440F0000000D322B9
:10287600E490E740F090E68AF090E68B04F0D322ED
:10288600E490E740F090E68AF090E68B04F0D322DD
:1002000090E6B9E0120B46073BA2073BA3022FB3CF
:100210000235B4043DB806F4B9043DBA0436BB0354
:100220004DC2023BC40263C50720CB000008BF12C9
:1002300029020208C11224260208C1000000E4902D
:10024000E61AF000000090E6047480F000000074EC
:1002500006F0000000E4F000000090E61A7408F0D8
:100260000208C190E6B8E06440600302033F300436
:100270000AF5A075B4BD12218EC20490E6BEE075E9
:100280002300F524A3E0FEEE4223D3E5249490E579
:10029000239401400675160A020337E4F521F5227E
:1002A0007B017A33793A1228D0E52445236071E442
:1002B00090E68AF090E68BF090E6A0E020E1F990DD
:1002C000E68BE0752500F526E4F527F528C3E5283B
:1002D0009526E5279525502D74402528F582E43490
:1002E000E7F583E0FFE5222528FDE5213527FC74AD
:1002F0003A2DF58274333CF583EFF00528E528703C
:10030000CC052780C8E5262522F522E5253521F5EF
:1003100021C3E5249526F524E5239525F523808939
:1003200090E6BAE07002800F121EA78F16E516D372
:10033000940050030208C175B40DD2040208C190A4
:10034000E6B9E090E740F0A3E51602072D90E6B984
:10035000E090E740F0E490E68AF090E68B04F090BD
:10036000E6A0E04480F090E6A0E020E1F97F0312EF
:100370002687AA06A9077529018A2A892B90E68B68
:10038000E0D394044008752300752404800990E6A6
:100390008BE0752300F524E4F527F528C3E52895BF
:1003A00024E52795235049E52824FCFFE527347FE1
:1003B000FE74402528F582E434E7F583E0FD12223F
:1003C0004174402528F582E434E7F583E0FDE52813
:1003D00025E0FFE527338F82F583A3A3AB29AA2A63
:1003E000A92BED1209560528E52870B0052780AC29
:1003F000852327852428C3E5289404E52794005005
:1004000032E52824FCFFE527347FFE7D20122241BF
:10041000E52825E0FFE527338F82F583A3A3AB29E9
:10042000AA2AA92B74201209560528E52870C705A9
:100430002780C30206E9D280C2800208C100000002
:1004400090E6BAE0752100F522A3E0FEEE4221A37A
:10045000E0FBA3E0FEEEFAA3E0752300F524A3E0A1
:10046000FEEE4223E522120B4604820106E7020556
:10047000A30306490405460504EE06053E070000F1
:1004800006E7E5B154F84404F5B18523178524182F
:10049000E52445236055E490E68AF090E68BF00071
:1004A000000090E6A0E020E1F990E68BE0752500E1
:1004B000F526E4F527F528C3E5289526E5279525B3
:1004C000501A74402528F582E434E7F583E0FF12E2
:1004D00027050528E52870DF052780DBC3E524957F
:1004E00026F524E5239525F52380A50206CDE524F0
:1004F000640645236002D322E490E68AF090E68BFE
:10050000F000000090E6A0E020E1F9C2B0E4F52799
:10051000F52874402528F582E434E7F583E0FF12DE
:1005200026390528E52870020527C39406E5279497
:100530000040DFD2B00000D2A3B2870206E9122841
:10054000A6B2870206E9E490E68AF090E68BF00016
:09055000000090E6A0E020E1F9B2
:1005590090E740E013920590E6BCE0F52CA3E01487
:1005690060151460202402702AE52C30050442A08D
:100579008023F452A0801EE52C30050442B080157A
:10058900F452B08010E52C30050442B18007F452D2
:07059900B18002D322B287FA
:1005A0000206E9E490E68AF090E68BF00000009005
:1005B000E6A0E020E1F9EB4A707BC2ADC2CAF527A4
:1005C0007528FFE5B130E72CE5281528AE27700225
:1005D0001527D39400EE9400401AD2B10000000019
:1005E000000000000000C2B1000000000000000098
:1005F000000080CFE52845277002D32290E740E035
:10060000752500F526E4F527F528C3E5289526E5A8
:10061000279525502FD2B1000000000000000000F7
:10062000C2B10000000000000000000528E52870AD
:10063000D9052780D590E740E0FFC374FF9FF5CA36
:10064000D2ADD2CAB2870206E9E5B154F84402F548
:10065000B190E6BBE0FF7D0712250200000000001C
:1006600000000000D2B4000000000000000000C242
:10067000B4E5B154F84401F5B1AF037D051225028C
:10068000EBAE027805CEC313CE13D8F9FBAA06FF52
:100690007D05122502EAC313FAEB13FBC2B230E068
:1006A00004D2B68002C2B6000000000000000000C4
:1006B000D2B4000000000000000000C2B4EAC3137E
:1006C000EB13D2B230E004D2B68002C2B600000012
:1006D000000000000000D2B4000000000000000094
:1006E00000C2B4B2878002D322E490E68AF090E69A
:1006F0008BF0C32290E6BAE06004D2B58002C2B5A6
:1007000090E74074B9F0000000E490E68AF090E6CB
:100710008B04F000000090E6A0E04480F00208C1E5
:1007200090E6B9E090E740F0A2A1E433A3F0E490B2
:10073000E68AF090E68B74020208D290E6BAE07581
:100740002100F522A3E0FEEE422190E6BEE07523F3
:1007500000F524A3E0FEEE422390E6B8E064C0601A
:1007600003020827E524452370030208BD90E6A094
:10077000E020E1F9C3E5249440E523940050088586
:100780002325852426800675250075264090E6B928
:10079000E0B4A335E4F527F528C3E5289526E52739
:1007A0009525505EE5222528F582E5213527F5833C
:1007B000E0FF74402528F582E434E7F583EFF00587
:1007C00028E52870D4052780D0E4F527F528C3E56F
:1007D000289526E5279525501874402528F582E4AC
:1007E00034E7F58374CDF00528E52870E10527800E
:1007F000DDAD267AE779407F40AB07AF22AE21120C
:1008000021E8E490E68AF090E68BE526F02522F5D3
:1008100022E5253521F521C3E5249526F524E52398
:100820009525F52302076490E6B8E0644060030272
:1008300008BDE524452370030208BDE490E68AF074
:1008400090E68BF090E6A0E020E1F990E68BE07571
:100850002500F52690E6B9E0B4A335E4F527F528A0
:10086000C3E5289526E5279525503674402528F5BB
:1008700082E434E7F583E0FFE5222528F582E521CF
:100880003527F583EFF00528E52870D4052780D0BB
:10089000AD267AE779407F40AB07AF22AE21122424
:1008A0005DE5262522F522E5253521F521C3E52440
:1008B0009526F524E5239525F523020832C322D396
:1008C0002290E6B9E090E740F0E490E68AF090E606
:0B08D0008B04F090E6A0E04480F0C331
:0108DB0022FA
:10289600C2AFC2CFD2B10000000000C2B1D2AF3287
:10280B00C0E0C083C082D2015391EF90E65D7401AA
:08281B00F0D082D083D0E0323E
:10282300C0E0C083C0825391EF90E65D7404F0D0A2
:0628330082D083D0E032E8
:10283900C0E0C083C0825391EF90E65D7402F0D08E
:0628490082D083D0E032D2
:10249400C0E0C083C08290E680E030E70E85080C7F
:1024A40085090D85100E85110F800C85100C851182
:1024B4000D85080E85090F5391EF90E65D7410F0B9
:0724C400D082D083D0E0328A
:012911003293
:1024CB00C0E0C083C08290E680E030E70E85080C48
:1024DB0085090D85100E85110F800C85100C85114B
:1024EB000D85080E85090F5391EF90E65D7420F072
:0724FB00D082D083D0E03253
:012912003292
:012913003291
:012914003290
:01291500328F
:01291600328E
:01291700328D
:01291800328C
:01291900328B
:01291A00328A
:01291B003289
:01291C003288
:01291D003287
:01291E003286
:01291F003285
:012920003284
:012921003283
:012922003282
:012923003281
:012924003280
:01292500327F
:01292600327E
:01292700327D
:01292800327C
:01292900327B
:01292A00327A
:01292B003279
:01292C003278
:01292D003277
:01292E003276
:01292F003275
:012930003274
:012931003273
:012932003272
:012933003271
:012934003270
:01293500326F
:0422920002740000D2
:0D28C300ED4C7005EFF452A022EF42A02270
:0C1CF400E4FDFC7F201228C30D0228C371
:10272D008B458A468947AB76AA77A9780575E575F5
:10273D00AE747002057414F5828E831208F5AB45E4
:07274D00AA46A94702094456
:0C28D000E4F574F5758B768A7789782220
:0B28DC00E5A05440C413135403FF2276
:0427B600AB07AA06BD
:1027BA00900000C3E5829BEA6480F8E58364809810
:0827CA005006121CF4A380EB81
:0127D20022E4
:1022960060483000FF28F1FF26B2FF1791FF185E55
:1022A600FF256BFF284FFF284FFF28B5FF20ACFF07
:1022B600191AFF284FFF284FFF1BFFFF1BFFFF1BAD
:1022C600FFFF1B5DFF1B5DFF1B5DFF19C4FF212484
:0C22D600FF2124FF16A1FF2863FF1AB8A7
:101C9800E4120944900001120956900002120AFD4C
:101CA80000000000900006E4F5F01209FA90000B1D
:101CB800E4120956900008E41209569000097401CC
:101CC80012095690000A7401120956900010120A5F
:101CD800FD00000000900014E4F5F01209FA9000ED
:0C1CE8000C120AFD00000000E4FEFF22C8
:0626DC00AF24E4FCFDFE4A
:1026E2008F298E288D278C26E5292407FFE435289B
:1026F200FEE43527FDE43526FCE47B08FAF9F812FE
:03270200236D2222
:042798007F017E003F
:10279C00AD07AC067F101228C3E4FDFC7F20122885
:0A27AC00C37D017C007F200228C3DA
:080CE300AB40AA41A9427D01CA
:080CEB008B5A8A5B895C8D5D68
:100CF300E49034CAF0A3F0E55D704DF55EF55F0551
:100D03005FE55F7002055EB4D0F5E55EB407F012EF
:100D13002798E4F55EF55FE4FDFC7F201228C37D90
:100D2300017C007F201228C3055FE55F7002055E2A
:100D3300C39405E55E6480948040DCAB5AAA5BA94A
:100D43005CE4120944020F7AAB5AAA5BA95C12084D
:100D5300DCFF655D601FE55DB40704EFB4060AE5DB
:100D63005DB40E11EF640D600C9034CAE4F0A3740B
:100D730005F0020F7AE55DB5070EB40603020E56C1
:100D8300E55DB40D03020F12AB5AAA5BA95C12080E
:100D9300DCFF655D7003020F7AEF120B460DD40082
:100DA3000DD7010DDA020E00030E24040E32050ED8
:100DB30056060E64070E88080EAC090EBD0A0EE136
:100DC3000B0EEF0C0F120D0F1F0E0F410F00000F34
:100DD30063020E8D020E9EE55DC39409400E122739
:100DE30098AB5AAA5BA95C7409020F74E4FFFE1264
:100DF300279CAB5AAA5BA95C7403020F74E55DB42C
:100E03000411E4FFFE12279CAB5AAA5BA95C74048D
:100E1300020F74122798AB5AAA5BA95C7405020FE0
:100E230074122798AB5AAA5BA95C7405020F74E588
:100E33005DB40611E4FFFE12279CAB5AAA5BA95CC2
:100E43007406020F74122798AB5AAA5BA95C740844
:100E5300020F74122798AB5AAA5BA95C7407020F9E
:100E630074E55DB40411E4FFFE12279CAB5AAA5B40
:100E7300A95C7404020F74122798AB5AAA5BA95C8D
:100E83007408020F74E55DB40111E4FFFE12279CA0
:100E9300AB5AAA5BA95C7401020F74122798AB5A70
:100EA300AA5BA95C7402020F74E4FFFE12279CABD9
:100EB3005AAA5BA95C740A020F74E55DB40B11E4D2
:100EC300FFFE12279CAB5AAA5BA95C740B020F743A
:100ED300122798AB5AAA5BA95C740C020F741227F1
:100EE30098AB5AAA5BA95C740C020F74E55DB40D50
:100EF30011E4FFFE12279CAB5AAA5BA95C740D0296
:100F03000F74122798AB5AAA5BA95C740F80621204
:100F13002798AB5AAA5BA95C740E8055E55DB40BA8
:100F230010E4FFFE12279CAB5AAA5BA95C740B80EA
:100F330040122798AB5AAA5BA95C740F8033E55D16
:100F4300B40110E4FFFE12279CAB5AAA5BA95C74A0
:100F530001801E122798AB5AAA5BA95C7402801108
:100F63009034CAE4F0A37405F0AB5AAA5BA95CE51C
:0F0F73005D120944020D8B9034CAE0FEA3E0FF2B
:010F8200224C
:0E1325008F5D8E5C8D5B8C5A8B5E8A5F89605B
:10133300756900756A00756B00E562456345616018
:101343003C120978FFAB61AA62A963E5F08FF01242
:1013530009DBAB61E5632402F9E43562FAC003C03B
:1013630002C001AB5EAA5FA960120978D001D00266
:10137300D00329F9EA35F08B69F56A896BAB5EE531
:10138300602402F9E4355FFAC002C001AA5FA960D4
:10139300120978D001D00229F9EA35F08B66F56796
:1013A3008968AF5DAE5CAD5BAC5AEC4D4E4F7003DC
:1013B30002148C786674FFF5F0120B2D1208DC9082
:1013C3003345F0E4A3F0F56CF56DAF5DAE5CAD5B5A
:1013D300AC5AEC4D4E4F700302146CC3E56D940888
:1013E300E56C64809480400302146C74FFFBFAF98B
:1013F300F8120A278F5D8E5C8D5B8C5AE565456418
:10140300600EEC4D4E4F70087D01FC7F101228C317
:10141300903345E05401FD7C007F801228C3903354
:1014230045E0C313F0E4FDFC7F201228C3E56A45C1
:101433006B456960201228DC903347EFF090334608
:10144300E0FFAE6DA3E0FDA806088002C333D8FC1D
:101453004F903346F07D017C007F201228C3056D39
:10146300E56D7002056C0213CDE56A456B45697045
:10147300030213A5903346E0FF786974FFF5F01279
:091483000B2DEF1209440213A520
:01148C00223D
:081184008B408A4189428D4332
:10118C00E490333EF0A3F0A3F0A3F0A3F0E54365A5
:10119C00547E0060047F0180027F00903343EEF0A8
:1011AC00A3EFF0AF47AE46AD45AC44EC4D4E4F709F
:1011BC001EAF58AE57AD56AC55EC4D4E4F700302AA
:1011CC0012F1120CE3AE57AF581227B60212F1AB64
:1011DC0040AA41A942AD43120CEBAF47AE46AD4518
:1011EC00AC44854B61854C62854D63903343E0F58F
:1011FC0064A3E0F565AB48AA49A94A121325E54F4B
:10120C004550454E602D854B5D854C5E854D5F850B
:10121C005160855261855362AB4EAA4FA950121F83
:10122C0032EF4E70047F0180027F00903340E4F077
:10123C00A3EFF0903343E07002A3E070030212D7E7
:10124C00AB40AA41A9427401120922903340E070CC
:10125C0002A3E06053AF58AE57AD56AC55EC4D4EB3
:10126C004F6045903342E0C39559503CAB40AA4186
:10127C00A9427D06120CEBAB40AA41A9427D041297
:10128C000CEBAF58AE57AD56AC557802120A4AE586
:10129C00582FFFE5573EFEE5563DFDE5553C8F5872
:1012AC008E578D56F555800BAB40AA41A942AD54D3
:1012BC00120CEBAF58AE57AD56AC55EC4D4E4F60D3
:1012CC000A120CE3AE57AF581227B6903340E070B9
:1012DC0002A3E06010903342E0FF04F0EFC3955995
:1012EC0050030211DB903340E07002A3E06021E573
:1012FC00596014903342E0D39559400B90333EE43F
:10130C00F0A37403F0800990333EE4F0A37402F070
:08131C0090333EE0FEA3E0FF68
:0113240022A6
:101FB2008B258A2689278F2B8E2A8D298C28AB2E5A
:101FC200AA2FA930AD2DAC2C1223B1E535453645EB
:101FD20034600DAB34AA35A936AD2DAC2C1223B129
:101FE200852B47852A46852945852844852E48859F
:101FF2002F4985304A85314B85324C85334D8534A6
:102002004E85354F8536508537518538528539533F
:10201200853A54853E58853D57853C56853B5585C6
:0E2022003F59AB25AA26A9277D04121184225E
:10284F00900006E475F0041209FA9000061209A32D
:04285F00FFAEF022B6
:0928F1007401120944E4FEFF2207
:1026B2008B218A228923E9243BF9EA3402FAC002F7
:1026C200C001AA22A9239000141209A3FDACF0D0E4
:0A26D20001D0021223B1E4FEFF2242
:061791008B218A2289234E
:101797007B007A00792412272D1226DCD3EF94B42C
:1017A700EE648094804010AB21AA22A92390000602
:1017B700E475F00602184B1226DCAC06AD07AB2128
:1017C700E5232416F9E43522FA1223B1AB21E523E8
:1017D7002408F9E43522FAC003C002C001E48524D5
:1017E70047F546F545F544E5232416F9E435228BFC
:1017F70048F549894A754B00754C00754D00754E83
:1018070000754F00755000755100755200755300F3
:10181700AA22A9239000091208F5F55490000C128A
:101827000A718F588E578D568C55E4F559D001D0D3
:1018370002D0037D0B121184AB21AA22A9239000A9
:1018470006EE8FF01209FAAB21AA22A9239000060F
:061857001209A3FFAEF030
:01185D002268
:0616A1008B218A2289233F
:1016A700E92416F9E43AFA7D027C001223B1AB2152
:1016B700E5232416F9E43522FA12203090333A1242
:1016C7000AF190333A120AC51226E2D3EF94B4EE28
:1016D700648094804009752400752506021775906B
:1016E700333A120AC51226E2AC06AD07AB21E52351
:1016F7002416F9E43522FA1223B1AB21E523240895
:10170700F9E43522FAC003C002C00190333A120A45
:10171700C58F478E468D458C44E5232416F9E4355D
:10172700228B48F549894A754B00754C00754D0069
:10173700754E00754F007550007551007552007554
:101747005300AA22A9239000091208F5F554900026
:101757000C120A718F588E578D568C55E4F559D057
:1017670001D002D0037D0B1211848E248F25E5252D
:1017770045246011AB21AA22A923900006E5248500
:0917870025F01209FAAE24AF2589
:011790002236
:06185E008B218A22892380
:10186400E92416F9E43AFAC002C001AA22A9239095
:1018740000141209A3FDACF0D001D0021223B1ABC5
:1018840021E5232408F9E43522FAC003C002C0018B
:10189400AA22A923900010120A718F478E468D4503
:1018A4008C44E92416F9E43A8B48F549894AE5233E
:1018B4002484F9EA34018B4BF54C894DE52324CD7E
:1018C400F9E43A8B4EF54F8950E523243BF9EA3489
:1018D400028B51F5528953A92390000A1208F5F599
:1018E4005490000C120A718F588E578D568C559057
:1018F400000B1208F5F559D001D002D0037D041273
:101904001184EF4E600FAB21AA22A923900006EEAA
:051914008FF01209FA3A
:0119190022AB
:10256B008B218A228923E92416F9E43AFA7D047C2B
:10257B00001223B1AB21E5232416F9E43522FA121C
:10258B002030AB21AA22A92390000C120AA1E4FE51
:02259B00FF221D
:0E28B500E9240BF9E43AFA12272DE4FEFF2283
:0620AC008B218A2289232A
:1020B200E4F524F525E92416F9E43AFA7D047C00D6
:1020C2001223B1AB21E5232416F9E43522FA1220BA
:1020D20030AB21AA22A923900010120AA19000106D
:1020E200120A711226E2AB21AA22A923900014EE51
:1020F2008FF01209FA9000141209A3D394B4E5F0F8
:10210200648094804017752400752506AB21AA22AD
:10211200A923900006E5248525F01209FAAE24AF22
:012122002597
:012123002299
:06191A008B218A228923C3
:10192000E92408F9E43AFAC003C002C001AA22A9D6
:1019300023900010120A71C004C005C006C00790B1
:1019400000141209A3F52D85F02CE92416F9E43AC8
:101950008B2EF52F8930E5232484F9EA34018B316D
:10196000F5328933E52324CDF9E43A8B34F5358912
:1019700036E523243BF9EA34028B37F5388939A957
:101980002390000A1208F5F53A90000C120A718FA4
:101990003E8E3D8D3C8C3B90000B1208F5F53FD000
:1019A00007D006D005D004D001D002D003121FB258
:1019B000EF4E600FAB21AA22A923900006EE8FF014
:0319C0001209FA0F
:0119C3002201
:061BFF008B218A228923DC
:101C05009000011208F5B40E0990000A1208F5FFBC
:101C150080027F048F24AB21E5232408F9E43522D3
:101C2500FAC003C002C001AA22A923900010120A1B
:101C3500719000141209A3F52D85F02CE92416F9ED
:101C4500E43A8B2EF52F89307531007532007533E6
:101C55000075340075350075360075370075380028
:101C650075390085243AE4F53EF53DF53CF53BF53F
:101C75003FD001D002D003121FB2AB21AA22A92363
:101C8500900006EE8FF01209FA9000061209A3FFE4
:021C9500AEF0AF
:011C9700222A
:061B5D008B218A2289237E
:101B63009000011208F5B4110990000A1208F5FF5C
:101B730080027F048F24AB21E5232408F9E4352276
:101B8300FAC003C002C001AA22A923900010120ABE
:101B9300719000141209A3F52D85F02CE92416F990
:101BA300E43A8B2EF52F8930E5232484F9EA3401B6
:101BB3008B31F5328933E52324CDF9E43A8B34F5BF
:101BC30035893675370075380075390085243AE450
:101BD300F53EF53DF53CF53BF53FD001D002D00392
:101BE300121FB2AB21AA22A923900006EE8FF01296
:0B1BF30009FA9000061209A3FFAEF0F3
:011BFE0022C4
:0619C4008B218A22892319
:1019CA007B007A00792412272DAB21E5232408F91C
:1019DA00E43522FAAD24120CEBAB21AA22A92390FA
:1019EA000006EE8FF01209FA9000061209A3FFAE64
:0119FA00F0FC
:0119FB0022C9
:062124008B218A228923B1
:10212A00E4F524F525FB7A00792612272DE52660A9
:10213A000C64016008752400752505802BAB21AA63
:10214A0022A9239000011208F5B4130DE526900088
:10215A00097002800B740D800CE52690000A70034A
:10216A000480027406120956E52545246011AB2144
:10217A00AA22A923900006E5248525F01209FAAEC1
:03218A0024AF255A
:01218D00222F
:061AB8008B218A22892324
:101ABE00E92416F9E43AFA7D017C001223B1AB2138
:101ACE00AA22A9239000181208F5F524E92416F984
:101ADE00E43AFA7D017C001223B1AB21AA22A9239C
:101AEE009000181208F5F525E92416F9E43AFA7D66
:101AFE00047C001223B1AB21E5232416F9E4352230
:101B0E00FA12203090333A120AF1AB21AA22A923FD
:101B1E009000081208F56524600CE92408F9E43AEF
:101B2E00FAAD24120CEB90333A120AC51227B6AB5B
:101B3E0021AA22A9239000081208F56525600CE958
:0E1B4E002408F9E43AFAAD25120CEBE4FEFF90
:011B5C002266
:10286300900006E4F5F01209FA9000061209A3FF9E
:03287300AEF022A2
:10218E00751D01751E30751F48AB1DAA1EA91F12A5
:10219E001C98AB1DAA1EA91F900006EE8FF0120907
:1021AE00FA9000061209A345F0701FAB1DE51F241F
:1021BE0008F9E4351EFAE4FD120CEBAB1DAA1EA9BC
:1021CE001F900006EE8FF01209FAAB1DAA1EA91F72
:0A21DE009000061209A3FFAEF022E4
:101EA700AB1DAA1EA91F9000061209A345F0706B6F
:101EB7001208DC7066E92401F9E43AFA12272DAB1F
:101EC7001DAA1EA91F900002120A71E47B01FAF9EC
:101ED700F8120A27AB1DAA1EA91F900002120AA119
:101EE7009000011208F5FFC39418AB1DAA1EA91F85
:101EF7005026C003C002C001EF75F003A42400F50B
:101F070082E43430F583120B3D89828A83D001D075
:101F170002D003120B70800312284FAB1DAA1EA913
:0B1F27001F9000061209A3FFAEF0227D
:062030008B268A27892897
:10203600E4F52CF52BF52AF529F52DF52EAB26AA78
:1020460027A928120978FFC3E52E9FE5F06480F8DA
:10205600E52D6480985046AF2CAE2BAD2AAC29787E
:1020660008120A5E8F2C8E2B8D2A8C29E92402F900
:10207600E43AFAE9252EF9EA352DFA1208DCFFE5ED
:102086002C4FFFE52BFEE52AFDE5298F2C8E2B8DA7
:102096002AF529052EE52E70A4052D80A0AF2CAEBD
:0520A6002BAD2AAC295E
:0120AB002212
:061F32008B5A8A5B895CFA
:101F3800756300756401120978FFAEF0E5644563C6
:101F48006063EF1FAC0670011E4C6059AB5AE55C2C
:101F58002402F9E4355BFAE92FF9EA3EFA1208DCC3
:101F6800F565AB5DE55F2402F9E4355EFAE92FF922
:101F7800EA3EFA1208DCF566E561456245606018DC
:101F8800AB60E5622402F9E43561FAE92FF9EA3E2B
:101F9800FA1208DC52655266E5656566609EE4F5EE
:091FA80063F5648097AE63AF6439
:011FB100220D
:0423B1008C408D418E
:1023B500E5408541F01209DBE92402F9E43A8B4254
:1023C500F5438944E5414540601EAB42AA43A94413
:1023D50012272DE54115417002154074012544F57C
:0823E50044E43543F54380DCBC
:0123ED0022CD
:10265B0090E682E030E004E020E60B90E682E0308A
:10266B00E119E030E71590E680E04401F07F147E3D
:0C267B00001222E390E680E054FEF02202
:1025FE0030050990E680E0440AF0800790E680E01E
:10260E004408F07FDC7E051222E390E65D74FFF055
:0F261E0090E65FF05391EF90E680E054F7F022E2
:0828FA00E4F573D2E9D2AF222C
:1023EE00AD0790E678E020E6F9C2E990E678E044A1
:1023FE0080F0ED25E090E679F090E678E030E0F9B7
:10240E0090E678E04440F090E678E020E6F990E639
:08241E0078E030E1D6D2E9229A
:10259D00AC0790E678E020E6F9E573702390E678D5
:1025AD00E04480F0EC25E090E679F08D6EAF03A964
:1025BD0007756F018A708971E4F572757301D32205
:0225CD00C32227
:10253700AC0790E678E020E6F9E573702590E67839
:10254700E04480F0EC25E0440190E679F08D6EAF31
:1025570003A907756F018A708971E4F572757303B2
:04256700D322C32296
:03004B0002159902
:10159900C0E0C083C082C085C084C086758600C093
:1015A900D075D000C000C001C002C003C006C0078A
:1015B90090E678E030E20675730602168390E678C5
:1015C900E020E10CE5736402600675730702168377
:1015D900E57324FE605F14603624FE7003021674FE
:1015E90024FC700302168024086003021683AB6F83
:1015F900AA70A971AF7205728F827583001208F5FE
:1016090090E679F0E572656E7070757305806B9080
:10161900E679E0AB6FAA70A971AE728E827583000C
:10162900120956757302E56E6401704E90E678E012
:101639004420F08045E56E24FEB5720790E678E017
:101649004420F0E56E14B5720A90E678E04440F063
:1016590075730090E679E0AB6FAA70A971AE728ECE
:10166900827583001209560572800F90E678E0446E
:1016790040F075730080037573005391DFD007D074
:1016890006D003D002D001D000D0D0D086D084D0EB
:0816990085D082D083D0E0323D
:02268700A907A1
:10268900AE14AF158F828E83A3E064037017AD017A
:1026990019ED7001228F828E83E07C002FFDEC3EC4
:0826A900FEAF0580DFE4FEFF37
:0126B1002206
:1027D300122537E57324FA600E146006240770F39C
:0C27E300D322E4F573D322E4F573D32273
:1027EF0012259DE57324FA600E146006240770F31A
:0C27FF00D322E4F573D322E4F573D32257
:1027540090E682E044C0F090E681F04387010000F7
:04276400000000224F
:1022E3008E218F2290E600E054187012E52224011B
:1022F300FFE43521C313F521EF13F522801590E692
:1023030000E05418FFBF100BE52225E0F522E5217C
:1023130033F521E5221522AE21700215214E600509
:0623230012276880EE2283
:102768007400F58690FDA57C05A3E582458370F984
:01277800223E
:03004300021A009E
:03005300021A008E
:101A000002280B00022839000228230002291100B5
:101A1000022494000224CB000229120002291300A0
:101A200002291400022915000229160002291700B4
:101A3000022918000229190002291A0002291B0094
:101A400002291C000229130002291D0002291E0080
:101A500002291F0002292000022921000229220058
:101A6000022923000229130002291300022913006E
:101A70000229240002292500022926000229270024
:101A8000022928000229290002292A0002292B0004
:101A900002292C0002292D0002292E0002292F00E4
:101AA00002293000022931000229320002293300C4
:081AB00002293400022935006F
:03002B0002289612
:03000000021E1BC2
:0C1E1B00787FE4F6D8FD758178021E6225
:1008DC00BB010689828A83E0225002E722BBFE021A
:0908EC00E32289828A83E493224D
:1008F500BB010CE58229F582E5833AF583E02250B8
:1009050006E92582F8E622BBFE06E92582F8E22201
:0D091500E58229F582E5833AF583E493221B
:10092200BB010989828A83F8E028F022500327F765
:1009320022BBFE05F8E328F3228A838982F8E49336
:02094200282269
:10094400BB010689828A83F0225002F722BBFE0192
:02095400F3228C
:10095600F8BB010DE58229F582E5833AF583E8F0D7
:10096600225006E92582C8F622BBFE05E92582C883
:02097600F2226B
:10097800BB010A89828A83E0F5F0A3E0225006874A
:10098800F009E71922BBFE07E3F5F009E31922890C
:0B099800828A83E493F5F0740193223F
:1009A300BB0110E58229F582E5833AF583E0F5F092
:1009B300A3E0225009E92582F886F008E622BBFE6F
:1009C3000AE92582F8E2F5F008E222E5832AF583B5
:0809D300E993F5F0A3E993227A
:1009DB00BB010A89828A83F0E5F0A3F0225006F767
:0F09EB0009A7F01922BBFE06F3E5F009F3192264
:1009FA00F8BB0111E58229F582E5833AF583E8F02F
:100A0A00E5F0A3F0225009E92582C8F608A6F022EB
:0D0A1A00BBFE09E92582C8F2E5F008F222D2
:0D0A2700EF2BFFEE3AFEED39FDEC38FC221E
:10236D00C2D5E830E70FB2D5E4C39BFBE49AFAE49B
:10237D0099F9E498F8EC30E717B2D51223A3120BB4
:10238D00AEE4C39BFBE49AFAE499F9E498F8800370
:10239D00120BAE30D50DE4C39FFFE49EFEE49DFD10
:0423AD00E49CFC228E
:100A3400EB9FF5F0EA9E42F0E99D42F0EC6480C839
:060A440064809845F022D9
:100A4A00E86010ECA2E713FCED13FDEE13FEEF13C2
:040A5A00FFD8F022AF
:100A5E00E8600FEFC333FFEE33FEED33FDEC33FCF6
:030A6E00D8F1229A
:100A7100BB010DE58229F582E5833AF583020AC5BA
:100A81005007E92582F8020C40BBFE07E92582F8F0
:100A9100020C4CE58229F582E5833AF583020C5874
:100AA100BB010DE58229F582E5833AF583020AF15E
:100AB1005007E92582F8020C68BBFE07E92582F898
:040AC100020C74228D
:0C0AC500E0FCA3E0FDA3E0FEA3E0FF22A4
:100AD1007401FF3395E0FEFDFC080808E6CF2FF610
:100AE10018E6CE3EF618E6CD3DF618E6CC3CF622E9
:0C0AF100ECF0A3EDF0A3EEF0A3EFF02278
:100AFD00BB010DE58229F582E5833AF583020C9958
:100B0D005007E92582F8020C80BBFE07E92582F823
:040B1D00020CCA22DA
:0C0B2100A42582F582E5F03583F58322DF
:100B2D00FAE6FB0808E625F0F9F618E63AFAF62299
:090B3D00E0FBA3E0FAA3E0F922B9
:100B4600D083D082F8E4937012740193700DA3A33E
:100B560093F8740193F5828883E473740293686052
:060B6600EFA3A3A380DF52
:060B6C008A838982E47314
:101E2700021D8EE493A3F8E493A34003F68001F226
:101E370008DFF48029E493A3F85407240CC8C333BC
:101E4700C4540F4420C8834004F456800146F6DF8B
:101E5700E4800B0102040810204080902292E47E67
:101E6700019360BCA3FF543F30E509541FFEE49380
:101E7700A360010ECF54C025E060A840B8E493A347
:101E8700FAE493A3F8E493A3C8C582C8CAC583CA72
:101E9700F0A3C8C582C8CAC583CADFE9DEE780BE2A
:0122E20000FB
:100B720075F008758200EF2FFFEE33FECD33CDCC3A
:100B820033CCC58233C5829BED9AEC99E5829840BD
:100B92000CF582EE9BFEED9AFDEC99FC0FD5F0D69A
:100BA200E4CEFBE4CDFAE4CCF9A88222B800C1B9C4
:100BB2000059BA002DEC8BF084CFCECDFCE5F0CB02
:100BC200F97818EF2FFFEE33FEED33FDEC33FCEB3B
:100BD20033FB10D703994004EB99FB0FD8E5E4F9F6
:100BE200FA227818EF2FFFEE33FEED33FDEC33FCE3
:100BF200C933C910D7059BE99A4007EC9BFCE99AD7
:100C0200F90FD8E0E4C9FAE4CCFB2275F010EF2F1B
:100C1200FFEE33FEED33FDCC33CCC833C810D7071B
:100C22009BEC9AE899400AED9BFDEC9AFCE899F856
:0E0C32000FD5F0DAE4CDFBE4CCFAE4C8F922E9
:0C0C4000E6FC08E6FD08E6FE08E6FF22E0
:0C0C4C00E2FC08E2FD08E2FE08E2FF22E4
:100C5800E493FC740193FD740293FE740393FF22E2
:0C0C6800ECF608EDF608EEF608EFF622B8
:0C0C7400ECF208EDF208EEF208EFF222BC
:100C8000D083D082E493F608740193F6087402933B
:090C9000F608740393F674047372
:100C9900A8828583F0D083D082120CB0120CB012D6
:100CA9000CB0120CB0E473E493A3C583C5F0C583FB
:100CB900C8C582C8F0A3C583C5F0C583C8C582C8A5
:010CC9002208
:100CCA00D083D082E493F208740193F208740293F9
:090CDA00F208740393F274047330
:00000001FF
