:0A28E80000010202030304040505C9
:101C4200C200C202C201121468C2AF750A1D750B2E
:101C52000075121D75131275081D75091C75101D6E
:101C620075113C75141D75155CD2E890E668E04468
:101C720009F090E65CE04435F0D2AF90E680E020D7
:101C8200E105D2051225D090E680E054F7F0538E9C
:101C9200F81222F8122745300105120F5EC20130F8
:101CA20003F212290C50EDC2031226FE20001690F8
:101CB200E682E030E704E020E1EF90E682E030E601
:0D1CC20004E020E0E412262D12291080C756
:021CFE00D322EF
:100F5E0090E6B9E0120B210FFC0010710110EC03AA
:100F6E000F81060FF6080FF0090FEA0A11570B0052
:100F7E0000114B90E6BBE024FE602714603824FD80
:100F8E00601114602724067050E50A90E6B3F0E570
:100F9E000B803C121CFE503EE51290E6B3F0E513BA
:100FAE00802DE50C90E6B3F0E50D8023E50E90E67E
:100FBE00B3F0E50F801990E6BAE0FF122659AA06A3
:100FCE00A9077B01EA494B600DEE90E6B3F0EF9076
:100FDE00E6B4F0021157021146021146122895028C
:100FEE0011571225A102115712288502115790E6AA
:100FFE00B8E0247F601514601924027063A200E427
:10100E003325E0FFA202E4334F8041E490E740F045
:10101E00803F90E6BCE0547EFF7E00E0D394807C5F
:10102E000040047D0180027D00EC4EFEED4F24E871
:10103E00F58274283EF583E493FF3395E0FEEF24AA
:10104E00A1FFEE34E68F82F583E0540190E740F085
:10105E00E4A3F090E68AF090E68B7402F00211574A
:10106E0002114690E6B8E024FE60162402600302E8
:10107E00115790E6BAE0B40105C2000211570211F1
:10108E004690E6BAE0705590E6BCE0547EFF7E00D6
:10109E00E0D394807C0040047D0180027D00EC4E04
:1010AE00FEED4F24E8F58274283EF583E493FF337A
:1010BE0095E0FEEF24A1FFEE34E68F82F583E05437
:1010CE00FEF090E6BCE05480131313541FFFE0545F
:1010DE000F2F90E683F0E04420F0806D805A90E66A
:1010EE00B8E024FE60192402704E90E6BAE0B40116
:1010FE0004D200805490E6BAE06402604C803990CD
:10110E00E6BCE0547EFF7E00E0D394807C00400479
:10111E007D0180027D00EC4EFEED4F24E8F58274D9
:10112E00283EF583E493FF3395E0FEEF24A1FFEE16
:10113E0034E68F82F583800D90E6A08008120200BF
:10114E00500790E6A0E04401F090E6A0E04480F065
:01115E00226E
:0300330002290897
:0429080053D8EF327F
:101D000012010002000000402A15058400000102B3
:101D100003010A0600020000004001000902200041
:101D200001010080640904000002FF0000000705B3
:101D3000810240000107058602000200090220001E
:101D400001010080640904000002FF000000070593
:101D500081024000000705860240000004030904D8
:101D6000080349004E0049001A0343006F00630056
:101D700068006C006500610041004D0053003100B7
:0E1D800062000A033000300030003000000026
:1014680090E6007412F0E4F5A0F580F5B175B28B42
:1014780075B40F75B5FF75B6FF00000090E60174EE
:10148800A3F000000075A80053E8E3000000E49012
:10149800E671F000000090E670F000000090E6723F
:1014A800F090E610F000000090E61174A0F0000043
:1014B80000E490E612F000000090E613F00000004F
:1014C80090E61474E0F0000000E490E615F00000E7
:1014D8000090E60B7403F000000090E6047480F0BE
:1014E8000000007406F0000000E4F000000090E640
:1014F800247402F0000000E490E625F0000000905B
:10150800E61A7408F0000000E490E618F000000005
:1015180090E619F000000090E61BF000000090E64D
:101528000274E8F0000000E4F51CF51BF51AF51943
:10153800D287D2A0C2A1D2B4C2B51228FBD204D29B
:1015480088C2A8D28AC2AAE4F5C8F5CA75CBFFC278
:10155800AD43B12000000000000053B1DF000000DF
:0C15680090E6017423F0000000022782CE
:102745007819120AAC7BA07A8679017800D3120A2F
:0F2755000F500BB287E4F51CF51BF51AF519228E
:0C25FF007F0812260BE4FF12260BE4FFFD
:10260B007E08AD061EED6019D2A37801EF0880019C
:10261B0023D8FDFF30E004D2A28002C2A2C2A38065
:01262B00E1CD
:01262C00228B
:10287400C2B0C2B01225FF1225FFD2B00000D2A30D
:012884002231
:10283800C2B0C2B07F091226017F09122601D2B0A8
:052848000000D2A322F4
:10278200C2B07F0C12260B7F251226067F0C122662
:0D2792000B7F25122606D2B00000D2A32234
:102723007E08AD061EED60197801EF08800123D8FD
:10273300FDFF30E004D2A18002C2A1D2A0C2A080DA
:01274300E1B4
:012744002272
:101CCF008D2DC374089DF8EF08800123D8FDFFAE5A
:101CDF00051DEE60197801EF08800123D8FDFF3054
:0E1CEF00E004D2A18002C2A1D2A0C2A080E176
:011CFD0022C4
:1022F8007F03122659AA06A9077521018A22892374
:102308007A337B3A7D047FFC7E7F1221B7E4FF7429
:102318003A2FF582E43433F583E0FEAB21AA22A9F3
:102328002375F002EF900002120AFCEE1209310F39
:03233800BF04DC03
:01233B00227F
:05290300D283D2812205
:10242D00C281E490E61AF000000090E6A9E0700980
:10243D0090E6487406F000000090E6047480F00009
:10244D0000007406F0000000E4F000000090E61AB1
:07245D007408F000000022EA
:04221000AB07AA0668
:10221400E4F533AF02AE33053374CA2EF582E434E9
:1022240034F583EFF0AF03AE33053374CA2EF58271
:10223400E43434F583EFF0AF33053374CA2FF582F9
:10224400E43434F583EDF0E57370FC7A347BCAAD85
:0D225400337F501227D850F37F500223F53E
:0A2464008E2D8F2E8D2F8A308B31C4
:10246E00B287E4F532E532C3952F5020052EE52EC6
:10247E00AE2D7002052D14FFE5312532F582E435BF
:0C248E0030F583E0FD122210053280D9E9
:01249A00221F
:0A21B7008E2D8F2E8D2F8A308B3174
:1021C100E4FDE52DFF7E000DEE24CAF582E43434F2
:1021D100F583EFF00E0D74CA2EF582E43434F583E5
:1021E100E52EF07A347BCA7F501227D8E4FFEFC383
:1021F100952F5010E5312FF582E43530F58374CDFC
:0F220100F00F80EAAB31AA30AD2F7F500227BC1F
:04290C00C283D3228D
:04291000D283D32279
:1025A10090E680E030E71200000090E6247402F02B
:1025B100000000E490E6258010000000E490E6248D
:0F25C100F000000090E6257440F0000000D322E7
:10288500E490E740F090E68AF090E68B04F0D322DE
:10289500E490E740F090E68AF090E68B04F0D322CE
:1002000090E6B9E0120B210716A20716A3022FB33E
:100210000235B4043DB806CFB9043DBA0436BB0379
:100220004DC2023BC40263C506FBCB0000089A1214
:10023000290302089C12242D02089C000000E4906F
:10024000E61AF000000090E6047480F000000074EC
:1002500006F0000000E4F000000090E61A7408F0D8
:1002600002089C90E6B8E06440600302033F30045B
:100270000AF5A075B4BD12215DC20490E6BEE0751A
:100280002300F524A3E0FEEE4223D3E5249490E579
:10029000239401400675160A020337E4F521F5227E
:1002A0007B017A33793A1228DCE52445236071E436
:1002B00090E68AF090E68BF090E6A0E020E1F990DD
:1002C000E68BE0752500F526E4F527F528C3E5283B
:1002D0009526E5279525502D74402528F582E43490
:1002E000E7F583E0FFE5222528FDE5213527FC74AD
:1002F0003A2DF58274333CF583EFF00528E528703C
:10030000CC052780C8E5262522F522E5253521F5EF
:1003100021C3E5249526F524E5239525F523808939
:1003200090E6BAE07002800F121E1A8F16E516D3FF
:100330009400500302089C75B40DD20402089C90EE
:10034000E6B9E090E740F0A3E51602070890E6B9A9
:10035000E090E740F0E490E68AF090E68B04F090BD
:10036000E6A0E04480F090E6A0E020E1F97F0312EF
:100370002659AA06A9077529018A2A892B90E68B96
:10038000E0D394044008752300752404800990E6A6
:100390008BE0752300F524E4F527F528C3E52895BF
:1003A00024E52795235049E52824FCFFE527347FE1
:1003B000FE74402528F582E434E7F583E0FD12223F
:1003C0001074402528F582E434E7F583E0FDE52844
:1003D00025E0FFE527338F82F583A3A3AB29AA2A63
:1003E000A92BED1209310528E52870B0052780AC4E
:1003F000852327852428C3E5289404E52794005005
:1004000032E52824FCFFE527347FFE7D20122210F0
:10041000E52825E0FFE527338F82F583A3A3AB29E9
:10042000AA2AA92B74201209310528E52870C705CE
:100430002780C30206C4D280C28002089C0000004C
:1004400090E6BAE0752100F522A3E0FEEE4221A37A
:10045000E0FBA3E0FEEEFAA3E0752300F524A3E0A1
:10046000FEEE4223E522120B2104820106C20205A0
:10047000A303063F0405460504EE06053E070000FB
:1004800006C2E5B154F84404F5B185231785241854
:10049000E52445236055E490E68AF090E68BF00071
:1004A000000090E6A0E020E1F990E68BE0752500E1
:1004B000F526E4F527F528C3E5289526E5279525B3
:1004C000501A74402528F582E434E7F583E0FF12E2
:1004D00027230528E52870DF052780DBC3E5249561
:1004E00026F524E5239525F52380A50206B1E5240C
:1004F000640645236002D322E490E68AF090E68BFE
:10050000F000000090E6A0E020E1F9C2B0E4F52799
:10051000F52874402528F582E434E7F583E0FF12DE
:10052000260B0528E52870020527C39406E52794C5
:100530000040DFD2B00000D2A3B2870206C4122767
:1005400082B2870206C4E490E68AF090E68BF0005F
:09055000000090E6A0E020E1F9B2
:1005590090E740E013920590E6BCE0F52CA3E01487
:1005690060151460202402702AE52C30050442A08D
:100579008023F452A0801EE52C30050442B080157A
:10058900F452B08010E52C30050442B18007F452D2
:07059900B18002D322B287FA
:1005A0000206C4E490E68AF090E68BF0000000902A
:1005B000E6A0E020E1F9EB4A7071C2ADC2CAF527AE
:1005C0007528FFE5B120E722E5281528AE2770023F
:1005D0001527D39400EE94004010D2B10000000023
:1005E000000000000000C2B180D9E5284527700254
:1005F000D32290E740E0752500F526E4F527F5289D
:10060000C3E5289526E5279525502FD2B100000097
:10061000000000000000C2B1000000000000000067
:10062000000528E52870D9052780D590E740E0FF30
:10063000C374FF9FF5CAD2ADD2CAB2870206C4E521
:10064000B154F84402F5B190E6BBE0FF7D07121CFF
:10065000CFC2B4000000000000000000D2B4E5B139
:1006600054F84401F5B1AF037D05121CCFEBAE0287
:100670007805CEC313CE13D8F9FBAA06FF7D051269
:100680001CCFEAC313FAEB13FBC2B230E004D2B6BC
:100690008002C2B6C2B4000000000000000000D218
:1006A000B4EAC313EB13D2B230E004D2B68002C274
:1006B000B6C2B4000000000000000000D2B4B2874F
:1006C0008002D322E490E68AF090E68BF0C3229079
:1006D000E6BAE06004D2B58002C2B590E74074B9D2
:1006E000F0000000E490E68AF090E68B04F0000051
:1006F0000090E6A0E04480F002089C90E6B9E0900B
:10070000E740F0A2A1E433A3F0E490E68AF090E69B
:100710008B74020208AD90E6BAE0752100F522A3C1
:10072000E0FEEE422190E6BEE0752300F524A3E052
:10073000FEEE422390E6B8E064C06003020802E5E2
:10074000244523700302089890E6A0E020E1F9C355
:10075000E5249440E523940050088523258524262C
:10076000800675250075264090E6B9E0B4A335E40F
:10077000F527F528C3E5289526E5279525505EE55C
:10078000222528F582E5213527F583E0FF744025F1
:1007900028F582E434E7F583EFF00528E52870D4E6
:1007A000052780D0E4F527F528C3E5289526E52719
:1007B0009525501874402528F582E434E7F58374B4
:1007C000CDF00528E52870E1052780DDAD267AE724
:1007D00079407F40AB07AF22AE211221B7E490E60B
:1007E0008AF090E68BE526F02522F522E5253521D5
:1007F000F521C3E5249526F524E5239525F5230267
:10080000073F90E6B8E064406003020898E524459D
:10081000237003020898E490E68AF090E68BF0904B
:10082000E6A0E020E1F990E68BE0752500F5269042
:10083000E6B9E0B4A335E4F527F528C3E528952605
:10084000E5279525503674402528F582E434E7F5F0
:1008500083E0FFE5222528F582E5213527F583EFA2
:10086000F00528E52870D4052780D0AD267AE779F1
:10087000407F40AB07AF22AE21122464E52625223B
:10088000F522E5253521F521C3E5249526F524E556
:10089000239525F52302080DC322D32290E6B9E063
:1008A00090E740F0E490E68AF090E68B04F090E662
:0608B000A0E04480F0C34B
:0108B600221F
:1028A500C2AFC2CFD2B10000000000C2B1D2AF3278
:1027F400C0E0C083C082D2015391EF90E65D7401C2
:08280400F0D082D083D0E03255
:10280C00C0E0C083C0825391EF90E65D7404F0D0B9
:06281C0082D083D0E032FF
:10282200C0E0C083C0825391EF90E65D7402F0D0A5
:0628320082D083D0E032E9
:10249B00C0E0C083C08290E680E030E70E85080C78
:1024AB0085090D85100E85110F800C85100C85117B
:1024BB000D85080E85090F5391EF90E65D7410F0B2
:0724CB00D082D083D0E03283
:012914003290
:1024D200C0E0C083C08290E680E030E70E85080C41
:1024E20085090D85100E85110F800C85100C851144
:1024F2000D85080E85090F5391EF90E65D7420F06B
:07250200D082D083D0E0324B
:01291500328F
:01291600328E
:01291700328D
:01291800328C
:01291900328B
:01291A00328A
:01291B003289
:01291C003288
:01291D003287
:01291E003286
:01291F003285
:012920003284
:012921003283
:012922003282
:012923003281
:012924003280
:01292500327F
:01292600327E
:01292700327D
:01292800327C
:01292900327B
:01292A00327A
:01292B003279
:01292C003278
:01292D003277
:01292E003276
:01292F003275
:012930003274
:012931003273
:012932003272
:012933003271
:012934003270
:01293500326F
:01293600326E
:01293700326D
:01293800326C
:042261000274000003
:0D28C300ED4C7005EFF452A022EF42A02270
:0C28D000E4FDFC7F201228C30D0228C389
:1026D7008B458A468947AB76AA77A9780575E5754C
:1026E700AE747002057414F5828E831208D0AB4560
:0726F700AA46A94702091FD2
:0C28DC00E4F574F5758B768A7789782214
:0B18F500E5A05440C413135403FF226D
:04279F00AB07AA06D4
:1027A300900000C3E5829BEA6480F8E58364809827
:0827B30050061228D0A380EBB0
:0127BB0022FB
:1022650060483000FF28F2FF2684FF176CFF1839FD
:10227500FF253DFF284DFF284DFF28B5FF201FFFF7
:1022850019B8FF284DFF284DFF1BA9FF1BA9FF1BF0
:10229500A9FF1B07FF1B07FF1B07FF23BDFF209798
:0C22A500FF2097FF167CFF2861FF1A62E3
:10210100E412091F900001120931900002120AD84D
:1021110000000000900006E4F5F01209D590000BD4
:10212100E4120931900008E41209319000097401A8
:1021310012093190000A7401120931900010120A3B
:10214100D800000000900014E4F5F01209D59000C9
:0C2151000C120AD800000000E4FEFF227F
:0626AE00AF24E4FCFDFE78
:1026B4008F298E288D278C26E5292407FFE43528C9
:1026C400FEE43527FDE43526FCE47B08FAF9F8122C
:0326D400233C2282
:042764007F017E0073
:10276800AD07AC067F101228C3E4FDFC7F201228B9
:0A277800C37D017C007F200228C30E
:080CBE00AB40AA41A9427D01EF
:080CC6008B5A8A5B895C8D5D8D
:100CCE00E49034CAF0A3F0E55D704DF55EF55F0576
:100CDE005FE55F7002055EB4D0F5E55EB407F01215
:100CEE002764E4F55EF55FE4FDFC7F201228C37DEA
:100CFE00017C007F201228C3055FE55F7002055E50
:100D0E00C39405E55E6480948040DCAB5AAA5BA96F
:100D1E005CE412091F020F55AB5AAA5BA95C1208BC
:100D2E00B7FF655D601FE55DB40704EFB4060AE525
:100D3E005DB40E11EF640D600C9034CAE4F0A37430
:100D4E0005F0020F55E55DB5070EB40603020E3130
:100D5E00E55DB40D03020EEDAB5AAA5BA95C120859
:100D6E00B7FF655D7003020F55EF120B210DAF003B
:100D7E000DB2010DB5020DDB030DFF040E0D050EB8
:100D8E0031060E3F070E63080E87090E980A0EBC39
:100D9E000B0ECA0C0EED0D0EFA0E0F1C0F00000FEF
:100DAE003E020E68020E79E55DC39409400E1227CD
:100DBE0064AB5AAA5BA95C7409020F4FE4FFFE12E2
:100DCE002768AB5AAA5BA95C7403020F4FE55DB4AA
:100DDE000411E4FFFE122768AB5AAA5BA95C7404E7
:100DEE00020F4F122764AB5AAA5BA95C7405020F5F
:100DFE004F122764AB5AAA5BA95C7405020F4FE52C
:100E0E005DB40611E4FFFE122768AB5AAA5BA95C1B
:100E1E007406020F4F122764AB5AAA5BA95C7408C2
:100E2E00020F4F122764AB5AAA5BA95C7407020F1C
:100E3E004FE55DB40411E4FFFE122768AB5AAA5BBE
:100E4E00A95C7404020F4F122764AB5AAA5BA95C0B
:100E5E007408020F4FE55DB40111E4FFFE1227681E
:100E6E00AB5AAA5BA95C7401020F4F122764AB5AEE
:100E7E00AA5BA95C7402020F4FE4FFFE122768AB57
:100E8E005AAA5BA95C740A020F4FE55DB40B11E41C
:100E9E00FFFE122768AB5AAA5BA95C740B020F4FB8
:100EAE00122764AB5AAA5BA95C740C020F4F12276F
:100EBE0064AB5AAA5BA95C740C020F4FE55DB40DCE
:100ECE0011E4FFFE122768AB5AAA5BA95C740D02EF
:100EDE000F4F122764AB5AAA5BA95C740F80621283
:100EEE002764AB5AAA5BA95C740E8055E55DB40B02
:100EFE0010E4FFFE122768AB5AAA5BA95C740B8044
:100F0E0040122764AB5AAA5BA95C740F8033E55D6F
:100F1E00B40110E4FFFE122768AB5AAA5BA95C74F9
:100F2E0001801E122764AB5AAA5BA95C7402801161
:100F3E009034CAE4F0A37405F0AB5AAA5BA95CE541
:0F0F4E005D12091F020D669034CAE0FEA3E0FF9A
:010F5D002271
:0E1300008F5D8E5C8D5B8C5A8B5E8A5F896080
:10130E00756900756A00756B00E56245634561603D
:10131E003C120953FFAB61AA62A963E5F08FF0128C
:10132E0009B6AB61E5632402F9E43562FAC003C085
:10133E0002C001AB5EAA5FA960120953D001D002B0
:10134E00D00329F9EA35F08B69F56A896BAB5EE556
:10135E00602402F9E4355FFAC002C001AA5FA960F9
:10136E00120953D001D00229F9EA35F08B66F567E0
:10137E008968AF5DAE5CAD5BAC5AEC4D4E4F700301
:10138E00021467786674FFF5F0120B081208B79016
:10139E003345F0E4A3F0F56CF56DAF5DAE5CAD5B7F
:1013AE00AC5AEC4D4E4F7003021447C3E56D9408D2
:1013BE00E56C64809480400302144774FFFBFAF9D5
:1013CE00F8120A028F5D8E5C8D5B8C5AE565456462
:1013DE00600EEC4D4E4F70087D01FC7F101228C33D
:1013EE00903345E05401FD7C007F801228C390337A
:1013FE0045E0C313F0E4FDFC7F201228C3E56A45E7
:10140E006B456960201218F5903347EFF090334624
:10141E00E0FFAE6DA3E0FDA806088002C333D8FC42
:10142E004F903346F07D017C007F201228C3056D5E
:10143E00E56D7002056C0213A8E56A456B4569708F
:10144E0003021380903346E0FF786974FFF5F012C3
:09145E000B08EF12091F021380B4
:011467002262
:08115F008B408A4189428D4357
:10116700E490333EF0A3F0A3F0A3F0A3F0E54365CA
:10117700547E0060047F0180027F00903343EEF0CD
:10118700A3EFF0AF47AE46AD45AC44EC4D4E4F70C4
:101197001EAF58AE57AD56AC55EC4D4E4F700302CF
:1011A70012CC120CBEAE57AF5812279F0212CCAB0F
:1011B70040AA41A942AD43120CC6AF47AE46AD4562
:1011C700AC44854B61854C62854D63903343E0F5B4
:1011D70064A3E0F565AB48AA49A94A121300E54F95
:1011E7004550454E602D854B5D854C5E854D5F8531
:1011F7005160855261855362AB4EAA4FA950121EAA
:10120700A5EF4E70047F0180027F00903340E4F029
:10121700A3EFF0903343E07002A3E070030212B231
:10122700AB40AA41A94274011208FD903340E07017
:1012370002A3E06053AF58AE57AD56AC55EC4D4ED8
:101247004F6045903342E0C39559503CAB40AA41AB
:10125700A9427D06120CC6AB40AA41A9427D0412E1
:101267000CC6AF58AE57AD56AC557802120A25E5F5
:10127700582FFFE5573EFEE5563DFDE5553C8F5897
:101287008E578D56F555800BAB40AA41A942AD54F8
:10129700120CC6AF58AE57AD56AC55EC4D4E4F601D
:1012A7000A120CBEAE57AF5812279F903340E0701A
:1012B70002A3E06010903342E0FF04F0EFC39559BA
:1012C70050030211B6903340E07002A3E06021E5BD
:1012D700596014903342E0D39559400B90333EE464
:1012E700F0A37403F0800990333EE4F0A37402F096
:0812F70090333EE0FEA3E0FF8E
:0112FF0022CC
:101F25008B258A2689278F2B8E2A8D298C28AB2EE7
:101F3500AA2FA930AD2DAC2C122380E535453645A9
:101F450034600DAB34AA35A936AD2DAC2C122380E7
:101F5500852B47852A46852945852844852E48852C
:101F65002F4985304A85314B85324C85334D853433
:101F75004E85354F853650853751853852853953CD
:101F8500853A54853E58853D57853C56853B558554
:0E1F95003F59AB25AA26A9277D0412115F2211
:10284D00900006E475F0041209D590000612097E79
:04285D00FFAEF022B8
:0928F200740112091FE4FEFF222B
:102684008B218A228923E9243BF9EA3402FAC00225
:10269400C001AA22A92390001412097EFDACF0D037
:0A26A40001D002122380E4FEFF22A1
:06176C008B218A22892373
:101772007B007A0079241226D71226AED3EF94B4D6
:10178200EE648094804010AB21AA22A92390000627
:10179200E475F0060218261226AEAC06AD07AB21A0
:1017A200E5232416F9E43522FA122380AB21E5233E
:1017B2002408F9E43522FAC003C002C001E48524FA
:1017C20047F546F545F544E5232416F9E435228B21
:1017D20048F549894A754B00754C00754D00754EA8
:1017E20000754F0075500075510075520075530019
:1017F200AA22A9239000091208D0F55490000C12D5
:101802000A4C8F588E578D568C55E4F559D001D01D
:1018120002D0037D0B12115FAB21AA22A9239000F3
:1018220006EE8FF01209D5AB21AA22A92390000659
:0618320012097EFFAEF07A
:01183800228D
:06167C008B218A22892364
:10168200E92416F9E43AFA7D027C00122380AB21A8
:10169200E5232416F9E43522FA121FA390333A12F5
:1016A2000ACC90333A120AA01226B4D3EF94B4EEC5
:1016B20064809480400975240075250602175090B5
:1016C200333A120AA01226B4AC06AD07AB21E523C9
:1016D2002416F9E43522FA122380AB21E5232408EB
:1016E200F9E43522FAC003C002C00190333A120A6B
:1016F200A08F478E468D458C44E5232416F9E435A8
:10170200228B48F549894A754B00754C00754D008E
:10171200754E00754F007550007551007552007579
:101722005300AA22A9239000091208D0F554900070
:101732000C120A4C8F588E578D568C55E4F559D0A1
:1017420001D002D0037D0B12115F8E248F25E52577
:1017520045246011AB21AA22A923900006E5248525
:0917620025F01209D5AE24AF25D3
:01176B00225B
:061839008B218A228923A5
:10183F00E92416F9E43AFAC002C001AA22A92390BA
:10184F00001412097EFDACF0D001D002122380AB40
:10185F0021E5232408F9E43522FAC003C002C001B0
:10186F00AA22A923900010120A4C8F478E468D454D
:10187F008C44E92416F9E43A8B48F549894AE52363
:10188F002484F9EA34018B4BF54C894DE52324CDA3
:10189F00F9E43A8B4EF54F8950E523243BF9EA34AE
:1018AF00028B51F5528953A92390000A1208D0F5E3
:1018BF005490000C120A4C8F588E578D568C5590A1
:1018CF00000B1208D0F559D001D002D0037D0412BD
:1018DF00115FEF4E600FAB21AA22A923900006EEF5
:0518EF008FF01209D585
:0118F40022D1
:10253D008B218A228923E92416F9E43AFA7D047C59
:10254D0000122380AB21E5232416F9E43522FA127B
:10255D001FA3AB21AA22A92390000C120A7CE4FE32
:02256D00FF224B
:0E28B500E9240BF9E43AFA1226D7E4FEFF22DA
:06201F008B218A228923B7
:10202500E4F524F525E92416F9E43AFA7D047C0063
:10203500122380AB21E5232416F9E43522FA121F79
:10204500A3AB21AA22A923900010120A7C900010AC
:10205500120A4C1226B4AB21AA22A923900014EE31
:102065008FF01209D590001412097ED394B4E5F0CF
:10207500648094804017752400752506AB21AA223B
:10208500A923900006E5248525F01209D5AE24AFD5
:012095002525
:012096002227
:0619B8008B218A22892325
:1019BE00E92408F9E43AFAC003C002C001AA22A938
:1019CE0023900010120A4CC004C005C006C0079038
:1019DE00001412097EF52D85F02CE92416F9E43A4F
:1019EE008B2EF52F8930E5232484F9EA34018B31CF
:1019FE00F5328933E52324CDF9E43A8B34F5358974
:101A0E0036E523243BF9EA34028B37F5388939A9B8
:101A1E002390000A1208D0F53A90000C120A4C8F4F
:101A2E003E8E3D8D3C8C3B90000B1208D0F53FD086
:101A3E0007D006D005D004D001D002D003121F2546
:101A4E00EF4E600FAB21AA22A923900006EE8FF075
:031A5E001209D595
:011A61002262
:061BA9008B218A22892332
:101BAF009000011208D0B40E0990000A1208D0FF5D
:101BBF0080027F048F24AB21E5232408F9E435222A
:101BCF00FAC003C002C001AA22A923900010120A72
:101BDF004C90001412097EF52D85F02CE92416F98E
:101BEF00E43A8B2EF52F893075310075320075333D
:101BFF00007534007535007536007537007538007F
:101C0F0075390085243AE4F53EF53DF53CF53BF595
:101C1F003FD001D002D003121F25AB21AA22A92346
:101C2F00900006EE8FF01209D590000612097EFF84
:021C3F00AEF005
:011C41002280
:061B07008B218A228923D4
:101B0D009000011208D0B4110990000A1208D0FFFC
:101B1D0080027F048F24AB21E5232408F9E43522CC
:101B2D00FAC003C002C001AA22A923900010120A14
:101B3D004C90001412097EF52D85F02CE92416F930
:101B4D00E43A8B2EF52F8930E5232484F9EA34010C
:101B5D008B31F5328933E52324CDF9E43A8B34F515
:101B6D0035893675370075380075390085243AE4A6
:101B7D00F53EF53DF53CF53BF53FD001D002D003E8
:101B8D00121F25AB21AA22A923900006EE8FF01279
:0B1B9D0009D590000612097EFFAEF093
:011BA800221A
:0623BD008B218A22892316
:1023C3007B007A0079241226D7AB21E5232408F970
:1023D300E43522FAAD24120CC6AB21AA22A923901C
:1023E3000006EE8FF01209D590000612097EFFAEAB
:0123F300F0F9
:0123F40022C6
:062097008B218A2289233F
:10209D00E4F524F525FB7A0079261226D7E526608E
:1020AD000C64016008752400752505802BAB21AAF1
:1020BD0022A9239000011208D0B4130DE52690003B
:1020CD00097002800B740D800CE52690000A7003D8
:1020DD000480027406120931E52545246011AB21F7
:1020ED00AA22A923900006E5248525F01209D5AE74
:0320FD0024AF25E8
:0121000022BC
:061A62008B218A2289237A
:101A6800E92416F9E43AFA7D017C00122380AB21BF
:101A7800AA22A9239000181208D0F524E92416F9FF
:101A8800E43AFA7D017C00122380AB21AA22A92323
:101A98009000181208D0F525E92416F9E43AFA7DE1
:101AA800047C00122380AB21E5232416F9E43522B7
:101AB800FA121FA390333A120ACCAB21AA22A92307
:101AC8009000081208D06524600CE92408F9E43A6B
:101AD800FAAD24120CC690333A120AA012279FAB13
:101AE80021AA22A9239000081208D06525600CE9D4
:0E1AF8002408F9E43AFAAD25120CC6E4FEFF0C
:011B060022BC
:10286100900006E4F5F01209D590000612097EFFEA
:03287100AEF022A4
:10215D00751D01751E30751F48AB1DAA1EA91F12D6
:10216D002101AB1DAA1EA91F900006EE8FF01209CA
:10217D00D590000612097E45F0701FAB1DE51F249A
:10218D0008F9E4351EFAE4FD120CC6AB1DAA1EA912
:10219D001F900006EE8FF01209D5AB1DAA1EA91FC8
:0A21AD0090000612097EFFAEF0223A
:101E1A00AB1DAA1EA91F90000612097E45F0706B21
:101E2A001208B77066E92401F9E43AFA1226D7AB28
:101E3A001DAA1EA91F900002120A4CE47B01FAF99E
:101E4A00F8120A02AB1DAA1EA91F900002120A7CF0
:101E5A009000011208D0FFC39418AB1DAA1EA91F37
:101E6A005026C003C002C001EF75F003A42400F598
:101E7A0082E43430F583120B1889828A83D001D028
:101E8A0002D003120B4B800312284DAB1DAA1EA9C8
:0B1E9A001F90000612097EFFAEF02230
:061FA3008B268A27892825
:101FA900E4F52CF52BF52AF529F52DF52EAB26AA06
:101FB90027A928120953FFC3E52E9FE5F06480F88D
:101FC900E52D6480985046AF2CAE2BAD2AAC29780C
:101FD90008120A398F2C8E2B8D2A8C29E92402F9B3
:101FE900E43AFAE9252EF9EA352DFA1208B7FFE5A0
:101FF9002C4FFFE52BFEE52AFDE5298F2C8E2B8D35
:102009002AF529052EE52E70A4052D80A0AF2CAE4A
:052019002BAD2AAC29EB
:01201E00229F
:061EA5008B5A8A5B895C88
:101EAB00756300756401120953FFAEF0E564456379
:101EBB006063EF1FAC0670011E4C6059AB5AE55CBA
:101ECB002402F9E4355BFAE92FF9EA3EFA1208B776
:101EDB00F565AB5DE55F2402F9E4355EFAE92FF9B0
:101EEB00EA3EFA1208B7F566E5614562456060188F
:101EFB00AB60E5622402F9E43561FAE92FF9EA3EB9
:101F0B00FA1208B752655266E5656566609EE4F5A0
:091F1B0063F5648097AE63AF64C6
:011F2400229A
:042380008C408D41BF
:10238400E5408541F01209B6E92402F9E43A8B42AA
:10239400F5438944E5414540601EAB42AA43A94444
:1023A4001226D7E54115417002154074012544F504
:0823B40044E43543F54380DCED
:0123BC0022FE
:10262D0090E682E030E004E020E60B90E682E030B8
:10263D00E119E030E71590E680E04401F07F147E6B
:0C264D00001222B290E680E054FEF02261
:1025D00030050990E680E0440AF0800790E680E04C
:1025E0004408F07FDC7E051222B290E65D74FFF0B5
:0F25F00090E65FF05391EF90E680E054F7F02211
:0828FB00E4F573D2E9D2AF222B
:1023F500AD0790E678E020E6F9C2E990E678E0449A
:1024050080F0ED25E090E679F090E678E030E0F9AF
:1024150090E678E04440F090E678E020E6F990E632
:0824250078E030E1D6D2E92293
:10256F00AC0790E678E020E6F9E573702390E67803
:10257F00E04480F0EC25E090E679F08D6EAF03A992
:10258F0007756F018A708971E4F572757301D32233
:02259F00C32255
:10250900AC0790E678E020E6F9E573702590E67867
:10251900E04480F0EC25E0440190E679F08D6EAF5F
:1025290003A907756F018A708971E4F572757303E0
:04253900D322C322C4
:03004B0002157427
:10157400C0E0C083C082C085C084C086758600C0B8
:10158400D075D000C000C001C002C003C006C007AF
:1015940090E678E030E20675730602165E90E6780F
:1015A400E020E10CE5736402600675730702165EC1
:1015B400E57324FE605F14603624FE700302164F48
:1015C40024FC700302165B2408600302165EAB6FF2
:1015D400AA70A971AF7205728F827583001208D048
:1015E40090E679F0E572656E7070757305806B90A6
:1015F400E679E0AB6FAA70A971AE728E8275830032
:10160400120931757302E56E6401704E90E678E05C
:101614004420F08045E56E24FEB5720790E678E03C
:101624004420F0E56E14B5720A90E678E04440F088
:1016340075730090E679E0AB6FAA70A971AE728EF3
:10164400827583001209310572800F90E678E044B8
:1016540040F075730080037573005391DFD007D099
:1016640006D003D002D001D000D0D0D086D084D010
:0816740085D082D083D0E03262
:02265900A907CF
:10265B00AE14AF158F828E83A3E064037017AD01A8
:10266B0019ED7001228F828E83E07C002FFDEC3EF2
:08267B00FEAF0580DFE4FEFF65
:012683002234
:1027BC00122509E57324FA600E146006240770F3E1
:0C27CC00D322E4F573D322E4F573D3228A
:1027D80012256FE57324FA600E146006240770F35F
:0C27E800D322E4F573D322E4F573D3226E
:1026FE0090E682E044C0F090E681F043870100004E
:04270E0000000022A5
:1022B2008E218F2290E600E054187012E52224014C
:1022C200FFE43521C313F521EF13F522801590E6C3
:1022D20000E05418FFBF100BE52225E0F522E521AE
:1022E20033F521E5221522AE21700215214E60053B
:0622F20012271280EE220B
:102712007400F58690FDA57C05A3E582458370F9DA
:012722002294
:030043000219009F
:030053000219008F
:101900000227F4000228220002280C0002291400F9
:1019100002249B000224D20002291500022916008D
:1019200002291700022918000229190002291A00A9
:1019300002291B0002291C0002291D0002291E0089
:1019400002291F0002291600022920000229210075
:10195000022922000229230002292400022925004D
:101960000229260002291600022916000229160063
:1019700002292700022928000229290002292A0019
:1019800002292B0002292C0002292D0002292E00F9
:1019900002292F00022930000229310002293200D9
:1019A00002293300022934000229350002293600B9
:0819B00002293700022938006A
:03002B000228A503
:03000000021D8E50
:0C1D8E00787FE4F6D8FD758178021DD541
:1008B700BB010689828A83E0225002E722BBFE023F
:0908C700E32289828A83E4932272
:1008D000BB010CE58229F582E5833AF583E02250DD
:1008E00006E92582F8E622BBFE06E92582F8E22227
:0D08F000E58229F582E5833AF583E4932241
:1008FD00BB010989828A83F8E028F022500327F78B
:10090D0022BBFE05F8E328F3228A838982F8E4935B
:02091D0028228E
:10091F00BB010689828A83F0225002F722BBFE01B7
:02092F00F322B1
:10093100F8BB010DE58229F582E5833AF583E8F0FC
:10094100225006E92582C8F622BBFE05E92582C8A8
:02095100F22290
:10095300BB010A89828A83E0F5F0A3E0225006876F
:10096300F009E71922BBFE07E3F5F009E319228931
:0B097300828A83E493F5F07401932264
:10097E00BB0110E58229F582E5833AF583E0F5F0B7
:10098E00A3E0225009E92582F886F008E622BBFE94
:10099E000AE92582F8E2F5F008E222E5832AF583DA
:0809AE00E993F5F0A3E993229F
:1009B600BB010A89828A83F0E5F0A3F0225006F78C
:0F09C60009A7F01922BBFE06F3E5F009F3192289
:1009D500F8BB0111E58229F582E5833AF583E8F054
:1009E500E5F0A3F0225009E92582C8F608A6F02211
:0D09F500BBFE09E92582C8F2E5F008F222F8
:0D0A0200EF2BFFEE3AFEED39FDEC38FC2243
:10233C00C2D5E830E70FB2D5E4C39BFBE49AFAE4CC
:10234C0099F9E498F8EC30E717B2D5122372120B16
:10235C0089E4C39BFBE49AFAE499F9E498F88003C6
:10236C00120B8930D50DE4C39FFFE49EFEE49DFD66
:04237C00E49CFC22BF
:100A0F00EB9FF5F0EA9E42F0E99D42F0EC6480C85E
:060A1F0064809845F022FE
:100A2500E86010ECA2E713FCED13FDEE13FEEF13E7
:040A3500FFD8F022D4
:100A3900E8600FEFC333FFEE33FEED33FDEC33FC1B
:030A4900D8F122BF
:100A4C00BB010DE58229F582E5833AF583020AA004
:100A5C005007E92582F8020C1BBBFE07E92582F83A
:100A6C00020C27E58229F582E5833AF583020C33E3
:100A7C00BB010DE58229F582E5833AF583020ACCA8
:100A8C005007E92582F8020C43BBFE07E92582F8E2
:040A9C00020C4F22D7
:0C0AA000E0FCA3E0FDA3E0FEA3E0FF22C9
:100AAC007401FF3395E0FEFDFC080808E6CF2FF635
:100ABC0018E6CE3EF618E6CD3DF618E6CC3CF6220E
:0C0ACC00ECF0A3EDF0A3EEF0A3EFF0229D
:100AD800BB010DE58229F582E5833AF583020C74A2
:100AE8005007E92582F8020C5BBBFE07E92582F86E
:040AF800020CA52225
:0C0AFC00A42582F582E5F03583F5832205
:100B0800FAE6FB0808E625F0F9F618E63AFAF622BE
:090B1800E0FBA3E0FAA3E0F922DE
:100B2100D083D082F8E4937012740193700DA3A363
:100B310093F8740193F5828883E473740293686077
:060B4100EFA3A3A380DF77
:060B47008A838982E47339
:101D9A00021C42E493A3F8E493A34003F68001F201
:101DAA0008DFF48029E493A3F85407240CC8C3334A
:101DBA00C4540F4420C8834004F456800146F6DF19
:101DCA00E4800B0102040810204080902261E47E26
:101DDA00019360BCA3FF543F30E509541FFEE4930E
:101DEA00A360010ECF54C025E060A840B8E493A3D5
:101DFA00FAE493A3F8E493A3C8C582C8CAC583CA00
:101E0A00F0A3C8C582C8CAC583CADFE9DEE780BEB7
:0122B100002C
:100B4D0075F008758200EF2FFFEE33FECD33CDCC5F
:100B5D0033CCC58233C5829BED9AEC99E5829840E2
:100B6D000CF582EE9BFEED9AFDEC99FC0FD5F0D6BF
:100B7D00E4CEFBE4CDFAE4CCF9A88222B800C1B9E9
:100B8D000059BA002DEC8BF084CFCECDFCE5F0CB27
:100B9D00F97818EF2FFFEE33FEED33FDEC33FCEB60
:100BAD0033FB10D703994004EB99FB0FD8E5E4F91B
:100BBD00FA227818EF2FFFEE33FEED33FDEC33FC08
:100BCD00C933C910D7059BE99A4007EC9BFCE99AFC
:100BDD00F90FD8E0E4C9FAE4CCFB2275F010EF2F41
:100BED00FFEE33FEED33FDCC33CCC833C810D70741
:100BFD009BEC9AE899400AED9BFDEC9AFCE899F87C
:0E0C0D000FD5F0DAE4CDFBE4CCFAE4C8F9220E
:0C0C1B00E6FC08E6FD08E6FE08E6FF2205
:0C0C2700E2FC08E2FD08E2FE08E2FF2209
:100C3300E493FC740193FD740293FE740393FF2207
:0C0C4300ECF608EDF608EEF608EFF622DD
:0C0C4F00ECF208EDF208EEF208EFF222E1
:100C5B00D083D082E493F608740193F60874029360
:090C6B00F608740393F674047397
:100C7400A8828583F0D083D082120C8B120C8B1245
:100C84000C8B120C8BE473E493A3C583C5F0C5836A
:100C9400C8C582C8F0A3C583C5F0C583C8C582C8CA
:010CA400222D
:100CA500D083D082E493F208740193F2087402931E
:090CB500F208740393F274047355
:00000001FF
