:0A1AF60000010202030304040505C9
:101A9800C200C202C2011215A5C2AF750A1B750B9E
:101AA8000075121B75131275081B75091C75101B20
:101AB80075114375141B75156AD2E890E668E04401
:101AC80009F090E65CE04435F0D2AF90E680E02083
:101AD800E105D20412236690E680E054F7F0538EB5
:0E1AE800F812243A3001FA120DDCC20180F32C
:0225BD00D32227
:100DDC0090E6B9E012099F0E74000EE9010F64034E
:100DEC000DFF060E6E080FCF090E680A0FCF0B0011
:100DFC00000FC390E6BBE024FE602714603824FD8E
:100E0C00601114602724067050E50A90E6B3F0E5F3
:100E1C000B803C1225BD503EE51290E6B3F0E51375
:100E2C00802DE50C90E6B3F0E50D8023E50E90E601
:100E3C00B3F0E50F801990E6BAE0FF122395AA06ED
:100E4C00A9077B01EA494B600DEE90E6B3F0EF90F9
:100E5C00E6B4F0020FCF020FBE020FBE12255702EE
:100E6C000FCF122547020FCF90E6B8E0247F601514
:100E7C0014601924027063A200E43325E0FFA2027F
:100E8C00E4334F8041E490E740F0803F90E6BCE0D3
:100E9C00547EFF7E00E0D394807C0040047D018072
:100EAC00027D00EC4EFEED4F24F6F582741A3EF5F1
:100EBC0083E493FF3395E0FEEF24A1FFEE34E68F3D
:100ECC0082F583E0540190E740F0E4A3F090E68AC9
:100EDC00F090E68B7402F0020FCF020FBE90E6B8D2
:100EEC00E024FE601624026003020FCF90E6BAE005
:100EFC00B40105C200020FCF020FBE90E6BAE0703B
:100F0C005590E6BCE0547EFF7E00E0D394807C00DC
:100F1C0040047D0180027D00EC4EFEED4F24F6F581
:100F2C0082741A3EF583E493FF3395E0FEEF24A11F
:100F3C00FFEE34E68F82F583E054FEF090E6BCE0E1
:100F4C005480131313541FFFE0540F2F90E683F0BB
:100F5C00E04420F0806D805A90E6B8E024FE6019E1
:100F6C002402704E90E6BAE0B40104D20080549092
:100F7C00E6BAE06402604C803990E6BCE0547EFF37
:100F8C007E00E0D394807C0040047D0180027D00D3
:100F9C00EC4EFEED4F24F6F582741A3EF583E49385
:100FAC00FF3395E0FEEF24A1FFEE34E68F82F5834C
:100FBC00800D90E6A08008120200500790E6A0E099
:0A0FCC004401F090E6A0E04480F03C
:010FD60022F8
:030033000225B6ED
:0425B60053D8EF32D5
:101B00001201000200000040470501870820010281
:101B100000010A060002000000400100090227003F
:101B200001010080960904000003FF000000070582
:101B3000810240000007050202000200070586023C
:101B4000000200090227000101008096090400003C
:101B500003FF0000000705810240000007050202A4
:101B60004000000705860240000004030904080342
:101B700049004E00490018035200650074006900D6
:101B80006E00610042006F0061007200640000009E
:1023660030040990E680E0440AF0800790E680E0B9
:102376004408F07FDC7E051220AB90E65D74FFF02A
:0F23860090E65FF05391EF90E680E054F7F0227D
:02239500A90796
:10239700AE14AF158F828E83A3E064037017AD016F
:1023A70019ED7001228F828E83E07C002FFDEC3EB9
:0823B700FEAF0580DFE4FEFF2C
:0123BF0022FB
:1020AB008E218F2290E600E054187012E522240155
:1020BB00FFE43521C313F521EF13F522801590E6CC
:1020CB0000E05418FFBF100BE52225E0F522E521B7
:1020DB0033F521E5221522AE21700215214E600544
:0620EB0012253680EE22F2
:102536007400F58690FDA57C05A3E582458370F9B8
:012546002272
:03004300021800A0
:0300530002180090
:101800000224CB000224F9000224E3000225BF00D9
:1018100002225D00022294000225C0000225C100C0
:101820000225C2000225C3000225C4000225C5000E
:101830000225C6000225C7000225C8000225C900EE
:101840000225CA000225C1000225CB000225CC00DA
:101850000225CD000225CE000225CF000225D000B2
:101860000225D1000225C1000225C1000225C100C8
:101870000225D2000225D3000225D4000225D5007E
:101880000225D6000225D7000225D8000225D9005E
:101890000225DA000225DB000225DC000225DD003E
:1018A0000225DE000225DF000225E0000225E1001E
:0818B0000225E2000225E3001D
:102063007E0874E755B1F9740845B1FA74EF5AFA6A
:10207300741045B1FB74F75BFB741845B1FCEF3387
:10208300FF401089B1000000008BB10000000089FF
:10209300B1800E8AB1000000008CB1000000008AFC
:0820A300B100000000DED722AD
:1015A50090E6007412F090E6017423F075A80053DC
:1015B500E8E3E490E610F000000090E61174A0F076
:1015C500000000E490E612F000000090E613F00041
:1015D500000090E61474E0F0000000E490E615F0D9
:1015E50000000090E60B7403F090E62414F0E490FC
:1015F500E625F000000090E61A7409F0000000905E
:10160500E60274E8F0000000E490E671F0000000E6
:1016150090E670F000000090E672F0F5A0F580F518
:10162500B175B40D75B6FE75B288F51BF51FF51EBF
:10163500F51DF51C74FFF519F518F517F516C28794
:1016450043B11053B1F743B10253B1FB1225AEAF0D
:10165500B1EF4420F5B1F5B1D203D288D2A8D28A30
:03166500D2AA22E4
:10243A00781C120936E47B507AC3F9F8D31208865D
:0E244A00500BB287E4F51FF51EF51DF51C22A0
:0325BA00D28322A7
:1021B500C28390E61A7401F000000090E6A9E07071
:1021C5000990E6487406F000000090E6047480F07B
:1021D5000000007406F0000000E4F000000090E646
:0821E5001A7409F00000002249
:04213500AA06AC0545
:10213900E4FD7E000DEE24CAF582E4342CF583EA31
:10214900F00E0D74CA2EF582E4342CF583EFF00DF0
:1021590074CA2402F582E4342CF583ECF0D2877A30
:0F2169002C7BCA7F511224AFC2877F51022225DF
:0A22CB008E298F2A8D2B8A2C8B2D73
:1022D500E4F52EE52EC3952B5020052AE52AAE29D7
:1022E5007002052914FFE52D252EF582E4352CF520
:0A22F50083E0FD122135052E80D98B
:0122FF0022BC
:0A1FB9008E298F2A8D2B8A2C8B2D88
:101FC300E4FDE529FF7E000DEE24CAF582E4342CFE
:101FD300F583EFF00E0D74CA2EF582E4342CF583ED
:101FE300E52AF07A2C7BCA7F511224AFE4FFEFC3BA
:101FF300952B5010E52D2FF582E4352CF58374CD08
:0F200300F00F80EAAB2DAA2CAD2B7F5102249356
:10254700E490E740F090E68AF090E68B04F0D3221F
:10255700E490E740F090E68AF090E68B04F0D3220F
:1002000090E6B9E012099F058DA2058DA30238B3CF
:10021000023EB4035EB80433B9035EBA0357BB04AD
:100220005EBC047ABD04A6C30244C4026DC5050BBE
:10023000CB0526CC000007111225BA0207131221A4
:10024000B502071300000090E61A7401F0000000E8
:1002500090E6047480F00000007406F0000000E4F2
:10026000F000000090E61A7409F002071390E6B857
:10027000E06440600302034930030AF5A075B4BD91
:10028000121F5FC20390E6BEE0752300F524A3E0D1
:10029000FEEE4223D3E5249490E5239401400675B5
:1002A0001A0A020341E4F521F5227B017A2B793AFF
:1002B00012258EE52445236071E490E68AF090E6ED
:1002C0008BF090E6A0E020E1F990E68BE075250048
:1002D000F526E4F527F528C3E5289526E527952595
:1002E000502D74402528F582E434E7F583E0FFE5DE
:1002F000222528FDE5213527FC743A2DF582742B43
:100300003CF583EFF00528E52870CC052780C8E58B
:10031000262522F522E5253521F521C3E52495265C
:10032000F524E5239525F523808990E6BAE070024F
:10033000800F121C1C8F1AE51AD394005003020779
:100340001375B40DD20302071390E6B9E090E740AD
:10035000F0A3E51A020518D2A0C2A00207130000FC
:100360000090E6BAE0752100F522A3E0FEEE4221FE
:1003700090E6BEE0752300F524A3E0FEEE42239054
:100380002DCCE523F0A3E524F0E5244523700302FA
:100390000412E490E68AF090E68BF090E6A0E0206C
:1003A000E1F990E68BE0752500F52690E6B9E0646A
:1003B000B87043F527F528C3E5289526E527952548
:1003C000503474402528F582E434E7F583E0FF12C9
:1003D0002063AF2874402FF582E434E7F583E0FE14
:1003E00074CD2FF582E4342CF583EEF00528E52852
:1003F00070C5052780C1E5262522F522E525352192
:10040000F521C3E5249526F524E5239525F523025A
:10041000038990E6B9E0B4B80F53B1FD00000000C5
:10042000000000000043B102E490E68AF090E68B01
:10043000F0C32290E6BAE0600543B104800353B1F3
:10044000FB90E74074B9F0000000E490E68AF09079
:10045000E68B04F090E6A0E04480F002071390E6FB
:10046000BAE0AFB130E005EF44208003EF54DFF590
:10047000B1F5B190E74074BC8025AFB1EF54DFF522
:10048000B1F5B10000000000000000000000000015
:1004900000AFB1EF4420F5B1F5B190E74074BDF085
:1004A00000000002071B90E6B8E0B4C016A3E0907D
:1004B000E740F0A3E51BF0E490E68AF090E68B7449
:1004C00002803E90E6BAE0F51B7006C2A3C2A2808D
:1004D0001FE51BB40106D2A2C2A38014E51BB4021F
:1004E00006C2A2D2A38009E51BB40304D2A2D2A300
:1004F00090E6B9E090E740F0E490E68AF090E68B71
:1005000004F090E6A0E04480F0C32290E6B9E090C9
:10051000E740F0A2A1E433A3F0E490E68AF090E68D
:100520008B7402020724C2AA90E6B9E090E740F07B
:10053000AC16E4FFFEFDE516781812089C90E7441F
:10054000EFF0E4FFFEE517FDE4FC78101208AF9031
:10055000E743EFF0E4FFE518FEE4FDFC780812083D
:10056000AF90E742EFF0E519FF90E741EFF0E4903C
:10057000E68AF090E68B7405F090E6A0E04480F007
:10058000E4F519F518F517F516D2AAC32290E6BAC4
:10059000E0752100F522A3E0FEEE422190E6BEE0E8
:1005A000752300F524A3E0FEEE422390E6B8E06454
:1005B000C06003020679E5244523700302070F900B
:1005C000E6A0E020E1F9C3E5249440E5239400503F
:1005D00008852325852426800675250075264090EC
:1005E000E6B9E0B4A335E4F527F528C3E528952658
:1005F000E5279525505EE5222528F582E52135275A
:10060000F583E0FF74402528F582E434E7F583EFB5
:10061000F00528E52870D4052780D0E4F527F528D3
:10062000C3E5289526E5279525501874402528F51B
:1006300082E434E7F58374CDF00528E52870E10500
:100640002780DDAD267AE779407F40AB07AF22AE49
:1006500021121FB9E490E68AF090E68BE526F0259A
:1006600022F522E5253521F521C3E5249526F5243B
:10067000E5239525F5230205B690E6B8E0644060D1
:100680000302070FE5244523700302070FE490E6F9
:100690008AF090E68BF090E6A0E020E1F990E68BFE
:1006A000E0752500F52690E6B9E0B4A335E4F5271A
:1006B000F528C3E5289526E527952550367440256D
:1006C00028F582E434E7F583E0FFE5222528F5826A
:1006D000E5213527F583EFF00528E52870D40527B7
:1006E00080D0AD267AE779407F40AB07AF22AE21BC
:1006F0001222CBE5262522F522E5253521F521C359
:10070000E5249526F524E5239525F523020684C3E3
:1007100022D32290E6B9E090E740F0E490E68AF038
:0D07200090E68B04F090E6A0E04480F0C36A
:01072D0022A9
:1024CB00C0E0C083C082D2015391EF90E65D7401EE
:0824DB00F0D082D083D0E03282
:1024E300C0E0C083C0825391EF90E65D7404F0D0E6
:0624F30082D083D0E0322C
:1024F900C0E0C083C0825391EF90E65D7402F0D0D2
:0625090082D083D0E03215
:10225D00C0E0C083C08290E680E030E70E85080CB8
:10226D0085090D85100E85110F800C85100C8511BB
:10227D000D85080E85090F5391EF90E65D7410F0F2
:07228D00D082D083D0E032C3
:0125BF0032E9
:10229400C0E0C083C08290E680E030E70E85080C81
:1022A40085090D85100E85110F800C85100C851184
:1022B4000D85080E85090F5391EF90E65D7420F0AB
:0722C400D082D083D0E0328C
:0125C00032E8
:0125C10032E7
:0125C20032E6
:0125C30032E5
:0125C40032E4
:0125C50032E3
:0125C60032E2
:0125C70032E1
:0125C80032E0
:0125C90032DF
:0125CA0032DE
:0125CB0032DD
:0125CC0032DC
:0125CD0032DB
:0125CE0032DA
:0125CF0032D9
:0125D00032D8
:0125D10032D7
:0125D20032D6
:0125D30032D5
:0125D40032D4
:0125D50032D3
:0125D60032D2
:0125D70032D1
:0125D80032D0
:0125D90032CF
:0125DA0032CE
:0125DB0032CD
:0125DC0032CC
:0125DD0032CB
:0125DE0032CA
:0125DF0032C9
:0125E00032C8
:0125E10032C7
:0125E20032C6
:0125E30032C5
:042012000274000054
:0D257500ED4C7005EFF452A022EF42A022C1
:0C258200E4FDFC7F201225750D0225757C
:102413008B458A468947AB76AA77A9780575E57512
:10242300AE747002057414F5828E83120747AB45B0
:07243300AA46A94702079623
:0C258E00E4F574F5758B768A7789782265
:0B259A00E5A05440C413135403FF22BB
:04247600AB07AA0600
:10247A00900000C3E5829BEA6480F8E58364809853
:08248A005006122582A380EB2D
:012492002227
:1020160060482800FF25A5FF23C0FF14D8FF1668D7
:10202600FF17CEFF250FFF250FFF2567FF1E21FF98
:102036001724FF250FFF250FFF19FFFF19FFFF19B3
:10204600FFFF195DFF195DFF195DFF21EDFF1E9969
:0C205600FF1E99FF13E8FF2523FF18B8B8
:101F0300E41207969000011207A8900002120962DA
:101F130000000000900006E4F5F012084C90000B5E
:101F2300E41207A8900008E41207A89000097401BE
:101F33001207A890000A74011207A8900010120952
:101F43006200000000900014E4F5F012084C9000C9
:0C1F53000C12096200000000E4FEFF22F6
:0623EA00AF24E4FCFDFE3F
:1023F0008F298E288D278C26E5292407FFE4352890
:10240000FEE43527FDE43526FCE47B08FAF9F812F2
:0324100020F12296
:042458007F017E0082
:10245C00AD07AC067F10122575E4FDFC7F2012251C
:0A246C00757D017C007F20022575BC
:080B3C00AB40AA41A9427D0172
:080B44008B5A8A5B895C8D5D10
:100B4C00E4902CCAF0A3F0E55D704DF55EF55F0501
:100B5C005FE55F7002055EB4D0F5E55EB407F01298
:100B6C002458E4F55EF55FE4FDFC7F201225757DCD
:100B7C00017C007F20122575055FE55F7002055E24
:100B8C00C39405E55E6480948040DCAB5AAA5BA9F3
:100B9C005CE4120796020DD3AB5AAA5BA95C120750
:100BAC002EFF655D601FE55DB40704EFB4060AE532
:100BBC005DB40E11EF640D600C902CCAE4F0A374BC
:100BCC0005F0020DD3E55DB5070EB40603020CAFBC
:100BDC00E55DB40D03020D6BAB5AAA5BA95C120761
:100BEC002EFF655D7003020DD3EF12099F0C2D00D3
:100BFC000C30010C33020C59030C7D040C8B050CCE
:100C0C00AF060CBD070CE1080D05090D160A0D3ACF
:100C1C000B0D480C0D6B0D0D780E0D9A0F00000D81
:100C2C00BC020CE6020CF7E55DC39409400E1224DD
:100C3C0058AB5AAA5BA95C7409020DCDE4FFFE12F5
:100C4C00245CAB5AAA5BA95C7403020DCDE55DB4C0
:100C5C000411E4FFFE12245CAB5AAA5BA95C740479
:100C6C00020DCD122458AB5AAA5BA95C7405020D77
:100C7C00CD122458AB5AAA5BA95C7405020DCDE5C4
:100C8C005DB40611E4FFFE12245CAB5AAA5BA95CAE
:100C9C007406020DCD122458AB5AAA5BA95C7408D9
:100CAC00020DCD122458AB5AAA5BA95C7407020D35
:100CBC00CDE55DB40411E4FFFE12245CAB5AAA5BD3
:100CCC00A95C7404020DCD122458AB5AAA5BA95C22
:100CDC007408020DCDE55DB40111E4FFFE12245C35
:100CEC00AB5AAA5BA95C7401020DCD122458AB5A05
:100CFC00AA5BA95C7402020DCDE4FFFE12245CAB6E
:100D0C005AAA5BA95C740A020DCDE55DB40B11E423
:100D1C00FFFE12245CAB5AAA5BA95C740B020DCDCE
:100D2C00122458AB5AAA5BA95C740C020DCD122488
:100D3C0058AB5AAA5BA95C740C020DCDE55DB40DE1
:100D4C0011E4FFFE12245CAB5AAA5BA95C740D0281
:100D5C000DCD122458AB5AAA5BA95C740F80621299
:100D6C002458AB5AAA5BA95C740E8055E55DB40B94
:100D7C0010E4FFFE12245CAB5AAA5BA95C740B80D6
:100D8C0040122458AB5AAA5BA95C740F8033E55D02
:100D9C00B40110E4FFFE12245CAB5AAA5BA95C748C
:100DAC0001801E122458AB5AAA5BA95C74028011F4
:100DBC00902CCAE4F0A37405F0AB5AAA5BA95CE5CD
:0F0DCC005D120796020BE4902CCAE0FEA3E0FF35
:010DDB0022F5
:0E1178008F5D8E5C8D5B8C5A8B5E8A5F89600A
:10118600756900756A00756B00E5624563456160C7
:101196003C1207CAFFAB61AA62A963E5F08FF012A1
:1011A600082DAB61E5632402F9E43562FAC003C099
:1011B60002C001AB5EAA5FA9601207CAD001D002C5
:1011C600D00329F9EA35F08B69F56A896BAB5EE5E0
:1011D600602402F9E4355FFAC002C001AA5FA96083
:1011E6001207CAD001D00229F9EA35F08B66F567F5
:1011F6008968AF5DAE5CAD5BAC5AEC4D4E4F70038B
:101206000212DF786674FFF5F012098612072E9037
:101216002B45F0E4A3F0F56CF56DAF5DAE5CAD5B10
:10122600AC5AEC4D4E4F70030212BFC3E56D9408E5
:10123600E56C6480948040030212BF74FFFBFAF9E8
:10124600F81208798F5D8E5C8D5B8C5AE565456476
:10125600600EEC4D4E4F70087D01FC7F1012257517
:10126600902B45E05401FD7C007F80122575902B64
:1012760045E0C313F0E4FDFC7F20122575E56A45C1
:101286006B4569602012259A902B47EFF0902B460C
:10129600E0FFAE6DA3E0FDA806088002C333D8FCCC
:1012A6004F902B46F07D017C007F20122575056D41
:1012B600E56D7002056C021220E56A456B456970A2
:1012C600030211F8902B46E0FF786974FFF5F012DF
:0912D6000986EF1207960211F8D7
:0112DF0022EC
:080FD7008B408A4189428D43E1
:100FDF00E4902B3EF0A3F0A3F0A3F0A3F0E543655C
:100FEF00547E0060047F0180027F00902B43EEF05F
:100FFF00A3EFF0AF47AE46AD45AC44EC4D4E4F704E
:10100F001EAF58AE57AD56AC55EC4D4E4F70030258
:10101F001144120B3CAE57AF58122476021144AB59
:10102F0040AA41A942AD43120B44AF47AE46AD456E
:10103F00AC44854B61854C62854D63902B43E0F545
:10104F0064A3E0F565AB48AA49A94A121178E54FA8
:10105F004550454E602D854B5D854C5E854D5F85BA
:10106F005160855261855362AB4EAA4FA950121C35
:10107F00A7EF4E70047F0180027F00902B40E4F0B9
:10108F00A3EFF0902B43E07002A3E0700302112A4C
:10109F00AB40AA41A9427401120774902B40E07033
:1010AF0002A3E06053AF58AE57AD56AC55EC4D4E62
:1010BF004F6045902B42E0C39559503CAB40AA413D
:1010CF00A9427D06120B44AB40AA41A9427D0412EE
:1010DF000B44AF58AE57AD56AC5578021208AFE57A
:1010EF00582FFFE5573EFEE5563DFDE5553C8F5821
:1010FF008E578D56F555800BAB40AA41A942AD5482
:10110F00120B44AF58AE57AD56AC55EC4D4E4F6029
:10111F000A120B3CAE57AF58122476902B40E0705A
:10112F0002A3E06010902B42E0FF04F0EFC395594B
:10113F00500302102E902B40E07002A3E06021E5D7
:10114F00596014902B42E0D39559400B902B3EE4FD
:10115F00F0A37403F08009902B3EE4F0A37402F027
:08116F00902B3EE0FEA3E0FF1F
:011177002255
:101D27008B258A2689278F2B8E2A8D298C28AB2EE7
:101D3700AA2FA930AD2DAC2C122178E535453645B3
:101D470034600DAB34AA35A936AD2DAC2C122178F1
:101D5700852B47852A46852945852844852E48852C
:101D67002F4985304A85314B85324C85334D853433
:101D77004E85354F853650853751853852853953CD
:101D8700853A54853E58853D57853C56853B558554
:0E1D97003F59AB25AA26A9277D04120FD7229B
:10250F00900006E475F00412084C9000061207F5CF
:04251F00FFAEF022F9
:0925A5007401120796E4FEFF2206
:1023C0008B218A228923E9243BF9EA3402FAC002EC
:1023D000C001AA22A9239000141207F5FDACF0D089
:0A23E00001D002122178E4FEFF2272
:0614D8008B218A2289230A
:1014DE007B007A0079241224131223EAD3EF94B4FA
:1014EE00EE648094804010AB21AA22A923900006BE
:1014FE00E475F0060215921223EAAC06AD07AB2195
:10150E00E5232416F9E43522FA122178AB21E523DE
:10151E002408F9E43522FAC003C002C001E4852490
:10152E0047F546F545F544E5232416F9E435228BB7
:10153E0048F549894A754B00754C00754D00754E3E
:10154E0000754F00755000755100755200755300AF
:10155E00AA22A923900009120747F55490000C12F5
:10156E0008D68F588E578D568C55E4F559D001D02C
:10157E0002D0037D0B120FD7AB21AA22A923900014
:10158E0006EE8FF012084CAB21AA22A9239000067A
:06159E001207F5FFAEF09C
:0115A4002224
:0613E8008B218A228923FB
:1013EE00E92416F9E43AFA7D027C00122178AB2149
:1013FE00E5232416F9E43522FA121DA5902B3A1294
:10140E000956902B3A12092A1223F0D3EF94B4EE18
:10141E006480948040097524007525060214BC90E2
:10142E002B3A12092A1223F0AC06AD07AB21E523A5
:10143E002416F9E43522FA122178AB21E52324088B
:10144E00F9E43522FAC003C002C001902B3A12090A
:10145E002A8F478E468D458C44E5232416F9E435B4
:10146E00228B48F549894A754B00754C00754D0025
:10147E00754E00754F007550007551007552007510
:10148E005300AA22A923900009120747F554900091
:10149E000C1208D68F588E578D568C55E4F559D0B0
:1014AE0001D002D0037D0B120FD78E248F25E52598
:1014BE0045246011AB21AA22A923900006E52485BC
:0914CE0025F012084CAE24AF25F4
:0114D70022F2
:061668008B218A22892378
:10166E00E92416F9E43AFAC002C001AA22A923908D
:10167E0000141207F5FDACF0D001D002122178ABA8
:10168E0021E5232408F9E43522FAC003C002C00183
:10169E00AA22A9239000101208D68F478E468D4598
:1016AE008C44E92416F9E43A8B48F549894AE52336
:1016BE002484F9EA34018B4BF54C894DE52324CD76
:1016CE00F9E43A8B4EF54F8950E523243BF9EA3481
:1016DE00028B51F5528953A92390000A120747F540
:1016EE005490000C1208D68F588E578D568C5590EC
:1016FE00000B120747F559D001D002D0037D04121A
:10170E000FD7EF4E600FAB21AA22A923900006EE51
:05171E008FF012084CE1
:0117230022A3
:1017CE008B218A228923E92416F9E43AFA7D047CD6
:1017DE0000122178AB21E5232416F9E43522FA1202
:1017EE001DA5AB21AA22A92390000C120906E4FE26
:0217FE00FF22C8
:0E256700E9240BF9E43AFA122413E4FEFF22F1
:061E21008B218A228923B7
:101E2700E4F524F525E92416F9E43AFA7D047C0063
:101E3700122178AB21E5232416F9E43522FA121D85
:101E4700A5AB21AA22A92390001012090690001021
:101E57001208D61223F0AB21AA22A923900014EE70
:101E67008FF012084C9000141207F5D394B4E5F0E4
:101E7700648094804017752400752506AB21AA223B
:101E8700A923900006E5248525F012084CAE24AF5F
:011E97002525
:011E98002227
:061724008B218A228923BB
:10172A00E92408F9E43AFAC003C002C001AA22A9CE
:10173A00239000101208D6C004C005C006C0079046
:10174A0000141207F5F52D85F02CE92416F9E43A70
:10175A008B2EF52F8930E5232484F9EA34018B3165
:10176A00F5328933E52324CDF9E43A8B34F535890A
:10177A0036E523243BF9EA34028B37F5388939A94F
:10178A002390000A120747F53A90000C1208D68FE8
:10179A003E8E3D8D3C8C3B90000B120747F53FD0A7
:1017AA0007D006D005D004D001D002D003121D27DD
:1017BA00EF4E600FAB21AA22A923900006EE8FF00C
:0317CA0012084CB6
:0117CD0022F9
:0619FF008B218A228923DE
:101A0500900001120747B40E0990000A120747FF1C
:101A150080027F048F24AB21E5232408F9E43522D5
:101A2500FAC003C002C001AA22A92390001012081F
:101A3500D69000141207F5F52D85F02CE92416F93A
:101A4500E43A8B2EF52F89307531007532007533E8
:101A5500007534007535007536007537007538002A
:101A650075390085243AE4F53EF53DF53CF53BF541
:101A75003FD001D002D003121D27AB21AA22A923F2
:101A8500900006EE8FF012084C9000061207F5FF45
:021A9500AEF0B1
:011A9700222C
:06195D008B218A22892380
:10196300900001120747B4110990000A120747FFBC
:1019730080027F048F24AB21E5232408F9E4352278
:10198300FAC003C002C001AA22A9239000101208C2
:10199300D69000141207F5F52D85F02CE92416F9DD
:1019A300E43A8B2EF52F8930E5232484F9EA3401B8
:1019B3008B31F5328933E52324CDF9E43A8B34F5C1
:1019C30035893675370075380075390085243AE452
:1019D300F53EF53DF53CF53BF53FD001D002D00394
:1019E300121D27AB21AA22A923900006EE8FF01225
:0B19F300084C9000061207F5FFAEF054
:0119FE0022C6
:0621ED008B218A228923E8
:1021F3007B007A007924122413AB21E5232408F908
:10220300E43522FAAD24120B44AB21AA22A9239070
:102213000006EE8FF012084C9000061207F5FFAE91
:01222300F0CA
:012224002297
:061E99008B218A2289233F
:101E9F00E4F524F525FB7A007926122413E5266054
:101EAF000C64016008752400752505802BAB21AAF1
:101EBF0022A923900001120747B4130DE5269000C5
:101ECF00097002800B740D800CE52690000A7003D8
:101EDF0004800274061207A8E52545246011AB2182
:101EEF00AA22A923900006E5248525F012084CAEFE
:031EFF0024AF25E8
:011F020022BC
:0618B8008B218A22892326
:1018BE00E92416F9E43AFA7D017C00122178AB2175
:1018CE00AA22A923900018120747F524E92416F935
:1018DE00E43AFA7D017C00122178AB21AA22A923D9
:1018EE00900018120747F525E92416F9E43AFA7D17
:1018FE00047C00122178AB21E5232416F9E435226D
:10190E00FA121DA5902B3A120956AB21AA22A92331
:10191E009000081207476524600CE92408F9E43AA0
:10192E00FAAD24120B44902B3A12092A122476ABEC
:10193E0021AA22A9239000081207476525600CE909
:0E194E002408F9E43AFAAD25120B44E4FEFF3A
:01195C002268
:10252300900006E4F5F012084C9000061207F5FF40
:03253300AEF022E5
:101F5F00757901757A28757B48AB79AA7AA97B12B6
:101F6F001F03AB79AA7AA97B900006EE8FF01208B7
:101F7F004C9000061207F545F0701FAB79E57B24F6
:101F8F0008F9E4357AFAE4FD120B44AB79AA7AA981
:101F9F007B900006EE8FF012084CAB79AA7AA97BE2
:0A1FAF009000061207F5FFAEF022C5
:101C1C00AB79AA7AA97B9000061207F545F0706B98
:101C2C0012072E7066E92401F9E43AFA122413AB78
:101C3C0079AA7AA97B9000021208D6E47B01FAF902
:101C4C00F8120879AB79AA7AA97B900002120906DE
:101C5C00900001120747FFC39418AB79AA7AA97BAD
:101C6C005026C003C002C001EF75F003A42400F598
:101C7C0082E43428F58312099689828A83D001D0B4
:101C8C0002D0031209C9800312250FAB79AA7AA9D5
:0B1C9C007B9000061207F5FFAEF0225F
:061DA5008B268A27892825
:101DAB00E4F52CF52BF52AF529F52DF52EAB26AA06
:101DBB0027A9281207CAFFC3E52E9FE5F06480F818
:101DCB00E52D6480985046AF2CAE2BAD2AAC29780C
:101DDB00081208C38F2C8E2B8D2A8C29E92402F92B
:101DEB00E43AFAE9252EF9EA352DFA12072EFFE52A
:101DFB002C4FFFE52BFEE52AFDE5298F2C8E2B8D35
:101E0B002AF529052EE52E70A4052D80A0AF2CAE4A
:051E1B002BAD2AAC29EB
:011E2000229F
:061CA7008B5A8A5B895C88
:101CAD007563007564011207CAFFAEF0E564456304
:101CBD006063EF1FAC0670011E4C6059AB5AE55CBA
:101CCD002402F9E4355BFAE92FF9EA3EFA12072E00
:101CDD00F565AB5DE55F2402F9E4355EFAE92FF9B0
:101CED00EA3EFA12072EF566E56145624560601819
:101CFD00AB60E5622402F9E43561FAE92FF9EA3EB9
:101D0D00FA12072E52655266E5656566609EE4F52A
:091D1D0063F5648097AE63AF64C6
:011D2600229A
:042178008C408D41C9
:10217C00E5408541F012082DE92402F9E43A8B423E
:10218C00F5438944E5414540601EAB42AA43A9444E
:10219C00122413E54115417002154074012544F5D4
:0821AC0044E43543F54380DCF7
:0121B4002208
:0825AE00E4F573D2E9D2AF227B
:10222500AD0790E678E020E6F9C2E990E678E0446B
:1022350080F0ED25E090E679F090E678E030E0F981
:1022450090E678E04440F090E678E020E6F990E604
:0822550078E030E1D6D2E92265
:10233400AC0790E678E020E6F9E573702390E67840
:10234400E04480F0EC25E090E679F08D6EAF03A9CF
:1023540007756F018A708971E4F572757301D32270
:02236400C32292
:10230000AC0790E678E020E6F9E573702590E67872
:10231000E04480F0EC25E0440190E679F08D6EAF6A
:1023200003A907756F018A708971E4F572757303EB
:04233000D322C322CF
:03004B000212E0BE
:1012E000C0E0C083C082C085C084C086758600C04F
:1012F000D075D000C000C001C002C003C006C00746
:1013000090E678E030E2067573060213CA90E6783C
:10131000E020E10CE573640260067573070213CAEE
:10132000E57324FE605F14603624FE70030213BB75
:1013300024FC70030213C7240860030213CAAB6FB6
:10134000AA70A971AF7205728F8275830012074768
:1013500090E679F0E572656E7070757305806B903C
:10136000E679E0AB6FAA70A971AE728E82758300C8
:101370001207A8757302E56E6401704E90E678E07E
:101380004420F08045E56E24FEB5720790E678E0D3
:101390004420F0E56E14B5720A90E678E04440F01F
:1013A00075730090E679E0AB6FAA70A971AE728E8A
:1013B000827583001207A80572800F90E678E044DA
:1013C00040F075730080037573005391DFD007D030
:1013D00006D003D002D001D000D0D0D086D084D0A7
:0813E00085D082D083D0E032F9
:10249300122300E57324FA600E146006240770F318
:0C24A300D322E4F573D322E4F573D322B6
:1024AF00122334E57324FA600E146006240770F3C8
:0C24BF00D322E4F573D322E4F573D3229A
:03000000021B9050
:0C1B9000787FE4F6D8FD75817B021BD73E
:10072E00BB010689828A83E0225002E722BBFE02C9
:09073E00E32289828A83E49322FC
:10074700BB010CE58229F582E5833AF583E0225067
:1007570006E92582F8E622BBFE06E92582F8E222B1
:0D076700E58229F582E5833AF583E49322CB
:10077400BB010989828A83F8E028F022500327F715
:1007840022BBFE05F8E328F3228A838982F8E493E6
:02079400282219
:10079600BB010689828A83F0225002F722BBFE0142
:0207A600F3223C
:1007A800F8BB010DE58229F582E5833AF583E8F087
:1007B800225006E92582C8F622BBFE05E92582C833
:0207C800F2221B
:1007CA00BB010A89828A83E0F5F0A3E022500687FA
:1007DA00F009E71922BBFE07E3F5F009E3192289BC
:0B07EA00828A83E493F5F074019322EF
:1007F500BB0110E58229F582E5833AF583E0F5F042
:10080500A3E0225009E92582F886F008E622BBFE1E
:100815000AE92582F8E2F5F008E222E5832AF58364
:08082500E993F5F0A3E9932229
:10082D00BB010A89828A83F0E5F0A3F0225006F716
:0F083D0009A7F01922BBFE06F3E5F009F3192213
:10084C00F8BB0111E58229F582E5833AF583E8F0DE
:10085C00E5F0A3F0225009E92582C8F608A6F0229B
:0D086C00BBFE09E92582C8F2E5F008F22282
:0D087900EF2BFFEE3AFEED39FDEC38FC22CE
:1020F100C2D5E830E70FB2D5E4C39BFBE49AFAE41A
:1021010099F9E498F8EC30E717B2D5122127120AB1
:1021110007E4C39BFBE49AFAE499F9E498F8800395
:10212100120A0730D50DE4C39FFFE49EFEE49DFD36
:04213100E49CFC220C
:10088600EB9FF5F0EA9E42F0E99D42F0EC6480C8E9
:0608960064809845F02289
:10089C00E8600FECC313FCED13FDEE13FEEF13FF3A
:0308AC00D8F1225E
:1008AF00E86010ECA2E713FCED13FDEE13FEEF135F
:0408BF00FFD8F0224C
:1008C300E8600FEFC333FFEE33FEED33FDEC33FC93
:0308D300D8F12237
:1008D600BB010DE58229F582E5833AF58302092AF3
:1008E6005007E92582F8020A99BBFE07E92582F836
:1008F600020AA5E58229F582E5833AF583020AB163
:10090600BB010DE58229F582E5833AF58302095696
:100916005007E92582F8020AC1BBFE07E92582F8DD
:04092600020ACD22D2
:0C092A00E0FCA3E0FDA3E0FEA3E0FF2240
:100936007401FF3395E0FEFDFC080808E6CF2FF6AC
:1009460018E6CE3EF618E6CD3DF618E6CC3CF62285
:0C095600ECF0A3EDF0A3EEF0A3EFF02214
:10096200BB010DE58229F582E5833AF583020AF29D
:100972005007E92582F8020AD9BBFE07E92582F869
:04098200020B23221F
:10098600FAE6FB0808E625F0F9F618E63AFAF62242
:09099600E0FBA3E0FAA3E0F92262
:10099F00D083D082F8E4937012740193700DA3A3E7
:1009AF0093F8740193F5828883E4737402936860FB
:0609BF00EFA3A3A380DFFB
:0609C5008A838982E473BD
:101B9C00021A98E493A3F8E493A34003F68001F2AD
:101BAC0008DFF48029E493A3F85407240CC8C3334A
:101BBC00C4540F4420C8834004F456800146F6DF19
:101BCC00E4800B0102040810204080902012E47E77
:101BDC00019360BCA3FF543F30E509541FFEE4930E
:101BEC00A360010ECF54C025E060A840B8E493A3D5
:101BFC00FAE493A3F8E493A3C8C582C8CAC583CA00
:101C0C00F0A3C8C582C8CAC583CADFE9DEE780BEB7
:01206200007D
:1009CB0075F008758200EF2FFFEE33FECD33CDCCE3
:1009DB0033CCC58233C5829BED9AEC99E582984066
:1009EB000CF582EE9BFEED9AFDEC99FC0FD5F0D643
:1009FB00E4CEFBE4CDFAE4CCF9A88222B800C1B96D
:100A0B000059BA002DEC8BF084CFCECDFCE5F0CBAA
:100A1B00F97818EF2FFFEE33FEED33FDEC33FCEBE3
:100A2B0033FB10D703994004EB99FB0FD8E5E4F99E
:100A3B00FA227818EF2FFFEE33FEED33FDEC33FC8B
:100A4B00C933C910D7059BE99A4007EC9BFCE99A7F
:100A5B00F90FD8E0E4C9FAE4CCFB2275F010EF2FC4
:100A6B00FFEE33FEED33FDCC33CCC833C810D707C4
:100A7B009BEC9AE899400AED9BFDEC9AFCE899F8FF
:0E0A8B000FD5F0DAE4CDFBE4CCFAE4C8F92292
:0C0A9900E6FC08E6FD08E6FE08E6FF2289
:0C0AA500E2FC08E2FD08E2FE08E2FF228D
:100AB100E493FC740193FD740293FE740393FF228B
:0C0AC100ECF608EDF608EEF608EFF62261
:0C0ACD00ECF208EDF208EEF208EFF22265
:100AD900D083D082E493F608740193F608740293E4
:090AE900F608740393F67404731B
:100AF200A8828583F0D083D082120B09120B0912CF
:100B02000B09120B09E473E493A3C583C5F0C583F3
:100B1200C8C582C8F0A3C583C5F0C583C8C582C84D
:010B220022B0
:100B2300D083D082E493F208740193F208740293A1
:090B3300F208740393F2740473D8
:00000001FF
