:0A273B000001020203030404050577
:101B9800C200C202C2011215D0C2AF750A1C750B71
:101BA8000075121C75131275081C75091C75101C1C
:101BB80075114375141C75156AD2E890E668E044FF
:101BC80009F090E65CE04435F0D2AF90E680E02082
:101BD800E105D20412250A90E680E054F7F0538E0E
:101BE800F812221F1225DE3001FA120ED4C201802B
:011BF800F3F9
:02275600D3228C
:100ED40090E6B9E0120A970F6C000FE101105C0371
:100EE4000EF7060F660810C7090F600A10C70B003B
:100EF4000010BB90E6BBE024FE602714603824FD9C
:100F0400601114602724067050E50A90E6B3F0E5FA
:100F14000B803C122756503EE51290E6B3F0E513E1
:100F2400802DE50C90E6B3F0E50D8023E50E90E608
:100F3400B3F0E50F801990E6BAE0FF122539AA064E
:100F4400A9077B01EA494B600DEE90E6B3F0EF9000
:100F5400E6B4F00210C70210B60210B61226FB0265
:100F640010C71226EB0210C790E6B8E0247F601584
:100F740014601924027063A200E43325E0FFA20286
:100F8400E4334F8041E490E740F0803F90E6BCE0DA
:100F9400547EFF7E00E0D394807C0040047D018079
:100FA400027D00EC4EFEED4F243BF58274273EF5A6
:100FB40083E493FF3395E0FEEF24A1FFEE34E68F44
:100FC40082F583E0540190E740F0E4A3F090E68AD0
:100FD400F090E68B7402F00210C70210B690E6B8E7
:100FE400E024FE6016240260030210C790E6BAE013
:100FF400B40105C2000210C70210B690E6BAE07050
:101004005590E6BCE0547EFF7E00E0D394807C00E3
:1010140040047D0180027D00EC4EFEED4F243BF543
:101024008274273EF583E493FF3395E0FEEF24A119
:10103400FFEE34E68F82F583E054FEF090E6BCE0E8
:101044005480131313541FFFE0540F2F90E683F0C2
:10105400E04420F0806D805A90E6B8E024FE6019E8
:101064002402704E90E6BAE0B40104D20080549099
:10107400E6BAE06402604C803990E6BCE0547EFF3E
:101084007E00E0D394807C0040047D0180027D00DA
:10109400EC4EFEED4F243BF58274273EF583E4933A
:1010A400FF3395E0FEEF24A1FFEE34E68F82F58353
:1010B400800D90E6A08008120200500790E6A0E0A0
:0A10C4004401F090E6A0E04480F043
:0110CE0022FF
:03003300021BF9B4
:041BF90053D8EF329C
:101C000012010002000000402A15008400000102B9
:101C100003010A060002000000400100090227003B
:101C200001010080960904000003FF000000070581
:101C3000810240000007050202000200070586023B
:101C4000000200090227000101008096090400003B
:101C500003FF0000000705810240000007050202A3
:101C60004000000705860240000004030904080341
:101C700049004E004900140344005600530031004F
:101C8000320038002D00560031000A0330003000C9
:061C9000300030000000EE
:10250A0030040990E680E0440AF0800790E680E013
:10251A004408F07FDC7E051221D990E65D74FFF055
:0F252A0090E65FF05391EF90E680E054F7F022D7
:02253900A907F0
:10253B00AE14AF158F828E83A3E064037017AD01C9
:10254B0019ED7001228F828E83E07C002FFDEC3E13
:08255B00FEAF0580DFE4FEFF86
:012563002255
:1021D9008E218F2290E600E054187012E522240126
:1021E900FFE43521C313F521EF13F522801590E69D
:1021F90000E05418FFBF100BE52225E0F522E52188
:1022090033F521E5221522AE21700215214E600514
:062219001226DA80EE221D
:1026DA007400F58690FDA57C05A3E582458370F913
:0126EA0022CD
:030043000219009F
:030053000219008F
:1019000002266F0002269D00022687000218FF00B3
:101910000223CF00022406000227580002275900A4
:1019200002275A0002275B0002275C0002275D00A5
:1019300002275E0002275F00022760000227610085
:101940000227620002275900022763000227640071
:101950000227650002276600022767000227680049
:10196000022769000227590002275900022759005F
:1019700002276A0002276B0002276C0002276D0015
:1019800002276E0002276F000227700002277100F5
:1019900002277200022773000227740002277500D5
:1019A00002277600022777000227780002277900B5
:0819B00002277A0002277B00E8
:102191007E0874E755B1F9740845B1FA74EF5AFA3B
:1021A100741045B1FB74F75BFB741845B1FCEF3358
:1021B100FF401089B1000000008BB10000000089D0
:1021C100B1800E8AB1000000008CB1000000008ACD
:0821D100B100000000DED7227E
:101F270060242CCD00042B00301CFFFFFF5523D469
:101F370000009706864A000000FFFFFF04853D006A
:081F47000E2800002700000431
:1015D00090E6007412F090E6017423F075A80053B1
:1015E000E8E3E490E610F000000090E61174A0F04B
:1015F000000000E490E612F000000090E613F00016
:10160000000090E61474E0F0000000E490E615F0AD
:1016100000000090E60B7403F090E62414F0E490D0
:10162000E625F000000090E61A7409F00000009032
:10163000E60274E8F0000000E490E671F0000000BB
:1016400090E670F000000090E672F0F5A0F580F5ED
:10165000B175B40D75B6FE75B288F51BF51FF51E94
:10166000F51DF51C74FFF519F518F517F516C28769
:1016700043B11053B1F743B10253B1FB12274EAF40
:10168000B1EF4420F5B1F5B1D203D288D2A8D28A05
:10169000D2AAE4F52174CD2521F582E4342CF5831A
:1016A000E0FF1221910521E521C3942440E753B1C5
:0D16B000FD00000000000000000043B1023A
:0116BD00220A
:1025DE00781C120A22E47B507AC3F9F8D3120972DE
:0E25EE00500BB287E4F51FF51EF51DF51C22FB
:10221F007F03122539AA06A9077521018A2289236E
:10222F007A2B7B3A7D047FFC7E7F122138E4FF748A
:10223F003A2FF582E4342BF583E0FEAB21AA22A9D5
:10224F002375F002EF900002120A72EE1208940F3B
:03225F00BF04DCDD
:012262002259
:031BFD00D283226E
:10232700C28390E61A7401F000000090E6A9E070FD
:102337000990E6487406F000000090E6047480F007
:102347000000007406F0000000E4F000000090E6D2
:082357001A7409F000000022D5
:0422A700AA06AC05D2
:1022AB00E4FD7E000DEE24CAF582E4342CF583EABE
:1022BB00F00E0D74CA2EF582E4342CF583EFF00D7D
:1022CB0074CA2402F582E4342CF583ECF0D2877ABD
:0F22DB002C7BCA7F51122653C2877F5102239753
:0A243D008E2C8F2D8D2E8A2F8B30F0
:10244700E4F531E531C3952E5020052DE52DAE2C51
:102457007002052C14FFE5302531F582E4352FF5A0
:0A24670083E0FD1222A7053180D9A1
:012471002248
:0A2138008E2C8F2D8D2E8A2F8B30F8
:10214200E4FDE52CFF7E000DEE24CAF582E4342C7A
:10215200F583EFF00E0D74CA2EF582E4342CF5836C
:10216200E52DF07A2C7BCA7F51122653E4FFEFC390
:10217200952E5010E5302FF582E4352FF58374CD7E
:0F218200F00F80EAAB30AA2FAD2E7F5102263727
:1026EB00E490E740F090E68AF090E68B04F0D3227A
:1026FB00E490E740F090E68AF090E68B04F0D3226A
:1002000090E6B9E0120A970679A20679A3023BB3F9
:100210000241B4044AB8051FB9044ABA0443BB05F5
:100220004ABC0566BD035AC20592C30247C40270A8
:10023000C505F7CB0612CC000007FD121BFD020717
:10024000FF1223270207FF00000090E61A7401F056
:1002500000000090E6047480F00000007406F000D6
:100260000000E4F000000090E61A7409F00207FFB5
:1002700090E6B8E06440600302034C30030AF5A046
:1002800075B4BD1220DEC20390E6BEE0752300F512
:1002900024A3E0FEEE4223D3E5249490E5239401C9
:1002A0004006751A0A020344E4F521F5227B017A1F
:1002B0002B793A122724E52445236071E490E68ADD
:1002C000F090E68BF090E6A0E020E1F990E68BE07C
:1002D000752500F526E4F527F528C3E5289526E5DC
:1002E000279525502D74402528F582E434E7F583C1
:1002F000E0FFE5222528FDE5213527FC743A2DF5A0
:1003000082742B3CF583EFF00528E52870CC052797
:1003100080C8E5262522F522E5253521F521C3E50E
:10032000249526F524E5239525F523808990E6BAC2
:10033000E07002800F121D228F1AE51AD39400502C
:10034000030207FF75B40DD2030207FF90E6B9E080
:1003500090E740F0A3E51A02060490E6B9E090E7C2
:1003600040F0E490E68AF090E68B04F090E6A0E09E
:100370004480F090E6A0E020E1F97F03122539AA3D
:1003800006A9077529018A2A892B90E68BE0D39468
:10039000044008752300752404800990E68BE075FD
:1003A0002300F524E4F527F528C3E5289524E5275F
:1003B00095235049E52824FCFFE527347FFE74404F
:1003C0002528F582E434E7F583E0FD1222A7744086
:1003D0002528F582E434E7F583E0FDE52825E0FFF4
:1003E000E527338F82F583A3A3AB29AA2AA92BED96
:1003F0001208940528E52870B0052780AC852327CE
:10040000852428C3E5289404E52794005032E52884
:1004100024FCFFE527347FFE7D201222A7E5282556
:10042000E0FFE527338F82F583A3A3AB29AA2AA98E
:100430002B74201208940528E52870C7052780C36F
:10044000020514D2A0C2A00207FF00000090E6BA85
:10045000E0752100F522A3E0FEEE422190E6BEE029
:10046000752300F524A3E0FEEE4223902CF1E52352
:10047000F0A3E524F0E524452370030204FEE49094
:10048000E68AF090E68BF090E6A0E020E1F990E6B5
:100490008BE0752500F52690E6B9E064B87043F569
:1004A00027F528C3E5289526E5279525503474407F
:1004B0002528F582E434E7F583E0FF122191AF2887
:1004C00074402FF582E434E7F583E0FE74CD2FF518
:1004D00082E4342CF583EEF00528E52870C5052765
:1004E00080C1E5262522F522E5253521F521C3E544
:1004F000249526F524E5239525F52302047590E639
:10050000B9E0B4B80F53B1FD0000000000000000D6
:100510000043B102E490E68AF090E68BF0C32290AB
:10052000E6BAE0600543B104800353B1FB90E740B5
:1005300074B9F0000000E490E68AF090E68B04F0D5
:1005400090E6A0E04480F00207FF90E6BAE0AFB189
:1005500030E005EF44208003EF54DFF5B1F5B190B2
:10056000E74074BC8025AFB1EF54DFF5B1F5B100C1
:1005700000000000000000000000000000AFB1EF2C
:100580004420F5B1F5B190E74074BDF000000002E1
:10059000080790E6B8E0B4C016A3E090E740F0A3E7
:1005A000E51BF0E490E68AF090E68B7402803E90C2
:1005B000E6BAE0F51B7006C2A3C2A2801FE51BB419
:1005C0000106D2A2C2A38014E51BB40206C2A2D2C5
:1005D000A38009E51BB40304D2A2D2A390E6B9E03C
:1005E00090E740F0E490E68AF090E68B04F090E625
:1005F000A0E04480F0C32290E6B9E090E740F0A28A
:10060000A1E433A3F0E490E68AF090E68B74020252
:100610000810C2AA90E6B9E090E740F0AC16E4FFFB
:10062000FEFDE516781812098890E744EFF0E4FF24
:10063000FEE517FDE4FC781012099B90E743EFF00C
:10064000E4FFE518FEE4FDFC780812099B90E74200
:10065000EFF0E519FF90E741EFF0E490E68AF090C3
:10066000E68B7405F090E6A0E04480F0E4F519F51F
:1006700018F517F516D2AAC32290E6BAE075210044
:10068000F522A3E0FEEE422190E6BEE0752300F5E0
:1006900024A3E0FEEE422390E6B8E064C0600302CB
:1006A0000765E524452370030207FB90E6A0E020E0
:1006B000E1F9C3E5249440E52394005008852325FF
:1006C000852426800675250075264090E6B9E0B49D
:1006D000A335E4F527F528C3E5289526E5279525D4
:1006E000505EE5222528F582E5213527F583E0FFD8
:1006F00074402528F582E434E7F583EFF00528E51A
:100700002870D4052780D0E4F527F528C3E528957F
:1007100026E5279525501874402528F582E434E70E
:10072000F58374CDF00528E52870E1052780DDAD5F
:10073000267AE779407F40AB07AF22AE21122138FD
:10074000E490E68AF090E68BE526F02522F522E596
:10075000253521F521C3E5249526F524E5239525A6
:10076000F5230206A290E6B8E0644060030207FBAE
:10077000E524452370030207FBE490E68AF090E647
:100780008BF090E6A0E020E1F990E68BE075250083
:10079000F52690E6B9E0B4A335E4F527F528C3E5DE
:1007A000289526E5279525503674402528F582E4BE
:1007B00034E7F583E0FFE5222528F582E52135279A
:1007C000F583EFF00528E52870D4052780D0AD2605
:1007D0007AE779407F40AB07AF22AE2112243DE596
:1007E000262522F522E5253521F521C3E524952688
:1007F000F524E5239525F523020770C322D3229023
:10080000E6B9E090E740F0E490E68AF090E68B04E9
:09081000F090E6A0E04480F0C382
:0108190022BC
:10266F00C0E0C083C082D2015391EF90E65D740148
:08267F00F0D082D083D0E032DC
:10268700C0E0C083C0825391EF90E65D7404F0D040
:0626970082D083D0E03286
:10269D00C0E0C083C0825391EF90E65D7402F0D02C
:0626AD0082D083D0E03270
:1023CF00C0E0C083C08290E680E030E70E85080C45
:1023DF0085090D85100E85110F800C85100C851148
:1023EF000D85080E85090F5391EF90E65D7410F07F
:0723FF00D082D083D0E03250
:0118FF0032B6
:10240600C0E0C083C08290E680E030E70E85080C0D
:1024160085090D85100E85110F800C85100C851110
:102426000D85080E85090F5391EF90E65D7420F037
:07243600D082D083D0E03218
:01275800324E
:01275900324D
:01275A00324C
:01275B00324B
:01275C00324A
:01275D003249
:01275E003248
:01275F003247
:012760003246
:012761003245
:012762003244
:012763003243
:012764003242
:012765003241
:012766003240
:01276700323F
:01276800323E
:01276900323D
:01276A00323C
:01276B00323B
:01276C00323A
:01276D003239
:01276E003238
:01276F003237
:012770003236
:012771003235
:012772003234
:012773003233
:012774003232
:012775003231
:012776003230
:01277700322F
:01277800322E
:01277900322D
:01277A00322C
:01277B00322B
:041F4F000274000018
:0D270B00ED4C7005EFF452A022EF42A02229
:0C271800E4FDFC7F2012270B0D02270BB4
:1025B7008B458A468947AB76AA77A9780575E5756D
:1025C700AE747002057414F5828E83120833AB451E
:0725D700AA46A94702088291
:0C272400E4F574F5758B768A77897822CD
:0B273000E5A05440C413135403FF2223
:04261A00AB07AA065A
:10261E00900000C3E5829BEA6480F8E583648098AD
:08262E005006122718A380EBEF
:012636002281
:101F530060482800FF2745FF2564FF16BEFF178B47
:101F6300FF24A6FF26B3FF26B3FF18F1FF1FA0FF30
:101F73001847FF26B3FF26B3FF1AFFFF1AFFFF1A06
:101F8300FFFF1A5DFF1A5DFF1A5DFF235FFF201835
:0C1F9300FF2018FF14E0FF26C7FF19B85C
:10208200E4120882900001120894900002120A4E93
:1020920000000000900006E4F5F012093890000BF1
:1020A200E4120894900008E4120894900009740164
:1020B20012089490000A7401120894900010120AF7
:1020C2004E00000000900014E4F5F0120938900070
:0C20D2000C120A4E00000000E4FEFF2289
:06258E00AF24E4FCFDFE99
:102594008F298E288D278C26E5292407FFE43528EA
:1025A400FEE43527FDE43526FCE47B08FAF9F8124D
:0325B4002263227D
:0425FC007F017E00DD
:10260000AD07AC067F1012270BE4FDFC7F201227DC
:0A2610000B7D017C007F2002270BE8
:080C3400AB40AA41A9427D0179
:080C3C008B5A8A5B895C8D5D17
:100C4400E4902CCAF0A3F0E55D704DF55EF55F0508
:100C54005FE55F7002055EB4D0F5E55EB407F0129F
:100C640025FCE4F55EF55FE4FDFC7F2012270B7D97
:100C7400017C007F2012270B055FE55F7002055E93
:100C8400C39405E55E6480948040DCAB5AAA5BA9FA
:100C94005CE4120882020ECBAB5AAA5BA95C120870
:100CA4001AFF655D601FE55DB40704EFB4060AE54D
:100CB4005DB40E11EF640D600C902CCAE4F0A374C3
:100CC40005F0020ECBE55DB5070EB40603020DA7D1
:100CD400E55DB40D03020E63AB5AAA5BA95C12086E
:100CE4001AFF655D7003020ECBEF120A970D250003
:100CF4000D28010D2B020D51030D75040D83050DF7
:100D0400A7060DB5070DD9080DFD090E0E0A0E3202
:100D14000B0E400C0E630D0E700E0E920F00000EA3
:100D2400B4020DDE020DEFE55DC39409400E1225F9
:100D3400FCAB5AAA5BA95C7409020EC5E4FFFE125F
:100D44002600AB5AAA5BA95C7403020EC5E55DB428
:100D54000411E4FFFE122600AB5AAA5BA95C7404DA
:100D6400020EC51225FCAB5AAA5BA95C7405020EDF
:100D7400C51225FCAB5AAA5BA95C7405020EC5E535
:100D84005DB40611E4FFFE122600AB5AAA5BA95C0F
:100D94007406020EC51225FCAB5AAA5BA95C740842
:100DA400020EC51225FCAB5AAA5BA95C7407020E9D
:100DB400C5E55DB40411E4FFFE122600AB5AAA5B3C
:100DC400A95C7404020EC51225FCAB5AAA5BA95C8B
:100DD4007408020EC5E55DB40111E4FFFE1226009D
:100DE400AB5AAA5BA95C7401020EC51225FCAB5A6E
:100DF400AA5BA95C7402020EC5E4FFFE122600ABD6
:100E04005AAA5BA95C740A020EC5E55DB40B11E431
:100E1400FFFE122600AB5AAA5BA95C740B020EC536
:100E24001225FCAB5AAA5BA95C740C020EC51225F0
:100E3400FCAB5AAA5BA95C740C020EC5E55DB40D4B
:100E440011E4FFFE122600AB5AAA5BA95C740D02E2
:100E54000EC51225FCAB5AAA5BA95C740F80621202
:100E640025FCAB5AAA5BA95C740E8055E55DB40BF6
:100E740010E4FFFE122600AB5AAA5BA95C740B8037
:100E8400401225FCAB5AAA5BA95C740F8033E55D64
:100E9400B40110E4FFFE122600AB5AAA5BA95C74ED
:100EA40001801E1225FCAB5AAA5BA95C7402801156
:100EB400902CCAE4F0A37405F0AB5AAA5BA95CE5D4
:0F0EC4005D120882020CDC902CCAE0FEA3E0FF56
:010ED30022FC
:0E1270008F5D8E5C8D5B8C5A8B5E8A5F896011
:10127E00756900756A00756B00E5624563456160CE
:10128E003C1208B6FFAB61AA62A963E5F08FF012BB
:10129E000919AB61E5632402F9E43562FAC003C0B3
:1012AE0002C001AB5EAA5FA9601208B6D001D002DF
:1012BE00D00329F9EA35F08B69F56A896BAB5EE5E7
:1012CE00602402F9E4355FFAC002C001AA5FA9608A
:1012DE001208B6D001D00229F9EA35F08B66F5670F
:1012EE008968AF5DAE5CAD5BAC5AEC4D4E4F700392
:1012FE000213D7786674FFF5F0120A7E12081A9060
:10130E002B45F0E4A3F0F56CF56DAF5DAE5CAD5B17
:10131E00AC5AEC4D4E4F70030213B7C3E56D9408F3
:10132E00E56C6480948040030213B774FFFBFAF9F6
:10133E00F81209658F5D8E5C8D5B8C5AE565456490
:10134E00600EEC4D4E4F70087D01FC7F1012270B86
:10135E00902B45E05401FD7C007F8012270B902BD3
:10136E0045E0C313F0E4FDFC7F2012270BE56A4530
:10137E006B45696020122730902B47EFF0902B467B
:10138E00E0FFAE6DA3E0FDA806088002C333D8FCD3
:10139E004F902B46F07D017C007F2012270B056DB0
:1013AE00E56D7002056C021318E56A456B456970B0
:1013BE00030212F0902B46E0FF786974FFF5F012ED
:0913CE000A7EEF1208820212F0FF
:0113D70022F3
:0810CF008B408A4189428D43E8
:1010D700E4902B3EF0A3F0A3F0A3F0A3F0E5436563
:1010E700547E0060047F0180027F00902B43EEF066
:1010F700A3EFF0AF47AE46AD45AC44EC4D4E4F7055
:101107001EAF58AE57AD56AC55EC4D4E4F7003025F
:10111700123C120C34AE57AF5812261A02123CABCF
:1011270040AA41A942AD43120C3CAF47AE46AD457C
:10113700AC44854B61854C62854D63902B43E0F54C
:1011470064A3E0F565AB48AA49A94A121270E54FB6
:101157004550454E602D854B5D854C5E854D5F85C1
:101167005160855261855362AB4EAA4FA950121D3B
:10117700ADEF4E70047F0180027F00902B40E4F0BA
:10118700A3EFF0902B43E07002A3E070030212225A
:10119700AB40AA41A9427401120860902B40E0704D
:1011A70002A3E06053AF58AE57AD56AC55EC4D4E69
:1011B7004F6045902B42E0C39559503CAB40AA4144
:1011C700A9427D06120C3CAB40AA41A9427D0412FC
:1011D7000C3CAF58AE57AD56AC55780212099BE59B
:1011E700582FFFE5573EFEE5563DFDE5553C8F5828
:1011F7008E578D56F555800BAB40AA41A942AD5489
:10120700120C3CAF58AE57AD56AC55EC4D4E4F6037
:101217000A120C34AE57AF5812261A902B40E070C2
:1012270002A3E06010902B42E0FF04F0EFC3955952
:101237005003021126902B40E07002A3E06021E5E5
:10124700596014902B42E0D39559400B902B3EE404
:10125700F0A37403F08009902B3EE4F0A37402F02E
:08126700902B3EE0FEA3E0FF26
:01126F00225C
:101E2D008B258A2689278F2B8E2A8D298C28AB2EE0
:101E3D00AA2FA930AD2DAC2C1222EAE53545364539
:101E4D0034600DAB34AA35A936AD2DAC2C1222EA77
:101E5D00852B47852A46852945852844852E488525
:101E6D002F4985304A85314B85324C85334D85342C
:101E7D004E85354F853650853751853852853953C6
:101E8D00853A54853E58853D57853C56853B55854D
:0E1E9D003F59AB25AA26A9277D041210CF229B
:1026B300900006E475F0041209389000061208E150
:0426C300FFAEF02254
:092745007401120882E4FEFF2277
:102564008B218A228923E9243BF9EA3402FAC00246
:10257400C001AA22A9239000141208E1FDACF0D0F6
:0A25840001D0021222EAE4FEFF2259
:0616BE008B218A22892322
:1016C4007B007A0079241225B712258ED3EF94B4C7
:1016D400EE648094804010AB21AA22A923900006D6
:1016E400E475F00602177812258EAC06AD07AB211F
:1016F400E5232416F9E43522FA1222EAAB21E52384
:101704002408F9E43522FAC003C002C001E48524A8
:1017140047F546F545F544E5232416F9E435228BCF
:1017240048F549894A754B00754C00754D00754E56
:1017340000754F00755000755100755200755300C7
:10174400AA22A923900009120833F55490000C1220
:1017540009C28F588E578D568C55E4F559D001D057
:1017640002D0037D0B1210CFAB21AA22A923900033
:1017740006EE8FF0120938AB21AA22A923900006A5
:061784001208E1FFAEF0C7
:01178A00223C
:0614E0008B218A22892302
:1014E600E92416F9E43AFA7D027C001222EAAB21DD
:1014F600E5232416F9E43522FA121EAB902B3A1294
:101506000A42902B3A120A16122594D3EF94B4EE9F
:101516006480948040097524007525060215B490F0
:101526002B3A120A16122594AC06AD07AB21E52319
:101536002416F9E43522FA1222EAAB21E52324081F
:10154600F9E43522FAC003C002C001902B3A120A10
:10155600168F478E468D458C44E5232416F9E435CF
:10156600228B48F549894A754B00754C00754D002C
:10157600754E00754F007550007551007552007517
:101586005300AA22A923900009120833F5549000AB
:101596000C1209C28F588E578D568C55E4F559D0CA
:1015A60001D002D0037D0B1210CF8E248F25E525A6
:1015B60045246011AB21AA22A923900006E52485C3
:0915C60025F0120938AE24AF250E
:0115CF0022F9
:06178B008B218A22892354
:10179100E92416F9E43AFAC002C001AA22A9239069
:1017A10000141208E1FDACF0D001D0021222EAAB24
:1017B10021E5232408F9E43522FAC003C002C0015F
:1017C100AA22A9239000101209C28F478E468D4587
:1017D1008C44E92416F9E43A8B48F549894AE52312
:1017E1002484F9EA34018B4BF54C894DE52324CD52
:1017F100F9E43A8B4EF54F8950E523243BF9EA345D
:10180100028B51F5528953A92390000A120833F52E
:101811005490000C1209C28F588E578D568C5590DA
:10182100000B120833F559D001D002D0037D041208
:1018310010CFEF4E600FAB21AA22A923900006EE34
:051841008FF0120938D0
:01184600227F
:1024A6008B218A228923E92416F9E43AFA7D047CF1
:1024B600001222EAAB21E5232416F9E43522FA12AA
:1024C6001EABAB21AA22A92390000C1209F2E4FE4E
:0224D600FF22E3
:0E18F100E9240BF9E43AFA1225B7E4FEFF22CF
:061FA0008B218A22892337
:101FA600E4F524F525E92416F9E43AFA7D047C00E3
:101FB6001222EAAB21E5232416F9E43522FA121E91
:101FC600ABAB21AA22A9239000101209F2900010AF
:101FD6001209C2122594AB21AA22A923900014EE5D
:101FE6008FF01209389000141208E1D394B4E5F08A
:101FF600648094804017752400752506AB21AA22BB
:10200600A923900006E5248525F0120938AE24AFF1
:0120160025A4
:0120170022A6
:061847008B218A22892397
:10184D00E92408F9E43AFAC003C002C001AA22A9AA
:10185D00239000101209C2C004C005C006C0079035
:10186D0000141208E1F52D85F02CE92416F9E43A5F
:10187D008B2EF52F8930E5232484F9EA34018B3141
:10188D00F5328933E52324CDF9E43A8B34F53589E6
:10189D0036E523243BF9EA34028B37F5388939A92B
:1018AD002390000A120833F53A90000C1209C28FEA
:1018BD003E8E3D8D3C8C3B90000B120833F53FD096
:1018CD0007D006D005D004D001D002D003121E2DB2
:1018DD00EF4E600FAB21AA22A923900006EE8FF0E8
:0318ED00120938A5
:0118F00022D5
:061AFF008B218A228923DD
:101B0500900001120833B40E0990000A120833FF41
:101B150080027F048F24AB21E5232408F9E43522D4
:101B2500FAC003C002C001AA22A92390001012091D
:101B3500C29000141208E1F52D85F02CE92416F960
:101B4500E43A8B2EF52F89307531007532007533E7
:101B55000075340075350075360075370075380029
:101B650075390085243AE4F53EF53DF53CF53BF540
:101B75003FD001D002D003121E2DAB21AA22A923EA
:101B8500900006EE8FF01209389000061208E1FF6A
:021B9500AEF0B0
:011B9700222B
:061A5D008B218A2289237F
:101A6300900001120833B4110990000A120833FFE1
:101A730080027F048F24AB21E5232408F9E4352277
:101A8300FAC003C002C001AA22A9239000101209C0
:101A9300C29000141208E1F52D85F02CE92416F903
:101AA300E43A8B2EF52F8930E5232484F9EA3401B7
:101AB3008B31F5328933E52324CDF9E43A8B34F5C0
:101AC30035893675370075380075390085243AE451
:101AD300F53EF53DF53CF53BF53FD001D002D00393
:101AE300121E2DAB21AA22A923900006EE8FF0121D
:0B1AF30009389000061208E1FFAEF079
:011AFE0022C5
:06235F008B218A22892374
:102365007B007A0079241225B7AB21E5232408F9EF
:10237500E43522FAAD24120C3CAB21AA22A9239004
:102385000006EE8FF01209389000061208E1FFAE44
:01239500F057
:012396002224
:062018008B218A228923BE
:10201E00E4F524F525FB7A0079261225B7E526602E
:10202E000C64016008752400752505802BAB21AA70
:10203E0022A923900001120833B4130DE526900057
:10204E00097002800B740D800CE52690000A700357
:10205E000480027406120894E52545246011AB2114
:10206E00AA22A923900006E5248525F0120938AE90
:03207E0024AF2567
:01208100223C
:0619B8008B218A22892325
:1019BE00E92416F9E43AFA7D017C001222EAAB2101
:1019CE00AA22A923900018120833F524E92416F947
:1019DE00E43AFA7D017C001222EAAB21AA22A92365
:1019EE00900018120833F525E92416F9E43AFA7D29
:1019FE00047C001222EAAB21E5232416F9E43522F9
:101A0E00FA121EAB902B3A120A42AB21AA22A9233C
:101A1E009000081208336524600CE92408F9E43AB2
:101A2E00FAAD24120C3C902B3A120A1612261AAB5F
:101A3E0021AA22A9239000081208336525600CE91B
:0E1A4E002408F9E43AFAAD25120C3CE4FEFF40
:011A5C002267
:1026C700900006E4F5F01209389000061208E1FFC1
:0326D700AEF02240
:1020DE00757901757A28757B48AB79AA7AA97B1236
:1020EE002082AB79AA7AA97B900006EE8FF01209B6
:1020FE00389000061208E145F0701FAB79E57B249D
:10210E0008F9E4357AFAE4FD120C3CAB79AA7AA907
:10211E007B900006EE8FF0120938AB79AA7AA97B74
:0A212E009000061208E1FFAEF02257
:101D2200AB79AA7AA97B9000061208E145F0706BA4
:101D320012081A7066E92401F9E43AFA1225B7ABDF
:101D420079AA7AA97B9000021209C2E47B01FAF90E
:101D5200F8120965AB79AA7AA97B9000021209F2FE
:101D6200900001120833FFC39418AB79AA7AA97BB9
:101D72005026C003C002C001EF75F003A42400F591
:101D820082E43428F583120A8E89828A83D001D0B4
:101D920002D003120AC180031226B3AB79AA7AA930
:0B1DA2007B9000061208E1FFAEF0226B
:061EAB008B268A2789281E
:101EB100E4F52CF52BF52AF529F52DF52EAB26AAFF
:101EC10027A9281208B6FFC3E52E9FE5F06480F824
:101ED100E52D6480985046AF2CAE2BAD2AAC297805
:101EE100081209AF8F2C8E2B8D2A8C29E92402F937
:101EF100E43AFAE9252EF9EA352DFA12081AFFE536
:101F01002C4FFFE52BFEE52AFDE5298F2C8E2B8D2D
:101F11002AF529052EE52E70A4052D80A0AF2CAE43
:051F21002BAD2AAC29E4
:011F26002298
:061DAD008B5A8A5B895C81
:101DB3007563007564011208B6FFAEF0E564456310
:101DC3006063EF1FAC0670011E4C6059AB5AE55CB3
:101DD3002402F9E4355BFAE92FF9EA3EFA12081A0C
:101DE300F565AB5DE55F2402F9E4355EFAE92FF9A9
:101DF300EA3EFA12081AF566E56145624560601825
:101E0300AB60E5622402F9E43561FAE92FF9EA3EB1
:101E1300FA12081A52655266E5656566609EE4F536
:091E230063F5648097AE63AF64BF
:011E2C002293
:0422EA008C408D4156
:1022EE00E5408541F0120919E92402F9E43A8B42DE
:1022FE00F5438944E5414540601EAB42AA43A944DB
:10230E001225B7E54115417002154074012544F5BB
:08231E0044E43543F54380DC83
:012326002294
:08274E00E4F573D2E9D2AF22D9
:10239700AD0790E678E020E6F9C2E990E678E044F8
:1023A70080F0ED25E090E679F090E678E030E0F90E
:1023B70090E678E04440F090E678E020E6F990E691
:0823C70078E030E1D6D2E922F2
:1024D800AC0790E678E020E6F9E573702390E6789B
:1024E800E04480F0EC25E090E679F08D6EAF03A92A
:1024F80007756F018A708971E4F572757301D322CB
:02250800C322EC
:10247200AC0790E678E020E6F9E573702590E678FF
:10248200E04480F0EC25E0440190E679F08D6EAFF7
:1024920003A907756F018A708971E4F57275730378
:0424A200D322C3225C
:03004B000213D8C5
:1013D800C0E0C083C082C085C084C086758600C056
:1013E800D075D000C000C001C002C003C006C0074D
:1013F80090E678E030E2067573060214C290E6784B
:10140800E020E10CE573640260067573070214C2FC
:10141800E57324FE605F14603624FE70030214B383
:1014280024FC70030214BF240860030214C2AB6FCB
:10143800AA70A971AF7205728F8275830012083382
:1014480090E679F0E572656E7070757305806B9043
:10145800E679E0AB6FAA70A971AE728E82758300CF
:10146800120894757302E56E6401704E90E678E098
:101478004420F08045E56E24FEB5720790E678E0DA
:101488004420F0E56E14B5720A90E678E04440F026
:1014980075730090E679E0AB6FAA70A971AE728E91
:1014A800827583001208940572800F90E678E044F4
:1014B80040F075730080037573005391DFD007D037
:1014C80006D003D002D001D000D0D0D086D084D0AE
:0814D80085D082D083D0E03200
:10263700122472E57324FA600E146006240770F3FF
:0C264700D322E4F573D322E4F573D32210
:102653001224D8E57324FA600E146006240770F37D
:0C266300D322E4F573D322E4F573D322F4
:03000000021C9649
:0C1C9600787FE4F6D8FD75817B021CDD30
:10081A00BB010689828A83E0225002E722BBFE02DC
:09082A00E32289828A83E493220F
:10083300BB010CE58229F582E5833AF583E022507A
:1008430006E92582F8E622BBFE06E92582F8E222C4
:0D085300E58229F582E5833AF583E49322DE
:10086000BB010989828A83F8E028F022500327F728
:1008700022BBFE05F8E328F3228A838982F8E493F9
:0208800028222C
:10088200BB010689828A83F0225002F722BBFE0155
:02089200F3224F
:10089400F8BB010DE58229F582E5833AF583E8F09A
:1008A400225006E92582C8F622BBFE05E92582C846
:0208B400F2222E
:1008B600BB010A89828A83E0F5F0A3E0225006870D
:1008C600F009E71922BBFE07E3F5F009E3192289CF
:0B08D600828A83E493F5F07401932202
:1008E100BB0110E58229F582E5833AF583E0F5F055
:1008F100A3E0225009E92582F886F008E622BBFE32
:100901000AE92582F8E2F5F008E222E5832AF58377
:08091100E993F5F0A3E993223C
:10091900BB010A89828A83F0E5F0A3F0225006F729
:0F09290009A7F01922BBFE06F3E5F009F3192226
:10093800F8BB0111E58229F582E5833AF583E8F0F1
:10094800E5F0A3F0225009E92582C8F608A6F022AE
:0D095800BBFE09E92582C8F2E5F008F22295
:0D096500EF2BFFEE3AFEED39FDEC38FC22E1
:10226300C2D5E830E70FB2D5E4C39BFBE49AFAE4A6
:1022730099F9E498F8EC30E717B2D5122299120ACB
:10228300FFE4C39BFBE49AFAE499F9E498F880032A
:10229300120AFF30D50DE4C39FFFE49EFEE49DFDCB
:0422A300E49CFC2299
:10097200EB9FF5F0EA9E42F0E99D42F0EC6480C8FC
:0609820064809845F0229C
:10098800E8600FECC313FCED13FDEE13FEEF13FF4D
:03099800D8F12271
:10099B00E86010ECA2E713FCED13FDEE13FEEF1372
:0409AB00FFD8F0225F
:1009AF00E8600FEFC333FFEE33FEED33FDEC33FCA6
:0309BF00D8F1224A
:1009C200BB010DE58229F582E5833AF583020A1619
:1009D2005007E92582F8020B91BBFE07E92582F850
:1009E200020B9DE58229F582E5833AF583020BA984
:1009F200BB010DE58229F582E5833AF583020A42BD
:100A02005007E92582F8020BB9BBFE07E92582F8F7
:040A1200020BC522EC
:0C0A1600E0FCA3E0FDA3E0FEA3E0FF2253
:100A22007401FF3395E0FEFDFC080808E6CF2FF6BF
:100A320018E6CE3EF618E6CD3DF618E6CC3CF62298
:0C0A4200ECF0A3EDF0A3EEF0A3EFF02227
:100A4E00BB010DE58229F582E5833AF583020BEAB7
:100A5E005007E92582F8020BD1BBFE07E92582F883
:040A6E00020C1B2239
:0C0A7200A42582F582E5F03583F583228F
:100A7E00FAE6FB0808E625F0F9F618E63AFAF62249
:090A8E00E0FBA3E0FAA3E0F92269
:100A9700D083D082F8E4937012740193700DA3A3EE
:100AA70093F8740193F5828883E473740293686002
:060AB700EFA3A3A380DF02
:060ABD008A838982E473C4
:101CA200021B98E493A3F8E493A34003F68001F2A5
:101CB20008DFF48029E493A3F85407240CC8C33343
:101CC200C4540F4420C8834004F456800146F6DF12
:101CD200E4800B0102040810204080901F27E47E5C
:101CE200019360BCA3FF543F30E509541FFEE49307
:101CF200A360010ECF54C025E060A840B8E493A3CE
:101D0200FAE493A3F8E493A3C8C582C8CAC583CAF8
:101D1200F0A3C8C582C8CAC583CADFE9DEE780BEB0
:011F9F000041
:100AC30075F008758200EF2FFFEE33FECD33CDCCEA
:100AD30033CCC58233C5829BED9AEC99E58298406D
:100AE3000CF582EE9BFEED9AFDEC99FC0FD5F0D64A
:100AF300E4CEFBE4CDFAE4CCF9A88222B800C1B974
:100B03000059BA002DEC8BF084CFCECDFCE5F0CBB1
:100B1300F97818EF2FFFEE33FEED33FDEC33FCEBEA
:100B230033FB10D703994004EB99FB0FD8E5E4F9A5
:100B3300FA227818EF2FFFEE33FEED33FDEC33FC92
:100B4300C933C910D7059BE99A4007EC9BFCE99A86
:100B5300F90FD8E0E4C9FAE4CCFB2275F010EF2FCB
:100B6300FFEE33FEED33FDCC33CCC833C810D707CB
:100B73009BEC9AE899400AED9BFDEC9AFCE899F806
:0E0B83000FD5F0DAE4CDFBE4CCFAE4C8F92299
:0C0B9100E6FC08E6FD08E6FE08E6FF2290
:0C0B9D00E2FC08E2FD08E2FE08E2FF2294
:100BA900E493FC740193FD740293FE740393FF2292
:0C0BB900ECF608EDF608EEF608EFF62268
:0C0BC500ECF208EDF208EEF208EFF2226C
:100BD100D083D082E493F608740193F608740293EB
:090BE100F608740393F674047322
:100BEA00A8828583F0D083D082120C01120C0112E4
:100BFA000C01120C01E473E493A3C583C5F0C58309
:100C0A00C8C582C8F0A3C583C5F0C583C8C582C854
:010C1A0022B7
:100C1B00D083D082E493F208740193F208740293A8
:090C2B00F208740393F2740473DF
:00000001FF
