:0A28C80000010202030304040505E9
:101C4200C200C202C201121463C2AF750A1D750B33
:101C52000075121D75131275081D75091C75101D6E
:101C620075113C75141D75155CD2E890E668E04468
:101C720009F090E65CE04435F0D2AF90E680E020D7
:101C8200E105D2051225D090E680E054F7F0538E9C
:101C9200F81222F8122746300105120F59C20130FC
:101CA20003F21228EC50EDC2031226FE2000169019
:101CB200E682E030E704E020E1EF90E682E030E601
:0D1CC20004E020E0E412262D1228F080C777
:021CFE00D322EF
:100F590090E6B9E0120B1C0FF700106C0110E703C3
:100F69000F7C060FF1080FEB090FE50A11520B0070
:100F790000114690E6BBE024FE602714603824FD8A
:100F8900601114602724067050E50A90E6B3F0E575
:100F99000B803C121CFE503EE51290E6B3F0E513BF
:100FA900802DE50C90E6B3F0E50D8023E50E90E683
:100FB900B3F0E50F801990E6BAE0FF122659AA06A8
:100FC900A9077B01EA494B600DEE90E6B3F0EF907B
:100FD900E6B4F002115202114102114112287802BD
:100FE90011521225A102115212286802115290E6DB
:100FF900B8E0247F601514601924027063A200E42C
:101009003325E0FFA202E4334F8041E490E740F04A
:10101900803F90E6BCE0547EFF7E00E0D394807C64
:101029000040047D0180027D00EC4EFEED4F24C896
:10103900F58274283EF583E493FF3395E0FEEF24AF
:10104900A1FFEE34E68F82F583E0540190E740F08A
:10105900E4A3F090E68AF090E68B7402F002115254
:1010690002114190E6B8E024FE60162402600302F2
:10107900115290E6BAE0B40105C200021152021100
:101089004190E6BAE0705590E6BCE0547EFF7E00E0
:10109900E0D394807C0040047D0180027D00EC4E09
:1010A900FEED4F24C8F58274283EF583E493FF339F
:1010B90095E0FEEF24A1FFEE34E68F82F583E0543C
:1010C900FEF090E6BCE05480131313541FFFE05464
:1010D9000F2F90E683F0E04420F0806D805A90E66F
:1010E900B8E024FE60192402704E90E6BAE0B4011B
:1010F90004D200805490E6BAE06402604C803990D2
:10110900E6BCE0547EFF7E00E0D394807C0040047E
:101119007D0180027D00EC4EFEED4F24C8F58274FE
:10112900283EF583E493FF3395E0FEEF24A1FFEE1B
:1011390034E68F82F583800D90E6A08008120200C4
:10114900500790E6A0E04401F090E6A0E04480F06A
:011159002273
:030033000228E8B8
:0428E80053D8EF32A0
:101D000012010002000000402A15058400000102B3
:101D100003010A0600020000004001000902200041
:101D200001010080640904000002FF0000000705B3
:101D3000810240000107058602000200090220001E
:101D400001010080640904000002FF000000070593
:101D500081024000000705860240000004030904D8
:101D6000080349004E0049001A0343006F00630056
:101D700068006C006500610041004D0053003100B7
:0E1D800062000A033000300030003000000026
:1014630090E6007412F0E4F5A0F580F5B175B28B47
:1014730075B40F75B5FF75B6FF00000090E60174F3
:10148300A3F000000075A80053E8E3000000E49017
:10149300E671F000000090E670F000000090E67244
:1014A300F090E610F000000090E61174A0F0000048
:1014B30000E490E612F000000090E613F000000054
:1014C30090E61474E0F0000000E490E615F00000EC
:1014D3000090E60B7403F000000090E6047480F0C3
:1014E3000000007406F0000000E4F000000090E645
:1014F300247402F0000000E490E625F00000009060
:10150300E61A7408F0000000E490E618F00000000A
:1015130090E619F000000090E61BF000000090E652
:101523000274E8F0000000E4F51CF51BF51AF51948
:10153300D287D2A0C2A1D2B4C2B51228DB1227230C
:10154300D204D288C2A8D28AC2AAE4F5C8F5CA7561
:10155300CBFFC2AD43B12000000000000053B1DF58
:0D15630000000090E6017423F0000000225B
:102746007819120AA77BA07A8679017800D3120A33
:102756000A500EB287E4F51CF51BF51AF519122777
:0227660023222C
:0C25FF007F0C12260B7F2412260BE4FF39
:10260B007E08AD061EED60197801EF08800123D816
:10261B00FDFF30E004D2A28002C2A2C2A3D2A380EB
:01262B00E1CD
:01262C00228B
:10272300752130752200C2B77F1E7E001222B2D2FD
:10273300B77F1E7E001222B2C2B01225FF1225FF00
:02274300D2B012
:012745002271
:102768007E08AD061EED60197801EF08800123D8B8
:10277800FDFF30E004D2A18002C2A1D2A0C2A08095
:01278800E16F
:01278900222D
:101CCF008D2DC374089DF8EF08800123D8FDFFAE5A
:101CDF00051DEE60197801EF08800123D8FDFF3054
:0E1CEF00E004D2A18002C2A1D2A0C2A080E176
:011CFD0022C4
:1022F8007F03122659AA06A9077521018A22892374
:102308007A337B3A7D047FFC7E7F1221B7E4FF7429
:102318003A2FF582E43433F583E0FEAB21AA22A9F3
:102328002375F002EF900002120AF7EE12092C0F43
:03233800BF04DC03
:01233B00227F
:0528E300D283D2812226
:10242D00C281E490E61AF000000090E6A9E0700980
:10243D0090E6487406F000000090E6047480F00009
:10244D0000007406F0000000E4F000000090E61AB1
:07245D007408F000000022EA
:04221000AB07AA0668
:10221400E4F533AF02AE33053374CA2EF582E434E9
:1022240034F583EFF0AF03AE33053374CA2EF58271
:10223400E43434F583EFF0AF33053374CA2FF582F9
:10224400E43434F583EDF0E57370FC7A347BCAAD85
:0D225400337F501227E150F37F500223F535
:0A2464008E2D8F2E8D2F8A308B31C4
:10246E00B287E4F532E532C3952F5020052EE52EC6
:10247E00AE2D7002052D14FFE5312532F582E435BF
:0C248E0030F583E0FD122210053280D9E9
:01249A00221F
:0A21B7008E2D8F2E8D2F8A308B3174
:1021C100E4FDE52DFF7E000DEE24CAF582E43434F2
:1021D100F583EFF00E0D74CA2EF582E43434F583E5
:1021E100E52EF07A347BCA7F501227E1E4FFEFC37A
:1021F100952F5010E5312FF582E43530F58374CDFC
:0F220100F00F80EAAB31AA30AD2F7F500227C516
:0428EC00C283D322AE
:0428F000D283D3229A
:1025A10090E680E030E71200000090E6247402F02B
:1025B100000000E490E6258010000000E490E6248D
:0F25C100F000000090E6257440F0000000D322E7
:10286800E490E740F090E68AF090E68B04F0D322FB
:10287800E490E740F090E68AF090E68B04F0D322EB
:1002000090E6B9E0120B1C0711A20711A3022FB34D
:100210000235B4043DB806CAB9043DBA0436BB037E
:100220004DC2023BC40263C506F6CB00000895121E
:1002300028E302089712242D020897000000E4909A
:10024000E61AF000000090E6047480F000000074EC
:1002500006F0000000E4F000000090E61A7408F0D8
:1002600002089790E6B8E06440600302033F300460
:100270000AF5A075B4BD12215DC20490E6BEE0751A
:100280002300F524A3E0FEEE4223D3E5249490E579
:10029000239401400675160A020337E4F521F5227E
:1002A0007B017A33793A1228B1E52445236071E461
:1002B00090E68AF090E68BF090E6A0E020E1F990DD
:1002C000E68BE0752500F526E4F527F528C3E5283B
:1002D0009526E5279525502D74402528F582E43490
:1002E000E7F583E0FFE5222528FDE5213527FC74AD
:1002F0003A2DF58274333CF583EFF00528E528703C
:10030000CC052780C8E5262522F522E5253521F5EF
:1003100021C3E5249526F524E5239525F523808939
:1003200090E6BAE07002800F121E1A8F16E516D3FF
:100330009400500302089775B40DD20402089790F8
:10034000E6B9E090E740F0A3E51602070390E6B9AE
:10035000E090E740F0E490E68AF090E68B04F090BD
:10036000E6A0E04480F090E6A0E020E1F97F0312EF
:100370002659AA06A9077529018A2A892B90E68B96
:10038000E0D394044008752300752404800990E6A6
:100390008BE0752300F524E4F527F528C3E52895BF
:1003A00024E52795235049E52824FCFFE527347FE1
:1003B000FE74402528F582E434E7F583E0FD12223F
:1003C0001074402528F582E434E7F583E0FDE52844
:1003D00025E0FFE527338F82F583A3A3AB29AA2A63
:1003E000A92BED12092C0528E52870B0052780AC53
:1003F000852327852428C3E5289404E52794005005
:1004000032E52824FCFFE527347FFE7D20122210F0
:10041000E52825E0FFE527338F82F583A3A3AB29E9
:10042000AA2AA92B742012092C0528E52870C705D3
:100430002780C30206BFD280C28002089700000056
:1004400090E6BAE0752100F522A3E0FEEE4221A37A
:10045000E0FBA3E0FEEEFAA3E0752300F524A3E0A1
:10046000FEEE4223E52224FE70030206BD14700353
:1004700002059E14700302063A147003020541142B
:100480006073240560030206BDE5B154F84404F529
:10049000B1852317852418E52445236055E490E6AB
:1004A0008AF090E68BF000000090E6A0E020E1F9F1
:1004B00090E68BE0752500F526E4F527F528C3E5E1
:1004C000289526E5279525501A74402528F582E4BD
:1004D00034E7F583E0FF1227680528E52870DF057B
:1004E0002780DBC3E5249526F524E5239525F52310
:1004F00080A50206ACE524640645236002D322E40D
:1005000090E68AF090E68BF000000090E6A0E020F4
:10051000E1F9C2B0E4F527F52874402528F582E416
:1005200034E7F583E0FF12260B0528E52870020565
:1005300027C39406E527940040DFD2B0B2870206B5
:10054000BFE490E68AF090E68BF000000090E6A011
:04055000E020E1F9CD
:1005540090E740E013920590E6BCE0F52CA3E0148C
:1005640060151460202402702AE52C30050442A092
:100574008023F452A0801EE52C30050442B080157F
:10058400F452B08010E52C30050442B18007F452D7
:07059400B18002D322B287FF
:10059B000206BFE490E68AF090E68BF00000009034
:1005AB00E6A0E020E1F9EB4A7071C2ADC2CAF527B3
:1005BB007528FFE5B120E722E5281528AE27700244
:1005CB001527D39400EE94004010D2B10000000028
:1005DB00000000000000C2B180D9E5284527700259
:1005EB00D32290E740E0752500F526E4F527F528A2
:1005FB00C3E5289526E5279525502FD2B10000009D
:10060B00000000000000C2B100000000000000006C
:10061B00000528E52870D9052780D590E740E0FF35
:10062B00C374FF9FF5CAD2ADD2CAB2870206BFE52B
:10063B00B154F84402F5B190E6BBE0FF7D07121C04
:10064B00CFC2B4000000000000000000D2B4E5B13E
:10065B0054F84401F5B1AF037D05121CCFEBAE028C
:10066B007805CEC313CE13D8F9FBAA06FF7D05126E
:10067B001CCFEAC313FAEB13FBC2B230E004D2B6C1
:10068B008002C2B6C2B4000000000000000000D21D
:10069B00B4EAC313EB13D2B230E004D2B68002C279
:1006AB00B6C2B4000000000000000000D2B4B28754
:1006BB008002D322E490E68AF090E68BF0C322907E
:1006CB00E6BAE06004D2B58002C2B590E74074B9D7
:1006DB00F0000000E490E68AF090E68B04F0000056
:1006EB000090E6A0E04480F002089790E6B9E09015
:1006FB00E740F0A2A1E433A3F0E490E68AF090E6A1
:10070B008B74020208A890E6BAE0752100F522A3CB
:10071B00E0FEEE422190E6BEE0752300F524A3E057
:10072B00FEEE422390E6B8E064C060030207FDE5ED
:10073B00244523700302089390E6A0E020E1F9C35F
:10074B00E5249440E5239400500885232585242631
:10075B00800675250075264090E6B9E0B4A335E414
:10076B00F527F528C3E5289526E5279525505EE561
:10077B00222528F582E5213527F583E0FF744025F6
:10078B0028F582E434E7F583EFF00528E52870D4EB
:10079B00052780D0E4F527F528C3E5289526E5271E
:1007AB009525501874402528F582E434E7F58374B9
:1007BB00CDF00528E52870E1052780DDAD267AE729
:1007CB0079407F40AB07AF22AE211221B7E490E610
:1007DB008AF090E68BE526F02522F522E5253521DA
:1007EB00F521C3E5249526F524E5239525F523026C
:1007FB00073A90E6B8E064406003020893E52445AD
:10080B00237003020893E490E68AF090E68BF09055
:10081B00E6A0E020E1F990E68BE0752500F5269047
:10082B00E6B9E0B4A335E4F527F528C3E52895260A
:10083B00E5279525503674402528F582E434E7F5F5
:10084B0083E0FFE5222528F582E5213527F583EFA7
:10085B00F00528E52870D4052780D0AD267AE779F6
:10086B00407F40AB07AF22AE21122464E526252240
:10087B00F522E5253521F521C3E5249526F524E55B
:10088B00239525F523020808C322D32290E6B9E06D
:10089B0090E740F0E490E68AF090E68B04F090E667
:0608AB00A0E04480F0C350
:0108B1002224
:10288800C2AFC2CFD2B10000000000C2B1D2AF3295
:1027FD00C0E0C083C082D2015391EF90E65D7401B9
:08280D00F0D082D083D0E0324C
:10281500C0E0C083C0825391EF90E65D7404F0D0B0
:0628250082D083D0E032F6
:10282B00C0E0C083C0825391EF90E65D7402F0D09C
:06283B0082D083D0E032E0
:10249B00C0E0C083C08290E680E030E70E85080C78
:1024AB0085090D85100E85110F800C85100C85117B
:1024BB000D85080E85090F5391EF90E65D7410F0B2
:0724CB00D082D083D0E03283
:0118FF0032B6
:1024D200C0E0C083C08290E680E030E70E85080C41
:1024E20085090D85100E85110F800C85100C851144
:1024F2000D85080E85090F5391EF90E65D7420F06B
:07250200D082D083D0E0324B
:0128F40032B1
:0128F50032B0
:0128F60032AF
:0128F70032AE
:0128F80032AD
:0128F90032AC
:0128FA0032AB
:0128FB0032AA
:0128FC0032A9
:0128FD0032A8
:0128FE0032A7
:0128FF0032A6
:0129000032A4
:0129010032A3
:0129020032A2
:0129030032A1
:0129040032A0
:01290500329F
:01290600329E
:01290700329D
:01290800329C
:01290900329B
:01290A00329A
:01290B003299
:01290C003298
:01290D003297
:01290E003296
:01290F003295
:012910003294
:012911003293
:012912003292
:012913003291
:012914003290
:01291500328F
:01291600328E
:01291700328D
:042261000274000003
:0D289800ED4C7005EFF452A022EF42A0229B
:0C28A500E4FDFC7F201228980D0228980A
:1026D7008B458A468947AB76AA77A9780575E5754C
:1026E700AE747002057414F5828E831208CBAB4565
:0726F700AA46A94702091AD7
:0C28B100E4F574F5758B768A778978223F
:0B28BD00E5A05440C413135403FF2295
:0427A800AB07AA06CB
:1027AC00900000C3E5829BEA6480F8E5836480981E
:0827BC0050061228A5A380EBD2
:0127C40022F2
:1022650060483000FF28D2FF2684FF1768FF183525
:10227500FF253DFF2841FF2841FF18F1FF201FFFE3
:1022850019B8FF2841FF2841FF1BA9FF1BA9FF1B08
:10229500A9FF1B07FF1B07FF1B07FF23BDFF209798
:0C22A500FF2097FF1678FF2855FF1A62F3
:10210100E412091A90000112092C900002120AD35C
:1021110000000000900006E4F5F01209D090000BD9
:10212100E412092C900008E412092C9000097401B2
:1021310012092C90000A740112092C900010120A45
:10214100D300000000900014E4F5F01209D09000D3
:0C2151000C120AD300000000E4FEFF2284
:0626AE00AF24E4FCFDFE78
:1026B4008F298E288D278C26E5292407FFE43528C9
:1026C400FEE43527FDE43526FCE47B08FAF9F8122C
:0326D400233C2282
:04278A007F017E004D
:10278E00AD07AC067F10122898E4FDFC7F201228BE
:0A279E00987D017C007F200228983E
:080CB900AB40AA41A9427D01F4
:080CC1008B5A8A5B895C8D5D92
:100CC900E49034CAF0A3F0E55D704DF55EF55F057B
:100CD9005FE55F7002055EB4D0F5E55EB407F0121A
:100CE900278AE4F55EF55FE4FDFC7F201228987DF4
:100CF900017C007F20122898055FE55F7002055E80
:100D0900C39405E55E6480948040DCAB5AAA5BA974
:100D19005CE412091A020F50AB5AAA5BA95C1208CB
:100D2900B2FF655D601FE55DB40704EFB4060AE52F
:100D39005DB40E11EF640D600C9034CAE4F0A37435
:100D490005F0020F50E55DB5070EB40603020E2C3F
:100D5900E55DB40D03020EE8AB5AAA5BA95C120863
:100D6900B2FF655D7003020F50EF120B1C0DAA0054
:100D79000DAD010DB0020DD6030DFA040E08050ED6
:100D89002C060E3A070E5E080E82090E930A0EB75C
:100D99000B0EC50C0EE80D0EF50E0F170F00000F08
:100DA90039020E63020E74E55DC39409400E1227E1
:100DB9008AAB5AAA5BA95C7409020F4AE4FFFE12C6
:100DC900278EAB5AAA5BA95C7403020F4AE55DB48E
:100DD9000411E4FFFE12278EAB5AAA5BA95C7404C6
:100DE900020F4A12278AAB5AAA5BA95C7405020F43
:100DF9004A12278AAB5AAA5BA95C7405020F4AE515
:100E09005DB40611E4FFFE12278EAB5AAA5BA95CFA
:100E19007406020F4A12278AAB5AAA5BA95C7408A6
:100E2900020F4A12278AAB5AAA5BA95C7407020F00
:100E39004AE55DB40411E4FFFE12278EAB5AAA5BA2
:100E4900A95C7404020F4A12278AAB5AAA5BA95CEF
:100E59007408020F4AE55DB40111E4FFFE12278E02
:100E6900AB5AAA5BA95C7401020F4A12278AAB5AD2
:100E7900AA5BA95C7402020F4AE4FFFE12278EAB3B
:100E89005AAA5BA95C740A020F4AE55DB40B11E426
:100E9900FFFE12278EAB5AAA5BA95C740B020F4A9C
:100EA90012278AAB5AAA5BA95C740C020F4A122753
:100EB9008AAB5AAA5BA95C740C020F4AE55DB40DB2
:100EC90011E4FFFE12278EAB5AAA5BA95C740D02CE
:100ED9000F4A12278AAB5AAA5BA95C740F80621267
:100EE900278AAB5AAA5BA95C740E8055E55DB40BE1
:100EF90010E4FFFE12278EAB5AAA5BA95C740B8023
:100F09004012278AAB5AAA5BA95C740F8033E55D4E
:100F1900B40110E4FFFE12278EAB5AAA5BA95C74D8
:100F290001801E12278AAB5AAA5BA95C7402801140
:100F39009034CAE4F0A37405F0AB5AAA5BA95CE546
:0F0F49005D12091A020D619034CAE0FEA3E0FFA9
:010F58002276
:0E12FB008F5D8E5C8D5B8C5A8B5E8A5F896086
:10130900756900756A00756B00E562456345616042
:101319003C12094EFFAB61AA62A963E5F08FF01296
:1013290009B1AB61E5632402F9E43562FAC003C08F
:1013390002C001AB5EAA5FA96012094ED001D002BA
:10134900D00329F9EA35F08B69F56A896BAB5EE55B
:10135900602402F9E4355FFAC002C001AA5FA960FE
:1013690012094ED001D00229F9EA35F08B66F567EA
:101379008968AF5DAE5CAD5BAC5AEC4D4E4F700306
:10138900021462786674FFF5F0120B031208B2902A
:101399003345F0E4A3F0F56CF56DAF5DAE5CAD5B84
:1013A900AC5AEC4D4E4F7003021442C3E56D9408DC
:1013B900E56C64809480400302144274FFFBFAF9DF
:1013C900F81209FD8F5D8E5C8D5B8C5AE56545646D
:1013D900600EEC4D4E4F70087D01FC7F101228986D
:1013E900903345E05401FD7C007F801228989033AA
:1013F90045E0C313F0E4FDFC7F20122898E56A4517
:101409006B456960201228BD903347EFF090334651
:10141900E0FFAE6DA3E0FDA806088002C333D8FC47
:101429004F903346F07D017C007F20122898056D8E
:10143900E56D7002056C0213A3E56A456B45697099
:101449000302137B903346E0FF786974FFF5F012CD
:091459000B03EF12091A02137BC8
:011462002267
:08115A008B408A4189428D435C
:10116200E490333EF0A3F0A3F0A3F0A3F0E54365CF
:10117200547E0060047F0180027F00903343EEF0D2
:10118200A3EFF0AF47AE46AD45AC44EC4D4E4F70C9
:101192001EAF58AE57AD56AC55EC4D4E4F700302D4
:1011A20012C7120CB9AE57AF581227A80212C7AB1A
:1011B20040AA41A942AD43120CC1AF47AE46AD456C
:1011C200AC44854B61854C62854D63903343E0F5B9
:1011D20064A3E0F565AB48AA49A94A1212FBE54FA0
:1011E2004550454E602D854B5D854C5E854D5F8536
:1011F2005160855261855362AB4EAA4FA950121EAF
:10120200A5EF4E70047F0180027F00903340E4F02E
:10121200A3EFF0903343E07002A3E070030212AD3B
:10122200AB40AA41A94274011208F8903340E07021
:1012320002A3E06053AF58AE57AD56AC55EC4D4EDD
:101242004F6045903342E0C39559503CAB40AA41B0
:10125200A9427D06120CC1AB40AA41A9427D0412EB
:101262000CC1AF58AE57AD56AC557802120A20E504
:10127200582FFFE5573EFEE5563DFDE5553C8F589C
:101282008E578D56F555800BAB40AA41A942AD54FD
:10129200120CC1AF58AE57AD56AC55EC4D4E4F6027
:1012A2000A120CB9AE57AF581227A8903340E0701B
:1012B20002A3E06010903342E0FF04F0EFC39559BF
:1012C20050030211B1903340E07002A3E06021E5C7
:1012D200596014903342E0D39559400B90333EE469
:1012E200F0A37403F0800990333EE4F0A37402F09B
:0812F20090333EE0FEA3E0FF93
:0112FA0022D1
:101F25008B258A2689278F2B8E2A8D298C28AB2EE7
:101F3500AA2FA930AD2DAC2C122380E535453645A9
:101F450034600DAB34AA35A936AD2DAC2C122380E7
:101F5500852B47852A46852945852844852E48852C
:101F65002F4985304A85314B85324C85334D853433
:101F75004E85354F853650853751853852853953CD
:101F8500853A54853E58853D57853C56853B558554
:0E1F95003F59AB25AA26A9277D0412115A2216
:10284100900006E475F0041209D09000061209798F
:04285100FFAEF022C4
:0928D200740112091AE4FEFF2250
:102684008B218A228923E9243BF9EA3402FAC00225
:10269400C001AA22A923900014120979FDACF0D03C
:0A26A40001D002122380E4FEFF22A1
:061768008B218A22892377
:10176E007B007A0079241226D71226AED3EF94B4DA
:10177E00EE648094804010AB21AA22A9239000062B
:10178E00E475F0060218221226AEAC06AD07AB21A8
:10179E00E5232416F9E43522FA122380AB21E52342
:1017AE002408F9E43522FAC003C002C001E48524FE
:1017BE0047F546F545F544E5232416F9E435228B25
:1017CE0048F549894A754B00754C00754D00754EAC
:1017DE0000754F007550007551007552007553001D
:1017EE00AA22A9239000091208CBF55490000C12DE
:1017FE000A478F588E578D568C55E4F559D001D027
:10180E0002D0037D0B12115AAB21AA22A9239000FC
:10181E0006EE8FF01209D0AB21AA22A92390000662
:06182E00120979FFAEF083
:011834002291
:061678008B218A22892368
:10167E00E92416F9E43AFA7D027C00122380AB21AC
:10168E00E5232416F9E43522FA121FA390333A12F9
:10169E000AC790333A120A9B1226B4D3EF94B4EED3
:1016AE0064809480400975240075250602174C90BD
:1016BE00333A120A9B1226B4AC06AD07AB21E523D2
:1016CE002416F9E43522FA122380AB21E5232408EF
:1016DE00F9E43522FAC003C002C00190333A120A6F
:1016EE009B8F478E468D458C44E5232416F9E435B1
:1016FE00228B48F549894A754B00754C00754D0093
:10170E00754E00754F00755000755100755200757D
:10171E005300AA22A9239000091208CBF554900079
:10172E000C120A478F588E578D568C55E4F559D0AA
:10173E0001D002D0037D0B12115A8E248F25E52580
:10174E0045246011AB21AA22A923900006E5248529
:09175E0025F01209D0AE24AF25DC
:01176700225F
:061835008B218A228923A9
:10183B00E92416F9E43AFAC002C001AA22A92390BE
:10184B000014120979FDACF0D001D002122380AB49
:10185B0021E5232408F9E43522FAC003C002C001B4
:10186B00AA22A923900010120A478F478E468D4556
:10187B008C44E92416F9E43A8B48F549894AE52367
:10188B002484F9EA34018B4BF54C894DE52324CDA7
:10189B00F9E43A8B4EF54F8950E523243BF9EA34B2
:1018AB00028B51F5528953A92390000A1208CBF5EC
:1018BB005490000C120A478F588E578D568C5590AA
:1018CB00000B1208CBF559D001D002D0037D0412C6
:1018DB00115AEF4E600FAB21AA22A923900006EEFE
:0518EB008FF01209D08E
:0118F00022D5
:10253D008B218A228923E92416F9E43AFA7D047C59
:10254D0000122380AB21E5232416F9E43522FA127B
:10255D001FA3AB21AA22A92390000C120A77E4FE37
:02256D00FF224B
:0E18F100E9240BF9E43AFA1226D7E4FEFF22AE
:06201F008B218A228923B7
:10202500E4F524F525E92416F9E43AFA7D047C0063
:10203500122380AB21E5232416F9E43522FA121F79
:10204500A3AB21AA22A923900010120A77900010B1
:10205500120A471226B4AB21AA22A923900014EE36
:102065008FF01209D0900014120979D394B4E5F0D9
:10207500648094804017752400752506AB21AA223B
:10208500A923900006E5248525F01209D0AE24AFDA
:012095002525
:012096002227
:0619B8008B218A22892325
:1019BE00E92408F9E43AFAC003C002C001AA22A938
:1019CE0023900010120A47C004C005C006C007903D
:1019DE000014120979F52D85F02CE92416F9E43A54
:1019EE008B2EF52F8930E5232484F9EA34018B31CF
:1019FE00F5328933E52324CDF9E43A8B34F5358974
:101A0E0036E523243BF9EA34028B37F5388939A9B8
:101A1E002390000A1208CBF53A90000C120A478F59
:101A2E003E8E3D8D3C8C3B90000B1208CBF53FD08B
:101A3E0007D006D005D004D001D002D003121F2546
:101A4E00EF4E600FAB21AA22A923900006EE8FF075
:031A5E001209D09A
:011A61002262
:061BA9008B218A22892332
:101BAF009000011208CBB40E0990000A1208CBFF67
:101BBF0080027F048F24AB21E5232408F9E435222A
:101BCF00FAC003C002C001AA22A923900010120A72
:101BDF0047900014120979F52D85F02CE92416F998
:101BEF00E43A8B2EF52F893075310075320075333D
:101BFF00007534007535007536007537007538007F
:101C0F0075390085243AE4F53EF53DF53CF53BF595
:101C1F003FD001D002D003121F25AB21AA22A92346
:101C2F00900006EE8FF01209D0900006120979FF8E
:021C3F00AEF005
:011C41002280
:061B07008B218A228923D4
:101B0D009000011208CBB4110990000A1208CBFF06
:101B1D0080027F048F24AB21E5232408F9E43522CC
:101B2D00FAC003C002C001AA22A923900010120A14
:101B3D0047900014120979F52D85F02CE92416F93A
:101B4D00E43A8B2EF52F8930E5232484F9EA34010C
:101B5D008B31F5328933E52324CDF9E43A8B34F515
:101B6D0035893675370075380075390085243AE4A6
:101B7D00F53EF53DF53CF53BF53FD001D002D003E8
:101B8D00121F25AB21AA22A923900006EE8FF01279
:0B1B9D0009D0900006120979FFAEF09D
:011BA800221A
:0623BD008B218A22892316
:1023C3007B007A0079241226D7AB21E5232408F970
:1023D300E43522FAAD24120CC1AB21AA22A9239021
:1023E3000006EE8FF01209D0900006120979FFAEB5
:0123F300F0F9
:0123F40022C6
:062097008B218A2289233F
:10209D00E4F524F525FB7A0079261226D7E526608E
:1020AD000C64016008752400752505802BAB21AAF1
:1020BD0022A9239000011208CBB4130DE526900040
:1020CD00097002800B740D800CE52690000A7003D8
:1020DD00048002740612092CE52545246011AB21FC
:1020ED00AA22A923900006E5248525F01209D0AE79
:0320FD0024AF25E8
:0121000022BC
:061A62008B218A2289237A
:101A6800E92416F9E43AFA7D017C00122380AB21BF
:101A7800AA22A9239000181208CBF524E92416F904
:101A8800E43AFA7D017C00122380AB21AA22A92323
:101A98009000181208CBF525E92416F9E43AFA7DE6
:101AA800047C00122380AB21E5232416F9E43522B7
:101AB800FA121FA390333A120AC7AB21AA22A9230C
:101AC8009000081208CB6524600CE92408F9E43A70
:101AD800FAAD24120CC190333A120A9B1227A8AB14
:101AE80021AA22A9239000081208CB6525600CE9D9
:0E1AF8002408F9E43AFAAD25120CC1E4FEFF11
:011B060022BC
:10285500900006E4F5F01209D0900006120979FF00
:03286500AEF022B0
:10215D00751D01751E30751F48AB1DAA1EA91F12D6
:10216D002101AB1DAA1EA91F900006EE8FF01209CA
:10217D00D090000612097945F0701FAB1DE51F24A4
:10218D0008F9E4351EFAE4FD120CC1AB1DAA1EA917
:10219D001F900006EE8FF01209D0AB1DAA1EA91FCD
:0A21AD00900006120979FFAEF0223F
:101E1A00AB1DAA1EA91F90000612097945F0706B26
:101E2A001208B27066E92401F9E43AFA1226D7AB2D
:101E3A001DAA1EA91F900002120A47E47B01FAF9A3
:101E4A00F81209FDAB1DAA1EA91F900002120A77FB
:101E5A009000011208CBFFC39418AB1DAA1EA91F3C
:101E6A005026C003C002C001EF75F003A42400F598
:101E7A0082E43430F583120B1389828A83D001D02D
:101E8A0002D003120B468003122841AB1DAA1EA9D9
:0B1E9A001F900006120979FFAEF02235
:061FA3008B268A27892825
:101FA900E4F52CF52BF52AF529F52DF52EAB26AA06
:101FB90027A92812094EFFC3E52E9FE5F06480F892
:101FC900E52D6480985046AF2CAE2BAD2AAC29780C
:101FD90008120A348F2C8E2B8D2A8C29E92402F9B8
:101FE900E43AFAE9252EF9EA352DFA1208B2FFE5A5
:101FF9002C4FFFE52BFEE52AFDE5298F2C8E2B8D35
:102009002AF529052EE52E70A4052D80A0AF2CAE4A
:052019002BAD2AAC29EB
:01201E00229F
:061EA5008B5A8A5B895C88
:101EAB0075630075640112094EFFAEF0E56445637E
:101EBB006063EF1FAC0670011E4C6059AB5AE55CBA
:101ECB002402F9E4355BFAE92FF9EA3EFA1208B27B
:101EDB00F565AB5DE55F2402F9E4355EFAE92FF9B0
:101EEB00EA3EFA1208B2F566E56145624560601894
:101EFB00AB60E5622402F9E43561FAE92FF9EA3EB9
:101F0B00FA1208B252655266E5656566609EE4F5A5
:091F1B0063F5648097AE63AF64C6
:011F2400229A
:042380008C408D41BF
:10238400E5408541F01209B1E92402F9E43A8B42AF
:10239400F5438944E5414540601EAB42AA43A94444
:1023A4001226D7E54115417002154074012544F504
:0823B40044E43543F54380DCED
:0123BC0022FE
:10262D0090E682E030E004E020E60B90E682E030B8
:10263D00E119E030E71590E680E04401F07F147E6B
:0C264D00001222B290E680E054FEF02261
:1025D00030050990E680E0440AF0800790E680E04C
:1025E0004408F07FDC7E051222B290E65D74FFF0B5
:0F25F00090E65FF05391EF90E680E054F7F02211
:1022B2008E238F2490E600E054187012E524240146
:1022C200FFE43523C313F523EF13F524801590E6BD
:1022D20000E05418FFBF100BE52425E0F524E523A8
:1022E20033F523E5241524AE23700215234E600531
:0622F20012271280EE220B
:0828DB00E4F573D2E9D2AF224B
:1023F500AD0790E678E020E6F9C2E990E678E0449A
:1024050080F0ED25E090E679F090E678E030E0F9AF
:1024150090E678E04440F090E678E020E6F990E632
:0824250078E030E1D6D2E92293
:10256F00AC0790E678E020E6F9E573702390E67803
:10257F00E04480F0EC25E090E679F08D6EAF03A992
:10258F0007756F018A708971E4F572757301D32233
:02259F00C32255
:10250900AC0790E678E020E6F9E573702590E67867
:10251900E04480F0EC25E0440190E679F08D6EAF5F
:1025290003A907756F018A708971E4F572757303E0
:04253900D322C322C4
:03004B000215702B
:10157000C0E0C083C082C085C084C086758600C0BC
:10158000D075D000C000C001C002C003C006C007B3
:1015900090E678E030E20675730602165A90E67817
:1015A000E020E10CE5736402600675730702165AC9
:1015B000E57324FE605F14603624FE700302164B50
:1015C00024FC70030216572408600302165AAB6FFE
:1015D000AA70A971AF7205728F827583001208CB51
:1015E00090E679F0E572656E7070757305806B90AA
:1015F000E679E0AB6FAA70A971AE728E8275830036
:1016000012092C757302E56E6401704E90E678E065
:101610004420F08045E56E24FEB5720790E678E040
:101620004420F0E56E14B5720A90E678E04440F08C
:1016300075730090E679E0AB6FAA70A971AE728EF7
:101640008275830012092C0572800F90E678E044C1
:1016500040F075730080037573005391DFD007D09D
:1016600006D003D002D001D000D0D0D086D084D014
:0816700085D082D083D0E03266
:02265900A907CF
:10265B00AE14AF158F828E83A3E064037017AD01A8
:10266B0019ED7001228F828E83E07C002FFDEC3EF2
:08267B00FEAF0580DFE4FEFF65
:012683002234
:1027C500122509E57324FA600E146006240770F3D8
:0C27D500D322E4F573D322E4F573D32281
:1027E10012256FE57324FA600E146006240770F356
:0C27F100D322E4F573D322E4F573D32265
:1026FE0090E682E044C0F090E681F043870100004E
:04270E0000000022A5
:102712007400F58690FDA57C05A3E582458370F9DA
:012722002294
:030043000219009F
:030053000219008F
:101900000227FD0002282B00022815000218FF0004
:1019100002249B000224D2000228F4000228F500D1
:101920000228F6000228F7000228F8000228F90031
:101930000228FA000228FB000228FC000228FD0011
:101940000228FE000228F5000228FF0002290000FC
:1019500002290100022902000229030002290400D1
:10196000022905000228F5000228F5000228F500EA
:10197000022906000229070002290800022909009D
:1019800002290A0002290B0002290C0002290D007D
:1019900002290E0002290F0002291000022911005D
:1019A000022912000229130002291400022915003D
:0819B0000229160002291700AC
:03002B0002288820
:03000000021D8E50
:0C1D8E00787FE4F6D8FD758178021DD541
:1008B200BB010689828A83E0225002E722BBFE0244
:0908C200E32289828A83E4932277
:1008CB00BB010CE58229F582E5833AF583E02250E2
:1008DB0006E92582F8E622BBFE06E92582F8E2222C
:0D08EB00E58229F582E5833AF583E4932246
:1008F800BB010989828A83F8E028F022500327F790
:1009080022BBFE05F8E328F3228A838982F8E49360
:02091800282293
:10091A00BB010689828A83F0225002F722BBFE01BC
:02092A00F322B6
:10092C00F8BB010DE58229F582E5833AF583E8F001
:10093C00225006E92582C8F622BBFE05E92582C8AD
:02094C00F22295
:10094E00BB010A89828A83E0F5F0A3E02250068774
:10095E00F009E71922BBFE07E3F5F009E319228936
:0B096E00828A83E493F5F07401932269
:10097900BB0110E58229F582E5833AF583E0F5F0BC
:10098900A3E0225009E92582F886F008E622BBFE99
:100999000AE92582F8E2F5F008E222E5832AF583DF
:0809A900E993F5F0A3E99322A4
:1009B100BB010A89828A83F0E5F0A3F0225006F791
:0F09C10009A7F01922BBFE06F3E5F009F319228E
:1009D000F8BB0111E58229F582E5833AF583E8F059
:1009E000E5F0A3F0225009E92582C8F608A6F02216
:0D09F000BBFE09E92582C8F2E5F008F222FD
:0D09FD00EF2BFFEE3AFEED39FDEC38FC2249
:10233C00C2D5E830E70FB2D5E4C39BFBE49AFAE4CC
:10234C0099F9E498F8EC30E717B2D5122372120B16
:10235C0084E4C39BFBE49AFAE499F9E498F88003CB
:10236C00120B8430D50DE4C39FFFE49EFEE49DFD6B
:04237C00E49CFC22BF
:100A0A00EB9FF5F0EA9E42F0E99D42F0EC6480C863
:060A1A0064809845F02203
:100A2000E86010ECA2E713FCED13FDEE13FEEF13EC
:040A3000FFD8F022D9
:100A3400E8600FEFC333FFEE33FEED33FDEC33FC20
:030A4400D8F122C4
:100A4700BB010DE58229F582E5833AF583020A9B0E
:100A57005007E92582F8020C16BBFE07E92582F844
:100A6700020C22E58229F582E5833AF583020C2EF2
:100A7700BB010DE58229F582E5833AF583020AC7B2
:100A87005007E92582F8020C3EBBFE07E92582F8EC
:040A9700020C4A22E1
:0C0A9B00E0FCA3E0FDA3E0FEA3E0FF22CE
:100AA7007401FF3395E0FEFDFC080808E6CF2FF63A
:100AB70018E6CE3EF618E6CD3DF618E6CC3CF62213
:0C0AC700ECF0A3EDF0A3EEF0A3EFF022A2
:100AD300BB010DE58229F582E5833AF583020C6FAC
:100AE3005007E92582F8020C56BBFE07E92582F878
:040AF300020CA0222F
:0C0AF700A42582F582E5F03583F583220A
:100B0300FAE6FB0808E625F0F9F618E63AFAF622C3
:090B1300E0FBA3E0FAA3E0F922E3
:100B1C00D083D082F8E4937012740193700DA3A368
:100B2C0093F8740193F5828883E47374029368607C
:060B3C00EFA3A3A380DF7C
:060B42008A838982E4733E
:101D9A00021C42E493A3F8E493A34003F68001F201
:101DAA0008DFF48029E493A3F85407240CC8C3334A
:101DBA00C4540F4420C8834004F456800146F6DF19
:101DCA00E4800B0102040810204080902261E47E26
:101DDA00019360BCA3FF543F30E509541FFEE4930E
:101DEA00A360010ECF54C025E060A840B8E493A3D5
:101DFA00FAE493A3F8E493A3C8C582C8CAC583CA00
:101E0A00F0A3C8C582C8CAC583CADFE9DEE780BEB7
:0122B100002C
:100B480075F008758200EF2FFFEE33FECD33CDCC64
:100B580033CCC58233C5829BED9AEC99E5829840E7
:100B68000CF582EE9BFEED9AFDEC99FC0FD5F0D6C4
:100B7800E4CEFBE4CDFAE4CCF9A88222B800C1B9EE
:100B88000059BA002DEC8BF084CFCECDFCE5F0CB2C
:100B9800F97818EF2FFFEE33FEED33FDEC33FCEB65
:100BA80033FB10D703994004EB99FB0FD8E5E4F920
:100BB800FA227818EF2FFFEE33FEED33FDEC33FC0D
:100BC800C933C910D7059BE99A4007EC9BFCE99A01
:100BD800F90FD8E0E4C9FAE4CCFB2275F010EF2F46
:100BE800FFEE33FEED33FDCC33CCC833C810D70746
:100BF8009BEC9AE899400AED9BFDEC9AFCE899F881
:0E0C08000FD5F0DAE4CDFBE4CCFAE4C8F92213
:0C0C1600E6FC08E6FD08E6FE08E6FF220A
:0C0C2200E2FC08E2FD08E2FE08E2FF220E
:100C2E00E493FC740193FD740293FE740393FF220C
:0C0C3E00ECF608EDF608EEF608EFF622E2
:0C0C4A00ECF208EDF208EEF208EFF222E6
:100C5600D083D082E493F608740193F60874029365
:090C6600F608740393F67404739C
:100C6F00A8828583F0D083D082120C86120C861254
:100C7F000C86120C86E473E493A3C583C5F0C58379
:100C8F00C8C582C8F0A3C583C5F0C583C8C582C8CF
:010C9F002232
:100CA000D083D082E493F208740193F20874029323
:090CB000F208740393F27404735A
:00000001FF
