:0A1097000001020203030404050532
:100A9300C200C202C2011209CBC2AF750A0C750BA8
:100AA3000075120C75131275080C75091C75100C62
:100AB30075114375140C75156AD2E890E668E04425
:100AC30009F090E65CE04435F0D2AF90E680E02098
:100AD300E105D203120F9090E680E054F7F0538EB5
:0E0AE300F8120EFB3001FA1205E6C20180F394
:0210AD00D3224C
:1005E60090E6B9E0700302068E1470030207032436
:1005F600FE700302077E24FB700302068814700354
:100606000207E91460761470030207E92405600303
:100616000207DD90E6BBE024FE602714603824FD67
:10062600601114602724067050E50A90E6B3F0E5E1
:100636000B803C1210AD503EE51290E6B3F0E51388
:10064600802DE50C90E6B3F0E50D8023E50E90E6EF
:10065600B3F0E50F801990E6BAE0FF120FBFAA06C5
:10066600A9077B01EA494B600DEE90E6B3F0EF90E7
:10067600E6B4F00207E90207D80207D8121087028B
:1006860007E91210770207E990E6B8E0247F6015C3
:1006960014601924027063A200E43325E0FFA2026D
:1006A600E4334F8041E490E740F0803F90E6BCE0C1
:1006B600547EFF7E00E0D394807C0040047D018060
:1006C600027D00EC4EFEED4F2497F58274103EF548
:1006D60083E493FF3395E0FEEF24A1FFEE34E68F2B
:1006E60082F583E0540190E740F0E4A3F090E68AB7
:1006F600F090E68B7402F00207E90207D890E6B89C
:10070600E024FE6016240260030207E990E6BAE0E0
:10071600B40105C2000207E90207D890E6BAE07004
:100726005590E6BCE0547EFF7E00E0D394807C00CA
:1007360040047D0180027D00EC4EFEED4F2497F5CE
:100746008274103EF583E493FF3395E0FEEF24A117
:10075600FFEE34E68F82F583E054FEF090E6BCE0CF
:100766005480131313541FFFE0540F2F90E683F0A9
:10077600E04420F0806D805A90E6B8E024FE6019CF
:100786002402704E90E6BAE0B40104D20080549080
:10079600E6BAE06402604C803990E6BCE0547EFF25
:1007A6007E00E0D394807C0040047D0180027D00C1
:1007B600EC4EFEED4F2497F58274103EF583E493DC
:1007C600FF3395E0FEEF24A1FFEE34E68F82F5833A
:1007D600800D90E6A08008120200500790E6A0E087
:0A07E6004401F090E6A0E04480F02A
:0107F00022E6
:030033000210A90F
:0410A90053D8EF32F7
:100C0000120100020000004047050287082001028F
:100C100000010A060002000000400100090227004E
:100C200001010080960904000003FF000000070591
:100C3000810240000007050202000200070586024B
:100C4000000200090227000101008096090400004B
:100C500003FF0000000705810240000007050202B3
:100C60004000000705860240000004030904080351
:100C700049004E0049001003540043005600530041
:080C80003300320030000000D7
:100F900030030990E680E0440AF0800790E680E0A4
:100FA0004408F07FDC7E05120D2B90E65D74FFF0A7
:0F0FB00090E65FF05391EF90E680E054F7F02267
:020FBF00A90780
:100FC100AE14AF158F828E83A3E064037017AD0159
:100FD10019ED7001228F828E83E07C002FFDEC3EA3
:080FE100FEAF0580DFE4FEFF16
:010FE90022E5
:100D2B008E218F2290E600E054187012E5222401E8
:100D3B00FFE43521C313F521EF13F522801590E65F
:100D4B0000E05418FFBF100BE52225E0F522E5214A
:100D5B0033F521E5221522AE21700215214E6005D7
:060D6B0012106680EE226A
:101066007400F58690FDA57C05A3E582458370F99D
:011076002257
:03004300020B00AD
:03005300020B009D
:100B0000021022000210500002103A000210AF0042
:100B1000020E2400020E5B000210B0000210B100B1
:100B20000210B2000210B3000210B4000210B500AF
:100B30000210B6000210B7000210B8000210B9008F
:100B40000210BA000210B1000210BB000210BC007B
:100B50000210BD000210BE000210BF000210C00053
:100B60000210C1000210B1000210B1000210B10069
:100B70000210C2000210C3000210C4000210C5001F
:100B80000210C6000210C7000210C8000210C900FF
:100B90000210CA000210CB000210CC000210CD00DF
:100BA0000210CE000210CF000210D0000210D100BF
:080BB0000210D2000210D30074
:03000300020CE10B
:03001300020F5F7A
:100BB8007E0874E755B1F9740845B1FA74EF5AFA2A
:100BC800741045B1FB74F75BFB741845B1FCEF3347
:100BD800FF401089B1000000008BB10000000089BF
:100BE800B1800E8AB1000000008CB1000000008ABC
:080BF800B100000000DED7226D
:1009CB0090E600E054E74410F0E054FDF090E601AF
:1009DB0074A3F075A80053E8E3E490E610F0000070
:1009EB000090E61174A0F0000000E490E612F00015
:1009FB00000090E613F000000090E61474E0F000A5
:100A0B000000E490E615F000000090E60B7403F094
:100A1B0090E62414F0E490E625F000000090E61A2E
:100A2B007409F000000090E60274E8F0000000E4A6
:100A3B0090E671F000000090E6707403F000000087
:100A4B00E490E672F075B4EF75B6FE75B28875A0DA
:100A5B0002F51BF51AF51FF51EF51DF51C74FFF5B8
:100A6B0019F518F517F516C287C2A543B11053B186
:100A7B00F743B10253B1FB1210A143B160D288D23C
:080A8B00A8D28AD2AA020AFDDA
:100EFB00781C120985E47B507AC3F9F8D3120948A0
:100F0B00500BB287E4F51FF51EF51DF51CE51A24F1
:100F1B004C6008047008120AFD8003120DB4E4F54E
:020F2B001A2288
:030AFD00D283227F
:100DB400C28390E61A7401F000000090E6A9E07086
:100DC4000990E6487406F000000090E6047480F090
:100DD4000000007406F0000000E4F000000090E65B
:080DE4001A7409F0000000225E
:040D7100AA06AC051D
:100D7500E4FD7E000DEE2401F582E43419F583EAE5
:100D8500F00E0D74012EF582E43419F583EFF00DA4
:100D950074012402F582E43419F583ECF0D2877AE4
:0F0DA500197B017F51121006C2877F51020DEC9E
:0A0E92008E298F2A8D2B8A2C8B2DC0
:100E9C00E4F52EE52EC3952B5020052AE52AAE2924
:100EAC007002052914FFE52D252EF582E4352CF56D
:0A0EBC0083E0FD120D71052E80D9B0
:010EC6002209
:0A0C88008E298F2A8D2B8A2C8B2DCC
:100C9200E4FDE529FF7E000DEE2401F582E434191E
:100CA200F583EFF00E0D74012EF582E43419F5830D
:100CB200E52AF07A197B017F51121006E4FFEFC397
:100CC200952B5010E52D2FF582E4352CF58374CD4C
:0F0CD200F00F80EAAB2DAA2CAD2B7F51020FEA59
:10107700E490E740F090E68AF090E68B04F0D32204
:10108700E490E740F090E68AF090E68B04F0D322F4
:10020000B28790E6B9E01209A50442A20442A30510
:10021000C8B305C8B40261B80330B90261BA025A62
:10022000BB035BC30231C403C0CB03DBCC000005BE
:10023000C600000090E61A7401F000000090E60489
:100240007480F00000007406F0000000E4F000008C
:100250000090E61A7409F00205C8D2A0C2A00205F7
:10026000C800000090E6BAE0752100F522A3E0FE88
:10027000EE422190E6BEE0752300F524A3E0FEEEF9
:1002800042239018FFE523F0A3E524F0E52445235D
:100290007003020315E490E68AF090E68BF090E696
:1002A000A0E020E1F990E68BE0752500F52690E6C8
:1002B000B9E064B87043F527F528C3E5289526E52D
:1002C000279525503474402528F582E434E7F583DA
:1002D000E0FF120BB8AF2874402FF582E434E7F545
:1002E00083E0FE74002FF582E43418F583EEF00508
:1002F00028E52870C5052780C1E5262522F522E5D9
:10030000253521F521C3E5249526F524E5239525FA
:10031000F52302028C90E6B9E0B4B80953B1FD00B0
:10032000000043B102E490E68AF090E68BF0C3222D
:1003300090E6BAE0600543B104800353B1FB90E757
:100340004074B9F0000000E490E68AF090E68B0477
:10035000F090E6A0E04480F00205C890E6B8E0B472
:10036000C016A3E090E740F0A3E51BF0E490E68A16
:10037000F090E68B7402803E90E6BAE0F51B7006C2
:10038000C2A3C2A2801FE51BB40106D2A2C2A380F1
:1003900014E51BB40206C2A2D2A38009E51BB40374
:1003A00004D2A2D2A390E6B9E090E740F0E490E650
:1003B0008AF090E68B04F090E6A0E04480F0C3223F
:1003C00090E6B9E090E740F0A2A1E433A3F0E49016
:1003D000E68AF090E68B74020205DCC2AA90E6B9C8
:1003E000E090E740F0AC16E4FFFEFDE51678181249
:1003F000095E90E744EFF0E4FFFEE517FDE4FC78CA
:100400001012097190E743EFF0E4FFE518FEE4FDF8
:10041000FC780812097190E742EFF0E519FF90E7C8
:1004200041EFF0E490E68AF090E68B7405F090E6F8
:10043000A0E04480F0E4F519F518F517F516D2AAF6
:10044000C32290E6BAE0752100F522A3E0FEEE4259
:100450002190E6BEE0752300F524A3E0FEEE4223E2
:1004600090E6B8E064C0600302052EE524452370E1
:10047000030205C490E6A0E020E1F9C3E52494401E
:10048000E5239400500885232585242680067525BC
:100490000075264090E6B9E0B4A335E4F527F528C9
:1004A000C3E5289526E5279525505EE5222528F504
:1004B00082E5213527F583E0FF74402528F582E4A5
:1004C00034E7F583EFF00528E52870D4052780D0C0
:1004D000E4F527F528C3E5289526E5279525501846
:1004E00074402528F582E434E7F58374CDF00528BF
:1004F000E52870E1052780DDAD267AE779407F4069
:10050000AB07AF22AE21120C88E490E68AF090E6A9
:100510008BE526F02522F522E5253521F521C3E5D9
:10052000249526F524E5239525F52302046B90E612
:10053000B8E0644060030205C4E52445237003026B
:1005400005C4E490E68AF090E68BF090E6A0E02007
:10055000E1F990E68BE0752500F52690E6B9E0B468
:10056000A335E4F527F528C3E5289526E527952545
:10057000503674402528F582E434E7F583E0FFE542
:10058000222528F582E5213527F583EFF00528E5BA
:100590002870D4052780D0AD267AE779407F40AB1C
:1005A00007AF22AE21120E92E5262522F522E5257F
:1005B0003521F521C3E5249526F524E5239525F578
:1005C00023020539C322D32290E6B9E0F51AE09060
:1005D000E740F0E490E68AF090E68B04F090E6A025
:0505E000E04480F0C3BF
:0105E50022F3
:100CE100C0E0C083C082C28700000090E604748027
:100CF100F00000007406F0000000E4F00000009035
:100D0100E61A7409F090E6A2E06402601690E7C06A
:100D11007401F000000090E68FF0000000C289D25B
:0A0D2100A8D287D082D083D0E03240
:100F5F00C0E0C0D075D000C000C001C002E4FAF9F3
:100F6F00F8E5192401F519EA3518F518E93517F5DB
:100F7F0017E83516F516D002D001D000D0D0D0E04A
:010F8F00322F
:10102200C0E0C083C082D2015391EF90E65D7401AB
:08103200F0D082D083D0E0323F
:10103A00C0E0C083C0825391EF90E65D7404F0D0A3
:06104A0082D083D0E032E9
:10105000C0E0C083C0825391EF90E65D7402F0D08F
:0610600082D083D0E032D3
:100E2400C0E0C083C08290E680E030E70E85080C05
:100E340085090D85100E85110F800C85100C851108
:100E44000D85080E85090F5391EF90E65D7410F03F
:070E5400D082D083D0E03210
:0110AF00320E
:100E5B00C0E0C083C08290E680E030E70E85080CCE
:100E6B0085090D85100E85110F800C85100C8511D1
:100E7B000D85080E85090F5391EF90E65D7420F0F8
:070E8B00D082D083D0E032D9
:0110B000320D
:0110B100320C
:0110B200320B
:0110B300320A
:0110B4003209
:0110B5003208
:0110B6003207
:0110B7003206
:0110B8003205
:0110B9003204
:0110BA003203
:0110BB003202
:0110BC003201
:0110BD003200
:0110BE0032FF
:0110BF0032FE
:0110C00032FD
:0110C10032FC
:0110C20032FB
:0110C30032FA
:0110C40032F9
:0110C50032F8
:0110C60032F7
:0110C70032F6
:0110C80032F5
:0110C90032F4
:0110CA0032F3
:0110CB0032F2
:0110CC0032F1
:0110CD0032F0
:0110CE0032EF
:0110CF0032EE
:0110D00032ED
:0110D10032EC
:0110D20032EB
:0110D30032EA
:0810A100E4F534D2E9D2AF22DC
:100DEC00AD0790E678E020E6F9C2E990E678E044B9
:100DFC0080F0ED25E090E679F090E678E030E0F9CF
:100E0C0090E678E04440F090E678E020E6F990E651
:080E1C0078E030E1D6D2E922B2
:100F2D00AC0790E678E020E6F9E534702390E6789A
:100F3D00E04480F0EC25E090E679F08D2FAF03A929
:100F4D00077530018A318932E4F533753401D322C6
:020F5D00C322AD
:100EC700AC0790E678E020E6F9E534702590E678FF
:100ED700E04480F0EC25E0440190E679F08D2FAFF7
:100EE70003A9077530018A318932E4F53375340374
:040EF700D322C3221D
:03004B000207F1B8
:1007F100C0E0C083C082C085C084C086758600C049
:10080100D075D000C000C001C002C003C006C0073F
:1008110090E678E030E2067534060208DB90E6786F
:10082100E020E10CE534640260067534070208DB60
:10083100E53424FE605F14603624FE70030208CCA8
:1008410024FC70030208D8240860030208DBAB30E3
:10085100AA31A932AF3305338F827583001208F9AB
:1008610090E679F0E533652F7070753405806B90F3
:10087100E679E0AB30AA31A932AE338E82758300BE
:10088100120926753402E52F6401704E90E678E076
:100891004420F08045E52F24FEB5330790E678E04B
:1008A1004420F0E52F14B5330A90E678E04440F097
:1008B10075340090E679E0AB30AA31A932AE338EBF
:1008C100827583001209260533800F90E678E04493
:1008D10040F075340080037534005391DFD007D0A8
:1008E10006D003D002D001D000D0D0D086D084D0A1
:0808F10085D082D083D0E032F3
:100FEA00120EC7E53424FA600E146006240770F363
:0C0FFA00D322E4F534D322E4F534D322F2
:10100600120F2DE53424FA600E146006240770F3DF
:0C101600D322E4F534D322E4F534D322D5
:03000000020AF100
:0C0AF100787FE4F6D8FD758134020A938A
:1008F900BB010CE58229F582E5833AF583E02250B4
:1009090006E92582F8E622BBFE06E92582F8E222FD
:0D091900E58229F582E5833AF583E4932217
:10092600F8BB010DE58229F582E5833AF583E8F007
:10093600225006E92582C8F622BBFE05E92582C8B3
:02094600F2229B
:10094800EB9FF5F0EA9E42F0E99D42F0EC6480C826
:0609580064809845F022C6
:10095E00E8600FECC313FCED13FDEE13FEEF13FF77
:03096E00D8F1229B
:10097100E86010ECA2E713FCED13FDEE13FEEF139C
:04098100FFD8F02289
:100985007401FF3395E0FEFDFC080808E6CF2FF65D
:1009950018E6CE3EF618E6CD3DF618E6CC3CF62236
:1009A500D083D082F8E4937012740193700DA3A3E1
:1009B50093F8740193F5828883E4737402936860F5
:0609C500EFA3A3A380DFF5
:00000001FF
