:0A117E00000102020303040405054A
:100CAE00C200C202C20112091FC2AF75230C752405
:100CBE0000752B0C752C1275210C75221C75290CC8
:100CCE00752A43752D0C752E6AD2E890E668E044BD
:100CDE0009F090E65CE04435F0D2AF90E680E0207B
:100CEE00E105D20512109390E680E054F7F0538E92
:100CFE00F8120BB8120D683001FA12060CC2018000
:010D0E00F3F1
:0211A800D32250
:10060C0090E6B9E070030206B414700302072924C3
:10061C00FE70030207A424FB70030206AE147003E1
:10062C0002080F14607614700302080F240560038F
:10063C0002080390E6BBE024FE602714603824FD1A
:10064C00601114602724067050E52390E6B3F0E5A2
:10065C0024803C1211A8503EE52B90E6B3F0E52C1B
:10066C00802DE52590E6B3F0E5268023E52790E67E
:10067C00B3F0E528801990E6BAE0FF1210C2AA0682
:10068C00A9077B01EA494B600DEE90E6B3F0EF90C1
:10069C00E6B4F002080F0207FE0207FE12116E020A
:1006AC00080F12115E02080F90E6B8E0247F601567
:1006BC0014601924027063A200E43325E0FFA20247
:1006CC00E4334F8041E490E740F0803F90E6BCE09B
:1006DC00547EFF7E00E0D394807C0040047D01803A
:1006EC00027D00EC4EFEED4F247EF58274113EF53A
:1006FC0083E493FF3395E0FEEF24A1FFEE34E68F05
:10070C0082F583E0540190E740F0E4A3F090E68A90
:10071C00F090E68B7402F002080F0207FE90E6B828
:10072C00E024FE60162402600302080F90E6BAE093
:10073C00B40105C20002080F0207FE90E6BAE07091
:10074C005590E6BCE0547EFF7E00E0D394807C00A4
:10075C0040047D0180027D00EC4EFEED4F247EF5C1
:10076C008274113EF583E493FF3395E0FEEF24A1F0
:10077C00FFEE34E68F82F583E054FEF090E6BCE0A9
:10078C005480131313541FFFE0540F2F90E683F083
:10079C00E04420F0806D805A90E6B8E024FE6019A9
:1007AC002402704E90E6BAE0B40104D2008054905A
:1007BC00E6BAE06402604C803990E6BCE0547EFFFF
:1007CC007E00E0D394807C0040047D0180027D009B
:1007DC00EC4EFEED4F247EF58274113EF583E493CE
:1007EC00FF3395E0FEEF24A1FFEE34E68F82F58314
:1007FC00800D90E6A08008120200500790E6A0E061
:0A080C004401F090E6A0E04480F003
:0108160022BF
:030033000211A413
:0411A40053D8EF32FB
:100C000012010002000000404705018800000102B7
:100C100003010A060002000000400100090227004B
:100C200001010080960904000003FF000000070591
:100C3000810240000007050202000200070586024B
:100C4000000200090227000101008096090400004B
:100C500003FF0000000705810240000007050202B3
:100C60004000000705860240000004030904140345
:100C700041005400430020002600200049004E009F
:100C8000490018035500530042004100450052003E
:100C90006D0069006E006900320012036400650097
:0E0CA0006600610075006C007400200000000A
:10091F0090E600E054E74410F090E60174A3F07500
:10092F00A80053E8E3E490E610F000000090E61111
:10093F0074A0F000000090E612F0000000E490E6D2
:10094F0013F000000090E61474E0F0000000E49053
:10095F00E615F000000090E60B7403F090E6241407
:10096F00F0E490E625F000000090E6047480F000BB
:10097F0000007402F0000000E4F000000090E6496F
:10098F007482F0000000F0000000F0000000F000A2
:10099F00000090E6187411F000000090E61A740938
:1009AF00F000000090E60274E8F0000000E490E62A
:1009BF0071F000000090E6707403F0000000E49006
:1009CF00E672F075B4EF75B6FF75B28875A002C206
:1009DF0004C203F534F533F538F537F536F53574CC
:1009EF00FFF532F531F530F52FD28712119CD288F1
:0709FF00D2A8D28AD2AA227D
:100D6800E533244C601524F3601824FB60191460E3
:100D78001E24F76008241D701C800F80151211882E
:100D88008013120DBE800E12118812119280061265
:100D98000DBE120E0BE4F5337835120A92E47B503F
:100DA8007AC3F9F8D3120A55500BB287E4F538F52F
:060DB80037F536F5352287
:0A118800D203D2A5200402D2A02257
:100BB8007F031210C2AA06A9077508018A09890AC3
:100BC8007A187B007D087FF87E3F120D0FE4FF74D2
:100BD800002FF582E43418F583E0FEAB08AA09A9D2
:100BE8000A75F002EFA42402F582E435F0F583EEED
:070BF800120A330FBF08D8F9
:010BFF0022D3
:0A119200D204D2A7200302D2A0224B
:100E0B00C204C2A70000000000000000200302C2C1
:100E1B00A090E61A7401F000000090E6A9E07009BA
:100E2B0090E6487406F000000090E6047480F00031
:100E3B0000007406F0000000E4F000000090E61AD9
:070E4B007409F00000002211
:100DBE00C203C2A50000000000000000200402C211
:100DCE00A090E6187401F000000090E6047480F024
:100DDE000000007402F0000000E4F000000090E655
:100DEE00497482F0000000F0000000F0000000F0F6
:0D0DFE0000000090E6187411F000000022C3
:040EDE00AA06AC05AF
:100EE200E4FD7E000DEE2400F582E43418F583EA79
:100EF200F00E0D74002EF582E43418F583EFF00D38
:100F020074002402F582E43418F583ECF0D2877A77
:0F0F1200187B007F511210EDC2877F51020F2113
:0A0FC7008E138F148D158A168B17F8
:100FD100E4F518E518C3951550200514E514AE1372
:100FE1007002051314FFE5172518F582E43516F58F
:0A0FF10083E0FD120EDE051880D922
:010FFB0022D3
:0A0D0F008E138F148D158A168B17B2
:100D1900E4FDE513FF7E000DEE2408F582E43418A6
:100D2900F583EFF00E0D74082EF582E43418F5837F
:100D3900E514F07A187B087F511210EDE4FFEFC338
:100D490095155010E5172FF582E43516F58374CD06
:0F0D5900F00F80EAAB17AA16AD157F51020AD82A
:10115E00E490E740F090E68AF090E68B04F0D3221C
:10116E00E490E740F090E68AF090E68B04F0D3220C
:1002000090E6B9E0120AB20468A20468A305EEB34E
:1002100005EEB4037ABB05EEC10289C20381C302B5
:1002200035C405EEC605EEC703E6CB0401CC05EEEA
:10023000D0000005EC00000090E6187401F000000A
:100240000090E61AF000000090E6047480F00000D0
:10025000007402F00000007406F0000000E4F000FA
:10026000000090E6497482F0000000F0000000F009
:10027000000000F000000090E6187411F00000008B
:1002800090E61A7409F00205EE90E6B9E090E740B6
:10029000F0E490E68AF090E68B04F090E6A0E0446B
:1002A00080F090E6A0E020E1F97F031210C2AA06D8
:1002B000A9077510018A11891290E68BE0D3940882
:1002C0004008750A00750B08800990E68BE0750AF6
:1002D00000F50BE4F50EF50FC3E50F950BE50E9554
:1002E0000A5049E50F24F8FFE50E343FFE7440251F
:1002F0000FF582E434E7F583E0FD120EDE7440254D
:100300000FF582E434E7F583E0FDE50F25E0FFE536
:100310000E338F82F583A3A3AB10AA11A912ED129D
:100320000A33050FE50F70B0050E80AC850A0E8507
:100330000B0FC3E50F9408E50E94005032E50F242F
:10034000F8FFE50E343FFE7D20120EDEE50F25E0BE
:10035000FFE50E338F82F583A3A3AB10AA11A91278
:100360007420120A33050FE50F70C7050E80C3E431
:1003700090E68AF090E68BF0C322D2A6C2A60205D0
:10038000EE90E6B8E0B4C016A3E090E740F0A3E535
:1003900034F0E490E68AF090E68B7402803E90E6BA
:1003A000BAE0F5347006C2A2C2A3801FE534B401DE
:1003B00006D2A3C2A28014E534B40206C2A3D2A21C
:1003C0008009E534B40304D2A3D2A290E6B9E09048
:1003D000E740F0E490E68AF090E68B04F090E6A027
:1003E000E04480F0C32290E6B9E090E740F0A2A498
:1003F000E433A3F0E490E68AF090E68B7402020600
:1004000002C2AA90E6B9E090E740F0AC2FE4FFFE0C
:10041000FDE52F7818120A6B90E744EFF0E4FFFE39
:10042000E530FDE4FC7810120A7E90E743EFF0E43B
:10043000FFE531FEE4FDFC7808120A7E90E742EF0A
:10044000F0E532FF90E741EFF0E490E68AF090E6C5
:100450008B7405F090E6A0E04480F0E4F532F531CD
:10046000F530F52FD2AAC32290E6BAE0750800F560
:1004700009A3E0FEEE420890E6BEE0750A00F50B27
:10048000A3E0FEEE420A90E6B8E064C06003020515
:1004900054E50B450A70030205EA90E6A0E020E16E
:1004A000F9C3E50B9440E50A94005008850A0C85D1
:1004B0000B0D8006750C00750D4090E6B9E0B4A3F5
:1004C00035E4F50EF50FC3E50F950DE50E950C50CF
:1004D0005EE509250FF582E508350EF583E0FF742A
:1004E00040250FF582E434E7F583EFF0050FE50FC3
:1004F00070D4050E80D0E4F50EF50FC3E50F950D11
:10050000E50E950C50187440250FF582E434E7F59C
:100510008374CDF0050FE50F70E1050E80DDAD0DA4
:100520007AE779407F40AB07AF09AE08120D0FE4C0
:1005300090E68AF090E68BE50DF02509F509E50CCB
:100540003508F508C3E50B950DF50BE50A950CF597
:100550000A02049190E6B8E0644060030205EAE50F
:100560000B450A70030205EAE490E68AF090E68BF8
:10057000F090E6A0E020E1F990E68BE0750C00F544
:100580000D90E6B9E0B4A335E4F50EF50FC3E50F21
:10059000950DE50E950C50367440250FF582E43428
:1005A000E7F583E0FFE509250FF582E508350EF54F
:1005B00083EFF0050FE50F70D4050E80D0AD0D7AF6
:1005C000E779407F40AB07AF09AE08120FC7E50DD2
:1005D0002509F509E50C3508F508C3E50B950DF57A
:1005E0000BE50A950CF50A02055FC322D32290E6BB
:1005F000B9E0F533E090E740F0E490E68AF090E669
:0B0600008B04F090E6A0E04480F0C303
:01060B0022CC
:100E5200C0E0C083C08200000090E6047480F0000D
:100E620000007406F0000000E4F000000090E61AB2
:100E72007409F090E6A2E0640260F890E7C07401A1
:100E8200F000000090E68FF0000000C289D2A8D0E6
:060E920082D083D0E032A3
:10106200C0E0C0D075D000C000C001C002E4FAF9EF
:10107200F8E5322401F532EA3531F531E93530F55A
:1010820030E8352FF52FD002D001D000D0D0D0E0FB
:01109200322B
:10110900C0E0C083C082D2015391EF90E65D7401C3
:08111900F0D082D083D0E03257
:10112100C0E0C083C0825391EF90E65D7404F0D0BB
:0611310082D083D0E03201
:10113700C0E0C083C0825391EF90E65D7402F0D0A7
:0611470082D083D0E032EB
:100F5900C0E0C083C08290E680E030E70E8521259D
:100F6900852226852927852A28800C852925852AF1
:100F7900268521278522285391EF90E65D7410F08C
:070F8900D082D083D0E032DA
:0111AA003212
:100F9000C0E0C083C08290E680E030E70E85212566
:100FA000852226852927852A28800C852925852ABA
:100FB000268521278522285391EF90E65D7420F045
:070FC000D082D083D0E032A3
:0111AB003211
:0111AC003210
:0111AD00320F
:0111AE00320E
:0111AF00320D
:0111B000320C
:0111B100320B
:0111B200320A
:0111B3003209
:0111B4003208
:0111B5003207
:0111B6003206
:0111B7003205
:0111B8003204
:0111B9003203
:0111BA003202
:0111BB003201
:0111BC003200
:0111BD0032FF
:0111BE0032FE
:0111BF0032FD
:0111C00032FC
:0111C10032FB
:0111C20032FA
:0111C30032F9
:0111C40032F8
:0111C50032F7
:0111C60032F6
:0111C70032F5
:0111C80032F4
:0111C90032F3
:0111CA0032F2
:0111CB0032F1
:0111CC0032F0
:0111CD0032EF
:0111CE0032EE
:1010930030050990E680E0440AF0800790E680E09E
:1010A3004408F07FDC7E05120E9890E65D74FFF035
:0F10B30090E65FF05391EF90E680E054F7F02263
:08119C00E4F51ED2E9D2AF22F6
:100F2100AD0790E678E020E6F9C2E990E678E04482
:100F310080F0ED25E090E679F090E678E030E0F998
:100F410090E678E04440F090E678E020E6F990E61B
:080F510078E030E1D6D2E9227C
:10103000AC0790E678E020E6F9E51E702390E678AC
:10104000E04480F0EC25E090E679F08D19AF03A93B
:1010500007751A018A1B891CE4F51D751E01D32230
:02106000C322A9
:100FFC00AC0790E678E020E6F9E51E702590E678DF
:10100C00E04480F0EC25E0440190E679F08D19AFD6
:10101C0003A907751A018A1B891CE4F51D751E03AB
:04102C00D322C322E6
:03004B0002081791
:10081700C0E0C083C082C085C084C086758600C022
:10082700D075D000C000C001C002C003C006C00719
:1008370090E678E030E206751E0602090190E67838
:10084700E020E10CE51E64026006751E070209013F
:10085700E51E24FE605F14603624FE70030208F272
:1008670024FC70030208FE24086003020901AB1A86
:10087700AA1BA91CAF1D051D8F82758300120A06CE
:1008870090E679F0E51D65197070751E05806B900F
:10089700E679E0AB1AAA1BA91CAE1D8E82758300F0
:1008A700120A33751E02E5196401704E90E678E06E
:1008B7004420F08045E51924FEB51D0790E678E051
:1008C7004420F0E51914B51D0A90E678E04440F09D
:1008D700751E0090E679E0AB1AAA1BA91CAE1D8E07
:1008E70082758300120A33051D800F90E678E04475
:1008F70040F0751E008003751E005391DFD007D0AE
:1009070006D003D002D001D000D0D0D086D084D07A
:0809170085D082D083D0E032CC
:0210C200A9077C
:1010C400AE2DAF2E8F828E83A3E064037017AD0123
:1010D40019ED7001228F828E83E07C002FFDEC3E9F
:0810E400FEAF0580DFE4FEFF12
:0110EC0022E1
:100AD800120FFCE51E24FA600E146006240770F35A
:0C0AE800D322E4F51ED322E4F51ED32235
:1010ED00121030E51E24FA600E146006240770F30A
:0C10FD00D322E4F51ED322E4F51ED3221A
:100E98008E088F0990E600E054187012E5092401C5
:100EA800FFE43508C313F508EF13F509801590E63C
:100EB80000E05418FFBF100BE50925E0F509E50827
:100EC80033F508E5091509AE08700215084E6005E6
:060ED80012114D80EE2214
:10114D007400F58690FDA57C05A3E582458370F9B5
:01115D00226F
:03004300020B00AD
:03005300020B009D
:100B00000211090002113700021121000211AA008E
:100B1000020F5900020F90000211AB000211AC004D
:100B20000211AD000211AE000211AF000211B000BF
:100B30000211B1000211B2000211B3000211B4009F
:100B40000211B5000211AC000211B6000211B7008B
:100B50000211B8000211B9000211BA000211BB0063
:100B60000211BC000211AC000211AC000211AC0079
:100B70000211BD000211BE000211BF000211C0002F
:100B80000211C1000211C2000211C3000211C4000F
:100B90000211C5000211C6000211C7000211C800EF
:100BA0000211C9000211CA000211CB000211CC00CF
:080BB0000211CD000211CE007C
:03000300020E5298
:0300130002106276
:03000000020AF4FD
:0C0AF400787FE4F6D8FD758138020CAE66
:100A0600BB010CE58229F582E5833AF583E02250A5
:100A160006E92582F8E622BBFE06E92582F8E222EF
:0D0A2600E58229F582E5833AF583E4932209
:100A3300F8BB010DE58229F582E5833AF583E8F0F9
:100A4300225006E92582C8F622BBFE05E92582C8A5
:020A5300F2228D
:100A5500EB9FF5F0EA9E42F0E99D42F0EC6480C818
:060A650064809845F022B8
:100A6B00E8600FECC313FCED13FDEE13FEEF13FF69
:030A7B00D8F1228D
:100A7E00E86010ECA2E713FCED13FDEE13FEEF138E
:040A8E00FFD8F0227B
:100A92007401FF3395E0FEFDFC080808E6CF2FF64F
:100AA20018E6CE3EF618E6CD3DF618E6CC3CF62228
:100AB200D083D082F8E4937012740193700DA3A3D3
:100AC20093F8740193F5828883E4737402936860E7
:060AD200EFA3A3A380DFE7
:00000001FF
