:0A23CD0000010202030304040505E9
:101CB200C200C202C201120EFCC2AF750A16750B37
:101CC2000075121675131275081675091C75101613
:101CD20075114375141675156AD2E890E668E044EA
:101CE20009F090E65CE04435F0D2AF90E680E02067
:101CF200E105D20612221290E680E054F7F0538EEC
:101D0200F81215B81222BD3001FA120B6BC2018013
:011D1200F3DD
:0214FD00D322F8
:100B6B0090E6B9E0B40C004002A14E900B7C25E05E
:100B7B007381048177A14E81EFA14EA14E6194A1A7
:100B8B004E61FFA15A61FAA15A90E6BBE024FE60C8
:100B9B002714603824FD60111460272406704EE57D
:100BAB000A90E6B3F0E50B803C1214FD503DE512C4
:100BBB0090E6B3F0E513802DE50C90E6B3F0E50D70
:100BCB008023E50E90E6B3F0E50F801990E6BAE0CE
:100BDB00FF122241AA06A9077B01EA494B600CEEE2
:100BEB0090E6B3F0EF90E6B4F0A15AA149A14912F7
:100BFB002397A15A120003A15A90E6B8E0247F6014
:100C0B001514601924027062A200E43325E0FFA2E0
:100C1B0002E4334F8041E490E740F0803F90E6BC24
:100C2B00E0547EFF7E00E0D394807C0040047D0185
:100C3B0080027D00EC4EFEED4F24CDF58274233EF9
:100C4B00F583E493FF3395E0FEEF24A1FFEE34E64A
:100C5B008F82F583E0540190E740F0E4A3F090E637
:100C6B008AF090E68B7402F0A15AA14990E6B8E0A5
:100C7B0024FE601324026002A15A90E6BAE0B4018C
:100C8B0004C200A15AA14990E6BAE0705590E6BCA7
:100C9B00E0547EFF7E00E0D394807C0040047D0115
:100CAB0080027D00EC4EFEED4F24CDF58274233E89
:100CBB00F583E493FF3395E0FEEF24A1FFEE34E6DA
:100CCB008F82F583E054FEF090E6BCE05480131362
:100CDB0013541FFFE0540F2F90E683F0E04420F0F5
:100CEB00806D805A90E6B8E024FE60192402704EA5
:100CFB0090E6BAE0B40104D200805490E6BAE06406
:100D0B0002604C803990E6BCE0547EFF7E00E0D35D
:100D1B0094807C0040047D0180027D00EC4EFEED52
:100D2B004F24CDF58274233EF583E493FF3395E096
:100D3B00FEEF24A1FFEE34E68F82F583800D90E663
:100D4B00A08008120056500790E6A0E04401F090F6
:060D5B00E6A0E04480F078
:010D6100226F
:030033000217FAB7
:0417FA0053D8EF329F
:1016000012010002000000404705018802000102AB
:1016100003010A0600020000004001000902270041
:1016200001010080960904000003FF000000070587
:101630008102400000070502020002000705860241
:101640000002000902270001010080960904000041
:1016500003FF0000000705810240000007050202A9
:10166000400000070586024000000403090414033B
:1016700041005400430020002600200049004E0095
:101680004900180355005300420041004500520034
:101690006D0069006E00690032001203640065008D
:0E16A0006600610075006C0074002000000000
:100EFC0090E600E054E74410F090E60174A3F0751E
:100F0C00A80053E8E3E490E610F000000090E6112E
:100F1C0074A0F000000090E612F0000000E490E6EF
:100F2C0013F000000090E61474E0F0000000E49070
:100F3C00E615F000000090E60B7403F090E6241424
:100F4C00F0E490E625F000000090E6047480F000D8
:100F5C0000007402F00000007406F0000000E4F0E1
:100F6C0000000090E6497482F0000000F0000000E0
:100F7C00F0000000F000000090E6187411F0000082
:100F8C000090E61A7409F000000090E60274E8F094
:100F9C00000000E490E671F000000090E67074032D
:100FAC00F0000000E490E672F075A00275B4EF75E5
:100FBC00B60F75B1FF75B288C205C203F51BD2041A
:100FCC00F51FF51EF51DF51C74FFF519F518F51731
:0E0FDC00F516D2871223EAD28AD2AAD2A02218
:1022BD00781C1206F5E47B507AC3F9F8D312065157
:0E22CD00500BB287E4F51FF51EF51DF51C221F
:05004600D203D2A52247
:1015B8007F03122241AA06A9077521018A228923DD
:1015C8007A2B7B3A7D087FF87E7F121DC9E4FF7471
:1015D8003A2FF582E4342BF583E0FEAB21AA22A949
:1015E8002375F002EFA42402F582E435F0F583EECA
:0715F8001205800FBF08D8A7
:0115FF0022C9
:05004E00D205D2A7223B
:101F8500C205C2A7000000000090E61A7401F00027
:101F9500000090E6A9E0700990E6487406F000009C
:101FA5000090E6047480F00000007406F000000064
:0F1FB500E4F000000090E61A7409F0000000222A
:101EB900C203C2A5000000000090E6187401F000FA
:101EC900000090E6047480F00000007402F0000045
:101ED90000E4F000000090E6497482F0000000F090
:101EE900000000F0000000F000000090E6187411F6
:051EF900F000000022D2
:041F4200AA06AC053A
:101F4600E4FD7E000DEE24CAF582E4342CF583EA26
:101F5600F00E0D74CA2EF582E4342CF583EFF00DE5
:101F660074CA2402F582E4342CF583ECF0D2877A25
:0F1F76002C7BCA7F51122315C2877F51021FC4D3
:0A20E3008E2C8F2D8D2E8A2F8B304E
:1020ED00E4F531E531C3952E5020052DE52DAE2CAF
:1020FD007002052C14FFE5302531F582E4352FF5FE
:0A210D0083E0FD121F42053180D966
:0121170022A5
:0A1DC9008E2C8F2D8D2E8A2F8B306B
:101DD300E4FDE52CFF7E000DEE24CAF582E4342CED
:101DE300F583EFF00E0D74CA2EF582E4342CF583DF
:101DF300E52DF07A2C7BCA7F51122315E4FFEFC344
:101E0300952E5010E5302FF582E4352FF58374CDF0
:0F1E1300F00F80EAAB30AA2FAD2E7F510222F9DB
:10000300E490E740F090E68AF090E68B04F0D32288
:10239700E490E740F090E68AF090E68B04F0D322D1
:1000560090E6B9E0120745036BA2036BA3008BB3CE
:10006600008DB4019ABB0097C100A9C20285C301E5
:10007600A0C50099C600A1C702EACB0304CC009232
:10008600D0000004E9800F121F8581EB1200468123
:10009600EB800B12004612004E81EB121F85121EDA
:1000A600B981EB90E6B9E090E740F0E490E68AF09B
:1000B60090E68B04F090E6A0E04480F090E6A0E0A5
:1000C60020E1F97F03122241AA06A9077529018AB0
:1000D6002A892B90E68BE0D3940840087523007597
:1000E6002408800990E68BE0752300F524E4F527C3
:1000F600F528C3E5289524E52795235049E52824C6
:10010600F8FFE527347FFE74402528F582E434E7BE
:10011600F583E0FD121F4274402528F582E434E79A
:10012600F583E0FDE52825E0FFE527338F82F5839B
:10013600A3A3AB29AA2AA92BED1205800528E52839
:1001460070B0052780AC852327852428C3E528942D
:1001560008E52794005032E52824F8FFE527347F88
:10016600FE7D20121F42E52825E0FFE527338F821A
:10017600F583A3A3AB29AA2AA92B7420120580050F
:1001860028E52870C7052780C3E490E68AF090E644
:100196008BF0C322D2A6C2A681EB90E6B8E06440FB
:1001A6006002417830040AF5B175B6DF121D6FC2E0
:1001B6000490E6BEE0752300F524A3E0FEEE42239C
:1001C600D3E5249490E52394014005751A0A4171FC
:1001D600E4F521F5227B017A2B793A1223C1E52435
:1001E60045236071E490E68AF090E68BF090E6A0F5
:1001F600E020E1F990E68BE0752500F526E4F52789
:10020600F528C3E5289526E5279525502D74402524
:1002160028F582E434E7F583E0FFE5222528FDE5AD
:10022600213527FC743A2DF582742B3CF583EFF0CB
:100236000528E52870CC052780C8E5262522F52265
:10024600E5253521F521C3E5249526F524E52395F5
:1002560025F523808990E6BAE07002800E1219CE49
:100266008F1AE51AD39400500281EB75B60FD204AB
:1002760081EB90E6B9E090E740F0A3E51A80729032
:10028600E6B8E0B4C016A3E090E740F0A3E51BF0A3
:10029600E490E68AF090E68B7402803E90E6BAE03F
:1002A600F51B7006C2A2C2A3801FE51BB40106D2CD
:1002B600A3C2A28014E51BB40206C2A3D2A280097F
:1002C600E51BB40304D2A3D2A290E6B9E090E740BE
:1002D600F0E490E68AF090E68B04F090E6A0E04425
:1002E60080F0C32290E6B9E090E740F0A2A4E433A0
:1002F600A3F0E490E68AF090E68B740281FCC2AA31
:1003060090E6B9E090E740F0AC16E4FFFEFDE51696
:10031600781812066790E744EFF0E4FFFEE517FD54
:10032600E4FC781012067A90E743EFF0E4FFE51854
:10033600FEE4FDFC780812067A90E742EFF0E51934
:10034600FF90E741EFF0E490E68AF090E68B7405C3
:10035600F090E6A0E04480F0E4F519F518F517F5FD
:1003660016D2AAC32290E6BAE0752100F522A3E0D0
:10037600FEEE422190E6BEE0752300F524A3E0FEE2
:10038600EE422390E6B8E064C060028154E524455D
:1003960023700281E790E6A0E020E1F9C3E524940A
:1003A60040E523940050088523258524268006757C
:1003B600250075264090E6B9E0B4A335E4F527F5A7
:1003C60028C3E5289526E5279525505EE5222528AC
:1003D600F582E5213527F583E0FF74402528F5826F
:1003E600E434E7F583EFF00528E52870D405278087
:1003F600D0E4F527F528C3E5289526E52795255069
:100406001874402528F582E434E7F58374CDF005A9
:1004160028E52870E1052780DDAD267AE779407F5B
:1004260040AB07AF22AE21121DC9E490E68AF090D8
:10043600E68BE526F02522F522E5253521F521C3B3
:10044600E5249526F524E5239525F523619390E685
:10045600B8E06440600281E7E5244523700281E745
:10046600E490E68AF090E68BF090E6A0E020E1F9D1
:1004760090E68BE0752500F52690E6B9E0B4A33545
:10048600E4F527F528C3E5289526E5279525503672
:1004960074402528F582E434E7F583E0FFE522255C
:1004A60028F582E5213527F583EFF00528E5287044
:1004B600D4052780D0AD267AE779407F40AB07AFD9
:1004C60022AE211220E3E5262522F522E525352157
:1004D600F521C3E5249526F524E5239525F5238105
:1004E6005EC322D32290E6B9E090E740F0E490E6BE
:0F04F6008AF090E68B04F090E6A0E04480F0C31B
:0105050022D3
:1021B000C0E0C0D075D000C000C001C002E4FAF990
:1021C000F8E5192401F519EA3518F518E93517F578
:1021D00017E83516F516D002D001D000D0D0D0E0E7
:0121E00032CC
:10233100C0E0C083C082D2015391EF90E65D740189
:08234100F0D082D083D0E0321D
:100FEA00C0E0C083C0825391EF90E65D7404F0D0F4
:060FFA0082D083D0E0323A
:10234900C0E0C083C0825391EF90E65D7402F0D083
:0623590082D083D0E032C7
:10207500C0E0C083C08290E680E030E70E85080CA2
:1020850085090D85100E85110F800C85100C8511A5
:102095000D85080E85090F5391EF90E65D7410F0DC
:0720A500D082D083D0E032AD
:0114FF0032BA
:1020AC00C0E0C083C08290E680E030E70E85080C6B
:1020BC0085090D85100E85110F800C85100C85116E
:1020CC000D85080E85090F5391EF90E65D7420F095
:0720DC00D082D083D0E03276
:0117FE0032B8
:0117FF0032B7
:011FFC0032B2
:011FFD0032B1
:011FFE0032B0
:011FFF0032AF
:0123F20032B8
:0123F30032B7
:0123F40032B6
:0123F50032B5
:0123F60032B4
:0123F70032B3
:0123F80032B2
:0123F90032B1
:0123FA0032B0
:0123FB0032AF
:0123FC0032AE
:0123FD0032AD
:0123FE0032AC
:0123FF0032AB
:0124000032A9
:0124010032A8
:0124020032A7
:0124030032A6
:0124040032A5
:0124050032A4
:0124060032A3
:0124070032A2
:0124080032A1
:0124090032A0
:01240A00329F
:01240B00329E
:01240C00329D
:01240D00329C
:01240E00329B
:01240F00329A
:1022120030060990E680E0440AF0800790E680E00C
:102222004408F07FDC7E05121E7390E65D74FFF0B9
:0F22320090E65FF05391EF90E680E054F7F022D2
:0823EA00E4F573D2E9D2AF2241
:101FC400AD0790E678E020E6F9C2E990E678E044CF
:101FD40080F0ED25E090E679F090E678E030E0F9E5
:101FE40090E678E04440F090E678E020E6F990E668
:081FF40078E030E1D6D2E922C9
:10214C00AC0790E678E020E6F9E573702390E6782A
:10215C00E04480F0EC25E090E679F08D6EAF03A9B9
:10216C0007756F018A708971E4F572757301D3225A
:02217C00C3227C
:10211800AC0790E678E020E6F9E573702590E6785C
:10212800E04480F0EC25E0440190E679F08D6EAF54
:1021380003A907756F018A708971E4F572757303D5
:04214800D322C322B9
:03004B0002117728
:10117700C0E0C083C082C085C084C086758600C0B9
:10118700D075D000C000C001C002C003C006C007B0
:1011970090E678E030E20675730602126190E67811
:1011A700E020E10CE57364026006757307021261C3
:1011B700E57324FE605F14603624FE70030212524A
:1011C70024FC700302125E24086003021261AB6FF5
:1011D700AA70A971AF7205728F8275830012051FFD
:1011E70090E679F0E572656E7070757305806B90A7
:1011F700E679E0AB6FAA70A971AE728E8275830033
:10120700120580757302E56E6401704E90E678E012
:101217004420F08045E56E24FEB5720790E678E03D
:101227004420F0E56E14B5720A90E678E04440F089
:1012370075730090E679E0AB6FAA70A971AE728EF4
:10124700827583001205800572800F90E678E0446E
:1012570040F075730080037573005391DFD007D09A
:1012670006D003D002D001D000D0D0D086D084D011
:0812770085D082D083D0E03263
:02224100A907EB
:10224300AE14AF158F828E83A3E064037017AD01C4
:1022530019ED7001228F828E83E07C002FFDEC3E0E
:08226300FEAF0580DFE4FEFF81
:01226B002250
:1022F900122118E57324FA600E146006240770F39E
:0C230900D322E4F573D322E4F573D32251
:1023150012214CE57324FA600E146006240770F34D
:0C232500D322E4F573D322E4F573D32235
:101E73008E218F2290E600E054187012E52224018F
:101E8300FFE43521C313F521EF13F522801590E606
:101E930000E05418FFBF100BE52225E0F522E521F1
:101EA30033F521E5221522AE21700215214E60057E
:061EB30012238680EE22DE
:102386007400F58690FDA57C05A3E582458370F96A
:012396002224
:03004300021500A3
:0300530002150093
:101500000223310002234900020FEA000214FF0007
:10151000022075000220AC000217FE000217FF0037
:10152000021FFC00021FFD00021FFE00021FFF0041
:101530000223F2000223F3000223F4000223F50049
:101540000223F6000217FF000223F7000223F8002F
:101550000223F9000223FA000223FB000223FC000D
:101560000223FD000217FF000217FF000217FF0011
:101570000223FE000223FF000224000002240100D7
:1015800002240200022403000224040002240500B5
:101590000224060002240700022408000224090095
:1015A00002240A0002240B0002240C0002240D0075
:0815B00002240E0002240F00CA
:030013000221B017
:061B57008B268A27892875
:101B5D00E4F52CF52BF52AF529F52DF52EAB26AA56
:101B6D0027A9281205A2FFC3E52E9FE5F06480F892
:101B7D00E52D6480985043AF2CAE2BAD2AAC29785F
:101B8D000812068E8F2C8E2B8D2A8C29E92402F9B2
:101B9D00E43AFAE9252EF9EA352DFA120506FFE5A4
:101BAD002C4FF52CE52BF52BE52AF52AE529F52902
:101BBD00052EE52E70A7052D80A3AF2CAE2BAD2ADB
:021BCD00AC2941
:011BCF0022F3
:061A59008B5A8A5B895CD8
:101A5F007563007564011205A2FFAEF0E56445637E
:101A6F006063EF1FAC0670011E4C6059AB5AE55C0A
:101A7F002402F9E4355BFAE92FF9EA3EFA1205067A
:101A8F00F565AB5DE55F2402F9E4355EFAE92FF900
:101A9F00EA3EFA120506F566E56145624560601893
:101AAF00AB60E5622402F9E43561FAE92FF9EA3E09
:101ABF00FA12050652655266E5656566609EE4F5A5
:091ACF0063F5648097AE63AF6417
:011AD80022EB
:042000008C408D4142
:10200400E5408541F0120605E92402F9E43A8B42E1
:10201400F5438944E5414540601EAB42AA43A944C7
:10202400122296E54115417002154074012544F5CC
:0820340044E43543F54380DC70
:01203C002281
:101E220060482800FF23E1FF226CFF1369FF144181
:101E3200FF217EFF235FFF235FFF23A7FF1BD0FF4E
:101E420016AEFF235FFF235FFF18A9FF18A9FF1833
:101E5200A9FF1758FF1758FF1758FF203DFF1C48CE
:0C1E6200FF1C48FF127FFF2373FF1800D5
:101D1300E412056E90000112058090000212072163
:101D230000000000900006E4F5F012062490000B7A
:101D3300E4120580900008E4120580900009740104
:101D430012058090000A740112058090001012079A
:101D53002100000000900014E4F5F0120624900026
:0C1D63000C12072100000000E4FEFF222B
:0E21E100902B3AE0FCA3E0FDA3E0FEA3E0FF9C
:1021EF008F298E288D278C26E5292407FFE4352893
:1021FF00FEE43527FDE43526FCE47B08FAF9F812F6
:03220F001EFE228E
:0422DB007F017E0001
:1022DF00AD07AC067F80120036E4FDFC7F101200C4
:0A22EF00367D017C007F10020036EE
:0808EE00AB40AA41A9427D01C3
:0808F6008B5A8A5B895C8D5D61
:1008FE00E4902CCAF0A3F0E55D704CF55EF55F0553
:10090E005FE55F7002055EB4D0F5E55EB407F012E8
:10091E0022DBE4F55EF55FE4FDFC7F101200367D10
:10092E00017C007F10120036055FE55F7002055EE8
:10093E00C39405E55E6480948040DCAB5AAA5BA943
:10094E005CE412056E6162AB5AAA5BA95C120506E5
:10095E00FF655D601EE55DB40704EFB4060AE55D54
:10096E00B40E10EF640D600B902CCAE4F0A3740566
:10097E00F06162E55DB5070CB406024149E55DB470
:10098E000D0241FBAB5AAA5BA95C120506FF655D21
:10099E0070026162EFB410004002614C9009B02504
:1009AE00E07321D021D221D421F8411A41274149A7
:1009BE0041564178419A41AA41CC41D941FB610847
:1009CE00612A417D418DE55DC39409400D1222DB04
:1009DE00AB5AAA5BA95C7409615DE4FFFE1222DFCB
:1009EE00AB5AAA5BA95C7403615DE55DB40410E4C7
:1009FE00FFFE1222DFAB5AAA5BA95C7404615D1282
:100A0E0022DBAB5AAA5BA95C7405615D1222DBABDB
:100A1E005AAA5BA95C7405615DE55DB40610E4FF3E
:100A2E00FE1222DFAB5AAA5BA95C7406615D12222C
:100A3E00DBAB5AAA5BA95C7408615D1222DBAB5A70
:100A4E00AA5BA95C7407615DE55DB40410E4FFFE6A
:100A5E001222DFAB5AAA5BA95C7404615D1222DB21
:100A6E00AB5AAA5BA95C7408615DE55DB40110E444
:100A7E00FFFE1222DFAB5AAA5BA95C7401615D1204
:100A8E0022DBAB5AAA5BA95C7402615DE4FFFE1225
:100A9E0022DFAB5AAA5BA95C740A615DE55DB40BFB
:100AAE0010E4FFFE1222DFAB5AAA5BA95C740B6145
:100ABE005D1222DBAB5AAA5BA95C740C615D12223B
:100ACE00DBAB5AAA5BA95C740C615DE55DB40D10DD
:100ADE00E4FFFE1222DFAB5AAA5BA95C740D806F95
:100AEE001222DBAB5AAA5BA95C740F80621222DB66
:100AFE00AB5AAA5BA95C740E8055E55DB40B10E48D
:100B0E00FFFE1222DFAB5AAA5BA95C740B80401267
:100B1E0022DBAB5AAA5BA95C740F8033E55DB4018E
:100B2E0010E4FFFE1222DFAB5AAA5BA95C740180AF
:100B3E001E1222DBAB5AAA5BA95C74028011902CA8
:100B4E00CAE4F0A37405F0AB5AAA5BA95CE55D128A
:0C0B5E00056E2192902CCAE0FEA3E0FF7F
:010B6A002268
:0E1000008F5D8E5C8D5B8C5A8B5E8A5F896083
:10100E00756900756A00756B00E562456345616040
:10101E003C1205A2FFAB61AA62A963E5F08FF01244
:10102E000605AB61E5632402F9E43562FAC003C03C
:10103E0002C001AB5EAA5FA9601205A2D001D00268
:10104E00D00329F9EA35F08B69F56A896BAB5EE559
:10105E00602402F9E4355FFAC002C001AA5FA960FC
:10106E001205A2D001D00229F9EA35F08B66F56798
:10107E008968AF5DAE5CAD5BAC5AEC4D4E4F700205
:10108E002176AB66E56815687002156714F9AA67D4
:10109E00120506902B45F0E4A3F0F56CF56DAF5DEF
:1010AE00AE5CAD5BAC5AEC4D4E4F70022153C3E5B6
:1010BE006D9408E56C648094804002215374FF2F78
:1010CE00F55DEE34FFF55CED34FFF55BEC34FFF5CA
:1010DE005AE56545646016AF5DAE5CAD5BAC5AEC2F
:1010EE004D4E4F70087D01FC7F80120036902B45CF
:1010FE00E05401FD7C007F40120036902B45E0C38A
:10110E0013F0E4FDFC7F10120036E56A456B45696D
:10111E0060201223D7902B47EFF0902B46E0FFAEC6
:10112E006DA3E0FDA806088002C333D8FC4F902BB8
:10113E0046F07D017C007F10120036056DE56D7066
:10114E0002056C01ACE56A456B4569700201809041
:10115E002B46E0FFAB69E56B156B7002156A14F94F
:08116E00AA6AEF12056E018070
:011176002256
:080D62008B408A4189428D4358
:100D6A00E4902B3EF0A3F0A3F0A3F0A3F0E54365D3
:100D7A00547E0060047F0180027F00902B43EEF0D6
:100D8A00A3EFF0AF47AE46AD45AC44EC4D4E4F70C5
:100D9A001CAF58AE57AD56AC55EC4D4E4F7002C114
:100DAA00C81208EEAE57AF58120016C1C8AB40AA17
:100DBA0041A942AD431208F6AF47AE46AD45AC4431
:100DCA00854B61854C62854D63902B43E0F564A3A6
:100DDA00E0F565AB48AA49A94A121000E54F45500B
:100DEA00454E602D854B5D854C5E854D5F85516016
:100DFA00855261855362AB4EAA4FA950121A59EF18
:100E0A004E70047F0180027F00902B40E4F0A3EF34
:100E1A00F0902B43E07002A3E07002C1AFAB40AA8E
:100E2A0041A942740112054C902B40E07002A3E0E4
:100E3A006050AF58AE57AD56AC55EC4D4E4F604270
:100E4A00902B42E0C395595039AB40AA41A9427D43
:100E5A00061208F6AB40AA41A9427D041208F6AF71
:100E6A0058AE57AD56AC55780212067AE5582FF5AA
:100E7A0058E5573EF557E5563DF556E5553CF555C7
:100E8A00800BAB40AA41A942AD541208F6AF58AE46
:100E9A0057AD56AC55EC4D4E4F600A1208EEAE57A0
:100EAA00AF58120016902B40E07002A3E0600F903A
:100EBA002B42E0FF04F0EFC395595002A1B7902BE3
:100ECA0040E07002A3E06021E5596014902B42E0F3
:100EDA00D39559400B902B3EE4F0A37403F080099C
:100EEA00902B3EE4F0A37402F0902B3EE0FEA3E0C8
:010EFA00FFF8
:010EFB0022D4
:101AD9008B258A2689278F2B8E2A8D298C28AB2E38
:101AE900AA2FA930AD2DAC2C122000E5354536457D
:101AF90034600DAB34AA35A936AD2DAC2C122000BB
:101B0900852B47852A46852945852844852E48857C
:101B19002F4985304A85314B85324C85334D853483
:101B29004E85354F8536508537518538528539531D
:101B3900853A54853E58853D57853C56853B5585A4
:0E1B49003F59AB25AA26A9277D04120D622262
:10235F00900006E475F0041206249000061205CDD5
:04236F00FFAEF022AB
:0923E100740112056EE4FEFF22F6
:10226C008B218A228923E9243BF9EA3402FAC00241
:10227C00C001AA22A9239000141205CDFDACF0D008
:0A228C0001D002122000E4FEFF2240
:061369008B218A2289237A
:10136F007B007A007924122296AF24E4FCFDFE1252
:10137F0021EFD3EF94B4EE64809480400FAB21AA99
:10138F0022A923900006E475F006812EAF24E4FC19
:10139F00FDFE1221EFAC06AD07AB21E5232416F9B4
:1013AF00E43522FA122000AB21E5232408F9E435B5
:1013BF0022FAC003C002C001E4852447F546F54573
:1013CF00F544E5232416F9E435228B48F549894A7B
:1013DF00754B00754C00754D00754E00754F0075BF
:1013EF005000755100755200755300AA22A9239021
:1013FF00000912051FF55490000C1206A18F588E8C
:10140F00578D568C55E4F559D001D002D0037D0B82
:10141F00120D62AB21AA22A923900006EE8FF012C3
:10142F000624AB21AA22A9239000061205CDFFAEF8
:01143F00F0BC
:011440002289
:06127F008B218A22892365
:10128500E92416F9E43AFA7D027C00122000AB212C
:10129500E5232416F9E43522FA121B57902B3A124E
:1012A50007151221E1D3EF94B4EE648094804008D1
:1012B500752400752506614D1221E1AC06AD07AB1D
:1012C50021E5232416F9E43522FA122000AB21E5A5
:1012D500232408F9E43522FAC003C002C001902B8B
:1012E5003AE0FCA3E0FDA3E0FEA3E0F5478E468DC2
:1012F500458C44E5232416F9E435228B48F54989C4
:101305004A754B00754C00754D00754E00754F00C4
:10131500755000755100755200755300AA22A92316
:1013250090000912051FF55490000C1206A18F5864
:101335008E578D568C55E4F559D001D002D0037DDA
:101345000B120D628E248F25E52545246011AB21F6
:10135500AA22A923900006E5248525F0120624AECD
:0313650024AF258D
:011368002262
:061441008B218A228923A1
:10144700E92416F9E43AFAC002C001AA22A92390B6
:1014570000141205CDFDACF0D001D002122000AB74
:1014670021E5232408F9E43522FAC003C002C001AC
:10147700AA22A9239000101206A18F478E468D45F8
:101487008C44E92416F9E43A8B48F549894AE5235F
:101497002484F9EA34018B4BF54C894DE52324CD9F
:1014A700F9E43A8B4EF54F8950E523243BF9EA34AA
:1014B700028B51F5528953A92390000A12051FF593
:1014C7005490000C1206A18F588E578D568C55904C
:1014D700000B12051FF559D001D002D0037D04126D
:1014E7000D62EF4E600FAB21AA22A923900006EEF2
:0514F7008FF012062435
:0114FC0022CD
:10217E008B218A228923E92416F9E43AFA7D047C1C
:10218E0000122000AB21E5232416F9E43522FA12C1
:10219E001B57AB21AA22A92390000C1206D1E4FEF4
:0221AE00FF220E
:0E23A700E9240BF9E43AFA122296E4FEFF2232
:061BD0008B218A2289230B
:101BD600E4F524F525E92416F9E43AFA7D047C00B7
:101BE600122000AB21E5232416F9E43522FA121B54
:101BF60057AB21AA22A9239000101206D1900010FB
:101C06001206A11221EFAB21AA22A923900014EEFD
:101C16008FF01206249000141205CDD394B4E5F08B
:101C2600648094804017752400752506AB21AA228E
:101C3600A923900006E5248525F0120624AE24AFDC
:011C46002578
:011C4700227A
:0616AE008B218A22892332
:1016B400E92408F9E43AFAC003C002C001AA22A945
:1016C400239000101206A1C004C005C006C00790F4
:1016D40000141205CDF52D85F02CE92416F9E43A11
:1016E4008B2EF52F8930E5232484F9EA34018B31DC
:1016F400F5328933E52324CDF9E43A8B34F5358981
:1017040036E523243BF9EA34028B37F5388939A9C5
:101714002390000A12051FF53A90000C1206A18FBF
:101724003E8E3D8D3C8C3B90000B12051FF53FD047
:1017340007D006D005D004D001D002D003121AD9A4
:10174400EF4E600FAB21AA22A923900006EE8FF082
:0317540012062456
:01175700226F
:0618A9008B218A22892335
:1018AF0090000112051FB40E0990000A12051FFFC8
:1018BF0080027F048F24AB21E5232408F9E435222D
:1018CF00FAC003C002C001AA22A923900010120679
:1018DF00A19000141205CDF52D85F02CE92416F9F1
:1018EF00E43A8B2EF52F8930753100753200753340
:1018FF000075340075350075360075370075380082
:10190F0075390085243AE4F53EF53DF53CF53BF598
:10191F003FD001D002D003121AD9AB21AA22A9239A
:10192F00900006EE8FF01206249000061205CDFFF0
:02193F00AEF008
:011941002283
:061758008B218A22892387
:10175E0090000112051FB4110990000A12051FFF17
:10176E0080027F048F24AB21E5232408F9E435227F
:10177E00FAC003C002C001AA22A9239000101206CB
:10178E00A19000141205CDF52D85F02CE92416F943
:10179E00E43A8B2EF52F8930E5232484F9EA3401BF
:1017AE008B31F5328933E52324CDF9E43A8B34F5C8
:1017BE0035893675370075380075390085243AE459
:1017CE00F53EF53DF53CF53BF53FD001D002D0039B
:1017DE00121AD9AB21AA22A923900006EE8FF0127D
:0B17EE0006249000061205CDFFAEF0AF
:0117F90022CD
:06203D008B218A22892399
:102043007B007A007924122296AB21E5232408F938
:10205300E43522FAAD241208F6AB21AA22A9239073
:102063000006EE8FF01206249000061205CDFFAE97
:01207300F07C
:012074002249
:061C48008B218A22892392
:101C4E00E4F524F525FB7A007926122296E5266026
:101C5E000C64016008752400752505802BAB21AA44
:101C6E0022A92390000112051FB4130DE526900042
:101C7E00097002800B740D800CE52690000A70032B
:101C8E000480027406120580E52545246011AB21FF
:101C9E00AA22A923900006E5248525F0120624AE7B
:031CAE0024AF253B
:011CB1002210
:061800008B218A228923DE
:10180600E92416F9E43AFA7D017C00122000AB21A6
:10181600AA22A92390001812051FF524E92416F917
:10182600E43AFA7D017C00122000AB21AA22A9230A
:1018360090001812051FF525E92416F9E43AFA7DF9
:10184600047C00122000AB21E5232416F9E435229E
:10185600FA121B57902B3A120715AB21AA22A9237D
:1018660090000812051F6524600CE92408F9E43A83
:10187600FAAD241208F6902B3AA3A3E0FEA3E0FFEC
:10188600120016AB21AA22A92390000812051F6593
:1018960025600CE92408F9E43AFAAD251208F6E4C5
:0218A600FEFF43
:0118A800221D
:10237300900006E4F5F01206249000061205CDFF46
:03238300AEF02297
:101D6F00757901757A28757B48AB79AA7AA97B12A8
:101D7F001D13AB79AA7AA97B900006EE8FF012069D
:101D8F00249000061205CD45F0701FAB79E57B243A
:101D9F0008F9E4357AFAE4FD1208F6AB79AA7AA9C4
:101DAF007B900006EE8FF0120624AB79AA7AA97BFE
:0A1DBF009000061205CDFFAEF022E1
:1019CE00AB79AA7AA97B9000061205CD45F0706B13
:1019DE001205067066E92401F9E43AFA122296AB72
:1019EE0079AA7AA97B9000021206A1E4FAF9F8EF1F
:1019FE002401FFEA3EFEE93DFDE83CFCAA7AA97B04
:101A0E009000021206D190000112051FFFC3941818
:101A1E00AB79AA7AA97B5020C002EF75F003A424FB
:101A2E0000F582E43428F583A3E0FAA3E0F5828A78
:101A3E0083D00212076F800312235FAB79AA7AA9B3
:0B1A4E007B9000061205CDFFAEF022D9
:041E6E0002740000FA
:0D003600ED4C7005EFF452B122EF42B12203
:0C23B500E4FDFC7F101200360D02003623
:102296008B458A468947AB76AA77A9780575E57591
:1022A600AE747002057414F5828E8312051FAB4559
:0722B600AA46A94702056ECC
:0C23C100E4F574F5758B768A7789782234
:0A23D700E5B15420C4135407FF229F
:04001600AB07AA0684
:10001A00900000C3E5829BEA6480F8E583648098D7
:08002A0050061223B5A380EB80
:0100320022AB
:03000000021942A0
:0C194200787FE4F6D8FD75817B021989DE
:10050600BB010689828A83E0225002E722BBFE02F3
:09051600E32289828A83E4932226
:10051F00BB010CE58229F582E5833AF583E0225091
:10052F0006E92582F8E622BBFE06E92582F8E222DB
:0D053F00E58229F582E5833AF583E49322F5
:10054C00BB010989828A83F8E028F022500327F73F
:10055C0022BBFE05F8E328F3228A838982F8E49310
:02056C00282243
:10056E00BB010689828A83F0225002F722BBFE016C
:02057E00F32266
:10058000F8BB010DE58229F582E5833AF583E8F0B1
:10059000225006E92582C8F622BBFE05E92582C85D
:0205A000F22245
:1005A200BB010A89828A83E0F5F0A3E02250068724
:1005B200F009E71922BBFE07E3F5F009E3192289E6
:0B05C200828A83E493F5F07401932219
:1005CD00BB0110E58229F582E5833AF583E0F5F06C
:1005DD00A3E0225009E92582F886F008E622BBFE49
:1005ED000AE92582F8E2F5F008E222E5832AF5838F
:0805FD00E993F5F0A3E9932254
:10060500BB010A89828A83F0E5F0A3F0225006F740
:0F06150009A7F01922BBFE06F3E5F009F319223D
:10062400F8BB0111E58229F582E5833AF583E8F008
:10063400E5F0A3F0225009E92582C8F608A6F022C5
:0D064400BBFE09E92582C8F2E5F008F222AC
:101EFE00C2D5E830E70FB2D5E4C39BFBE49AFAE40F
:101F0E0099F9E498F8EC30E717B2D5121F3412079E
:101F1E00ADE4C39BFBE49AFAE499F9E498F88003E4
:101F2E001207AD30D50DE4C39FFFE49EFEE49DFD88
:041F3E00E49CFC2201
:10065100EB9FF5F0EA9E42F0E99D42F0EC6480C820
:0606610064809845F022C0
:10066700E8600FECC313FCED13FDEE13FEEF13FF71
:03067700D8F12295
:10067A00E86010ECA2E713FCED13FDEE13FEEF1396
:04068A00FFD8F02283
:10068E00E8600FEFC333FFEE33FEED33FDEC33FCCA
:03069E00D8F1226E
:1006A100BB010DE58229F582E5833AF58302084B0A
:1006B1005007E92582F802083FBBFE07E92582F8C9
:1006C100020857E58229F582E5833AF5830208633A
:1006D100BB010DE58229F582E5833AF58302071511
:1006E1005007E92582F8020873BBFE07E92582F865
:0406F10002087F225A
:1006F5007401FF3395E0FEFDFC080808E6CF2FF6F0
:1007050018E6CE3EF618E6CD3DF618E6CC3CF622C8
:0C071500ECF0A3EDF0A3EEF0A3EFF02257
:10072100BB010DE58229F582E5833AF5830208A430
:100731005007E92582F802088BBBFE07E92582F8FC
:040741000208D522B3
:10074500D083D082F8E4937012740193700DA3A343
:1007550093F8740193F5828883E473740293686057
:06076500EFA3A3A380DF57
:06076B008A838982E47319
:10194E00021CB2E493A3F8E493A34003F68001F2E1
:10195E0008DFF48029E493A3F85407240CC8C3339A
:10196E00C4540F4420C8834004F456800146F6DF69
:10197E00E4800B0102040810204080901E22E47EB9
:10198E00019360BCA3FF543F30E509541FFEE4935E
:10199E00A360010ECF54C025E060A840B8E493A325
:1019AE00FAE493A3F8E493A3C8C582C8CAC583CA50
:1019BE00F0A3C8C582C8CAC583CADFE9DEE780BE08
:011E7200006F
:1007710075F008758200EF2FFFEE33FECD33CDCC3F
:1007810033CCC58233C5829BED9AEC99E5829840C2
:100791000CF582EE9BFEED9AFDEC99FC0FD5F0D69F
:1007A100E4CEFBE4CDFAE4CCF9A88222B800C1B9C9
:1007B1000059BA002DEC8BF084CFCECDFCE5F0CB07
:1007C100F97818EF2FFFEE33FEED33FDEC33FCEB40
:1007D10033FB10D703994004EB99FB0FD8E5E4F9FB
:1007E100FA227818EF2FFFEE33FEED33FDEC33FCE8
:1007F100C933C910D7059BE99A4007EC9BFCE99ADC
:10080100F90FD8E0E4C9FAE4CCFB2275F010EF2F20
:10081100FFEE33FEED33FDCC33CCC833C810D70720
:100821009BEC9AE899400AED9BFDEC9AFCE899F85B
:0E0831000FD5F0DAE4CDFBE4CCFAE4C8F922EE
:0C083F00E6FC08E6FD08E6FE08E6FF22E5
:0C084B00E0FCA3E0FDA3E0FEA3E0FF2220
:0C085700E2FC08E2FD08E2FE08E2FF22DD
:10086300E493FC740193FD740293FE740393FF22DB
:0C087300ECF608EDF608EEF608EFF622B1
:0C087F00ECF208EDF208EEF208EFF222B5
:10088B00D083D082E493F608740193F60874029334
:09089B00F608740393F67404736B
:1008A400A8828583F0D083D0821208BB1208BB12C1
:1008B40008BB1208BBE473E493A3C583C5F0C583E6
:1008C400C8C582C8F0A3C583C5F0C583C8C582C89E
:0108D4002201
:1008D500D083D082E493F208740193F208740293F2
:0908E500F208740393F274047329
:00000001FF
