:0A294600000102020303040405056A
:101D8E00C200C202C2011215ACC2AF750A1D750B9C
:101D9E000075121D75131275081D75091C75101D21
:101DAE0075113C75141D75155CD2E890E668E0441B
:101DBE0009F090E65CE04435F0D2AF90E680E0208A
:101DCE00E105D20412267B90E680E054F7F0538EA4
:101DDE00F81223291227CE300105120F9AC20130B4
:101DEE0003F212296750EDC2031227A920001690A4
:101DFE00E682E030E704E020E1EF90E682E030E6B4
:0D1E0E0004E020E0E41226D812296C80C701
:02297500D3226B
:100F9A0090E6B9E0120B5D10380010AD011128037C
:100FAA000FBD06103208102C0910260A11930B00E7
:100FBA0000118790E6BBE024FE602714603824FD08
:100FCA00601114602724067050E50A90E6B3F0E534
:100FDA000B803C122975503EE51290E6B3F0E513FA
:100FEA00802DE50C90E6B3F0E50D8023E50E90E642
:100FFA00B3F0E50F801990E6BAE0FF122704AA06BB
:10100A00A9077B01EA494B600DEE90E6B3F0EF9039
:10101A00E6B4F00211930211820211821228F5023B
:10102A00119312264C0211931228E502119390E6AD
:10103A00B8E0247F601514601924027063A200E4EA
:10104A003325E0FFA202E4334F8041E490E740F009
:10105A00803F90E6BCE0547EFF7E00E0D394807C23
:10106A000040047D0180027D00EC4EFEED4F2446D7
:10107A00F58274293EF583E493FF3395E0FEEF246D
:10108A00A1FFEE34E68F82F583E0540190E740F049
:10109A00E4A3F090E68AF090E68B7402F0021193D2
:1010AA0002118290E6B8E024FE6016240260030270
:1010BA00119390E6BAE0B40105C20002119302113D
:1010CA008290E6BAE0705590E6BCE0547EFF7E005E
:1010DA00E0D394807C0040047D0180027D00EC4EC8
:1010EA00FEED4F2446F58274293EF583E493FF33DF
:1010FA0095E0FEEF24A1FFEE34E68F82F583E054FB
:10110A00FEF090E6BCE05480131313541FFFE05422
:10111A000F2F90E683F0E04420F0806D805A90E62D
:10112A00B8E024FE60192402704E90E6BAE0B401D9
:10113A0004D200805490E6BAE06402604C80399090
:10114A00E6BCE0547EFF7E00E0D394807C0040043D
:10115A007D0180027D00EC4EFEED4F2446F582743F
:10116A00293EF583E493FF3395E0FEEF24A1FFEED9
:10117A0034E68F82F583800D90E6A0800812020083
:10118A00500790E6A0E04401F090E6A0E04480F029
:01119A002232
:030033000229712E
:0429710053D8EF3216
:101D000012010002000000402A15068400000102B2
:101D100003010A0600020000004001000902200041
:101D200001010080640904000002FF0000000705B3
:101D3000810240000107058602000200090220001E
:101D400001010080640904000002FF000000070593
:101D500081024000000705860240000004030904D8
:101D6000080349004E0049001A0343006F00630056
:101D700068006C006500610041004D0053003100B7
:0E1D800063000A033000300030003000000025
:1015AC0090E6007412F0E4F5A0F580F5B175B28BFD
:1015BC0075B40F75B5FF75B6FE00000090E60174AA
:1015CC00A3F000000075A80053E8E3000000E490CD
:1015DC00E671F000000090E670F000000090E672FA
:1015EC00F090E610F000000090E61174A0F00000FE
:1015FC0000E490E612F000000090E613F00000000A
:10160C0090E61474E0F0000000E490E615F00000A1
:10161C000090E60B7403F000000090E6047480F078
:10162C000000007406F0000000E4F000000090E6FA
:10163C00247402F0000000E490E625F00000009015
:10164C00E61A7408F0000000E490E618F0000000C0
:10165C0090E619F000000090E61BF000000090E608
:10166C000274E8F0000000E4F51CF51BF51AF519FE
:10167C0043B14043B12053B1EF43B10253B1FB121C
:10168C002959D207D288C2A8D28AC2AAE4F5C8F5D1
:10169C00CA75CBFFC2AD43B18000000053B17F537C
:0516AC00B17F022905D9
:1027CE007819120AE87BE07A9379047800D3120A1A
:1027DE004B500C63B140E4F51CF51BF51AF51922AC
:0C26AA007F0C1226B67F351226B6E4FF26
:1026B6007E08AD061EED6019D2B17801EF088001E3
:1026C60023D8FDFF30E004D2B28002C2B2C2B1808C
:0126D600E122
:0126D70022E0
:10286100E4FE7D80C2A1EF5D24FF92A3D2A1C2A1AB
:08287100EDC313FD0EBE08EEDD
:01287900223C
:1019D400A2A09206C2A0E4FBFA74CD2BF582743463
:1019E4003AF583E0FF1228610BBB00010AEB64089F
:0B19F4004A70E6C2A2D2A2A20692A096
:0119FF0022C5
:0F290500C2B01226AA1226AAD2B00000D2B12266
:10257E007E08AD061EED602D7801EF08800123D890
:10258E00FDFF30E00543B110800353B1EF53B1DFCF
:10259E00000000000000000000000000000000002D
:0525AE0043B12080CDC7
:0125B3002205
:1023B1008D2DC374089DF8EF08800123D8FDFFAE71
:1023C100051DEE602D7801EF08800123D8FDFF3057
:1023D100E00543B110800353B1EF53B1DF000000BA
:1023E1000000000000000000000000000043B120D8
:0223F10080CD9D
:0123F30022C7
:102329007F03122704AA06A9077521018A22892396
:102339007A337B3A7D047FFC7E7F1221E8E4FF74C7
:102349003A2FF582E43433F583E0FEAB21AA22A9C2
:102359002375F002EF900002120B38EE12096D0F8F
:03236900BF04DCD2
:01236C00224E
:0629610043B180D2832285
:1024D900C283E490E61AF000000090E6A9E07009D2
:1024E90090E6487406F000000090E6047480F0005D
:1024F90000007406F0000000E4F000000090E61A05
:072509007408F0000000223D
:04224100AB07AA0637
:10224500E4F533AF02AE33053374CA2EF582E434B8
:1022550034F583EFF0AF03AE33053374CA2EF58240
:10226500E43434F583EFF0AF33053374CA2FF582C8
:10227500E43434F583EDF0E57370FC7A347BCAAD54
:0D228500337F5012284550F37F500224A1F2
:0A2431008E2D8F2E8D2F8A308B31F7
:10243B0063B140E4F532E532C3952F5020052EE50C
:10244B002EAE2D7002052D14FFE5312532F582E4F9
:0D245B003530F583E0FD122241053280D9B5
:012468002251
:0A21E8008E2D8F2E8D2F8A308B3143
:1021F200E4FDE52DFF7E000DEE24CAF582E43434C1
:10220200F583EFF00E0D74CA2EF582E43434F583B3
:10221200E52EF07A347BCA7F50122845E4FFEFC3E3
:10222200952F5010E5312FF582E43530F58374CDCA
:0F223200F00F80EAAB31AA30AD2F7F5002282980
:0529670043B180D32202
:05296C0053B17FD322EE
:10264C0090E680E030E71200000090E6247402F07F
:10265C00000000E490E6258010000000E490E624E1
:0F266C00F000000090E6257440F0000000D3223B
:1028E500E490E740F090E68AF090E68B04F0D3227E
:1028F500E490E740F090E68AF090E68B04F0D3226E
:1002000090E6B9E0120B5D0752A20752A30232B387
:100210000238B40450B80709B90450BA0439BB0312
:1002200050C2023EC40266C50737CB0440CE000070
:1002300008D61229610208D81224D90208D8000071
:1002400000E490E61AF000000090E6047480F000EC
:1002500000007406F0000000E4F000000090E61AD0
:100260007408F00208D890E6B8E064406003020326
:100270004230070AF5A075B4BD12218EC20790E680
:10028000BEE0752300F524A3E0FEEE4223D3E5246F
:100290009490E5239401400675160A02033AE4F5AA
:1002A00021F5227B017A33793A12292FE52445235F
:1002B0006071E490E68AF090E68BF090E6A0E02092
:1002C000E1F990E68BE0752500F526E4F527F528A1
:1002D000C3E5289526E5279525502D74402528F55A
:1002E00082E434E7F583E0FFE5222528FDE52135AA
:1002F00027FC743A2DF58274333CF583EFF0052822
:10030000E52870CC052780C8E5262522F522E525BD
:100310003521F521C3E5249526F524E5239525F51A
:1003200023808990E6BAE07002800F121EA78F1614
:10033000E516D3940050030208D875B40DD2070215
:1003400008D890E6B9E090E740F0A3E5160207442C
:1003500090E6B9E090E740F0E490E68AF090E68B12
:1003600004F090E6A0E04480F090E6A0E020E1F9FF
:100370007F03122704AA06A9077529018A2A892B57
:1003800090E68BE0D3940440087523007524048024
:100390000990E68BE0752300F524E4F527F528C3E2
:1003A000E5289524E52795235049E52824FCFFE519
:1003B00027347FFE74402528F582E434E7F583E096
:1003C000FD12224174402528F582E434E7F583E0EC
:1003D000FDE52825E0FFE527338F82F583A3A3AB56
:1003E00029AA2AA92BED12096D0528E52870B00568
:1003F0002780AC852327852428C3E5289404E52796
:1004000094005032E52824FCFFE527347FFE7D2050
:10041000122241E52825E0FFE527338F82F583A3EB
:10042000A3AB29AA2AA92B742012096D0528E52857
:1004300070C7052780C30206FED287C2870208D88C
:1004400090E6BAE06005D2A00208D8C2A00208D89F
:1004500000000090E6BAE0752100F522A3E0FEEE70
:100460004221A3E0FDA3E0FEEEFCA3E0752300F52E
:1004700024A3E0FEEE4223E522120B5D0498010561
:10048000F90205F90305FB0405530504FF06054DB4
:100490000706A708000005F953B0E7852317852450
:1004A00018E52445236055E490E68AF090E68BF049
:1004B00000000090E6A0E020E1F990E68BE07525D1
:1004C00000F526E4F527F528C3E5289526E52795C8
:1004D00025501A74402528F582E434E7F583E0FFBF
:1004E00012257E0528E52870DF052780DBC3E5247B
:1004F0009526F524E5239525F52380A5020690E5AC
:1005000024640645236002D322E490E68AF090E654
:100510008BF000000090E6A0E020E1F9C2B0E4F525
:1005200027F52874402528F582E434E7F583E0FFB9
:100530001226B60528E52870020527C39406E5278C
:10054000940040DFD2B00000D2B10206FB122905B0
:100550000206FBE490E68AF090E68BF00000009043
:06056000E6A0E020E1F935
:1005660090E740E0139204E030E103D38001C392A8
:100576000590E6BCE0F52CA3E014602414603B145F
:10058600605224037068E52C30040442808003F432
:100596005280E52C300505F452B2805442B28050A8
:1005A600E52C30040442A08003F452A0E52C30056B
:1005B60005F452B4803A42B48036E52C3004044245
:1005C600B08003F452B0E52C300505F452B5802016
:1005D60042B5801CE52C30040442B18003F452B1CC
:1005E600E52C300505F452B6800642B68002D322C9
:1005F6000206FBD32253B0D790E6BBE0FF7D07127D
:1006060023B100000000000043B10200000000001A
:100616000053B1FD0000000000000043B0380000A8
:10062600000000000053B0CFA3E0541FFF7D051269
:1006360023B1A3E033333354F8FF90E6BCE0FEC4A5
:100646001354074FFF7D051223B19034CDE054FEBD
:10065600F01219D490E6BDE030E204D2B78002C2AF
:10066600B700000000000043B102000000000000D7
:1006760053B1FD9034CDE04401F01219D490E6BD9B
:10068600E030E304D2B78002C2B7000000000000E9
:1006960043B10200000000000053B1FD43B03880B2
:1006A60054E490E68AF090E68BF000000090E6A015
:1006B600E020E1F9E524640845236002D322E4F54D
:1006C60027F528C3E5289524E52795235024AF2848
:1006D60074402FF582E434E7F583E0FE74CD2FF500
:1006E60082E43434F583EEF00528E52870D5052735
:1006F60080D11219D463B140E490E68AF090E68B7B
:10070600F0C32290E6BAE0600543B104800353B11A
:10071600FB90E74074B9F0000000E490E68AF090A0
:10072600E68B04F000000090E6A0E04480F00208AA
:10073600D890E6B9E090E740F0A281E433A3F0E474
:1007460090E68AF090E68B74020208E990E6BAE039
:10075600752100F522A3E0FEEE422190E6BEE0758B
:100766002300F524A3E0FEEE422390E6B8E064C041
:10077600600302083EE524452370030208D490E690
:10078600A0E020E1F9C3E5249440E5239400500855
:10079600852325852426800675250075264090E646
:1007A600B9E0B4A335E4F527F528C3E5289526E591
:1007B600279525505EE5222528F582E5213527F582
:1007C60083E0FF74402528F582E434E7F583EFF0F3
:1007D6000528E52870D4052780D0E4F527F528C339
:1007E600E5289526E5279525501874402528F58295
:1007F600E434E7F58374CDF00528E52870E1052794
:1008060080DDAD267AE779407F40AB07AF22AE2187
:100816001221E8E490E68AF090E68BE526F02522A0
:10082600F522E5253521F521C3E5249526F524E5B0
:10083600239525F52302077B90E6B8E06440600324
:100846000208D4E524452370030208D4E490E68A1E
:10085600F090E68BF090E6A0E020E1F990E68BE0E0
:10086600752500F52690E6B9E0B4A335E4F527F53D
:1008760028C3E5289526E527952550367440252872
:10088600F582E434E7F583E0FFE5222528F582E5E5
:10089600213527F583EFF00528E52870D405278054
:1008A600D0AD267AE779407F40AB07AF22AE211262
:1008B6002431E5262522F522E5253521F521C3E556
:1008C600249526F524E5239525F523020849C32218
:1008D600D32290E6B9E090E740F0E490E68AF09003
:0C08E600E68B04F090E6A0E04480F0C334
:0108F20022E3
:10287A00C0E0C083C082D2015391EF90E65D74013B
:08288A00F0D082D083D0E032CF
:10289200C0E0C083C0825391EF90E65D7404F0D033
:0628A20082D083D0E03279
:1028A800C0E0C083C0825391EF90E65D7402F0D01F
:0628B80082D083D0E03263
:10251000C0E0C083C08290E680E030E70E85080C02
:1025200085090D85100E85110F800C85100C851105
:102530000D85080E85090F5391EF90E65D7410F03C
:07254000D082D083D0E0320D
:01297700322D
:10254700C0E0C083C08290E680E030E70E85080CCB
:1025570085090D85100E85110F800C85100C8511CE
:102567000D85080E85090F5391EF90E65D7420F0F5
:07257700D082D083D0E032D6
:01297800322C
:01297900322B
:01297A00322A
:01297B003229
:01297C003228
:01297D003227
:01297E003226
:01297F003225
:012980003224
:012981003223
:012982003222
:012983003221
:012984003220
:01298500321F
:01298600321E
:01298700321D
:01298800321C
:01298900321B
:01298A00321A
:01298B003219
:01298C003218
:01298D003217
:01298E003216
:01298F003215
:012990003214
:012991003213
:012992003212
:012993003211
:012994003210
:01299500320F
:01299600320E
:01299700320D
:01299800320C
:01299900320B
:01299A00320A
:01299B003209
:0422920002740000D2
:0D292200ED4C7005EFF452A022EF42A02210
:0C1CF400E4FDFC7F201229220D022922B1
:102782008B458A468947AB76AA77A9780575E575A0
:10279200AE747002057414F5828E8312090CAB4577
:0727A200AA46A94702095BEA
:0C292F00E4F574F5758B768A77897822C0
:0B293B00E5A05440C413135403FF2216
:04280C00AB07AA0666
:10281000900000C3E5829BEA6480F8E583648098B9
:082820005006121CF4A380EB2A
:01282800228D
:1022960060483000FF2950FF272FFF17A1FF186E57
:1022A600FF25E8FF28BEFF28BEFF2914FF20ACFF4C
:1022B600192AFF28BEFF28BEFF1BFFFF1BFFFF1BBF
:1022C600FFFF1B5DFF1B5DFF1B5DFF2469FF2124D4
:0C22D600FF2124FF16B1FF28D2FF1AB828
:101C9800E412095B90000112096D900002120B1406
:101CA80000000000900006E4F5F0120A1190000B05
:101CB800E412096D900008E412096D90000974019E
:101CC80012096D90000A740112096D900010120B30
:101CD8001400000000900014E4F5F0120A119000BE
:0C1CE8000C120B1400000000E4FEFF22B0
:06275900AF24E4FCFDFECC
:10275F008F298E288D278C26E5292407FFE435281D
:10276F00FEE43527FDE43526FCE47B08FAF9F81280
:03277F00236D22A5
:0427EE007F017E00E9
:1027F200AD07AC067F10122922E4FDFC7F201229CE
:0A280200227D017C007F20022922C4
:080CFA00AB40AA41A9427D01B3
:080D02008B5A8A5B895C8D5D50
:100D0A00E49034CAF0A3F0E55D704DF55EF55F0539
:100D1A005FE55F7002055EB4D0F5E55EB407F012D8
:100D2A0027EEE4F55EF55FE4FDFC7F201229227DC3
:100D3A00017C007F20122922055FE55F7002055EB3
:100D4A00C39405E55E6480948040DCAB5AAA5BA933
:100D5A005CE412095B020F91AB5AAA5BA95C120808
:100D6A00F3FF655D601FE55DB40704EFB4060AE5AD
:100D7A005DB40E11EF640D600C9034CAE4F0A374F4
:100D8A0005F0020F91E55DB5070EB40603020E6D7C
:100D9A00E55DB40D03020F29AB5AAA5BA95C1208E0
:100DAA00F3FF655D7003020F91EF120B5D0DEB000F
:100DBA000DEE010DF1020E17030E3B040E49050E4E
:100DCA006D060E7B070E9F080EC3090ED40A0EF895
:100DDA000B0F060C0F290D0F360E0F580F00000FC0
:100DEA007A020EA4020EB5E55DC39409400E1227DD
:100DFA00EEAB5AAA5BA95C7409020F8BE4FFFE12E0
:100E0A0027F2AB5AAA5BA95C7403020F8BE55DB4A7
:100E1A000411E4FFFE1227F2AB5AAA5BA95C740420
:100E2A00020F8B1227EEAB5AAA5BA95C7405020F5C
:100E3A008B1227EEAB5AAA5BA95C7405020F8BE5ED
:100E4A005DB40611E4FFFE1227F2AB5AAA5BA95C55
:100E5A007406020F8B1227EEAB5AAA5BA95C7408C0
:100E6A00020F8B1227EEAB5AAA5BA95C7407020F1A
:100E7A008BE55DB40411E4FFFE1227F2AB5AAA5BBC
:100E8A00A95C7404020F8B1227EEAB5AAA5BA95C09
:100E9A007408020F8BE55DB40111E4FFFE1227F21C
:100EAA00AB5AAA5BA95C7401020F8B1227EEAB5AEC
:100EBA00AA5BA95C7402020F8BE4FFFE1227F2AB55
:100ECA005AAA5BA95C740A020F8BE55DB40B11E4A4
:100EDA00FFFE1227F2AB5AAA5BA95C740B020F8BB6
:100EEA001227EEAB5AAA5BA95C740C020F8B12276D
:100EFA00EEAB5AAA5BA95C740C020F8BE55DB40DCC
:100F0A0011E4FFFE1227F2AB5AAA5BA95C740D0228
:100F1A000F8B1227EEAB5AAA5BA95C740F80621280
:100F2A0027EEAB5AAA5BA95C740E8055E55DB40B3B
:100F3A0010E4FFFE1227F2AB5AAA5BA95C740B807D
:100F4A00401227EEAB5AAA5BA95C740F8033E55DA9
:100F5A00B40110E4FFFE1227F2AB5AAA5BA95C7433
:100F6A0001801E1227EEAB5AAA5BA95C740280119B
:100F7A009034CAE4F0A37405F0AB5AAA5BA95CE505
:0F0F8A005D12095B020DA29034CAE0FEA3E0FFE6
:010F99002235
:0E133C008F5D8E5C8D5B8C5A8B5E8A5F896044
:10134A00756900756A00756B00E562456345616001
:10135A003C12098FFFAB61AA62A963E5F08FF01214
:10136A0009F2AB61E5632402F9E43562FAC003C00D
:10137A0002C001AB5EAA5FA96012098FD001D00238
:10138A00D00329F9EA35F08B69F56A896BAB5EE51A
:10139A00602402F9E4355FFAC002C001AA5FA960BD
:1013AA0012098FD001D00229F9EA35F08B66F56768
:1013BA008968AF5DAE5CAD5BAC5AEC4D4E4F7003C5
:1013CA000214A3786674FFF5F0120B441208F39026
:1013DA003345F0E4A3F0F56CF56DAF5DAE5CAD5B43
:1013EA00AC5AEC4D4E4F7003021483C3E56D94085A
:1013FA00E56C64809480400302148374FFFBFAF95D
:10140A00F8120A3E8F5D8E5C8D5B8C5AE5654564E9
:10141A00600EEC4D4E4F70087D01FC7F10122922A0
:10142A00903345E05401FD7C007F801229229033DD
:10143A0045E0C313F0E4FDFC7F20122922E56A454A
:10144A006B4569602012293B903347EFF090334691
:10145A00E0FFAE6DA3E0FDA806088002C333D8FC06
:10146A004F903346F07D017C007F20122922056DC2
:10147A00E56D7002056C0213E4E56A456B45697017
:10148A00030213BC903346E0FF786974FFF5F0124B
:09149A000B44EF12095B0213BCC4
:0114A3002226
:08119B008B408A4189428D431B
:1011A300E490333EF0A3F0A3F0A3F0A3F0E543658E
:1011B300547E0060047F0180027F00903343EEF091
:1011C300A3EFF0AF47AE46AD45AC44EC4D4E4F7088
:1011D3001EAF58AE57AD56AC55EC4D4E4F70030293
:1011E3001308120CFAAE57AF5812280C021308ABAF
:1011F30040AA41A942AD43120D02AF47AE46AD45E9
:10120300AC44854B61854C62854D63903343E0F577
:1012130064A3E0F565AB48AA49A94A12133CE54F1C
:101223004550454E602D854B5D854C5E854D5F85F4
:101233005160855261855362AB4EAA4FA950121F6C
:1012430032EF4E70047F0180027F00903340E4F060
:10125300A3EFF0903343E07002A3E070030212EEB9
:10126300AB40AA41A9427401120939903340E0709E
:1012730002A3E06053AF58AE57AD56AC55EC4D4E9C
:101283004F6045903342E0C39559503CAB40AA416F
:10129300A9427D06120D02AB40AA41A9427D041268
:1012A3000D02AF58AE57AD56AC557802120A61E540
:1012B300582FFFE5573EFEE5563DFDE5553C8F585B
:1012C3008E578D56F555800BAB40AA41A942AD54BC
:1012D300120D02AF58AE57AD56AC55EC4D4E4F60A4
:1012E3000A120CFAAE57AF5812280C903340E07034
:1012F30002A3E06010903342E0FF04F0EFC395597E
:1013030050030211F2903340E07002A3E06021E544
:10131300596014903342E0D39559400B90333EE427
:10132300F0A37403F0800990333EE4F0A37402F059
:0813330090333EE0FEA3E0FF51
:01133B00228F
:101FB2008B258A2689278F2B8E2A8D298C28AB2E5A
:101FC200AA2FA930AD2DAC2C1223F4E535453645A8
:101FD20034600DAB34AA35A936AD2DAC2C1223F4E6
:101FE200852B47852A46852945852844852E48859F
:101FF2002F4985304A85314B85324C85334D8534A6
:102002004E85354F8536508537518538528539533F
:10201200853A54853E58853D57853C56853B5585C6
:0E2022003F59AB25AA26A9277D0412119B2247
:1028BE00900006E475F004120A119000061209BA8F
:0428CE00FFAEF02247
:09295000740112095BE4FEFF2290
:10272F008B218A228923E9243BF9EA3402FAC00279
:10273F00C001AA22A9239000141209BAFDACF0D04F
:0A274F0001D0021223F4E4FEFF2281
:0617A1008B218A2289233E
:1017A7007B007A007924122782122759D3EF94B449
:1017B700EE648094804010AB21AA22A923900006F2
:1017C700E475F00602185B122759AC06AD07AB218A
:1017D700E5232416F9E43522FA1223F4AB21E52395
:1017E7002408F9E43522FAC003C002C001E48524C5
:1017F70047F546F545F544E5232416F9E435228BEC
:1018070048F549894A754B00754C00754D00754E72
:1018170000754F00755000755100755200755300E3
:10182700AA22A92390000912090CF55490000C1262
:101837000A888F588E578D568C55E4F559D001D0AC
:1018470002D0037D0B12119BAB21AA22A923900082
:1018570006EE8FF0120A11AB21AA22A923900006E7
:061867001209BAFFAEF009
:01186D002258
:0616B1008B218A2289232F
:1016B700E92416F9E43AFA7D027C001223F4AB21FF
:1016C700E5232416F9E43522FA12203090333A1232
:1016D7000B0890333A120ADC12275FD3EF94B4EE6B
:1016E700648094804009752400752506021785904B
:1016F700333A120ADC12275FAC06AD07AB21E523AC
:101707002416F9E43522FA1223F4AB21E523240841
:10171700F9E43522FAC003C002C00190333A120A35
:10172700DC8F478E468D458C44E5232416F9E43536
:10173700228B48F549894A754B00754C00754D0059
:10174700754E00754F007550007551007552007544
:101757005300AA22A92390000912090CF5549000FE
:101767000C120A888F588E578D568C55E4F559D030
:1017770001D002D0037D0B12119B8E248F25E52506
:1017870045246011AB21AA22A923900006E52485F0
:0917970025F0120A11AE24AF2561
:0117A0002226
:06186E008B218A22892370
:10187400E92416F9E43AFAC002C001AA22A9239085
:1018840000141209BAFDACF0D001D0021223F4AB5B
:1018940021E5232408F9E43522FAC003C002C0017B
:1018A400AA22A923900010120A888F478E468D45DC
:1018B4008C44E92416F9E43A8B48F549894AE5232E
:1018C4002484F9EA34018B4BF54C894DE52324CD6E
:1018D400F9E43A8B4EF54F8950E523243BF9EA3479
:1018E400028B51F5528953A92390000A12090CF571
:1018F4005490000C120A888F588E578D568C559030
:10190400000B12090CF559D001D002D0037D04124A
:10191400119BEF4E600FAB21AA22A923900006EE83
:051924008FF0120A1112
:01192900229B
:1025E8008B218A228923E92416F9E43AFA7D047CAE
:1025F800001223F4AB21E5232416F9E43522FA125C
:102608002030AB21AA22A92390000C120AB8E4FEBC
:02261800FF229F
:0E291400E9240BF9E43AFA122782E4FEFF22CE
:0620AC008B218A2289232A
:1020B200E4F524F525E92416F9E43AFA7D047C00D6
:1020C2001223F4AB21E5232416F9E43522FA122077
:1020D20030AB21AA22A923900010120AB890001056
:1020E200120A8812275FAB21AA22A923900014EEBC
:1020F2008FF0120A119000141209BAD394B4E5F0C9
:10210200648094804017752400752506AB21AA22AD
:10211200A923900006E5248525F0120A11AE24AF0A
:012122002597
:012123002299
:06192A008B218A228923B3
:10193000E92408F9E43AFAC003C002C001AA22A9C6
:1019400023900010120A88C004C005C006C007908A
:1019500000141209BAF52D85F02CE92416F9E43AA1
:101960008B2EF52F8930E5232484F9EA34018B315D
:10197000F5328933E52324CDF9E43A8B34F5358902
:1019800036E523243BF9EA34028B37F5388939A947
:101990002390000A12090CF53A90000C120A888F65
:1019A0003E8E3D8D3C8C3B90000B12090CF53FD0D8
:1019B00007D006D005D004D001D002D003121FB248
:1019C000EF4E600FAB21AA22A923900006EE8FF004
:0319D000120A11E7
:0119D30022F1
:061BFF008B218A228923DC
:101C050090000112090CB40E0990000A12090CFF8C
:101C150080027F048F24AB21E5232408F9E43522D3
:101C2500FAC003C002C001AA22A923900010120A1B
:101C3500889000141209BAF52D85F02CE92416F9BF
:101C4500E43A8B2EF52F89307531007532007533E6
:101C55000075340075350075360075370075380028
:101C650075390085243AE4F53EF53DF53CF53BF53F
:101C75003FD001D002D003121FB2AB21AA22A92363
:101C8500900006EE8FF0120A119000061209BAFFB5
:021C9500AEF0AF
:011C9700222A
:061B5D008B218A2289237E
:101B630090000112090CB4110990000A12090CFF2C
:101B730080027F048F24AB21E5232408F9E4352276
:101B8300FAC003C002C001AA22A923900010120ABE
:101B9300889000141209BAF52D85F02CE92416F962
:101BA300E43A8B2EF52F8930E5232484F9EA3401B6
:101BB3008B31F5328933E52324CDF9E43A8B34F5BF
:101BC30035893675370075380075390085243AE450
:101BD300F53EF53DF53CF53BF53FD001D002D00392
:101BE300121FB2AB21AA22A923900006EE8FF01296
:0B1BF3000A119000061209BAFFAEF0C4
:011BFE0022C4
:062469008B218A22892369
:10246F007B007A007924122782AB21E5232408F917
:10247F00E43522FAAD24120D02AB21AA22A9239032
:10248F000006EE8FF0120A119000061209BAFFAE85
:01249F00F04C
:0124A0002219
:062124008B218A228923B1
:10212A00E4F524F525FB7A007926122782E5266054
:10213A000C64016008752400752505802BAB21AA63
:10214A0022A92390000112090CB4130DE526900070
:10215A00097002800B740D800CE52690000A70034A
:10216A00048002740612096DE52545246011AB212D
:10217A00AA22A923900006E5248525F0120A11AEA9
:03218A0024AF255A
:01218D00222F
:061AB8008B218A22892324
:101ABE00E92416F9E43AFA7D017C001223F4AB21F5
:101ACE00AA22A92390001812090CF524E92416F96C
:101ADE00E43AFA7D017C001223F4AB21AA22A92359
:101AEE0090001812090CF525E92416F9E43AFA7D4E
:101AFE00047C001223F4AB21E5232416F9E43522ED
:101B0E00FA12203090333A120B08AB21AA22A923E5
:101B1E0090000812090C6524600CE92408F9E43AD7
:101B2E00FAAD24120D0290333A120ADC12280CABD5
:101B3E0021AA22A92390000812090C6525600CE940
:0E1B4E002408F9E43AFAAD25120D02E4FEFF78
:011B5C002266
:1028D200900006E4F5F0120A119000061209BAFF00
:0328E200AEF02233
:10218E00751D01751E30751F48AB1DAA1EA91F12A5
:10219E001C98AB1DAA1EA91F900006EE8FF0120A06
:1021AE00119000061209BA45F0701FAB1DE51F24F1
:1021BE0008F9E4351EFAE4FD120D02AB1DAA1EA9A4
:1021CE001F900006EE8FF0120A11AB1DAA1EA91F5A
:0A21DE009000061209BAFFAEF022CD
:101EA700AB1DAA1EA91F9000061209BA45F0706B58
:101EB7001208F37066E92401F9E43AFA122782ABB3
:101EC7001DAA1EA91F900002120A88E47B01FAF9D5
:101ED700F8120A3EAB1DAA1EA91F900002120AB8EB
:101EE70090000112090CFFC39418AB1DAA1EA91F6D
:101EF7005026C003C002C001EF75F003A42400F50B
:101F070082E43430F583120B5489828A83D001D05E
:101F170002D003120B8780031228BEAB1DAA1EA98D
:0B1F27001F9000061209BAFFAEF02266
:062030008B268A27892897
:10203600E4F52CF52BF52AF529F52DF52EAB26AA78
:1020460027A92812098FFFC3E52E9FE5F06480F8C3
:10205600E52D6480985046AF2CAE2BAD2AAC29787E
:1020660008120A758F2C8E2B8D2A8C29E92402F9E9
:10207600E43AFAE9252EF9EA352DFA1208F3FFE5D6
:102086002C4FFFE52BFEE52AFDE5298F2C8E2B8DA7
:102096002AF529052EE52E70A4052D80A0AF2CAEBD
:0520A6002BAD2AAC295E
:0120AB002212
:061F32008B5A8A5B895CFA
:101F380075630075640112098FFFAEF0E5644563AF
:101F48006063EF1FAC0670011E4C6059AB5AE55C2C
:101F58002402F9E4355BFAE92FF9EA3EFA1208F3AC
:101F6800F565AB5DE55F2402F9E4355EFAE92FF922
:101F7800EA3EFA1208F3F566E561456245606018C5
:101F8800AB60E5622402F9E43561FAE92FF9EA3E2B
:101F9800FA1208F352655266E5656566609EE4F5D7
:091FA80063F5648097AE63AF6439
:011FB100220D
:0423F4008C408D414B
:1023F800E5408541F01209F2E92402F9E43A8B42FA
:10240800F5438944E5414540601EAB42AA43A944CF
:10241800122782E54115417002154074012544F5E3
:0824280044E43543F54380DC78
:012430002289
:1026D80090E682E030E004E020E60B90E682E0300D
:1026E800E119E030E71590E680E04401F07F147EC0
:0C26F800001222E390E680E054FEF02285
:10267B0030040990E680E0440AF0800790E680E0A1
:10268B004408F07FDC7E051222E390E65D74FFF0D8
:0F269B0090E65FF05391EF90E680E054F7F02265
:08295900E4F573D2E9D2AF22CC
:1024A100AD0790E678E020E6F9C2E990E678E044ED
:1024B10080F0ED25E090E679F090E678E030E0F903
:1024C10090E678E04440F090E678E020E6F990E686
:0824D10078E030E1D6D2E922E7
:10261A00AC0790E678E020E6F9E573702390E67857
:10262A00E04480F0EC25E090E679F08D6EAF03A9E6
:10263A0007756F018A708971E4F572757301D32287
:02264A00C322A9
:1025B400AC0790E678E020E6F9E573702590E678BC
:1025C400E04480F0EC25E0440190E679F08D6EAFB4
:1025D40003A907756F018A708971E4F57275730335
:0425E400D322C32219
:03004B000214A4F8
:1014A400C0E0C083C082C085C084C086758600C089
:1014B400D075D000C000C001C002C003C006C00780
:1014C40090E678E030E20675730602158E90E678B1
:1014D400E020E10CE5736402600675730702158E63
:1014E400E57324FE605F14603624FE700302157FEA
:1014F40024FC700302158B2408600302158EAB6F65
:10150400AA70A971AF7205728F8275830012090CDB
:1015140090E679F0E572656E7070757305806B9076
:10152400E679E0AB6FAA70A971AE728E8275830002
:1015340012096D757302E56E6401704E90E678E0F1
:101544004420F08045E56E24FEB5720790E678E00D
:101554004420F0E56E14B5720A90E678E04440F059
:1015640075730090E679E0AB6FAA70A971AE728EC4
:101574008275830012096D0572800F90E678E0444D
:1015840040F075730080037573005391DFD007D06A
:1015940006D003D002D001D000D0D0D086D084D0E1
:0815A40085D082D083D0E03233
:02270400A90723
:10270600AE14AF158F828E83A3E064037017AD01FC
:1027160019ED7001228F828E83E07C002FFDEC3E46
:08272600FEAF0580DFE4FEFFB9
:01272E002288
:102829001225B4E57324FA600E146006240770F3C8
:0C283900D322E4F573D322E4F573D3221C
:1028450012261AE57324FA600E146006240770F345
:0C285500D322E4F573D322E4F573D32200
:1027A90090E682E044C0F090E681F04387010000A2
:0427B90000000022FA
:1022E3008E218F2290E600E054187012E52224011B
:1022F300FFE43521C313F521EF13F522801590E692
:1023030000E05418FFBF100BE52225E0F522E5217C
:1023130033F521E5221522AE21700215214E600509
:062323001227BD80EE222E
:1027BD007400F58690FDA57C05A3E582458370F92F
:0127CD0022E9
:03004300021A009E
:03005300021A008E
:101A000002287A000228A800022892000229770002
:101A100002251000022547000229780002297900DA
:101A200002297A0002297B0002297C0002297D001C
:101A300002297E0002297F000229800002298100FC
:101A400002298200022979000229830002298400E8
:101A500002298500022986000229870002298800C0
:101A600002298900022979000229790002297900D6
:101A700002298A0002298B0002298C0002298D008C
:101A800002298E0002298F0002299000022991006C
:101A9000022992000229930002299400022995004C
:101AA000022996000229970002299800022999002C
:081AB00002299A0002299B00A3
:03000000021E1BC2
:0C1E1B00787FE4F6D8FD758178021E6225
:1008F300BB010689828A83E0225002E722BBFE0203
:09090300E32289828A83E4932235
:10090C00BB010CE58229F582E5833AF583E02250A0
:10091C0006E92582F8E622BBFE06E92582F8E222EA
:0D092C00E58229F582E5833AF583E4932204
:10093900BB010989828A83F8E028F022500327F74E
:1009490022BBFE05F8E328F3228A838982F8E4931F
:02095900282252
:10095B00BB010689828A83F0225002F722BBFE017B
:02096B00F32275
:10096D00F8BB010DE58229F582E5833AF583E8F0C0
:10097D00225006E92582C8F622BBFE05E92582C86C
:02098D00F22254
:10098F00BB010A89828A83E0F5F0A3E02250068733
:10099F00F009E71922BBFE07E3F5F009E3192289F5
:0B09AF00828A83E493F5F07401932228
:1009BA00BB0110E58229F582E5833AF583E0F5F07B
:1009CA00A3E0225009E92582F886F008E622BBFE58
:1009DA000AE92582F8E2F5F008E222E5832AF5839E
:0809EA00E993F5F0A3E9932263
:1009F200BB010A89828A83F0E5F0A3F0225006F750
:0F0A020009A7F01922BBFE06F3E5F009F319224C
:100A1100F8BB0111E58229F582E5833AF583E8F017
:100A2100E5F0A3F0225009E92582C8F608A6F022D4
:0D0A3100BBFE09E92582C8F2E5F008F222BB
:0D0A3E00EF2BFFEE3AFEED39FDEC38FC2207
:10236D00C2D5E830E70FB2D5E4C39BFBE49AFAE49B
:10237D0099F9E498F8EC30E717B2D51223A3120BB4
:10238D00C5E4C39BFBE49AFAE499F9E498F8800359
:10239D00120BC530D50DE4C39FFFE49EFEE49DFDF9
:0423AD00E49CFC228E
:100A4B00EB9FF5F0EA9E42F0E99D42F0EC6480C822
:060A5B0064809845F022C2
:100A6100E86010ECA2E713FCED13FDEE13FEEF13AB
:040A7100FFD8F02298
:100A7500E8600FEFC333FFEE33FEED33FDEC33FCDF
:030A8500D8F12283
:100A8800BB010DE58229F582E5833AF583020ADC8C
:100A98005007E92582F8020C57BBFE07E92582F8C2
:100AA800020C63E58229F582E5833AF583020C6F2F
:100AB800BB010DE58229F582E5833AF583020B082F
:100AC8005007E92582F8020C7FBBFE07E92582F86A
:040AD800020C8B225F
:0C0ADC00E0FCA3E0FDA3E0FEA3E0FF228D
:100AE8007401FF3395E0FEFDFC080808E6CF2FF6F9
:100AF80018E6CE3EF618E6CD3DF618E6CC3CF622D2
:0C0B0800ECF0A3EDF0A3EEF0A3EFF02260
:100B1400BB010DE58229F582E5833AF583020CB029
:100B24005007E92582F8020C97BBFE07E92582F8F5
:040B3400020CE122AC
:0C0B3800A42582F582E5F03583F58322C8
:100B4400FAE6FB0808E625F0F9F618E63AFAF62282
:090B5400E0FBA3E0FAA3E0F922A2
:100B5D00D083D082F8E4937012740193700DA3A327
:100B6D0093F8740193F5828883E47374029368603B
:060B7D00EFA3A3A380DF3B
:060B83008A838982E473FD
:101E2700021D8EE493A3F8E493A34003F68001F226
:101E370008DFF48029E493A3F85407240CC8C333BC
:101E4700C4540F4420C8834004F456800146F6DF8B
:101E5700E4800B0102040810204080902292E47E67
:101E6700019360BCA3FF543F30E509541FFEE49380
:101E7700A360010ECF54C025E060A840B8E493A347
:101E8700FAE493A3F8E493A3C8C582C8CAC583CA72
:101E9700F0A3C8C582C8CAC583CADFE9DEE780BE2A
:0122E20000FB
:100B890075F008758200EF2FFFEE33FECD33CDCC23
:100B990033CCC58233C5829BED9AEC99E5829840A6
:100BA9000CF582EE9BFEED9AFDEC99FC0FD5F0D683
:100BB900E4CEFBE4CDFAE4CCF9A88222B800C1B9AD
:100BC9000059BA002DEC8BF084CFCECDFCE5F0CBEB
:100BD900F97818EF2FFFEE33FEED33FDEC33FCEB24
:100BE90033FB10D703994004EB99FB0FD8E5E4F9DF
:100BF900FA227818EF2FFFEE33FEED33FDEC33FCCC
:100C0900C933C910D7059BE99A4007EC9BFCE99ABF
:100C1900F90FD8E0E4C9FAE4CCFB2275F010EF2F04
:100C2900FFEE33FEED33FDCC33CCC833C810D70704
:100C39009BEC9AE899400AED9BFDEC9AFCE899F83F
:0E0C49000FD5F0DAE4CDFBE4CCFAE4C8F922D2
:0C0C5700E6FC08E6FD08E6FE08E6FF22C9
:0C0C6300E2FC08E2FD08E2FE08E2FF22CD
:100C6F00E493FC740193FD740293FE740393FF22CB
:0C0C7F00ECF608EDF608EEF608EFF622A1
:0C0C8B00ECF208EDF208EEF208EFF222A5
:100C9700D083D082E493F608740193F60874029324
:090CA700F608740393F67404735B
:100CB000A8828583F0D083D082120CC7120CC71291
:100CC0000CC7120CC7E473E493A3C583C5F0C583B6
:100CD000C8C582C8F0A3C583C5F0C583C8C582C88E
:010CE00022F1
:100CE100D083D082E493F208740193F208740293E2
:090CF100F208740393F274047319
:00000001FF
