:0A28EB0000010202030304040505C6
:101D8E00C200C202C2011215A5C2AF750A1D750BA3
:101D9E000075121D75131275081D75091C75101D21
:101DAE0075113C75141D75155CD2E890E668E0441B
:101DBE0009F090E65CE04435F0D2AF90E680E0208A
:101DCE00E105D20412260090E680E054F7F0538E1F
:101DDE00F812232912277D300105120F93C201300C
:101DEE0003F212290F50EDC203122758200016904D
:101DFE00E682E030E704E020E1EF90E682E030E6B4
:0D1E0E0004E020E0E412265D12291380C7D5
:02291700D322C9
:100F930090E6B9E0120B5610310010A6011121039F
:100FA3000FB606102B08102509101F0A118C0B0011
:100FB30000118090E6BBE024FE602714603824FD16
:100FC300601114602724067050E50A90E6B3F0E53B
:100FD3000B803C122917503EE51290E6B3F0E5135F
:100FE300802DE50C90E6B3F0E50D8023E50E90E649
:100FF300B3F0E50F801990E6BAE0FF122689AA063E
:10100300A9077B01EA494B600DEE90E6B3F0EF9040
:10101300E6B4F002118C02117B02117B12288A02C2
:10102300118C1225D102118C12287A02118C90E6B0
:10103300B8E0247F601514601924027063A200E4F1
:101043003325E0FFA202E4334F8041E490E740F010
:10105300803F90E6BCE0547EFF7E00E0D394807C2A
:101063000040047D0180027D00EC4EFEED4F24EB39
:10107300F58274283EF583E493FF3395E0FEEF2475
:10108300A1FFEE34E68F82F583E0540190E740F050
:10109300E4A3F090E68AF090E68B7402F002118CE0
:1010A30002117B90E6B8E024FE601624026003027E
:1010B300118C90E6BAE0B40105C20002118C021152
:1010C3007B90E6BAE0705590E6BCE0547EFF7E006C
:1010D300E0D394807C0040047D0180027D00EC4ECF
:1010E300FEED4F24EBF58274283EF583E493FF3342
:1010F30095E0FEEF24A1FFEE34E68F82F583E05402
:10110300FEF090E6BCE05480131313541FFFE05429
:101113000F2F90E683F0E04420F0806D805A90E634
:10112300B8E024FE60192402704E90E6BAE0B401E0
:1011330004D200805490E6BAE06402604C80399097
:10114300E6BCE0547EFF7E00E0D394807C00400444
:101153007D0180027D00EC4EFEED4F24EBF58274A1
:10116300283EF583E493FF3395E0FEEF24A1FFEEE1
:1011730034E68F82F583800D90E6A080081202008A
:10118300500790E6A0E04401F090E6A0E04480F030
:011193002239
:0300330002290B94
:04290B0053D8EF327C
:101D000012010002000000402A15058400000102B3
:101D100003010A0600020000004001000902200041
:101D200001010080640904000002FF0000000705B3
:101D3000810240000107058602000200090220001E
:101D400001010080640904000002FF000000070593
:101D500081024000000705860240000004030904D8
:101D6000080349004E0049001A0343006F00630056
:101D700068006C006500610041004D0053003100B7
:0E1D800062000A033000300030003000000026
:1015A50090E6007412F0E4F5A0F580F5B175B28B04
:1015B50075B40F75B5FF75B67F00000090E6017430
:1015C500A3F000000075A80053E8E3000000E490D4
:1015D500E671F000000090E670F000000090E67201
:1015E500F090E610F000000090E61174A0F0000005
:1015F50000E490E612F000000090E613F000000011
:1016050090E61474E0F0000000E490E615F00000A8
:101615000090E60B7403F000000090E6047480F07F
:101625000000007406F0000000E4F000000090E601
:10163500247402F0000000E490E625F0000000901C
:10164500E61A7408F0000000E490E618F0000000C7
:1016550090E619F000000090E61BF000000090E60F
:101665000274E8F0000000E4F51CF51BF51AF51905
:10167500D287D2A0C2A1C2B4C2B51228FED206D268
:1016850088C2A8D28AC2AAE4F5C8F5CA75CBFFC23A
:10169500AD43B12000000000000053B1DF0228AACD
:10277D007819120AE17BA07A8679017800D3120AC2
:0F278D0044500BB287E4F51CF51BF51AF5192221
:0C262F007F0C12263B7F3512263BE4FF97
:10263B007E08AD061EED6019D2A37801EF0880016C
:10264B0023D8FDFF30E004D2A28002C2A2C2A38035
:01265B00E19D
:01265C00225B
:0F28AA00C2B012262F12262FD2B00000D2A322C6
:1026B4007E08AD061EED60217801EF08800123D865
:1026C400FDFF30E004D2A18002C2A1C2A00000003C
:0926D4000000000000D2A080D932
:0126DD0022DA
:102426008D2DC374089DF8EF08800123D8FDFFAEFB
:10243600051DEE60217801EF08800123D8FDFF30ED
:10244600E004D2A18002C2A1C2A0000000000000E8
:062456000000D2A080D9B5
:01245C00225D
:102329007F03122689AA06A9077521018A22892312
:102339007A337B3A7D047FFC7E7F1221E8E4FF74C7
:102349003A2FF582E43433F583E0FEAB21AA22A9C2
:102359002375F002EF900002120B31EE1209660F9D
:03236900BF04DCD2
:01236C00224E
:05290600D283D2812202
:10245D00C281E490E61AF000000090E6A9E0700950
:10246D0090E6487406F000000090E6047480F000D9
:10247D0000007406F0000000E4F000000090E61A81
:07248D007408F000000022BA
:04224100AB07AA0637
:10224500E4F533AF02AE33053374CA2EF582E434B8
:1022550034F583EFF0AF03AE33053374CA2EF58240
:10226500E43434F583EFF0AF33053374CA2FF582C8
:10227500E43434F583EDF0E57370FC7A347BCAAD54
:0D228500337F501227F350F37F500223EEF9
:0A2494008E2D8F2E8D2F8A308B3194
:10249E00B287E4F532E532C3952F5020052EE52E96
:1024AE00AE2D7002052D14FFE5312532F582E4358F
:0C24BE0030F583E0FD122241053280D988
:0124CA0022EF
:0A21E8008E2D8F2E8D2F8A308B3143
:1021F200E4FDE52DFF7E000DEE24CAF582E43434C1
:10220200F583EFF00E0D74CA2EF582E43434F583B3
:10221200E52EF07A347BCA7F501227F3E4FFEFC336
:10222200952F5010E5312FF582E43530F58374CDCA
:0F223200F00F80EAAB31AA30AD2F7F500227D7D3
:04290F00C283D3228A
:04291300D283D32276
:1025D10090E680E030E71200000090E6247402F0FB
:1025E100000000E490E6258010000000E490E6245D
:0F25F100F000000090E6257440F0000000D322B7
:10287A00E490E740F090E68AF090E68B04F0D322E9
:10288A00E490E740F090E68AF090E68B04F0D322D9
:1002000090E6B9E0120B56074BA2074BA3022FB39F
:100210000235B4043DB80704B9043DBA0436BB0343
:100220004DC2023BC40263C50730CB000008CF12A9
:1002300029060208D112245D0208D1000000E490D2
:10024000E61AF000000090E6047480F000000074EC
:1002500006F0000000E4F000000090E61A7408F0D8
:100260000208D190E6B8E06440600302033F300624
:100270000AF5A075B4BD12218EC20690E6BEE075E7
:100280002300F524A3E0FEEE4223D3E5249490E579
:10029000239401400675160A020337E4F521F5227E
:1002A0007B017A33793A1228D4E52445236071E43E
:1002B00090E68AF090E68BF090E6A0E020E1F990DD
:1002C000E68BE0752500F526E4F527F528C3E5283B
:1002D0009526E5279525502D74402528F582E43490
:1002E000E7F583E0FFE5222528FDE5213527FC74AD
:1002F0003A2DF58274333CF583EFF00528E528703C
:10030000CC052780C8E5262522F522E5253521F5EF
:1003100021C3E5249526F524E5239525F523808939
:1003200090E6BAE07002800F121EA78F16E516D372
:10033000940050030208D175B40DD2060208D19082
:10034000E6B9E090E740F0A3E51602073D90E6B974
:10035000E090E740F0E490E68AF090E68B04F090BD
:10036000E6A0E04480F090E6A0E020E1F97F0312EF
:100370002689AA06A9077529018A2A892B90E68B66
:10038000E0D394044008752300752404800990E6A6
:100390008BE0752300F524E4F527F528C3E52895BF
:1003A00024E52795235049E52824FCFFE527347FE1
:1003B000FE74402528F582E434E7F583E0FD12223F
:1003C0004174402528F582E434E7F583E0FDE52813
:1003D00025E0FFE527338F82F583A3A3AB29AA2A63
:1003E000A92BED1209660528E52870B0052780AC19
:1003F000852327852428C3E5289404E52794005005
:1004000032E52824FCFFE527347FFE7D20122241BF
:10041000E52825E0FFE527338F82F583A3A3AB29E9
:10042000AA2AA92B74201209660528E52870C70599
:100430002780C30206F9D280C2800208D1000000E2
:1004400090E6BAE0752100F522A3E0FEEE4221A37A
:10045000E0FBA3E0FEEEFAA3E0752300F524A3E0A1
:10046000FEEE4223E522120B5604820106F7020536
:10047000D10306770405460504EE06053E07000095
:1004800006F7E5B154F84404F5B18523178524181F
:10049000E52445236055E490E68AF090E68BF00071
:1004A000000090E6A0E020E1F990E68BE0752500E1
:1004B000F526E4F527F528C3E5289526E5279525B3
:1004C000501A74402528F582E434E7F583E0FF12E2
:1004D00026B40528E52870DF052780DBC3E52495D1
:1004E00026F524E5239525F52380A50206DAE524E3
:1004F000640645236002D322E490E68AF090E68BFE
:10050000F000000090E6A0E020E1F9C2B0E4F52799
:10051000F52874402528F582E434E7F583E0FF12DE
:10052000263B0528E52870020527C39406E5279495
:100530000040DFD2B00000D2A3B2870206F9122831
:10054000AAB2870206F9E490E68AF090E68BF00002
:09055000000090E6A0E020E1F9B2
:1005590090E740E0139204E030E103D38001C392B5
:100569000590E6BCE0F52CA3E01460211460382462
:1005790002704EE52C30040442A08003F452A0E539
:100589002C300505F452B4803A42B48036E52C305B
:10059900040442B08003F452B0E52C300505F4524E
:1005A900B5802042B5801CE52C30040442B180039B
:1005B900F452B1E52C300505F452B6800642B680F6
:0505C90002D322B287FD
:1005CE000206F9E490E68AF090E68BF000000090C7
:1005DE00E6A0E020E1F9EB4A707BC2ADC2CAF52776
:1005EE007528FFE5B130E72CE5281528AE277002F7
:1005FE001527D39400EE9400401AD2B100000000EB
:10060E00000000000000C2B1000000000000000069
:10061E00000080CFE52845277002D32290E740E006
:10062E00752500F526E4F527F528C3E5289526E57A
:10063E00279525502FD2B1000000000000000000C9
:10064E00C2B10000000000000000000528E528707F
:10065E00D9052780D590E740E0FFC374FF9FF5CA08
:10066E00D2ADD2CAB2870206F9E5B154F84402F50A
:10067E00B190E6BBE0FF7D071224260000000000CB
:10068E0000000000D2B4000000000000000000C214
:10069E00B40000000000000043B10700000000009D
:1006AE000000E5B154F84401F5B1A3E0541FFF7DFD
:1006BE0005122426A3E033333354F8FF90E6BCE052
:1006CE00FEC41354074FFF7D0512242600000000C0
:1006DE000000000000D2B400000000000000000086
:1006EE00C2B443B107B2878002D322E490E68AF007
:1006FE0090E68BF0C32290E6BAE06004D2B5800299
:10070E00C2B590E74074B9F0000000E490E68AF0BC
:10071E0090E68B04F000000090E6A0E04480F0022A
:10072E0008D190E6B9E090E740F0A2A1E433A3F03F
:10073E00E490E68AF090E68B74020208E290E6BA44
:10074E00E0752100F522A3E0FEEE422190E6BEE028
:10075E00752300F524A3E0FEEE422390E6B8E06494
:10076E00C06003020837E524452370030208CD90CC
:10077E00E6A0E020E1F9C3E5249440E5239400507F
:10078E00088523258524268006752500752640902C
:10079E00E6B9E0B4A335E4F527F528C3E528952698
:1007AE00E5279525505EE5222528F582E52135279A
:1007BE00F583E0FF74402528F582E434E7F583EFF6
:1007CE00F00528E52870D4052780D0E4F527F52814
:1007DE00C3E5289526E5279525501874402528F55C
:1007EE0082E434E7F58374CDF00528E52870E10541
:1007FE002780DDAD267AE779407F40AB07AF22AE8A
:10080E00211221E8E490E68AF090E68BE526F025A9
:10081E0022F522E5253521F521C3E5249526F5247B
:10082E00E5239525F52302077490E6B8E064406051
:10083E00030208CDE524452370030208CDE490E6BB
:10084E008AF090E68BF090E6A0E020E1F990E68B3E
:10085E00E0752500F52690E6B9E0B4A335E4F5275A
:10086E00F528C3E5289526E52795255036744025AD
:10087E0028F582E434E7F583E0FFE5222528F582AA
:10088E00E5213527F583EFF00528E52870D40527F7
:10089E0080D0AD267AE779407F40AB07AF22AE21FC
:1008AE00122494E5262522F522E5253521F521C3CE
:1008BE00E5249526F524E5239525F523020842C364
:1008CE0022D32290E6B9E090E740F0E490E68AF079
:0D08DE0090E68B04F090E6A0E04480F0C3AB
:0108EB0022EA
:10289A00C2AFC2CFD2B10000000000C2B1D2AF3283
:10280F00C0E0C083C082D2015391EF90E65D7401A6
:08281F00F0D082D083D0E0323A
:10282700C0E0C083C0825391EF90E65D7404F0D09E
:0628370082D083D0E032E4
:10283D00C0E0C083C0825391EF90E65D7402F0D08A
:06284D0082D083D0E032CE
:1024CB00C0E0C083C08290E680E030E70E85080C48
:1024DB0085090D85100E85110F800C85100C85114B
:1024EB000D85080E85090F5391EF90E65D7410F082
:0724FB00D082D083D0E03253
:01291900328B
:10250200C0E0C083C08290E680E030E70E85080C10
:1025120085090D85100E85110F800C85100C851113
:102522000D85080E85090F5391EF90E65D7420F03A
:07253200D082D083D0E0321B
:01291A00328A
:01291B003289
:01291C003288
:01291D003287
:01291E003286
:01291F003285
:012920003284
:012921003283
:012922003282
:012923003281
:012924003280
:01292500327F
:01292600327E
:01292700327D
:01292800327C
:01292900327B
:01292A00327A
:01292B003279
:01292C003278
:01292D003277
:01292E003276
:01292F003275
:012930003274
:012931003273
:012932003272
:012933003271
:012934003270
:01293500326F
:01293600326E
:01293700326D
:01293800326C
:01293900326B
:01293A00326A
:01293B003269
:01293C003268
:01293D003267
:0422920002740000D2
:0D28C700ED4C7005EFF452A022EF42A0226C
:0C1CF400E4FDFC7F201228C70D0228C769
:102731008B458A468947AB76AA77A9780575E575F1
:10274100AE747002057414F5828E83120905AB45CF
:07275100AA46A94702095442
:0C28D400E4F574F5758B768A778978221C
:0B28E000E5A05440C413135403FF2272
:0427BA00AB07AA06B9
:1027BE00900000C3E5829BEA6480F8E5836480980C
:0827CE005006121CF4A380EB7D
:0127D60022E0
:1022960060483000FF28F5FF26DEFF1795FF18621D
:1022A600FF256DFF2853FF2853FF28B9FF20ACFFF9
:1022B600191EFF2853FF2853FF1BFFFF1BFFFF1BA1
:1022C600FFFF1B5DFF1B5DFF1B5DFF19C8FF212480
:0C22D600FF2124FF16A5FF2867FF1AB89F
:101C9800E4120954900001120966900002120B0D1B
:101CA80000000000900006E4F5F0120A0A90000B0C
:101CB800E4120966900008E41209669000097401AC
:101CC80012096690000A7401120966900010120B3E
:101CD8000D00000000900014E4F5F0120A0A9000CC
:0C1CE8000C120B0D00000000E4FEFF22B7
:06270800AF24E4FCFDFE1D
:10270E008F298E288D278C26E5292407FFE435286E
:10271E00FEE43527FDE43526FCE47B08FAF9F812D1
:03272E00236D22F6
:04279C007F017E003B
:1027A000AD07AC067F101228C7E4FDFC7F2012287D
:0A27B000C77D017C007F200228C7CE
:080CF300AB40AA41A9427D01BA
:080CFB008B5A8A5B895C8D5D58
:100D0300E49034CAF0A3F0E55D704DF55EF55F0540
:100D13005FE55F7002055EB4D0F5E55EB407F012DF
:100D2300279CE4F55EF55FE4FDFC7F201228C77D78
:100D3300017C007F201228C7055FE55F7002055E16
:100D4300C39405E55E6480948040DCAB5AAA5BA93A
:100D53005CE4120954020F8AAB5AAA5BA95C12081D
:100D6300ECFF655D601FE55DB40704EFB4060AE5BB
:100D73005DB40E11EF640D600C9034CAE4F0A374FB
:100D830005F0020F8AE55DB5070EB40603020E6691
:100D9300E55DB40D03020F22AB5AAA5BA95C1208EE
:100DA300ECFF655D7003020F8AEF120B560DE40032
:100DB3000DE7010DEA020E10030E34040E42050E78
:100DC30066060E74070E98080EBC090ECD0A0EF1C6
:100DD3000B0EFF0C0F220D0F2F0E0F510F00000FE4
:100DE30073020E9D020EAEE55DC39409400E1227F9
:100DF3009CAB5AAA5BA95C7409020F84E4FFFE1240
:100E030027A0AB5AAA5BA95C7403020F84E55DB407
:100E13000411E4FFFE1227A0AB5AAA5BA95C740479
:100E2300020F8412279CAB5AAA5BA95C7405020FBC
:100E33008412279CAB5AAA5BA95C7405020F84E554
:100E43005DB40611E4FFFE1227A0AB5AAA5BA95CAE
:100E53007406020F8412279CAB5AAA5BA95C740820
:100E6300020F8412279CAB5AAA5BA95C7407020F7A
:100E730084E55DB40411E4FFFE1227A0AB5AAA5B1C
:100E8300A95C7404020F8412279CAB5AAA5BA95C69
:100E93007408020F84E55DB40111E4FFFE1227A07C
:100EA300AB5AAA5BA95C7401020F8412279CAB5A4C
:100EB300AA5BA95C7402020F84E4FFFE1227A0ABB5
:100EC3005AAA5BA95C740A020F84E55DB40B11E4B2
:100ED300FFFE1227A0AB5AAA5BA95C740B020F8416
:100EE30012279CAB5AAA5BA95C740C020F841227CD
:100EF3009CAB5AAA5BA95C740C020F84E55DB40D2C
:100F030011E4FFFE1227A0AB5AAA5BA95C740D0281
:100F13000F8412279CAB5AAA5BA95C740F806212E0
:100F2300279CAB5AAA5BA95C740E8055E55DB40B94
:100F330010E4FFFE1227A0AB5AAA5BA95C740B80D6
:100F43004012279CAB5AAA5BA95C740F8033E55D02
:100F5300B40110E4FFFE1227A0AB5AAA5BA95C748C
:100F630001801E12279CAB5AAA5BA95C74028011F4
:100F73009034CAE4F0A37405F0AB5AAA5BA95CE50C
:0F0F83005D120954020D9B9034CAE0FEA3E0FFFB
:010F9200223C
:0E1335008F5D8E5C8D5B8C5A8B5E8A5F89604B
:10134300756900756A00756B00E562456345616008
:101353003C120988FFAB61AA62A963E5F08FF01222
:1013630009EBAB61E5632402F9E43562FAC003C01B
:1013730002C001AB5EAA5FA960120988D001D00246
:10138300D00329F9EA35F08B69F56A896BAB5EE521
:10139300602402F9E4355FFAC002C001AA5FA960C4
:1013A300120988D001D00229F9EA35F08B66F56776
:1013B3008968AF5DAE5CAD5BAC5AEC4D4E4F7003CC
:1013C30002149C786674FFF5F0120B3D1208EC9042
:1013D3003345F0E4A3F0F56CF56DAF5DAE5CAD5B4A
:1013E300AC5AEC4D4E4F700302147CC3E56D940868
:1013F300E56C64809480400302147C74FFFBFAF96B
:10140300F8120A378F5D8E5C8D5B8C5AE5654564F7
:10141300600EEC4D4E4F70087D01FC7F101228C703
:10142300903345E05401FD7C007F801228C7903340
:1014330045E0C313F0E4FDFC7F201228C7E56A45AD
:101443006B456960201228E0903347EFF0903346F4
:10145300E0FFAE6DA3E0FDA806088002C333D8FC0D
:101463004F903346F07D017C007F201228C7056D25
:10147300E56D7002056C0213DDE56A456B45697025
:10148300030213B5903346E0FF786974FFF5F01259
:091493000B3DEF1209540213B5E0
:01149C00222D
:081194008B408A4189428D4322
:10119C00E490333EF0A3F0A3F0A3F0A3F0E5436595
:1011AC00547E0060047F0180027F00903343EEF098
:1011BC00A3EFF0AF47AE46AD45AC44EC4D4E4F708F
:1011CC001EAF58AE57AD56AC55EC4D4E4F7003029A
:1011DC001301120CF3AE57AF581227BA021301AB1E
:1011EC0040AA41A942AD43120CFBAF47AE46AD45F8
:1011FC00AC44854B61854C62854D63903343E0F57F
:10120C0064A3E0F565AB48AA49A94A121335E54F2A
:10121C004550454E602D854B5D854C5E854D5F85FB
:10122C005160855261855362AB4EAA4FA950121F73
:10123C0032EF4E70047F0180027F00903340E4F067
:10124C00A3EFF0903343E07002A3E070030212E7C7
:10125C00AB40AA41A9427401120932903340E070AC
:10126C0002A3E06053AF58AE57AD56AC55EC4D4EA3
:10127C004F6045903342E0C39559503CAB40AA4176
:10128C00A9427D06120CFBAB40AA41A9427D041277
:10129C000CFBAF58AE57AD56AC557802120A5AE556
:1012AC00582FFFE5573EFEE5563DFDE5553C8F5862
:1012BC008E578D56F555800BAB40AA41A942AD54C3
:1012CC00120CFBAF58AE57AD56AC55EC4D4E4F60B3
:1012DC000A120CF3AE57AF581227BA903340E07095
:1012EC0002A3E06010903342E0FF04F0EFC3955985
:1012FC0050030211EB903340E07002A3E06021E553
:10130C00596014903342E0D39559400B90333EE42E
:10131C00F0A37403F0800990333EE4F0A37402F060
:08132C0090333EE0FEA3E0FF58
:011334002296
:101FB2008B258A2689278F2B8E2A8D298C28AB2E5A
:101FC200AA2FA930AD2DAC2C1223B1E535453645EB
:101FD20034600DAB34AA35A936AD2DAC2C1223B129
:101FE200852B47852A46852945852844852E48859F
:101FF2002F4985304A85314B85324C85334D8534A6
:102002004E85354F8536508537518538528539533F
:10201200853A54853E58853D57853C56853B5585C6
:0E2022003F59AB25AA26A9277D04121194224E
:10285300900006E475F004120A0A9000061209B308
:04286300FFAEF022B2
:0928F5007401120954E4FEFF22F3
:1026DE008B218A228923E9243BF9EA3402FAC002CB
:1026EE00C001AA22A9239000141209B3FDACF0D0A8
:0A26FE0001D0021223B1E4FEFF2216
:061795008B218A2289234A
:10179B007B007A007924122731122708D3EF94B4F7
:1017AB00EE648094804010AB21AA22A923900006FE
:1017BB00E475F00602184F122708AC06AD07AB21F3
:1017CB00E5232416F9E43522FA1223B1AB21E523E4
:1017DB002408F9E43522FAC003C002C001E48524D1
:1017EB0047F546F545F544E5232416F9E435228BF8
:1017FB0048F549894A754B00754C00754D00754E7F
:10180B0000754F00755000755100755200755300EF
:10181B00AA22A923900009120905F55490000C1275
:10182B000A818F588E578D568C55E4F559D001D0BF
:10183B0002D0037D0B121194AB21AA22A923900095
:10184B0006EE8FF0120A0AAB21AA22A923900006FA
:06185B001209B3FFAEF01C
:011861002264
:0616A5008B218A2289233B
:1016AB00E92416F9E43AFA7D027C001223B1AB214E
:1016BB00E5232416F9E43522FA12203090333A123E
:1016CB000B0190333A120AD512270ED3EF94B4EED6
:1016DB006480948040097524007525060217799063
:1016EB00333A120AD512270EAC06AD07AB21E52310
:1016FB002416F9E43522FA1223B1AB21E523240891
:10170B00F9E43522FAC003C002C00190333A120A41
:10171B00D58F478E468D458C44E5232416F9E43549
:10172B00228B48F549894A754B00754C00754D0065
:10173B00754E00754F007550007551007552007550
:10174B005300AA22A923900009120905F554900011
:10175B000C120A818F588E578D568C55E4F559D043
:10176B0001D002D0037D0B1211948E248F25E52519
:10177B0045246011AB21AA22A923900006E52485FC
:09178B0025F0120A0AAE24AF2574
:011794002232
:061862008B218A2289237C
:10186800E92416F9E43AFAC002C001AA22A9239091
:1018780000141209B3FDACF0D001D0021223B1ABB1
:1018880021E5232408F9E43522FAC003C002C00187
:10189800AA22A923900010120A818F478E468D45EF
:1018A8008C44E92416F9E43A8B48F549894AE5233A
:1018B8002484F9EA34018B4BF54C894DE52324CD7A
:1018C800F9E43A8B4EF54F8950E523243BF9EA3485
:1018D800028B51F5528953A92390000A120905F584
:1018E8005490000C120A818F588E578D568C559043
:1018F800000B120905F559D001D002D0037D04125E
:101908001194EF4E600FAB21AA22A923900006EE96
:051918008FF0120A0A25
:01191D0022A7
:10256D008B218A228923E92416F9E43AFA7D047C29
:10257D00001223B1AB21E5232416F9E43522FA121A
:10258D002030AB21AA22A92390000C120AB1E4FE3F
:02259D00FF221B
:0E28B900E9240BF9E43AFA122731E4FEFF227B
:0620AC008B218A2289232A
:1020B200E4F524F525E92416F9E43AFA7D047C00D6
:1020C2001223B1AB21E5232416F9E43522FA1220BA
:1020D20030AB21AA22A923900010120AB19000105D
:1020E200120A8112270EAB21AA22A923900014EE14
:1020F2008FF0120A0A9000141209B3D394B4E5F0D7
:10210200648094804017752400752506AB21AA22AD
:10211200A923900006E5248525F0120A0AAE24AF11
:012122002597
:012123002299
:06191E008B218A228923BF
:10192400E92408F9E43AFAC003C002C001AA22A9D2
:1019340023900010120A81C004C005C006C007909D
:1019440000141209B3F52D85F02CE92416F9E43AB4
:101954008B2EF52F8930E5232484F9EA34018B3169
:10196400F5328933E52324CDF9E43A8B34F535890E
:1019740036E523243BF9EA34028B37F5388939A953
:101984002390000A120905F53A90000C120A818F7F
:101994003E8E3D8D3C8C3B90000B120905F53FD0EB
:1019A40007D006D005D004D001D002D003121FB254
:1019B400EF4E600FAB21AA22A923900006EE8FF010
:0319C400120A0AFA
:0119C70022FD
:061BFF008B218A228923DC
:101C0500900001120905B40E0990000A120905FF9A
:101C150080027F048F24AB21E5232408F9E43522D3
:101C2500FAC003C002C001AA22A923900010120A1B
:101C3500819000141209B3F52D85F02CE92416F9CD
:101C4500E43A8B2EF52F89307531007532007533E6
:101C55000075340075350075360075370075380028
:101C650075390085243AE4F53EF53DF53CF53BF53F
:101C75003FD001D002D003121FB2AB21AA22A92363
:101C8500900006EE8FF0120A0A9000061209B3FFC3
:021C9500AEF0AF
:011C9700222A
:061B5D008B218A2289237E
:101B6300900001120905B4110990000A120905FF3A
:101B730080027F048F24AB21E5232408F9E4352276
:101B8300FAC003C002C001AA22A923900010120ABE
:101B9300819000141209B3F52D85F02CE92416F970
:101BA300E43A8B2EF52F8930E5232484F9EA3401B6
:101BB3008B31F5328933E52324CDF9E43A8B34F5BF
:101BC30035893675370075380075390085243AE450
:101BD300F53EF53DF53CF53BF53FD001D002D00392
:101BE300121FB2AB21AA22A923900006EE8FF01296
:0B1BF3000A0A9000061209B3FFAEF0D2
:011BFE0022C4
:0619C8008B218A22892315
:1019CE007B007A007924122731AB21E5232408F914
:1019DE00E43522FAAD24120CFBAB21AA22A92390E6
:1019EE000006EE8FF0120A0A9000061209B3FFAE3F
:0119FE00F0F8
:0119FF0022C5
:062124008B218A228923B1
:10212A00E4F524F525FB7A007926122731E52660A5
:10213A000C64016008752400752505802BAB21AA63
:10214A0022A923900001120905B4130DE526900077
:10215A00097002800B740D800CE52690000A70034A
:10216A000480027406120966E52545246011AB2134
:10217A00AA22A923900006E5248525F0120A0AAEB0
:03218A0024AF255A
:01218D00222F
:061AB8008B218A22892324
:101ABE00E92416F9E43AFA7D017C001223B1AB2138
:101ACE00AA22A923900018120905F524E92416F973
:101ADE00E43AFA7D017C001223B1AB21AA22A9239C
:101AEE00900018120905F525E92416F9E43AFA7D55
:101AFE00047C001223B1AB21E5232416F9E4352230
:101B0E00FA12203090333A120B01AB21AA22A923EC
:101B1E009000081209056524600CE92408F9E43ADE
:101B2E00FAAD24120CFB90333A120AD51227BAAB37
:101B3E0021AA22A9239000081209056525600CE947
:0E1B4E002408F9E43AFAAD25120CFBE4FEFF80
:011B5C002266
:10286700900006E4F5F0120A0A9000061209B3FF79
:03287700AEF0229E
:10218E00751D01751E30751F48AB1DAA1EA91F12A5
:10219E001C98AB1DAA1EA91F900006EE8FF0120A06
:1021AE000A9000061209B345F0701FAB1DE51F24FF
:1021BE0008F9E4351EFAE4FD120CFBAB1DAA1EA9AC
:1021CE001F900006EE8FF0120A0AAB1DAA1EA91F61
:0A21DE009000061209B3FFAEF022D4
:101EA700AB1DAA1EA91F9000061209B345F0706B5F
:101EB7001208EC7066E92401F9E43AFA122731AB0B
:101EC7001DAA1EA91F900002120A81E47B01FAF9DC
:101ED700F8120A37AB1DAA1EA91F900002120AB1F9
:101EE700900001120905FFC39418AB1DAA1EA91F74
:101EF7005026C003C002C001EF75F003A42400F50B
:101F070082E43430F583120B4D89828A83D001D065
:101F170002D003120B808003122853AB1DAA1EA9FF
:0B1F27001F9000061209B3FFAEF0226D
:062030008B268A27892897
:10203600E4F52CF52BF52AF529F52DF52EAB26AA78
:1020460027A928120988FFC3E52E9FE5F06480F8CA
:10205600E52D6480985046AF2CAE2BAD2AAC29787E
:1020660008120A6E8F2C8E2B8D2A8C29E92402F9F0
:10207600E43AFAE9252EF9EA352DFA1208ECFFE5DD
:102086002C4FFFE52BFEE52AFDE5298F2C8E2B8DA7
:102096002AF529052EE52E70A4052D80A0AF2CAEBD
:0520A6002BAD2AAC295E
:0120AB002212
:061F32008B5A8A5B895CFA
:101F3800756300756401120988FFAEF0E5644563B6
:101F48006063EF1FAC0670011E4C6059AB5AE55C2C
:101F58002402F9E4355BFAE92FF9EA3EFA1208ECB3
:101F6800F565AB5DE55F2402F9E4355EFAE92FF922
:101F7800EA3EFA1208ECF566E561456245606018CC
:101F8800AB60E5622402F9E43561FAE92FF9EA3E2B
:101F9800FA1208EC52655266E5656566609EE4F5DE
:091FA80063F5648097AE63AF6439
:011FB100220D
:0423B1008C408D418E
:1023B500E5408541F01209EBE92402F9E43A8B4244
:1023C500F5438944E5414540601EAB42AA43A94413
:1023D500122731E54115417002154074012544F578
:0823E50044E43543F54380DCBC
:0123ED0022CD
:10265D0090E682E030E004E020E60B90E682E03088
:10266D00E119E030E71590E680E04401F07F147E3B
:0C267D00001222E390E680E054FEF02200
:1026000030040990E680E0440AF0800790E680E01C
:102610004408F07FDC7E051222E390E65D74FFF053
:0F26200090E65FF05391EF90E680E054F7F022E0
:0828FE00E4F573D2E9D2AF2228
:1023EE00AD0790E678E020E6F9C2E990E678E044A1
:1023FE0080F0ED25E090E679F090E678E030E0F9B7
:10240E0090E678E04440F090E678E020E6F990E639
:08241E0078E030E1D6D2E9229A
:10259F00AC0790E678E020E6F9E573702390E678D3
:1025AF00E04480F0EC25E090E679F08D6EAF03A962
:1025BF0007756F018A708971E4F572757301D32203
:0225CF00C32225
:10253900AC0790E678E020E6F9E573702590E67837
:10254900E04480F0EC25E0440190E679F08D6EAF2F
:1025590003A907756F018A708971E4F572757303B0
:04256900D322C32294
:03004B0002149DFF
:10149D00C0E0C083C082C085C084C086758600C090
:1014AD00D075D000C000C001C002C003C006C00787
:1014BD0090E678E030E20675730602158790E678BF
:1014CD00E020E10CE5736402600675730702158771
:1014DD00E57324FE605F14603624FE7003021578F8
:1014ED0024FC700302158424086003021587AB6F7A
:1014FD00AA70A971AF7205728F82758300120905EA
:10150D0090E679F0E572656E7070757305806B907D
:10151D00E679E0AB6FAA70A971AE728E8275830009
:10152D00120966757302E56E6401704E90E678E0FF
:10153D004420F08045E56E24FEB5720790E678E014
:10154D004420F0E56E14B5720A90E678E04440F060
:10155D0075730090E679E0AB6FAA70A971AE728ECB
:10156D00827583001209660572800F90E678E0445B
:10157D0040F075730080037573005391DFD007D071
:10158D0006D003D002D001D000D0D0D086D084D0E8
:08159D0085D082D083D0E0323A
:02268900A9079F
:10268B00AE14AF158F828E83A3E064037017AD0178
:10269B0019ED7001228F828E83E07C002FFDEC3EC2
:0826AB00FEAF0580DFE4FEFF35
:0126B3002204
:1027D700122539E57324FA600E146006240770F396
:0C27E700D322E4F573D322E4F573D3226F
:1027F30012259FE57324FA600E146006240770F314
:0C280300D322E4F573D322E4F573D32252
:1027580090E682E044C0F090E681F04387010000F3
:04276800000000224B
:1022E3008E218F2290E600E054187012E52224011B
:1022F300FFE43521C313F521EF13F522801590E692
:1023030000E05418FFBF100BE52225E0F522E5217C
:1023130033F521E5221522AE21700215214E600509
:0623230012276C80EE227F
:10276C007400F58690FDA57C05A3E582458370F980
:01277C00223A
:03004300021A009E
:03005300021A008E
:101A000002280F0002283D000228270002291900A1
:101A10000224CB000225020002291A0002291B0021
:101A200002291C0002291D0002291E0002291F0094
:101A30000229200002292100022922000229230074
:101A40000229240002291B00022925000229260060
:101A500002292700022928000229290002292A0038
:101A600002292B0002291B0002291B0002291B004E
:101A700002292C0002292D0002292E0002292F0004
:101A800002293000022931000229320002293300E4
:101A900002293400022935000229360002293700C4
:101AA000022938000229390002293A0002293B00A4
:081AB00002293C0002293D005F
:03002B0002289A0E
:03000000021E1BC2
:0C1E1B00787FE4F6D8FD758178021E6225
:1008EC00BB010689828A83E0225002E722BBFE020A
:0908FC00E32289828A83E493223D
:10090500BB010CE58229F582E5833AF583E02250A7
:1009150006E92582F8E622BBFE06E92582F8E222F1
:0D092500E58229F582E5833AF583E493220B
:10093200BB010989828A83F8E028F022500327F755
:1009420022BBFE05F8E328F3228A838982F8E49326
:02095200282259
:10095400BB010689828A83F0225002F722BBFE0182
:02096400F3227C
:10096600F8BB010DE58229F582E5833AF583E8F0C7
:10097600225006E92582C8F622BBFE05E92582C873
:02098600F2225B
:10098800BB010A89828A83E0F5F0A3E0225006873A
:10099800F009E71922BBFE07E3F5F009E3192289FC
:0B09A800828A83E493F5F0740193222F
:1009B300BB0110E58229F582E5833AF583E0F5F082
:1009C300A3E0225009E92582F886F008E622BBFE5F
:1009D3000AE92582F8E2F5F008E222E5832AF583A5
:0809E300E993F5F0A3E993226A
:1009EB00BB010A89828A83F0E5F0A3F0225006F757
:0F09FB0009A7F01922BBFE06F3E5F009F3192254
:100A0A00F8BB0111E58229F582E5833AF583E8F01E
:100A1A00E5F0A3F0225009E92582C8F608A6F022DB
:0D0A2A00BBFE09E92582C8F2E5F008F222C2
:0D0A3700EF2BFFEE3AFEED39FDEC38FC220E
:10236D00C2D5E830E70FB2D5E4C39BFBE49AFAE49B
:10237D0099F9E498F8EC30E717B2D51223A3120BB4
:10238D00BEE4C39BFBE49AFAE499F9E498F8800360
:10239D00120BBE30D50DE4C39FFFE49EFEE49DFD00
:0423AD00E49CFC228E
:100A4400EB9FF5F0EA9E42F0E99D42F0EC6480C829
:060A540064809845F022C9
:100A5A00E86010ECA2E713FCED13FDEE13FEEF13B2
:040A6A00FFD8F0229F
:100A6E00E8600FEFC333FFEE33FEED33FDEC33FCE6
:030A7E00D8F1228A
:100A8100BB010DE58229F582E5833AF583020AD59A
:100A91005007E92582F8020C50BBFE07E92582F8D0
:100AA100020C5CE58229F582E5833AF583020C6844
:100AB100BB010DE58229F582E5833AF583020B013D
:100AC1005007E92582F8020C78BBFE07E92582F878
:040AD100020C84226D
:0C0AD500E0FCA3E0FDA3E0FEA3E0FF2294
:100AE1007401FF3395E0FEFDFC080808E6CF2FF600
:100AF10018E6CE3EF618E6CD3DF618E6CC3CF622D9
:0C0B0100ECF0A3EDF0A3EEF0A3EFF02267
:100B0D00BB010DE58229F582E5833AF583020CA937
:100B1D005007E92582F8020C90BBFE07E92582F803
:040B2D00020CDA22BA
:0C0B3100A42582F582E5F03583F58322CF
:100B3D00FAE6FB0808E625F0F9F618E63AFAF62289
:090B4D00E0FBA3E0FAA3E0F922A9
:100B5600D083D082F8E4937012740193700DA3A32E
:100B660093F8740193F5828883E473740293686042
:060B7600EFA3A3A380DF42
:060B7C008A838982E47304
:101E2700021D8EE493A3F8E493A34003F68001F226
:101E370008DFF48029E493A3F85407240CC8C333BC
:101E4700C4540F4420C8834004F456800146F6DF8B
:101E5700E4800B0102040810204080902292E47E67
:101E6700019360BCA3FF543F30E509541FFEE49380
:101E7700A360010ECF54C025E060A840B8E493A347
:101E8700FAE493A3F8E493A3C8C582C8CAC583CA72
:101E9700F0A3C8C582C8CAC583CADFE9DEE780BE2A
:0122E20000FB
:100B820075F008758200EF2FFFEE33FECD33CDCC2A
:100B920033CCC58233C5829BED9AEC99E5829840AD
:100BA2000CF582EE9BFEED9AFDEC99FC0FD5F0D68A
:100BB200E4CEFBE4CDFAE4CCF9A88222B800C1B9B4
:100BC2000059BA002DEC8BF084CFCECDFCE5F0CBF2
:100BD200F97818EF2FFFEE33FEED33FDEC33FCEB2B
:100BE20033FB10D703994004EB99FB0FD8E5E4F9E6
:100BF200FA227818EF2FFFEE33FEED33FDEC33FCD3
:100C0200C933C910D7059BE99A4007EC9BFCE99AC6
:100C1200F90FD8E0E4C9FAE4CCFB2275F010EF2F0B
:100C2200FFEE33FEED33FDCC33CCC833C810D7070B
:100C32009BEC9AE899400AED9BFDEC9AFCE899F846
:0E0C42000FD5F0DAE4CDFBE4CCFAE4C8F922D9
:0C0C5000E6FC08E6FD08E6FE08E6FF22D0
:0C0C5C00E2FC08E2FD08E2FE08E2FF22D4
:100C6800E493FC740193FD740293FE740393FF22D2
:0C0C7800ECF608EDF608EEF608EFF622A8
:0C0C8400ECF208EDF208EEF208EFF222AC
:100C9000D083D082E493F608740193F6087402932B
:090CA000F608740393F674047362
:100CA900A8828583F0D083D082120CC0120CC012A6
:100CB9000CC0120CC0E473E493A3C583C5F0C583CB
:100CC900C8C582C8F0A3C583C5F0C583C8C582C895
:010CD90022F8
:100CDA00D083D082E493F208740193F208740293E9
:090CEA00F208740393F274047320
:00000001FF
