:0A2A1C000001020203030404050593
:101D4200C200C202C201121529C2AF750A1E750B6A
:101D52000075121E75131275081E75091C75101E6A
:101D620075113C75141E75155CD2E890E668E04466
:101D720009F090E65CE04435F0D2AF90E680E020D6
:101D8200E105D20412272490E680E054F7F0538E46
:101D9200F812244312287730010512101FC20130B5
:101DA20003F212298E50EDC203122852200016901F
:101DB200E682E030E704E020E1EF90E682E030E600
:0D1DC20004E020E0E412278112299F80C771
:021DFE00D322EE
:10101F0090E6B9E0120BE210BD0011320111AD03E1
:10102F0010420610B70810B10910AB0A12180B00C6
:10103F0000120C90E6BBE024FE602714603824FDFC
:10104F00601114602724067050E50A90E6B3F0E5AE
:10105F000B803C121DFE503EE51290E6B3F0E513F7
:10106F00802DE50C90E6B3F0E50D8023E50E90E6BC
:10107F00B3F0E50F801990E6BAE0FF1227ADAA068C
:10108F00A9077B01EA494B600DEE90E6B3F0EF90B4
:10109F00E6B4F00212180212070212071229BF0259
:1010AF001218121DCF0212181229AF02121890E651
:1010BF00B8E0247F601514601924027063A200E465
:1010CF003325E0FFA202E4334F8041E490E740F084
:1010DF00803F90E6BCE0547EFF7E00E0D394807C9E
:1010EF000040047D0180027D00EC4EFEED4F241C7C
:1010FF00F582742A3EF583E493FF3395E0FEEF24E7
:10110F00A1FFEE34E68F82F583E0540190E740F0C3
:10111F00E4A3F090E68AF090E68B7402F0021218C6
:10112F0002120790E6B8E024FE6016240260030264
:10113F00121890E6BAE0B40105C2000212180212AA
:10114F000790E6BAE0705590E6BCE0547EFF7E0053
:10115F00E0D394807C0040047D0180027D00EC4E42
:10116F00FEED4F241CF582742A3EF583E493FF3382
:10117F0095E0FEEF24A1FFEE34E68F82F583E05475
:10118F00FEF090E6BCE05480131313541FFFE0549D
:10119F000F2F90E683F0E04420F0806D805A90E6A8
:1011AF00B8E024FE60192402704E90E6BAE0B40154
:1011BF0004D200805490E6BAE06402604C8039900B
:1011CF00E6BCE0547EFF7E00E0D394807C004004B8
:1011DF007D0180027D00EC4EFEED4F241CF58274E4
:1011EF002A3EF583E493FF3395E0FEEF24A1FFEE53
:1011FF0034E68F82F583800D90E6A08008120200FE
:10120F00500790E6A0E04401F090E6A0E04480F0A3
:01121F0022AC
:03003300022A3D61
:042A3D0053D8EF3249
:101E000012010002000000402A15068400000102B1
:101E100003010A0600020000004001000902200040
:101E200001010080640904000002FF0000000705B2
:101E3000810240000107058602000200090220001D
:101E400001010080640904000002FF000000070592
:101E500081024000000705860240000004030904D7
:101E6000080349004E0049001A0343006F00630055
:101E700068006C006500610041004D0053003100B6
:0E1E800063000A033000300030003000000024
:1015290090E6007412F0E4F5B0F5A0F580F5B17518
:10153900B28B75B40F75B5FF75B6FE00000090E665
:101549000174A3F000000075A80053E8E30000004F
:10155900E490E671F000000090E670F00000009061
:10156900E672F090E610F000000090E61174A0F029
:10157900000000E490E612F000000090E613F0008D
:10158900000090E61474E0F0000000E490E615F025
:1015990000000090E60B7403F000000090E604746C
:1015A90080F00000007406F0000000E4F000000084
:1015B90090E6247402F0000000E490E625F00000B3
:1015C9000090E61A7408F0000000E490E618F000B4
:1015D900000090E619F000000090E61BF000000002
:1015E90090E60274E8F0000000E4F578F577F57606
:1015F900F57543B14043B12053B1EF43B10253B143
:10160900FB122A2FD207D288C2A8D28AC2AAE4F52D
:10161900C8F5CA75CBFFC2AD43B108000000000090
:1016290000000000000000000053B1F7122A371231
:0E16390029CFE47571507570C3F56FF56E2200
:102877007875120B6DAB71AA70A96FA86ED3120A87
:10288700D0500C63B140E4F578F577F576F575220D
:0C2753007F0C12275F7F3512275FE4FF28
:10275F007E08AD061EED6019D2B17801EF08800139
:10276F0023D8FDFF30E004D2B28002C2B2C2B180E2
:01277F00E178
:012780002236
:10290A00E4FE7D80C2A1EF5D24FF92A3D2A1C2A101
:08291A00EDC313FD0EBE08EE33
:012922002292
:07268D009034D4E054FEF08C
:10269400A2A09206C2A0E4FBFA74CD2BF582743496
:1026A4003AF583E0FF12290A0BBB00010AEB640828
:0B26B4004A70E6C2A2D2A2A20692A0C9
:0126BF0022F8
:0F29CF00C2B0122753122753D2B00000D2B12248
:1024CB007E08AD061EED60357801EF08800123D83C
:1024DB00FDFF30E00543B110800353B1EF53B1DF83
:1024EB0000000000000000000000000000000000E1
:0D24FB0043B120000000000000000080C57B
:0125080022B0
:1023B2008D2DC374089DF8EF08800123D8FDFFAE70
:1023C200051DEE60357801EF08800123D8FDFF304E
:1023D200E00543B110800353B1EF53B1DF000000B9
:1023E2000000000000000000000000000043B120D7
:0A23F200000000000000000080C59C
:0123FC0022BE
:102443007F031227ADAA06A9077521018A228923D2
:102453007A337B3A7D047FFC7E7F1222B7E4FF74DC
:102463003A2FF582E43433F583E0FEAB21AA22A9A7
:102473002375F002EF900002120BBDEE1209F20F6A
:03248300BF04DCB7
:012486002233
:062A370043B180D28322AE
:10262400E490E61AF000000090E6A9E0700990E654
:10263400487406F000000090E6047480F000000086
:102644007406F0000000E4F000000090E61A74083C
:05265400F0000000226F
:04231000AB07AA0667
:10231400E4F533AF02AE33053374CA2EF582E434E8
:1023240034F583EFF0AF03AE33053374CA2EF58270
:10233400E43434F583EFF0AF33053374CA2FF582F8
:10234400E43434F583EDF0E51B70FC7A347BCAADDC
:0D235400337F501228EE50F37F5002257E9B
:0A19C8008E2D8F2E8D2F8A308B316B
:1019D20063B140E4F532E532C3952F5020052EE580
:1019E2002EAE2D7002052D14FFE5312532F582E46D
:0D19F2003530F583E0FD122310053280D959
:0119FF0022C5
:0A22B7008E2D8F2E8D2F8A308B3173
:1022C100E4FDE52DFF7E000DEE24CAF582E43434F1
:1022D100F583EFF00E0D74CA2EF582E43434F583E4
:1022E100E52EF07A347BCA7F501228EEE4FFEFC36B
:1022F100952F5010E5312FF582E43530F58374CDFB
:0F230100F00F80EAAB31AA30AD2F7F500228D207
:10298E0053B17F75714075700D756F03756E00D301
:01299E002216
:10299F0043B180E47571507570C3F56FF56ED32236
:101DCF0090E680E030E71200000090E6247402F005
:101DDF00000000E490E6258010000000E490E62467
:0F1DEF00F000000090E6257440F0000000D322C1
:1029AF00E490E740F090E68AF090E68B04F0D322B3
:1029BF00E490E740F090E68AF090E68B04F0D322A3
:1002000090E6B9E0120BE207D7A207D7A30232B3F8
:100210000238B40450B8078EB90450BA0439BB038D
:1002200050C2023EC40266C507BCCB0440CE0000EB
:10023000095B122A3702095D12262402095D0000BB
:1002400000E490E61AF000000090E6047480F000EC
:1002500000007406F0000000E4F000000090E61AD0
:100260007408F002095D90E6B8E0644060030203A0
:100270004230070AF5A075B4BD12225DC20790E6B0
:10028000BEE0752300F524A3E0FEEE4223D3E5246F
:100290009490E5239401400675720A02033AE4F54E
:1002A00021F5227B017A33793A122A05E524452388
:1002B0006071E490E68AF090E68BF090E6A0E02092
:1002C000E1F990E68BE0752500F526E4F527F528A1
:1002D000C3E5289526E5279525502D74402528F55A
:1002E00082E434E7F583E0FFE5222528FDE52135AA
:1002F00027FC743A2DF58274333CF583EFF0052822
:10030000E52870CC052780C8E5262522F522E525BD
:100310003521F521C3E5249526F524E5239525F51A
:1003200023808990E6BAE07002800F121F1A8F7244
:10033000E572D39400500302095D75B40DD2070233
:10034000095D90E6B9E090E740F0A3E5720207C9C5
:1003500090E6B9E090E740F0E490E68AF090E68B12
:1003600004F090E6A0E04480F090E6A0E020E1F9FF
:100370007F031227ADAA06A9077529018A2A892BAE
:1003800090E68BE0D3940440087523007524048024
:100390000990E68BE0752300F524E4F527F528C3E2
:1003A000E5289524E52795235049E52824FCFFE519
:1003B00027347FFE74402528F582E434E7F583E096
:1003C000FD12231074402528F582E434E7F583E01C
:1003D000FDE52825E0FFE527338F82F583A3A3AB56
:1003E00029AA2AA92BED1209F20528E52870B005E3
:1003F0002780AC852327852428C3E5289404E52796
:1004000094005032E52824FCFFE527347FFE7D2050
:10041000122310E52825E0FFE527338F82F583A31B
:10042000A3AB29AA2AA92B74201209F20528E528D2
:1004300070C7052780C3020783D287C28702095D80
:1004400090E6BAE06005D2A002095DC2A002095D93
:1004500000000090E6BAE0752100F522A3E0FEEE70
:100460004221A3E0FDA3E0FEEEFCA3E0752300F52E
:1004700024A3E0FEEE4223E522120BE204980107DA
:100480001702062203062404057C050528060576C6
:1004900007072C080000062253B0E7852373852444
:1004A00074E52445236055E490E68AF090E68BF0ED
:1004B00000000090E6A0E020E1F990E68BE07525D1
:1004C00000F526E4F527F528C3E5289526E52795C8
:1004D00025501A74402528F582E434E7F583E0FFBF
:1004E0001224CB0528E52870DF052780DBC3E5242F
:1004F0009526F524E5239525F52380A50000000029
:10050000000000000043B1020000000000000000F5
:1005100000000000000053B1FD00000000000000DA
:10052000000043B03802061FE5246406452360023C
:10053000D322E490E68AF090E68BF000000090E68B
:10054000A0E020E1F9C2B0E4F527F52874402528A1
:10055000F582E434E7F583E0FF12275F0528E528FC
:1005600070020527C39406E527940040DFD2B0004F
:1005700000D2B102061F1229CF020780E490E68A5A
:0F058000F090E68BF000000090E6A0E020E1F99B
:10058F0090E740E0139204E030E103D38001C3927F
:10059F000590E6BCE0F52CA3E014602414603B1436
:1005AF00605224037068E52C30040442808003F409
:1005BF005280E52C300505F452B2805442B280507F
:1005CF00E52C30040442A08003F452A0E52C300542
:1005DF0005F452B4803A42B48036E52C300404421C
:1005EF00B08003F452B0E52C300505F452B58020ED
:1005FF0042B5801CE52C30040442B18003F452B1A3
:10060F00E52C300505F452B6800642B68002D3229F
:10061F00020780D32253B0D790E6BBE0FF7D0712CD
:10062F0023B200000000000000000043B1020000F0
:10063F0000000000000000000000000053B1FD00AA
:10064F000000000000000000000000000000004358
:10065F00B0380000000000000053B0CFA3E0541FDB
:10066F00FF7D051223B2A3E033333354F8FF90E636
:10067F00BCE0FEC41354074FFF7D051223B21226B0
:10068F008DD2B690E6BDE030E204D2B78002C2B799
:10069F00000000000000000000000000000000004B
:1006AF0043B1020000000000000000000000000045
:1006BF000053B1FD0000000000000000009034D492
:1006CF00E04401F012269490E6BDE030E304D2B787
:1006DF008002C2B700000000000000000000000010
:1006EF000000000043B10200000000000000000005
:1006FF00000000000053B1FD0000000000000000EA
:10070F000043B038D2B6806912268DC2B7C2B690F8
:10071F0034D4E04401F0122694D2B68054E490E62B
:10072F008AF090E68BF000000090E6A0E020E1F95F
:10073F00E524640845236002D322E4F527F528C396
:10074F00E5289524E52795235024AF2874402FF5ED
:10075F0082E434E7F583E0FE74CD2FF582E4343480
:10076F00F583EEF00528E52870D5052780D11226F0
:10077F009463B140E490E68AF090E68BF0C3229048
:10078F00E6BAE0600543B104800353B1FB90E74044
:10079F0074B9F0000000E490E68AF090E68B04F064
:1007AF0000000090E6A0E04480F002095D90E6B9F9
:1007BF00E090E740F0A281E433A3F0E490E68AF002
:1007CF0090E68B740202096E90E6BAE0752100F58F
:1007DF0022A3E0FEEE422190E6BEE0752300F52451
:1007EF00A3E0FEEE422390E6B8E064C06003020887
:1007FF00C3E5244523700302095990E6A0E020E1E8
:10080F00F9C3E5249440E5239400500885232585FA
:10081F002426800675250075264090E6B9E0B4A31E
:10082F0035E4F527F528C3E5289526E527952550C6
:10083F005EE5222528F582E5213527F583E0FF7453
:10084F00402528F582E434E7F583EFF00528E52805
:10085F0070D4052780D0E4F527F528C3E528952621
:10086F00E5279525501874402528F582E434E7F5DF
:10087F008374CDF00528E52870E1052780DDAD26CE
:10088F007AE779407F40AB07AF22AE211222B7E45F
:10089F0090E68AF090E68BE526F02522F522E525F5
:1008AF003521F521C3E5249526F524E5239525F576
:1008BF002302080090E6B8E064406003020959E59E
:1008CF002445237003020959E490E68AF090E68BE1
:1008DF00F090E6A0E020E1F990E68BE0752500F5B9
:1008EF002690E6B9E0B4A335E4F527F528C3E5284B
:1008FF009526E5279525503674402528F582E43452
:10090F00E7F583E0FFE5222528F582E5213527F578
:10091F0083EFF00528E52870D4052780D0AD267A1F
:10092F00E779407F40AB07AF22AE211219C8E52609
:10093F002522F522E5253521F521C3E5249526F558
:10094F0024E5239525F5230208CEC322D32290E672
:10095F00B9E090E740F0E490E68AF090E68B04F07F
:08096F0090E6A0E04480F0C313
:01097700225D
:10292300C0E0C083C082D2015391EF90E65D740191
:08293300F0D082D083D0E03225
:10293B00C0E0C083C0825391EF90E65D7404F0D089
:06294B0082D083D0E032CF
:10295100C0E0C083C0825391EF90E65D7402F0D075
:0629610082D083D0E032B9
:1025B600C0E0C083C08290E680E030E70E85080C5C
:1025C60085090D85100E85110F800C85100C85115F
:1025D6000D85080E85090F5391EF90E65D7410F096
:0725E600D082D083D0E03267
:012A41003262
:1025ED00C0E0C083C08290E680E030E70E85080C25
:1025FD0085090D85100E85110F800C85100C851128
:10260D000D85080E85090F5391EF90E65D7420F04E
:07261D00D082D083D0E0322F
:012A42003261
:012A43003260
:012A4400325F
:012A4500325E
:012A4600325D
:012A4700325C
:012A4800325B
:012A4900325A
:012A4A003259
:012A4B003258
:012A4C003257
:012A4D003256
:012A4E003255
:012A4F003254
:012A50003253
:012A51003252
:012A52003251
:012A53003250
:012A5400324F
:012A5500324E
:012A5600324D
:012A5700324C
:012A5800324B
:012A5900324A
:012A5A003249
:012A5B003248
:012A5C003247
:012A5D003246
:012A5E003245
:012A5F003244
:012A60003243
:012A61003242
:012A62003241
:012A63003240
:012A6400323F
:012A6500323E
:0423610002790000FD
:0D29EC00ED4C7005EFF452A022EF42A02246
:0C29F900E4FDFC7F201229EC0D0229EC0B
:10282B008B458A468947AB7BAA7CA97D057AE57ADD
:10283B00AE797002057914F5828E83120991AB453E
:07284B00AA46A9470209E0BB
:0C2A0500E4F579F57A8B7B8A7C897D22D0
:0B2A1100E5A05440C413135403FF223F
:0428B500AB07AA06BD
:1028B900900000C3E5829BEA6480F8E58364809810
:0828C90050061229F9A380EB6F
:0128D10022E4
:1023650060483000FF2A26FF27D8FF183FFF190CC9
:10237500FF26C0FF2967FF2967FF29DEFF211FFF11
:102385001AB8FF2967FF2967FF1CA9FF1CA9FF1CB5
:10239500A9FF1C07FF1C07FF1C07FF2546FF219708
:0C23A500FF2197FF174FFF297BFF1B62F1
:10220100E41209E09000011209F2900002120B9908
:1022110000000000900006E4F5F0120A9690000B11
:10222100E41209F2900008E41209F2900009740125
:102231001209F290000A74011209F2900010120BB7
:102241009900000000900014E4F5F0120A96900045
:0C2251000C120B9900000000E4FEFF22BC
:06280200AF24E4FCFDFE22
:102808008F298E288D278C26E5292407FFE4352873
:10281800FEE43527FDE43526FCE47B08FAF9F812D6
:03282800248722E0
:042897007F017E003F
:10289B00AD07AC067F101229ECE4FDFC7F2012295A
:0A28AB00EC7D017C007F200229EC87
:080D7F00AB40AA41A9427D012D
:080D87008B5A8A5B895C8D5DCB
:100D8F00E49034CAF0A3F0E55D704DF55EF55F05B4
:100D9F005FE55F7002055EB4D0F5E55EB407F01253
:100DAF002897E4F55EF55FE4FDFC7F201229EC7DCA
:100DBF00017C007F201229EC055FE55F7002055E64
:100DCF00C39405E55E6480948040DCAB5AAA5BA9AE
:100DDF005CE41209E0021016AB5AAA5BA95C120977
:100DEF0078FF655D601FE55DB40704EFB4060AE5A3
:100DFF005DB40E11EF640D600C9034CAE4F0A3746F
:100E0F0005F0021016E55DB5070EB40603020EF2EB
:100E1F00E55DB40D03020FAEAB5AAA5BA95C1209D4
:100E2F0078FF655D7003021016EF120BE20E700073
:100E3F000E73010E76020E9C030EC0040ECE050E2D
:100E4F00F2060F00070F24080F48090F590A0F7DEC
:100E5F000B0F8B0C0FAE0D0FBB0E0FDD0F00000F26
:100E6F00FF020F29020F3AE55DC39409400E1228C5
:100E7F0097AB5AAA5BA95C7409021010E4FFFE122B
:100E8F00289BAB5AAA5BA95C7403021010E55DB4F2
:100E9F000411E4FFFE12289BAB5AAA5BA95C7404F1
:100EAF00021010122897AB5AAA5BA95C74050210A6
:100EBF0010122897AB5AAA5BA95C7405021010E5B3
:100ECF005DB40611E4FFFE12289BAB5AAA5BA95C26
:100EDF007406021010122897AB5AAA5BA95C74080B
:100EEF00021010122897AB5AAA5BA95C7407021064
:100EFF0010E55DB40411E4FFFE12289BAB5AAA5B08
:100F0F00A95C7404021010122897AB5AAA5BA95C53
:100F1F007408021010E55DB40111E4FFFE12289B66
:100F2F00AB5AAA5BA95C7401021010122897AB5A36
:100F3F00AA5BA95C7402021010E4FFFE12289BAB9F
:100F4F005AAA5BA95C740A021010E55DB40B11E498
:100F5F00FFFE12289BAB5AAA5BA95C740B02101000
:100F6F00122897AB5AAA5BA95C740C0210101228B6
:100F7F0097AB5AAA5BA95C740C021010E55DB40D17
:100F8F0011E4FFFE12289BAB5AAA5BA95C740D02F9
:100F9F001010122897AB5AAA5BA95C740F806212CB
:100FAF002897AB5AAA5BA95C740E8055E55DB40B0C
:100FBF0010E4FFFE12289BAB5AAA5BA95C740B804E
:100FCF0040122897AB5AAA5BA95C740F8033E55D7A
:100FDF00B40110E4FFFE12289BAB5AAA5BA95C7404
:100FEF0001801E122897AB5AAA5BA95C740280116C
:100FFF009034CAE4F0A37405F0AB5AAA5BA95CE580
:0F100F005D1209E0020E279034CAE0FEA3E0FF55
:01101E0022AF
:0E13C1008F5D8E5C8D5B8C5A8B5E8A5F8960BF
:1013CF00756900756A00756B00E56245634561607C
:1013DF003C120A14FFAB61AA62A963E5F08FF01209
:1013EF000A77AB61E5632402F9E43562FAC003C002
:1013FF0002C001AB5EAA5FA960120A14D001D0022D
:10140F00D00329F9EA35F08B69F56A896BAB5EE594
:10141F00602402F9E4355FFAC002C001AA5FA96037
:10142F00120A14D001D00229F9EA35F08B66F5675C
:10143F008968AF5DAE5CAD5BAC5AEC4D4E4F70033F
:10144F00021528786674FFF5F0120BC9120978900F
:10145F003345F0E4A3F0F56CF56DAF5DAE5CAD5BBD
:10146F00AC5AEC4D4E4F7003021508C3E56D94084E
:10147F00E56C64809480400302150874FFFBFAF951
:10148F00F8120AC38F5D8E5C8D5B8C5AE5654564DF
:10149F00600EEC4D4E4F70087D01FC7F101229EC51
:1014AF00903345E05401FD7C007F801229EC90338E
:1014BF0045E0C313F0E4FDFC7F201229ECE56A45FB
:1014CF006B45696020122A11903347EFF090334635
:1014DF00E0FFAE6DA3E0FDA806088002C333D8FC81
:1014EF004F903346F07D017C007F201229EC056D73
:1014FF00E56D7002056C021469E56A456B4569700C
:10150F0003021441903346E0FF786974FFF5F0123F
:09151F000BC9EF1209E0021441AE
:0115280022A0
:081220008B408A4189428D4395
:10122800E490333EF0A3F0A3F0A3F0A3F0E5436508
:10123800547E0060047F0180027F00903343EEF00B
:10124800A3EFF0AF47AE46AD45AC44EC4D4E4F7002
:101258001EAF58AE57AD56AC55EC4D4E4F7003020D
:10126800138D120D7FAE57AF581228B502138DABF0
:1012780040AA41A942AD43120D87AF47AE46AD45DE
:10128800AC44854B61854C62854D63903343E0F5F2
:1012980064A3E0F565AB48AA49A94A1213C1E54F12
:1012A8004550454E602D854B5D854C5E854D5F856F
:1012B8005160855261855362AB4EAA4FA950121FE7
:1012C800A5EF4E70047F0180027F00903340E4F068
:1012D800A3EFF0903343E07002A3E07003021373AE
:1012E800AB40AA41A94274011209BE903340E07094
:1012F80002A3E06053AF58AE57AD56AC55EC4D4E17
:101308004F6045903342E0C39559503CAB40AA41E9
:10131800A9427D06120D87AB40AA41A9427D04125D
:101328000D87AF58AE57AD56AC557802120AE6E5B0
:10133800582FFFE5573EFEE5563DFDE5553C8F58D5
:101348008E578D56F555800BAB40AA41A942AD5436
:10135800120D87AF58AE57AD56AC55EC4D4E4F6099
:101368000A120D7FAE57AF581228B5903340E0707F
:1013780002A3E06010903342E0FF04F0EFC39559F8
:101388005003021277903340E07002A3E06021E539
:10139800596014903342E0D39559400B90333EE4A2
:1013A800F0A37403F0800990333EE4F0A37402F0D4
:0813B80090333EE0FEA3E0FFCC
:0113C000220A
:102025008B258A2689278F2B8E2A8D298C28AB2EE6
:10203500AA2FA930AD2DAC2C122509E5354536451D
:1020450034600DAB34AA35A936AD2DAC2C1225095B
:10205500852B47852A46852945852844852E48852B
:102065002F4985304A85314B85324C85334D853432
:102075004E85354F853650853751853852853953CC
:10208500853A54853E58853D57853C56853B558553
:0E2095003F59AB25AA26A9277D04121220224E
:10296700900006E475F004120A96900006120A3FDA
:04297700FFAEF0229D
:092A260074011209E0E4FEFF2234
:1027D8008B218A228923E9243BF9EA3402FAC002D0
:1027E800C001AA22A923900014120A3FFDACF0D020
:0A27F80001D002122509E4FEFF22C1
:06183F008B218A2289239F
:101845007B007A00792412282B122802D3EF94B456
:10185500EE648094804010AB21AA22A92390000653
:10186500E475F0060218F9122802AC06AD07AB21A3
:10187500E5232416F9E43522FA122509AB21E523DF
:101885002408F9E43522FAC003C002C001E4852426
:1018950047F546F545F544E5232416F9E435228B4D
:1018A50048F549894A754B00754C00754D00754ED4
:1018B50000754F0075500075510075520075530045
:1018C500AA22A923900009120991F55490000C123F
:1018D5000B0D8F588E578D568C55E4F559D001D088
:1018E50002D0037D0B121220AB21AA22A92390005E
:1018F50006EE8FF0120A96AB21AA22A923900006C4
:06190500120A3FFFAEF0E4
:01190B0022B9
:06174F008B218A22892390
:10175500E92416F9E43AFA7D027C00122509AB2149
:10176500E5232416F9E43522FA1220A390333A1220
:101775000B8D90333A120B61122808D3EF94B4EE17
:10178500648094804009752400752506021823900D
:10179500333A120B61122808AC06AD07AB21E523DD
:1017A5002416F9E43522FA122509AB21E52324088C
:1017B500F9E43522FAC003C002C00190333A120B96
:1017C500618F478E468D458C44E5232416F9E43513
:1017D500228B48F549894A754B00754C00754D00BB
:1017E500754E00754F0075500075510075520075A6
:1017F5005300AA22A923900009120991F5549000DB
:101805000C120B0D8F588E578D568C55E4F559D00B
:1018150001D002D0037D0B1212208E248F25E525E1
:1018250045246011AB21AA22A923900006E5248551
:0918350025F0120A96AE24AF253D
:01183E002287
:06190C008B218A228923D1
:10191200E92416F9E43AFAC002C001AA22A92390E6
:101922000014120A3FFDACF0D001D002122509AB1F
:1019320021E5232408F9E43522FAC003C002C001DC
:10194200AA22A923900010120B0D8F478E468D45B7
:101952008C44E92416F9E43A8B48F549894AE5238F
:101962002484F9EA34018B4BF54C894DE52324CDCF
:10197200F9E43A8B4EF54F8950E523243BF9EA34DA
:10198200028B51F5528953A92390000A120991F54D
:101992005490000C120B0D8F588E578D568C55900B
:1019A200000B120991F559D001D002D0037D041227
:1019B2001220EF4E600FAB21AA22A923900006EE5F
:0519C2008FF0120A96EF
:0119C70022FD
:1026C0008B218A228923E92416F9E43AFA7D047CD5
:1026D00000122509AB21E5232416F9E43522FA126C
:1026E00020A3AB21AA22A92390000C120B3DE4FEEB
:0226F000FF22C7
:0E29DE00E9240BF9E43AFA12282BE4FEFF225A
:06211F008B218A228923B6
:10212500E4F524F525E92416F9E43AFA7D047C0062
:10213500122509AB21E5232416F9E43522FA1220EC
:10214500A3AB21AA22A923900010120B3D900010E9
:10215500120B0D122808AB21AA22A923900014EE18
:102165008FF0120A96900014120A3FD394B4E5F04A
:10217500648094804017752400752506AB21AA223A
:10218500A923900006E5248525F0120A96AE24AF12
:012195002524
:012196002226
:061AB8008B218A22892324
:101ABE00E92408F9E43AFAC003C002C001AA22A937
:101ACE0023900010120B0DC004C005C006C0079075
:101ADE000014120A3FF52D85F02CE92416F9E43A8C
:101AEE008B2EF52F8930E5232484F9EA34018B31CE
:101AFE00F5328933E52324CDF9E43A8B34F5358973
:101B0E0036E523243BF9EA34028B37F5388939A9B7
:101B1E002390000A120991F53A90000C120B0D8FCA
:101B2E003E8E3D8D3C8C3B90000B120991F53FD0C3
:101B3E0007D006D005D004D001D002D00312202544
:101B4E00EF4E600FAB21AA22A923900006EE8FF074
:031B5E00120A96D2
:011B61002261
:061CA9008B218A22892331
:101CAF00900001120991B40E0990000A120991FFD8
:101CBF0080027F048F24AB21E5232408F9E4352229
:101CCF00FAC003C002C001AA22A923900010120B70
:101CDF000D900014120A3FF52D85F02CE92416F90A
:101CEF00E43A8B2EF52F893075310075320075333C
:101CFF00007534007535007536007537007538007E
:101D0F0075390085243AE4F53EF53DF53CF53BF594
:101D1F003FD001D002D003122025AB21AA22A92344
:101D2F00900006EE8FF0120A96900006120A3FFFFF
:021D3F00AEF004
:011D4100227F
:061C07008B218A228923D3
:101C0D00900001120991B4110990000A120991FF77
:101C1D0080027F048F24AB21E5232408F9E43522CB
:101C2D00FAC003C002C001AA22A923900010120B12
:101C3D000D900014120A3FF52D85F02CE92416F9AC
:101C4D00E43A8B2EF52F8930E5232484F9EA34010B
:101C5D008B31F5328933E52324CDF9E43A8B34F514
:101C6D0035893675370075380075390085243AE4A5
:101C7D00F53EF53DF53CF53BF53FD001D002D003E7
:101C8D00122025AB21AA22A923900006EE8FF01277
:0B1C9D000A96900006120A3FFFAEF00E
:011CA8002219
:062546008B218A2289238B
:10254C007B007A00792412282BAB21E5232408F98F
:10255C00E43522FAAD24120D87AB21AA22A92390CF
:10256C000006EE8FF0120A96900006120A3FFFAE9C
:01257C00F06E
:01257D00223B
:062197008B218A2289233E
:10219D00E4F524F525FB7A00792612282BE5266037
:1021AD000C64016008752400752505802BAB21AAF0
:1021BD0022A923900001120991B4130DE526900078
:1021CD00097002800B740D800CE52690000A7003D7
:1021DD0004800274061209F2E52545246011AB2135
:1021ED00AA22A923900006E5248525F0120A96AEB1
:0321FD0024AF25E7
:0122000022BB
:061B62008B218A22892379
:101B6800E92416F9E43AFA7D017C00122509AB2133
:101B7800AA22A923900018120991F524E92416F93C
:101B8800E43AFA7D017C00122509AB21AA22A92397
:101B9800900018120991F525E92416F9E43AFA7D1E
:101BA800047C00122509AB21E5232416F9E435222B
:101BB800FA1220A390333A120B8DAB21AA22A92343
:101BC8009000081209916524600CE92408F9E43AA8
:101BD800FAAD24120D8790333A120B611228B5AB77
:101BE80021AA22A9239000081209916525600CE911
:0E1BF8002408F9E43AFAAD25120D87E4FEFF49
:011C060022BB
:10297B00900006E4F5F0120A96900006120A3FFF4B
:03298B00AEF02289
:10225D00751C01751D30751E48AB1CAA1DA91E12DB
:10226D002201AB1CAA1DA91E900006EE8FF0120ACA
:10227D0096900006120A3F45F0701FAB1CE51E2418
:10228D0008F9E4351DFAE4FD120D87AB1CAA1DA952
:10229D001E900006EE8FF0120A96AB1CAA1DA91E09
:0A22AD00900006120A3FFFAEF02277
:101F1A00AB1CAA1DA91E900006120A3F45F0706B61
:101F2A001209787066E92401F9E43AFA12282BAB0F
:101F3A001CAA1DA91E900002120B0DE47B01FAF9DE
:101F4A00F8120AC3AB1CAA1DA91E900002120B3D6F
:101F5A00900001120991FFC39418AB1CAA1DA91E77
:101F6A005026C003C002C001EF75F003A42400F597
:101F7A0082E43430F583120BD989828A83D001D066
:101F8A0002D003120C0C8003122967AB1CAA1DA9EC
:0B1F9A001E900006120A3FFFAEF0226E
:0620A3008B268A27892824
:1020A900E4F52CF52BF52AF529F52DF52EAB26AA05
:1020B90027A928120A14FFC3E52E9FE5F06480F8CA
:1020C900E52D6480985046AF2CAE2BAD2AAC29780B
:1020D90008120AFA8F2C8E2B8D2A8C29E92402F9F1
:1020E900E43AFAE9252EF9EA352DFA120978FFE5DD
:1020F9002C4FFFE52BFEE52AFDE5298F2C8E2B8D34
:102109002AF529052EE52E70A4052D80A0AF2CAE49
:052119002BAD2AAC29EA
:01211E00229E
:061FA5008B5A8A5B895C87
:101FAB00756300756401120A14FFAEF0E5644563B6
:101FBB006063EF1FAC0670011E4C6059AB5AE55CB9
:101FCB002402F9E4355BFAE92FF9EA3EFA120978B3
:101FDB00F565AB5DE55F2402F9E4355EFAE92FF9AF
:101FEB00EA3EFA120978F566E561456245606018CC
:101FFB00AB60E5622402F9E43561FAE92FF9EA3EB8
:10200B00FA12097852655266E5656566609EE4F5DD
:09201B0063F5648097AE63AF64C5
:012024002299
:042509008C408D4134
:10250D00E5408541F0120A77E92402F9E43A8B425D
:10251D00F5438944E5414540601EAB42AA43A944B9
:10252D0012282BE54115417002154074012544F523
:08253D0044E43543F54380DC62
:012545002273
:1027810090E682E030E004E020E60B90E682E03063
:10279100E119E030E71590E680E04401F07F147E16
:0C27A100001223FD90E680E054FEF022C0
:1027240030040990E680E0440AF0800790E680E0F7
:102734004408F07FDC7E051223FD90E65D74FFF013
:0F27440090E65FF05391EF90E680E054F7F022BB
:082A2F00E4F51BD2E9D2AF224D
:10257E00AD0790E678E020E6F9C2E990E678E0440F
:10258E0080F0ED25E090E679F090E678E030E0F925
:10259E0090E678E04440F090E678E020E6F990E6A8
:0825AE0078E030E1D6D2E92209
:1026F200AC0790E678E020E6F9E51B702390E678D7
:10270200E04480F0EC25E090E679F08D16AF03A965
:10271200077517018A188919E4F51A751B01D32266
:02272200C322D0
:10265900AC0790E678E020E6F9E51B702590E6786E
:10266900E04480F0EC25E0440190E679F08D16AF66
:1026790003A9077517018A188919E4F51A751B0347
:04268900D322C32273
:03004B0002164753
:10164700C0E0C083C082C085C084C086758600C0E4
:10165700D075D000C000C001C002C003C006C007DB
:1016670090E678E030E206751B0602173190E678BF
:10167700E020E10CE51B64026006751B07021731C9
:10168700E51B24FE605F14603624FE7003021722F8
:1016970024FC700302172E24086003021731AB17CE
:1016A700AA18A919AF1A051A8F8275830012099112
:1016B70090E679F0E51A65167070751B05806B90DA
:1016C700E679E0AB17AA18A919AE1A8E82758300BE
:1016D7001209F2751B02E5166401704E90E678E078
:1016E7004420F08045E51624FEB51A0790E678E019
:1016F7004420F0E51614B51A0A90E678E04440F065
:10170700751B0090E679E0AB17AA18A919AE1A8ED7
:10171700827583001209F2051A800F90E678E0447B
:1017270040F0751B008003751B005391DFD007D075
:1017370006D003D002D001D000D0D0D086D084D03C
:0817470085D082D083D0E0328E
:0227AD00A9077A
:1027AF00AE14AF158F828E83A3E064037017AD0153
:1027BF0019ED7001228F828E83E07C002FFDEC3E9D
:0827CF00FEAF0580DFE4FEFF10
:0127D70022DF
:1028D200122659E51B24FA600E146006240770F3D1
:0C28E200D322E4F51BD322E4F51BD32223
:1028EE001226F2E51B24FA600E146006240770F31C
:0C28FE00D322E4F51BD322E4F51BD32207
:1028520090E682E044C0F090E681F04387010000F8
:042862000000002250
:1023FD008E218F2290E600E054187012E522240100
:10240D00FFE43521C313F521EF13F522801590E676
:10241D0000E05418FFBF100BE52225E0F522E52161
:10242D0033F521E5221522AE21700215214E6005EE
:06243D0012286680EE2269
:102866007400F58690FDA57C05A3E582458370F985
:01287600223F
:03004300021A009E
:03005300021A008E
:101A0000022923000229510002293B00022A410039
:101A10000225B6000225ED00022A4200022A4300F8
:101A2000022A4400022A4500022A4600022A4700F0
:101A3000022A4800022A4900022A4A00022A4B00D0
:101A4000022A4C00022A4300022A4D00022A4E00BC
:101A5000022A4F00022A5000022A5100022A520094
:101A6000022A5300022A4300022A4300022A4300AA
:101A7000022A5400022A5500022A5600022A570060
:101A8000022A5800022A5900022A5A00022A5B0040
:101A9000022A5C00022A5D00022A5E00022A5F0020
:101AA000022A6000022A6100022A6200022A630000
:081AB000022A6400022A65000D
:03000000021E8E4F
:0C1E8E00787FE4F6D8FD75817D021ED53A
:10097800BB010689828A83E0225002E722BBFE027D
:09098800E32289828A83E49322B0
:10099100BB010CE58229F582E5833AF583E022501B
:1009A10006E92582F8E622BBFE06E92582F8E22265
:0D09B100E58229F582E5833AF583E493227F
:1009BE00BB010989828A83F8E028F022500327F7C9
:1009CE0022BBFE05F8E328F3228A838982F8E4939A
:0209DE002822CD
:1009E000BB010689828A83F0225002F722BBFE01F6
:0209F000F322F0
:1009F200F8BB010DE58229F582E5833AF583E8F03B
:100A0200225006E92582C8F622BBFE05E92582C8E6
:020A1200F222CE
:100A1400BB010A89828A83E0F5F0A3E022500687AD
:100A2400F009E71922BBFE07E3F5F009E31922896F
:0B0A3400828A83E493F5F074019322A2
:100A3F00BB0110E58229F582E5833AF583E0F5F0F5
:100A4F00A3E0225009E92582F886F008E622BBFED2
:100A5F000AE92582F8E2F5F008E222E5832AF58318
:080A6F00E993F5F0A3E99322DD
:100A7700BB010A89828A83F0E5F0A3F0225006F7CA
:0F0A870009A7F01922BBFE06F3E5F009F31922C7
:100A9600F8BB0111E58229F582E5833AF583E8F092
:100AA600E5F0A3F0225009E92582C8F608A6F0224F
:0D0AB600BBFE09E92582C8F2E5F008F22236
:0D0AC300EF2BFFEE3AFEED39FDEC38FC2282
:10248700C2D5E830E70FB2D5E4C39BFBE49AFAE480
:1024970099F9E498F8EC30E717B2D51224BD120C7D
:1024A7004AE4C39BFBE49AFAE499F9E498F88003B9
:1024B700120C4A30D50DE4C39FFFE49EFEE49DFD58
:0424C700E49CFC2273
:100AD000EB9FF5F0EA9E42F0E99D42F0EC6480C89D
:060AE00064809845F0223D
:100AE600E86010ECA2E713FCED13FDEE13FEEF1326
:040AF600FFD8F02213
:100AFA00E8600FEFC333FFEE33FEED33FDEC33FC5A
:030B0A00D8F122FD
:100B0D00BB010DE58229F582E5833AF583020B6180
:100B1D005007E92582F8020CDCBBFE07E92582F8B7
:100B2D00020CE8E58229F582E5833AF583020CF49F
:100B3D00BB010DE58229F582E5833AF583020B8D24
:100B4D005007E92582F8020D04BBFE07E92582F85E
:040B5D00020D102253
:0C0B6100E0FCA3E0FDA3E0FEA3E0FF2207
:100B6D007401FF3395E0FEFDFC080808E6CF2FF673
:100B7D0018E6CE3EF618E6CD3DF618E6CC3CF6224C
:0C0B8D00ECF0A3EDF0A3EEF0A3EFF022DB
:100B9900BB010DE58229F582E5833AF583020D351E
:100BA9005007E92582F8020D1CBBFE07E92582F8EA
:040BB900020D6622A1
:0C0BBD00A42582F582E5F03583F5832243
:100BC900FAE6FB0808E625F0F9F618E63AFAF622FD
:090BD900E0FBA3E0FAA3E0F9221D
:100BE200D083D082F8E4937012740193700DA3A3A2
:100BF20093F8740193F5828883E4737402936860B6
:060C0200EFA3A3A380DFB5
:060C08008A838982E47377
:101E9A00021D42E493A3F8E493A34003F68001F2FF
:101EAA0008DFF48029E493A3F85407240CC8C33349
:101EBA00C4540F4420C8834004F456800146F6DF18
:101ECA00E4800B0102040810204080902361E47E24
:101EDA00019360BCA3FF543F30E509541FFEE4930D
:101EEA00A360010ECF54C025E060A840B8E493A3D4
:101EFA00FAE493A3F8E493A3C8C582C8CAC583CAFF
:101F0A00F0A3C8C582C8CAC583CADFE9DEE780BEB6
:0123B100002B
:100C0E0075F008758200EF2FFFEE33FECD33CDCC9D
:100C1E0033CCC58233C5829BED9AEC99E582984020
:100C2E000CF582EE9BFEED9AFDEC99FC0FD5F0D6FD
:100C3E00E4CEFBE4CDFAE4CCF9A88222B800C1B927
:100C4E000059BA002DEC8BF084CFCECDFCE5F0CB65
:100C5E00F97818EF2FFFEE33FEED33FDEC33FCEB9E
:100C6E0033FB10D703994004EB99FB0FD8E5E4F959
:100C7E00FA227818EF2FFFEE33FEED33FDEC33FC46
:100C8E00C933C910D7059BE99A4007EC9BFCE99A3A
:100C9E00F90FD8E0E4C9FAE4CCFB2275F010EF2F7F
:100CAE00FFEE33FEED33FDCC33CCC833C810D7077F
:100CBE009BEC9AE899400AED9BFDEC9AFCE899F8BA
:0E0CCE000FD5F0DAE4CDFBE4CCFAE4C8F9224D
:0C0CDC00E6FC08E6FD08E6FE08E6FF2244
:0C0CE800E2FC08E2FD08E2FE08E2FF2248
:100CF400E493FC740193FD740293FE740393FF2246
:0C0D0400ECF608EDF608EEF608EFF6221B
:0C0D1000ECF208EDF208EEF208EFF2221F
:100D1C00D083D082E493F608740193F6087402939E
:090D2C00F608740393F6740473D5
:100D3500A8828583F0D083D082120D4C120D4C12FF
:100D45000D4C120D4CE473E493A3C583C5F0C58324
:100D5500C8C582C8F0A3C583C5F0C583C8C582C808
:010D6500226B
:100D6600D083D082E493F208740193F2087402935C
:090D7600F208740393F274047393
:00000001FF
