:0A271F000001020203030404050593
:101B4200C200C202C2011212F5C2AF750A1D750BA4
:101B52000075121D75131275081D75091C75101D6F
:101B620075113C75141D75155CD2E890E668E04469
:101B720009F090E65CE04435F0D2AF90E680E020D8
:101B8200E105D20512248990E680E054F7F0538EE5
:101B9200F812219E1225DD300105120DEBC2013033
:101BA20003F212273A50EDC2031225B82000169014
:101BB200E682E030E704E020E1EF90E682E030E602
:0D1BC20004E020E0E41224E712273E80C773
:021CFE00D322EF
:100DEB0090E6B9E01209AE0E89000EFE010F7903F1
:100DFB000E0E060E83080E7D090E770A0FE40B000C
:100E0B00000FD890E6BBE024FE602714603824FD69
:100E1B00601114602724067050E50A90E6B3F0E5E4
:100E2B000B803C121CFE503EE51290E6B3F0E5132E
:100E3B00802DE50C90E6B3F0E50D8023E50E90E6F2
:100E4B00B3F0E50F801990E6BAE0FF122513AA065E
:100E5B00A9077B01EA494B600DEE90E6B3F0EF90EA
:100E6B00E6B4F0020FE4020FD3020FD31226D10225
:100E7B000FE41224B8020FE41226C1020FE490E62D
:100E8B00B8E0247F601514601924027063A200E49B
:100E9B003325E0FFA202E4334F8041E490E740F0BA
:100EAB00803F90E6BCE0547EFF7E00E0D394807CD4
:100EBB000040047D0180027D00EC4EFEED4F241FAF
:100ECB00F58274273EF583E493FF3395E0FEEF2420
:100EDB00A1FFEE34E68F82F583E0540190E740F0FA
:100EEB00E4A3F090E68AF090E68B7402F0020FE434
:100EFB00020FD390E6B8E024FE60162402600302D2
:100F0B000FE490E6BAE0B40105C200020FE4020F51
:100F1B00D390E6BAE0705590E6BCE0547EFF7E00BD
:100F2B00E0D394807C0040047D0180027D00EC4E78
:100F3B00FEED4F241FF58274273EF583E493FF33B8
:100F4B0095E0FEEF24A1FFEE34E68F82F583E054AB
:100F5B00FEF090E6BCE05480131313541FFFE054D3
:100F6B000F2F90E683F0E04420F0806D805A90E6DE
:100F7B00B8E024FE60192402704E90E6BAE0B4018A
:100F8B0004D200805490E6BAE06402604C80399041
:100F9B00E6BCE0547EFF7E00E0D394807C004004EE
:100FAB007D0180027D00EC4EFEED4F241FF5827417
:100FBB00273EF583E493FF3395E0FEEF24A1FFEE8C
:100FCB0034E68F82F583800D90E6A0800812020034
:100FDB00500790E6A0E04401F090E6A0E04480F0DA
:010FEB0022E3
:030033000227366B
:0427360053D8EF3253
:101D000012010002000000402A15008405000102B3
:101D100003010A0600020000004001000902200041
:101D200001010080640904000002FF0000000705B3
:101D3000810240000007058602000200090220001F
:101D400001010080640904000002FF000000070593
:101D500081024000000705860240000004030904D8
:101D6000080349004E004900140344005600530084
:101D70003100320038002D00560031000A033000D7
:081D80003000300030000000CB
:1024E70090E682E030E004E020E60B90E682E03000
:1024F700E119E030E71590E680E04401F07F147EB3
:0C2507000012215890E680E054FEF02203
:1024890030050990E680E0440AF0800790E680E094
:102499004408F07FDC7E0512215890E65D74FFF058
:0F24A90090E65FF05391EF90E680E054F7F02259
:02251300A90716
:10251500AE14AF158F828E83A3E064037017AD01EF
:1025250019ED7001228F828E83E07C002FFDEC3E39
:08253500FEAF0580DFE4FEFFAC
:01253D00227B
:1025B80090E682E044C0F090E681F0438701000095
:0425C80000000022ED
:102158008E228F2390E600E054187012E5232401A4
:10216800FFE43522C313F522EF13F523801590E61B
:1021780000E05418FFBF100BE52325E0F523E52206
:1021880033F522E5231523AE22700215224E600591
:062198001225CC80EE22AE
:1025CC007400F58690FDA57C05A3E582458370F922
:0125DC0022DC
:03004300021800A0
:0300530002180090
:10180000021CE6000226840002266E000227420027
:1018100002234E00022385000227430002274400D2
:1018200002274500022746000227470002274800FA
:101830000227490002274A0002274B0002274C00DA
:1018400002274D000227440002274E0002274F00C6
:10185000022750000227510002275200022753009E
:1018600002275400022744000227440002274400B4
:10187000022755000227560002275700022758006A
:101880000227590002275A0002275B0002275C004A
:1018900002275D0002275E0002275F00022760002A
:1018A000022761000227620002276300022764000A
:0818B000022765000227660013
:102110007E0874E755B1F9740845B1FA74EF5AFABC
:10212000741045B1FB74F75BFB741845B1FCEF33D9
:10213000FF401089B1000000008BB1000000008951
:10214000B1800E8AB1000000008CB1000000008A4E
:08215000B100000000DED722FF
:101F020060242CCD0007C810E98CFFFFFF7C7FF511
:101F1200000084026DAB0003C9FFFFFF03344C00D5
:081F2200334500010F00010F1F
:1012F50090E6007410F090E60174A3F075A8005311
:10130500E8E3000000E490E671F000000090E6706C
:10131500F000000090E672F0F5A0F58075B1027559
:10132500B40D75B6FE75B28990E610F00000009018
:10133500E61174A0F0000000E490E612F000000051
:1013450090E613F000000090E61474E0F000000051
:10135500E490E615F000000090E60B7403F0000041
:101365000090E6047480F00000007406F0000000B0
:10137500E4F000000090E6247402F0000000E49020
:10138500E625F000000090E61A7409F000000090D0
:10139500E60274E8F0E4F51CF51BF51AF519C287A9
:1013A50043B11053B1F743B10253B1FBAFB1EF54A1
:1013B500DFF5B1F5B1E4F52143B10453B1FB0521E6
:1013C500E521B414F37F0A7E00122158E4F5217457
:1013D500CD2521F582E4342CF583E0FF122110059B
:1013E50021E521C3942440E753B1FD00000000002E
:1013F5000000000043B1027F647E00122158AFB1A6
:10140500EF4420F5B1F5B1122729D204D288C2A83C
:04141500D28AC2AA0B
:0114190022B0
:1025DD007819120939E47B507AC3F9F8D312089CA3
:0E25ED00500BB287E4F51CF51BF51AF5192208
:10219E007F03122513AA06A9077521018A22892316
:1021AE007A2B7B3A7D047FFC7E7F1220B7E4FF748E
:1021BE003A2FF582E4342BF583E0FEAB21AA22A957
:1021CE002375F002EF900002120989EE1207BE0F7E
:0321DE00BF04DC5F
:0121E10022DB
:05273100D283D28022DA
:1022A600C28090E61A7401F000000090E6A9E07082
:1022B6000990E6487406F000000090E6047480F089
:1022C6000000007406F0000000E4F000000090E654
:0822D6001A7409F00000002257
:04222600AA06AC0553
:10222A00E4FD7E000DEE24CAF582E4342CF583EA3F
:10223A00F00E0D74CA2EF582E4342CF583EFF00DFE
:10224A0074CA2402F582E4342CF583ECF0D2877A3E
:0F225A002C7BCA7F51122652C2877F5102231656
:0A23BC008E2C8F2D8D2E8A2F8B3072
:1023C600E4F531E531C3952E5020052DE52DAE2CD3
:1023D6007002052C14FFE5302531F582E4352FF522
:0A23E60083E0FD122226053180D9A4
:0123F00022CA
:0A20B7008E2C8F2D8D2E8A2F8B307A
:1020C100E4FDE52CFF7E000DEE24CAF582E4342CFC
:1020D100F583EFF00E0D74CA2EF582E4342CF583EE
:1020E100E52DF07A2C7BCA7F51122652E4FFEFC313
:1020F100952E5010E5302FF582E4352FF58374CD00
:0F210100F00F80EAAB30AA2FAD2E7F51022636A9
:04273A00C283D32261
:04273E00D283D3224D
:1024B80090E680E030E71200000090E6247402F015
:1024C800000000E490E6258010000000E490E62477
:0F24D800F000000090E6257440F0000000D322D1
:1026C100E490E740F090E68AF090E68B04F0D322A4
:1026D100E490E740F090E68AF090E68B04F0D32294
:1002000090E6B9E01209AE05A3A205A3A30235B397
:10021000023BB40444B80515B90444BA043DBB0517
:1002200040BC055CBD0354C20241C4026AC50588D6
:10023000CB000007271227310207291222A6020746
:100240002900000090E61A7401F000000090E60416
:100250007480F00000007406F0000000E4F000007C
:100260000090E61A7409F002072990E6B8E06440AD
:10027000600302034630040AF5A075B4BD12205D88
:10028000C20490E6BEE0752300F524A3E0FEEE4232
:1002900023D3E5249490E5239401400675160A02C1
:1002A000033EE4F521F5227B017A2B793A122708E7
:1002B000E52445236071E490E68AF090E68BF090A7
:1002C000E6A0E020E1F990E68BE0752500F526E454
:1002D000F527F528C3E5289526E5279525502D74A3
:1002E000402528F582E434E7F583E0FFE522252860
:1002F000FDE5213527FC743A2DF582742B3CF583FE
:10030000EFF00528E52870CC052780C8E5262522D2
:10031000F522E5253521F521C3E5249526F524E5CB
:10032000239525F523808990E6BAE07002800F12AC
:100330001C5B8F16E516D39400500302072975B491
:100340000DD20402072990E6B9E090E740F0A3E55A
:100350001602059590E6B9E090E740F0E490E68A51
:10036000F090E68B04F090E6A0E04480F090E6A0E8
:10037000E020E1F97F03122513AA06A907752901D8
:100380008A2A892B90E68BE0D394044008752300D9
:10039000752404800990E68BE0752300F524E4F5CC
:1003A00027F528C3E5289524E52795235049E52816
:1003B00024FCFFE527347FFE74402528F582E434D1
:1003C000E7F583E0FD12222674402528F582E43407
:1003D000E7F583E0FDE52825E0FFE527338F82F58B
:1003E00083A3A3AB29AA2AA92BED1207BE0528E5F2
:1003F0002870B0052780AC852327852428C3E528ED
:100400009404E52794005032E52824FCFFE52734C6
:100410007FFE7D20122226E52825E0FFE527338F89
:1004200082F583A3A3AB29AA2AA92B74201207BEA5
:100430000528E52870C7052780C302050AD2A0C297
:10044000A002072900000090E6BAE0752100F5221D
:10045000A3E0FEEE422190E6BEE0752300F524A362
:10046000E0FEEE4223852317852418E524452370FA
:10047000030204F4E490E68AF090E68BF090E6A0A4
:10048000E020E1F990E68BE0752500F52690E6B9CD
:10049000E064B87043F527F528C3E5289526E527DD
:1004A0009525503474402528F582E434E7F583E03F
:1004B000FF122110AF2874402FF582E434E7F58352
:1004C000E0FE74CD2FF582E4342CF583EEF00528A0
:1004D000E52870C5052780C1E5262522F522E525FA
:1004E0003521F521C3E5249526F524E5239525F549
:1004F0002302046B90E6B9E0B4B80F53B1FD0000DD
:100500000000000000000043B102E490E68AF09091
:10051000E68BF0C32290E6BAE0600543B1048003A5
:1005200053B1FB90E74074B9F0000000E490E68A14
:10053000F090E68B04F090E6A0E04480F0020729FA
:1005400090E6BAE0AFB130E005EF54DF8003EF444E
:1005500020F5B1F5B190E74074BC8025AFB1EF5400
:10056000DFF5B1F5B1000000000000000000000060
:10057000000000AFB1EF4420F5B1F5B190E7407451
:10058000BDF000000002073190E6B9E090E740F0CE
:10059000A2A1E433A3F0E490E68AF090E68B740223
:1005A00002073A90E6BAE0752100F522A3E0FEEEDC
:1005B000422190E6BEE0752300F524A3E0FEEE4262
:1005C0002390E6B8E064C0600302068FE52445236B
:1005D000700302072590E6A0E020E1F9C3E524942A
:1005E00040E5239400500885232585242680067540
:1005F000250075264090E6B9E0B4A335E4F527F56B
:1006000028C3E5289526E5279525505EE52225286F
:10061000F582E5213527F583E0FF74402528F58232
:10062000E434E7F583EFF00528E52870D40527804A
:10063000D0E4F527F528C3E5289526E5279525502C
:100640001874402528F582E434E7F58374CDF0056D
:1006500028E52870E1052780DDAD267AE779407F1F
:1006600040AB07AF22AE211220B7E490E68AF090AB
:10067000E68BE526F02522F522E5253521F521C377
:10068000E5249526F524E5239525F5230205CC9050
:10069000E6B8E064406003020725E52445237003C3
:1006A000020725E490E68AF090E68BF090E6A0E061
:1006B00020E1F990E68BE0752500F52690E6B9E09B
:1006C000B4A335E4F527F528C3E5289526E5279555
:1006D00025503674402528F582E434E7F583E0FFA1
:1006E000E5222528F582E5213527F583EFF0052859
:1006F000E52870D4052780D0AD267AE779407F4081
:10070000AB07AF22AE211223BCE5262522F522E558
:10071000253521F521C3E5249526F524E5239525E6
:10072000F52302069AC322D32290E6B9E090E7406F
:10073000F0E490E68AF090E68B04F090E6A0E044C6
:0307400080F0C383
:010743002293
:101CE600C0E0C083C082D2015391EF90E65D7401DB
:081CF600F0D082D083D0E0326F
:10266E00C0E0C083C0825391EF90E65D7404F0D059
:06267E0082D083D0E0329F
:10268400C0E0C083C0825391EF90E65D7402F0D045
:0626940082D083D0E03289
:10234E00C0E0C083C08290E680E030E70E85080CC6
:10235E0085090D85100E85110F800C85100C8511C9
:10236E000D85080E85090F5391EF90E65D7410F000
:07237E00D082D083D0E032D1
:012742003264
:10238500C0E0C083C08290E680E030E70E85080C8F
:1023950085090D85100E85110F800C85100C851192
:1023A5000D85080E85090F5391EF90E65D7420F0B9
:0723B500D082D083D0E0329A
:012743003263
:012744003262
:012745003261
:012746003260
:01274700325F
:01274800325E
:01274900325D
:01274A00325C
:01274B00325B
:01274C00325A
:01274D003259
:01274E003258
:01274F003257
:012750003256
:012751003255
:012752003254
:012753003253
:012754003252
:012755003251
:012756003250
:01275700324F
:01275800324E
:01275900324D
:01275A00324C
:01275B00324B
:01275C00324A
:01275D003249
:01275E003248
:01275F003247
:012760003246
:012761003245
:012762003244
:012763003243
:012764003242
:012765003241
:012766003240
:041F2A00027400003D
:0D26EF00ED4C7005EFF452A022EF42A02246
:0C26FC00E4FDFC7F201226EF0D0226EF0B
:102591008B458A468947AB76AA77A9780575E57593
:1025A100AE747002057414F5828E8312075DAB451B
:0725B100AA46A9470207AC8E
:0C270800E4F574F5758B768A77897822E9
:0B271400E5A05440C413135403FF223F
:04261900AB07AA065B
:10261D00900000C3E5829BEA6480F8E583648098AE
:08262D0050061226FCA380EB0D
:012635002282
:101F2E0060482800FF17F7FF253EFF1612FF16DF49
:101F3E00FF2425FF269AFF269AFF26E1FF1F7BFF2F
:101F4E0018B8FF269AFF269AFF1AA9FF1AA9FF1A98
:101F5E00A9FF1A07FF1A07FF1A07FF22DEFF1FF35A
:0C1F6E00FF1FF3FF1522FF26AEFF1962D3
:10179B00E41207AC9000011207BE9000021209651B
:1017AB0000000000900006E4F5F012086290000BB8
:1017BB00E41207BE900008E41207BE900009740102
:1017CB001207BE90000A74011207BE900010120996
:1017DB006500000000900014E4F5F0120862900020
:0C17EB000C12096500000000E4FEFF2263
:06256800AF24E4FCFDFEBF
:10256E008F298E288D278C26E5292407FFE4352810
:10257E00FEE43527FDE43526FCE47B08FAF9F81273
:03258E0021E22225
:0425FB007F017E00DE
:1025FF00AD07AC067F101226EFE4FDFC7F201226FC
:0A260F00EF7D017C007F200226EF22
:080B4B00AB40AA41A9427D0163
:080B53008B5A8A5B895C8D5D01
:100B5B00E4902CCAF0A3F0E55D704DF55EF55F05F2
:100B6B005FE55F7002055EB4D0F5E55EB407F01289
:100B7B0025FBE4F55EF55FE4FDFC7F201226EF7D9F
:100B8B00017C007F201226EF055FE55F7002055E9A
:100B9B00C39405E55E6480948040DCAB5AAA5BA9E4
:100BAB005CE41207AC020DE2AB5AAA5BA95C12071C
:100BBB0044FF655D601FE55DB40704EFB4060AE50D
:100BCB005DB40E11EF640D600C902CCAE4F0A374AD
:100BDB0005F0020DE2E55DB5070EB40603020CBE8F
:100BEB00E55DB40D03020D7AAB5AAA5BA95C120743
:100BFB0044FF655D7003020DE2EF1209AE0C3C0081
:100C0B000C3F010C42020C68030C8C040C9A050C73
:100C1B00BE060CCC070CF0080D14090D250A0D4966
:100C2B000B0D570C0D7A0D0D870E0DA90F00000D36
:100C3B00CB020CF5020D06E55DC39409400E12259F
:100C4B00FBAB5AAA5BA95C7409020DDCE4FFFE1234
:100C5B0025FFAB5AAA5BA95C7403020DDCE55DB4FE
:100C6B000411E4FFFE1225FFAB5AAA5BA95C7404C6
:100C7B00020DDC1225FBAB5AAA5BA95C7405020DB5
:100C8B00DC1225FBAB5AAA5BA95C7405020DDCE5F3
:100C9B005DB40611E4FFFE1225FFAB5AAA5BA95CFB
:100CAB007406020DDC1225FBAB5AAA5BA95C740817
:100CBB00020DDC1225FBAB5AAA5BA95C7407020D73
:100CCB00DCE55DB40411E4FFFE1225FFAB5AAA5B11
:100CDB00A95C7404020DDC1225FBAB5AAA5BA95C60
:100CEB007408020DDCE55DB40111E4FFFE1225FF73
:100CFB00AB5AAA5BA95C7401020DDC1225FBAB5A43
:100D0B00AA5BA95C7402020DDCE4FFFE1225FFABAB
:100D1B005AAA5BA95C740A020DDCE55DB40B11E405
:100D2B00FFFE1225FFAB5AAA5BA95C740B020DDC0C
:100D3B001225FBAB5AAA5BA95C740C020DDC1225C5
:100D4B00FBAB5AAA5BA95C740C020DDCE55DB40D20
:100D5B0011E4FFFE1225FFAB5AAA5BA95C740D02CE
:100D6B000DDC1225FBAB5AAA5BA95C740F806212D7
:100D7B0025FBAB5AAA5BA95C740E8055E55DB40BE1
:100D8B0010E4FFFE1225FFAB5AAA5BA95C740B8023
:100D9B00401225FBAB5AAA5BA95C740F8033E55D4F
:100DAB00B40110E4FFFE1225FFAB5AAA5BA95C74D9
:100DBB0001801E1225FBAB5AAA5BA95C7402801141
:100DCB00902CCAE4F0A37405F0AB5AAA5BA95CE5BE
:0F0DDB005D1207AC020BF3902CCAE0FEA3E0FF01
:010DEA0022E6
:0E118D008F5D8E5C8D5B8C5A8B5E8A5F8960F5
:10119B00756900756A00756B00E5624563456160B2
:1011AB003C1207E0FFAB61AA62A963E5F08FF01276
:1011BB000843AB61E5632402F9E43562FAC003C06E
:1011CB0002C001AB5EAA5FA9601207E0D001D0029A
:1011DB00D00329F9EA35F08B69F56A896BAB5EE5CB
:1011EB00602402F9E4355FFAC002C001AA5FA9606E
:1011FB001207E0D001D00229F9EA35F08B66F567CA
:10120B008968AF5DAE5CAD5BAC5AEC4D4E4F700375
:10121B000212F4786674FFF5F012099512074490E8
:10122B002B45F0E4A3F0F56CF56DAF5DAE5CAD5BFB
:10123B00AC5AEC4D4E4F70030212D4C3E56D9408BB
:10124B00E56C6480948040030212D474FFFBFAF9BE
:10125B00F812088F8F5D8E5C8D5B8C5AE56545644B
:10126B00600EEC4D4E4F70087D01FC7F101226EF87
:10127B00902B45E05401FD7C007F801226EF902BD4
:10128B0045E0C313F0E4FDFC7F201226EFE56A4531
:10129B006B45696020122714902B47EFF0902B467B
:1012AB00E0FFAE6DA3E0FDA806088002C333D8FCB7
:1012BB004F902B46F07D017C007F201226EF056DB1
:1012CB00E56D7002056C021235E56A456B45697078
:1012DB000302120D902B46E0FF786974FFF5F012B4
:0912EB000995EF1207AC02120D87
:0112F40022D7
:080FEC008B408A4189428D43CC
:100FF400E4902B3EF0A3F0A3F0A3F0A3F0E5436547
:10100400547E0060047F0180027F00902B43EEF049
:10101400A3EFF0AF47AE46AD45AC44EC4D4E4F7038
:101024001EAF58AE57AD56AC55EC4D4E4F70030243
:101034001159120B4BAE57AF58122619021159AB66
:1010440040AA41A942AD43120B53AF47AE46AD454A
:10105400AC44854B61854C62854D63902B43E0F530
:1010640064A3E0F565AB48AA49A94A12118DE54F7E
:101074004550454E602D854B5D854C5E854D5F85A5
:101084005160855261855362AB4EAA4FA950121D1F
:1010940088EF4E70047F0180027F00902B40E4F0C3
:1010A400A3EFF0902B43E07002A3E0700302113F22
:1010B400AB40AA41A942740112078A902B40E07008
:1010C40002A3E06053AF58AE57AD56AC55EC4D4E4D
:1010D4004F6045902B42E0C39559503CAB40AA4128
:1010E400A9427D06120B53AB40AA41A9427D0412CA
:1010F4000B53AF58AE57AD56AC5578021208B2E553
:10110400582FFFE5573EFEE5563DFDE5553C8F580B
:101114008E578D56F555800BAB40AA41A942AD546C
:10112400120B53AF58AE57AD56AC55EC4D4E4F6005
:101134000A120B4BAE57AF58122619902B40E07091
:1011440002A3E06010902B42E0FF04F0EFC3955936
:101154005003021043902B40E07002A3E06021E5AD
:10116400596014902B42E0D39559400B902B3EE4E8
:10117400F0A37403F08009902B3EE4F0A37402F012
:08118400902B3EE0FEA3E0FF0A
:01118C002240
:101E08008B258A2689278F2B8E2A8D298C28AB2E05
:101E1800AA2FA930AD2DAC2C122269E535453645DF
:101E280034600DAB34AA35A936AD2DAC2C1222691D
:101E3800852B47852A46852945852844852E48854A
:101E48002F4985304A85314B85324C85334D853451
:101E58004E85354F853650853751853852853953EB
:101E6800853A54853E58853D57853C56853B558572
:0E1E78003F59AB25AA26A9277D04120FEC22A4
:10269A00900006E475F00412086290000612080B16
:0426AA00FFAEF0226D
:0917F70074011207ACE4FEFF22AC
:10253E008B218A228923E9243BF9EA3402FAC0026C
:10254E00C001AA22A92390001412080BFDACF0D0F2
:0A255E0001D002122269E4FEFF2200
:061612008B218A228923CE
:101618007B007A007924122591122568D3EF94B4BF
:10162800EE648094804010AB21AA22A92390000682
:10163800E475F0060216CC122568AC06AD07AB219E
:10164800E5232416F9E43522FA122269AB21E523B1
:101658002408F9E43522FAC003C002C001E4852455
:1016680047F546F545F544E5232416F9E435228B7C
:1016780048F549894A754B00754C00754D00754E03
:1016880000754F0075500075510075520075530074
:10169800AA22A92390000912075DF55490000C12A4
:1016A80008D98F588E578D568C55E4F559D001D0EE
:1016B80002D0037D0B120FECAB21AA22A9239000C4
:1016C80006EE8FF0120862AB21AA22A92390000629
:0616D80012080BFFAEF04A
:0116DE0022E9
:061522008B218A228923BF
:10152800E92416F9E43AFA7D027C00122269AB211B
:10153800E5232416F9E43522FA121E86902B3A1276
:101548000959902B3A12092D12256ED3EF94B4EE57
:101558006480948040097524007525060215F6906C
:101568002B3A12092D12256EAC06AD07AB21E523E7
:101578002416F9E43522FA122269AB21E52324085E
:10158800F9E43522FAC003C002C001902B3A1209CF
:101598002D8F478E468D458C44E5232416F9E43576
:1015A800228B48F549894A754B00754C00754D00EA
:1015B800754E00754F0075500075510075520075D5
:1015C8005300AA22A92390000912075DF554900040
:1015D8000C1208D98F588E578D568C55E4F559D072
:1015E80001D002D0037D0B120FEC8E248F25E52548
:1015F80045246011AB21AA22A923900006E5248581
:0916080025F0120862AE24AF25A2
:0116110022B6
:0616DF008B218A22892301
:1016E500E92416F9E43AFAC002C001AA22A9239016
:1016F500001412080BFDACF0D001D002122269AB28
:1017050021E5232408F9E43522FAC003C002C0010B
:10171500AA22A9239000101208D98F478E468D451D
:101725008C44E92416F9E43A8B48F549894AE523BE
:101735002484F9EA34018B4BF54C894DE52324CDFE
:10174500F9E43A8B4EF54F8950E523243BF9EA3409
:10175500028B51F5528953A92390000A12075DF5B2
:101765005490000C1208D98F588E578D568C559071
:10177500000B12075DF559D001D002D0037D04128C
:101785000FECEF4E600FAB21AA22A923900006EEC5
:051795008FF012086254
:01179A00222C
:102425008B218A228923E92416F9E43AFA7D047C72
:1024350000122269AB21E5232416F9E43522FA12AC
:102445001E86AB21AA22A92390000C120909E4FEDD
:02245500FF2264
:0E26E100E9240BF9E43AFA122591E4FEFF22F7
:061F7B008B218A2289235C
:101F8100E4F524F525E92416F9E43AFA7D047C0008
:101F9100122269AB21E5232416F9E43522FA121E37
:101FA10086AB21AA22A923900010120909900010E2
:101FB1001208D912256EAB21AA22A923900014EE92
:101FC1008FF012086290001412080BD394B4E5F05C
:101FD100648094804017752400752506AB21AA22E0
:101FE100A923900006E5248525F0120862AE24AFEE
:011FF10025CA
:011FF20022CC
:0618B8008B218A22892326
:1018BE00E92408F9E43AFAC003C002C001AA22A939
:1018CE00239000101208D9C004C005C006C00790AE
:1018DE00001412080BF52D85F02CE92416F9E43AC4
:1018EE008B2EF52F8930E5232484F9EA34018B31D0
:1018FE00F5328933E52324CDF9E43A8B34F5358975
:10190E0036E523243BF9EA34028B37F5388939A9B9
:10191E002390000A12075DF53A90000C1208D98F39
:10192E003E8E3D8D3C8C3B90000B12075DF53FD0FB
:10193E0007D006D005D004D001D002D003121E0865
:10194E00EF4E600FAB21AA22A923900006EE8FF076
:03195E001208620A
:011961002263
:061AA9008B218A22892333
:101AAF0090000112075DB40E0990000A12075DFF46
:101ABF0080027F048F24AB21E5232408F9E435222B
:101ACF00FAC003C002C001AA22A923900010120875
:101ADF00D990001412080BF52D85F02CE92416F976
:101AEF00E43A8B2EF52F893075310075320075333E
:101AFF000075340075350075360075370075380080
:101B0F0075390085243AE4F53EF53DF53CF53BF596
:101B1F003FD001D002D003121E08AB21AA22A92365
:101B2F00900006EE8FF012086290000612080BFF6D
:021B3F00AEF006
:011B41002281
:061A07008B218A228923D5
:101A0D0090000112075DB4110990000A12075DFFE5
:101A1D0080027F048F24AB21E5232408F9E43522CD
:101A2D00FAC003C002C001AA22A923900010120817
:101A3D00D990001412080BF52D85F02CE92416F918
:101A4D00E43A8B2EF52F8930E5232484F9EA34010D
:101A5D008B31F5328933E52324CDF9E43A8B34F516
:101A6D0035893675370075380075390085243AE4A7
:101A7D00F53EF53DF53CF53BF53FD001D002D003E9
:101A8D00121E08AB21AA22A923900006EE8FF01298
:0B1A9D00086290000612080BFFAEF07C
:011AA800221B
:0622DE008B218A228923F6
:1022E4007B007A007924122591AB21E5232408F997
:1022F400E43522FAAD24120B53AB21AA22A9239070
:102304000006EE8FF012086290000612080BFFAE72
:01231400F0D8
:0123150022A5
:061FF3008B218A228923E4
:101FF900E4F524F525FB7A007926122591E526607A
:102009000C64016008752400752505802BAB21AA95
:1020190022A92390000112075DB4130DE526900053
:10202900097002800B740D800CE52690000A70037C
:1020390004800274061207BEE52545246011AB2110
:10204900AA22A923900006E5248525F0120862AE8C
:0320590024AF258C
:01205C002261
:061962008B218A2289237B
:10196800E92416F9E43AFA7D017C00122269AB21D8
:10197800AA22A92390001812075DF524E92416F974
:10198800E43AFA7D017C00122269AB21AA22A9233C
:1019980090001812075DF525E92416F9E43AFA7D56
:1019A800047C00122269AB21E5232416F9E43522D0
:1019B800FA121E86902B3A120959AB21AA22A923A2
:1019C80090000812075D6524600CE92408F9E43AE0
:1019D800FAAD24120B53902B3A12092D122619AB8B
:1019E80021AA22A92390000812075D6525600CE949
:0E19F8002408F9E43AFAAD25120B53E4FEFF81
:011A060022BD
:1026AE00900006E4F5F012086290000612080BFF87
:0326BE00AEF02259
:10205D00751D01751E28751F48AB1DAA1EA91F12DF
:10206D00179BAB1DAA1EA91F900006EE8FF012083C
:10207D006290000612080B45F0701FAB1DE51F2482
:10208D0008F9E4351EFAE4FD120B53AB1DAA1EA987
:10209D001F900006EE8FF0120862AB1DAA1EA91F3D
:0A20AD0090000612080BFFAEF022AF
:101C5B00AB1DAA1EA91F90000612080B45F0706B56
:101C6B001207447066E92401F9E43AFA122591ABA4
:101C7B001DAA1EA91F9000021208D9E47B01FAF9D4
:101C8B00F812088FAB1DAA1EA91F9000021209099A
:101C9B0090000112075DFFC39418AB1DAA1EA91F6C
:101CAB005026C003C002C001EF75F003A42400F559
:101CBB0082E43428F5831209A589828A83D001D066
:101CCB0002D0031209D8800312269AAB1DAA1EA9B3
:0B1CDB001F90000612080BFFAEF02265
:061E86008B268A27892843
:101E8C00E4F52CF52BF52AF529F52DF52EAB26AA24
:101E9C0027A9281207E0FFC3E52E9FE5F06480F820
:101EAC00E52D6480985046AF2CAE2BAD2AAC29782A
:101EBC00081208C68F2C8E2B8D2A8C29E92402F946
:101ECC00E43AFAE9252EF9EA352DFA120744FFE532
:101EDC002C4FFFE52BFEE52AFDE5298F2C8E2B8D53
:101EEC002AF529052EE52E70A4052D80A0AF2CAE69
:051EFC002BAD2AAC290A
:011F010022BD
:061D88008B5A8A5B895CA6
:101D8E007563007564011207E0FFAEF0E56445630C
:101D9E006063EF1FAC0670011E4C6059AB5AE55CD8
:101DAE002402F9E4355BFAE92FF9EA3EFA12074408
:101DBE00F565AB5DE55F2402F9E4355EFAE92FF9CE
:101DCE00EA3EFA120744F566E56145624560601821
:101DDE00AB60E5622402F9E43561FAE92FF9EA3ED7
:101DEE00FA12074452655266E5656566609EE4F533
:091DFE0063F5648097AE63AF64E5
:011E070022B8
:042269008C408D41D7
:10226D00E5408541F0120843E92402F9E43A8B4236
:10227D00F5438944E5414540601EAB42AA43A9445C
:10228D00122591E54115417002154074012544F563
:08229D0044E43543F54380DC05
:0122A5002216
:08272900E4F573D2E9D2AF22FE
:10231600AD0790E678E020E6F9C2E990E678E04479
:1023260080F0ED25E090E679F090E678E030E0F98F
:1023360090E678E04440F090E678E020E6F990E612
:0823460078E030E1D6D2E92273
:10245700AC0790E678E020E6F9E573702390E6781C
:10246700E04480F0EC25E090E679F08D6EAF03A9AB
:1024770007756F018A708971E4F572757301D3224C
:02248700C3226E
:1023F100AC0790E678E020E6F9E573702590E67881
:10240100E04480F0EC25E0440190E679F08D6EAF78
:1024110003A907756F018A708971E4F572757303F9
:04242100D322C322DD
:03004B0002141A82
:10141A00C0E0C083C082C085C084C086758600C013
:10142A00D075D000C000C001C002C003C006C0070A
:10143A0090E678E030E20675730602150490E678C5
:10144A00E020E10CE5736402600675730702150477
:10145A00E57324FE605F14603624FE70030214F5FF
:10146A0024FC700302150124086003021504AB6F03
:10147A00AA70A971AF7205728F8275830012075D17
:10148A0090E679F0E572656E7070757305806B9001
:10149A00E679E0AB6FAA70A971AE728E827583008D
:1014AA001207BE757302E56E6401704E90E678E02D
:1014BA004420F08045E56E24FEB5720790E678E098
:1014CA004420F0E56E14B5720A90E678E04440F0E4
:1014DA0075730090E679E0AB6FAA70A971AE728E4F
:1014EA00827583001207BE0572800F90E678E04489
:1014FA0040F075730080037573005391DFD007D0F5
:10150A0006D003D002D001D000D0D0D086D084D06B
:08151A0085D082D083D0E032BD
:102636001223F1E57324FA600E146006240770F382
:0C264600D322E4F573D322E4F573D32211
:10265200122457E57324FA600E146006240770F3FF
:0C266200D322E4F573D322E4F573D322F5
:03000000021BCF11
:0C1BCF00787FE4F6D8FD758178021C16C2
:10074400BB010689828A83E0225002E722BBFE02B3
:09075400E32289828A83E49322E6
:10075D00BB010CE58229F582E5833AF583E0225051
:10076D0006E92582F8E622BBFE06E92582F8E2229B
:0D077D00E58229F582E5833AF583E49322B5
:10078A00BB010989828A83F8E028F022500327F7FF
:10079A0022BBFE05F8E328F3228A838982F8E493D0
:0207AA00282203
:1007AC00BB010689828A83F0225002F722BBFE012C
:0207BC00F32226
:1007BE00F8BB010DE58229F582E5833AF583E8F071
:1007CE00225006E92582C8F622BBFE05E92582C81D
:0207DE00F22205
:1007E000BB010A89828A83E0F5F0A3E022500687E4
:1007F000F009E71922BBFE07E3F5F009E3192289A6
:0B080000828A83E493F5F074019322D8
:10080B00BB0110E58229F582E5833AF583E0F5F02B
:10081B00A3E0225009E92582F886F008E622BBFE08
:10082B000AE92582F8E2F5F008E222E5832AF5834E
:08083B00E993F5F0A3E9932213
:10084300BB010A89828A83F0E5F0A3F0225006F700
:0F08530009A7F01922BBFE06F3E5F009F31922FD
:10086200F8BB0111E58229F582E5833AF583E8F0C8
:10087200E5F0A3F0225009E92582C8F608A6F02285
:0D088200BBFE09E92582C8F2E5F008F2226C
:0D088F00EF2BFFEE3AFEED39FDEC38FC22B8
:1021E200C2D5E830E70FB2D5E4C39BFBE49AFAE428
:1021F20099F9E498F8EC30E717B2D5122218120ACE
:1022020016E4C39BFBE49AFAE499F9E498F8800394
:10221200120A1630D50DE4C39FFFE49EFEE49DFD35
:04222200E49CFC221A
:10089C00EB9FF5F0EA9E42F0E99D42F0EC6480C8D3
:0608AC0064809845F02273
:1008B200E86010ECA2E713FCED13FDEE13FEEF135C
:0408C200FFD8F02249
:1008C600E8600FEFC333FFEE33FEED33FDEC33FC90
:0308D600D8F12234
:1008D900BB010DE58229F582E5833AF58302092DED
:1008E9005007E92582F8020AA8BBFE07E92582F824
:1008F900020AB4E58229F582E5833AF583020AC042
:10090900BB010DE58229F582E5833AF58302095990
:100919005007E92582F8020AD0BBFE07E92582F8CB
:04092900020ADC22C0
:0C092D00E0FCA3E0FDA3E0FEA3E0FF223D
:100939007401FF3395E0FEFDFC080808E6CF2FF6A9
:1009490018E6CE3EF618E6CD3DF618E6CC3CF62282
:0C095900ECF0A3EDF0A3EEF0A3EFF02211
:10096500BB010DE58229F582E5833AF583020B018A
:100975005007E92582F8020AE8BBFE07E92582F857
:04098500020B32220D
:0C098900A42582F582E5F03583F5832279
:10099500FAE6FB0808E625F0F9F618E63AFAF62233
:0909A500E0FBA3E0FAA3E0F92253
:1009AE00D083D082F8E4937012740193700DA3A3D8
:1009BE0093F8740193F5828883E4737402936860EC
:0609CE00EFA3A3A380DFEC
:0609D4008A838982E473AE
:101BDB00021B42E493A3F8E493A34003F68001F2C3
:101BEB0008DFF48029E493A3F85407240CC8C3330B
:101BFB00C4540F4420C8834004F456800146F6DFDA
:101C0B00E4800B0102040810204080901F02E47E48
:101C1B00019360BCA3FF543F30E509541FFEE493CE
:101C2B00A360010ECF54C025E060A840B8E493A395
:101C3B00FAE493A3F8E493A3C8C582C8CAC583CAC0
:101C4B00F0A3C8C582C8CAC583CADFE9DEE780BE78
:011F7A000066
:1009DA0075F008758200EF2FFFEE33FECD33CDCCD4
:1009EA0033CCC58233C5829BED9AEC99E582984057
:1009FA000CF582EE9BFEED9AFDEC99FC0FD5F0D634
:100A0A00E4CEFBE4CDFAE4CCF9A88222B800C1B95D
:100A1A000059BA002DEC8BF084CFCECDFCE5F0CB9B
:100A2A00F97818EF2FFFEE33FEED33FDEC33FCEBD4
:100A3A0033FB10D703994004EB99FB0FD8E5E4F98F
:100A4A00FA227818EF2FFFEE33FEED33FDEC33FC7C
:100A5A00C933C910D7059BE99A4007EC9BFCE99A70
:100A6A00F90FD8E0E4C9FAE4CCFB2275F010EF2FB5
:100A7A00FFEE33FEED33FDCC33CCC833C810D707B5
:100A8A009BEC9AE899400AED9BFDEC9AFCE899F8F0
:0E0A9A000FD5F0DAE4CDFBE4CCFAE4C8F92283
:0C0AA800E6FC08E6FD08E6FE08E6FF227A
:0C0AB400E2FC08E2FD08E2FE08E2FF227E
:100AC000E493FC740193FD740293FE740393FF227C
:0C0AD000ECF608EDF608EEF608EFF62252
:0C0ADC00ECF208EDF208EEF208EFF22256
:100AE800D083D082E493F608740193F608740293D5
:090AF800F608740393F67404730C
:100B0100A8828583F0D083D082120B18120B1812A1
:100B11000B18120B18E473E493A3C583C5F0C583C6
:100B2100C8C582C8F0A3C583C5F0C583C8C582C83E
:010B310022A1
:100B3200D083D082E493F208740193F20874029392
:090B4200F208740393F2740473C9
:00000001FF
