:0A2949000001020203030404050567
:101D8E00C200C202C2011215DBC2AF750A1D750B6D
:101D9E000075121D75131275081D75091C75101D21
:101DAE0075113C75141D75155CD2E890E668E0441B
:101DBE0009F090E65CE04435F0D2AF90E680E0208A
:101DCE00E105D20412263D90E680E054F7F0538EE2
:101DDE00F81223291227BE300105120FC9C2013095
:101DEE0003F212296450EDC20312279920001690B7
:101DFE00E682E030E704E020E1EF90E682E030E6B4
:0D1E0E0004E020E0E41226C812296980C714
:0219FE00D322F2
:100FC90090E6B9E0120B8C10670010DC0111570391
:100FD9000FEC06106108105B0910550A11C20B00CD
:100FE9000011B690E6BBE024FE602714603824FDAA
:100FF900601114602724067050E50A90E6B3F0E505
:101009000B803C1219FE503EE51290E6B3F0E51351
:10101900802DE50C90E6B3F0E50D8023E50E90E612
:10102900B3F0E50F801990E6BAE0FF1226F4AA069C
:10103900A9077B01EA494B600DEE90E6B3F0EF900A
:10104900E6B4F00211C20211B10211B11228EC0288
:1010590011C212260E0211C21228DC0211C290E638
:10106900B8E0247F601514601924027063A200E4BB
:101079003325E0FFA202E4334F8041E490E740F0DA
:10108900803F90E6BCE0547EFF7E00E0D394807CF4
:101099000040047D0180027D00EC4EFEED4F2449A5
:1010A900F58274293EF583E493FF3395E0FEEF243E
:1010B900A1FFEE34E68F82F583E0540190E740F01A
:1010C900E4A3F090E68AF090E68B7402F00211C274
:1010D9000211B190E6B8E024FE6016240260030212
:1010E90011C290E6BAE0B40105C2000211C20211B0
:1010F900B190E6BAE0705590E6BCE0547EFF7E0000
:10110900E0D394807C0040047D0180027D00EC4E98
:10111900FEED4F2449F58274293EF583E493FF33AC
:1011290095E0FEEF24A1FFEE34E68F82F583E054CB
:10113900FEF090E6BCE05480131313541FFFE054F3
:101149000F2F90E683F0E04420F0806D805A90E6FE
:10115900B8E024FE60192402704E90E6BAE0B401AA
:1011690004D200805490E6BAE06402604C80399061
:10117900E6BCE0547EFF7E00E0D394807C0040040E
:101189007D0180027D00EC4EFEED4F2449F582740D
:10119900293EF583E493FF3395E0FEEF24A1FFEEAA
:1011A90034E68F82F583800D90E6A0800812020054
:1011B900500790E6A0E04401F090E6A0E04480F0FA
:0111C9002203
:0300330002296E31
:04296E0053D8EF3219
:101D000012010002000000402A15068400000102B2
:101D100003010A0600020000004001000902200041
:101D200001010080640904000002FF0000000705B3
:101D3000810240000107058602000200090220001E
:101D400001010080640904000002FF000000070593
:101D500081024000000705860240000004030904D8
:101D6000080349004E0049001A0343006F00630056
:101D700068006C006500610041004D0053003100B7
:0E1D800063000A033000300030003000000025
:1015DB0090E6007412F0E4F5A0F580F5B175B28BCE
:1015EB0075B40F75B5FF75B6FE00000090E601747B
:1015FB00A3F000000075A80053E8E3000000E4909E
:10160B00E671F000000090E670F000000090E672CA
:10161B00F090E610F000000090E61174A0F00000CE
:10162B0000E490E612F000000090E613F0000000DA
:10163B0090E61474E0F0000000E490E615F0000072
:10164B000090E60B7403F000000090E6047480F049
:10165B000000007406F0000000E4F000000090E6CB
:10166B00247402F0000000E490E625F000000090E6
:10167B00E61A7408F0000000E490E618F000000091
:10168B0090E619F000000090E61BF000000090E6D9
:10169B000274E8F0000000E4F51CF51BF51AF519CF
:1016AB0043B14043B12053B1EF43B10253B1FB12ED
:1016BB00295CD206D288C2A8D28AC2AAE4F5C8F5A0
:1016CB00CA75CBFFC2AD43B18000000053B17F534D
:0516DB00B17F0228FCB4
:1027BE007819120B177BA07A8679017800D3120A4A
:1027CE007A500C63B140E4F51CF51BF51AF519228D
:0C266C007F0C1226787F35122678E4FFE0
:102678007E08AD061EED6019D2B17801EF08800121
:1026880023D8FDFF30E004D2B28002C2B2C2B180CA
:01269800E160
:01269900221E
:0727DE0074792528F8E6FFDD
:1027E500E4FE7D80C2A1EF5D24FF92A3D2A1C2A128
:0827F500EDC313FD0EBE08EE5A
:0127FD0022B9
:0F28FC00C2B012266C12266CD2B00000D2B122EC
:10269A007E08AD061EED60257801EF08800123D87B
:1026AA00FDFF30E00543B110800353B1EF53B1DFB2
:0D26BA00000000000000000043B12080D5AA
:0126C70022F0
:1023EE008D2DC374089DF8EF08800123D8FDFFAE34
:1023FE00051DEE60257801EF08800123D8FDFF3022
:10240E00E00543B110800353B1EF53B1DF0000007C
:0A241E00000000000043B12080D54B
:012428002291
:102329007F031226F4AA06A9077521018A228923A7
:102339007A337B3A7D047FFC7E7F1221E8E4FF74C7
:102349003A2FF582E43433F583E0FEAB21AA22A9C2
:102359002375F002EF900002120B67EE12099C0F31
:03236900BF04DCD2
:01236C00224E
:061CF90043B180D28322FA
:1024D100C283E490E61AF000000090E6A9E07009DA
:1024E10090E6487406F000000090E6047480F00065
:1024F10000007406F0000000E4F000000090E61A0D
:072501007408F00000002245
:04224100AB07AA0637
:10224500E4F533AF02AE33053374CA2EF582E434B8
:1022550034F583EFF0AF03AE33053374CA2EF58240
:10226500E43434F583EFF0AF33053374CA2FF582C8
:10227500E43434F583EDF0E57370FC7A347BCAAD54
:0D228500337F5012285550F37F50022499EA
:0A2429008E2D8F2E8D2F8A308B31FF
:1024330063B140E4F532E532C3952F5020052EE514
:102443002EAE2D7002052D14FFE5312532F582E401
:0D2453003530F583E0FD122241053280D9BD
:012460002259
:0A21E8008E2D8F2E8D2F8A308B3143
:1021F200E4FDE52DFF7E000DEE24CAF582E43434C1
:10220200F583EFF00E0D74CA2EF582E43434F583B3
:10221200E52EF07A347BCA7F50122855E4FFEFC3D3
:10222200952F5010E5312FF582E43530F58374CDCA
:0F223200F00F80EAAB31AA30AD2F7F5002283970
:0529640043B180D32205
:0529690053B17FD322F1
:10260E0090E680E030E71200000090E6247402F0BD
:10261E00000000E490E6258010000000E490E6241F
:0F262E00F000000090E6257440F0000000D32279
:1028DC00E490E740F090E68AF090E68B04F0D32287
:1028EC00E490E740F090E68AF090E68B04F0D32277
:1002000090E6B9E0120B8C0781A20781A30232B3FA
:100210000238B40450B80738B90450BA0439BB03E3
:1002200050C2023EC40266C50766CB0440CE000041
:100230000905121CF90209071224D102090700005E
:1002400000E490E61AF000000090E6047480F000EC
:1002500000007406F0000000E4F000000090E61AD0
:100260007408F002090790E6B8E0644060030203F6
:100270004230060AF5A075B4BD12218EC20690E682
:10028000BEE0752300F524A3E0FEEE4223D3E5246F
:100290009490E5239401400675160A02033AE4F5AA
:1002A00021F5227B017A33793A122932E52445235C
:1002B0006071E490E68AF090E68BF090E6A0E02092
:1002C000E1F990E68BE0752500F526E4F527F528A1
:1002D000C3E5289526E5279525502D74402528F55A
:1002E00082E434E7F583E0FFE5222528FDE52135AA
:1002F00027FC743A2DF58274333CF583EFF0052822
:10030000E52870CC052780C8E5262522F522E525BD
:100310003521F521C3E5249526F524E5239525F51A
:1003200023808990E6BAE07002800F121EA78F1614
:10033000E516D39400500302090775B40DD20602E6
:10034000090790E6B9E090E740F0A3E516020773CD
:1003500090E6B9E090E740F0E490E68AF090E68B12
:1003600004F090E6A0E04480F090E6A0E020E1F9FF
:100370007F031226F4AA06A9077529018A2A892B68
:1003800090E68BE0D3940440087523007524048024
:100390000990E68BE0752300F524E4F527F528C3E2
:1003A000E5289524E52795235049E52824FCFFE519
:1003B00027347FFE74402528F582E434E7F583E096
:1003C000FD12224174402528F582E434E7F583E0EC
:1003D000FDE52825E0FFE527338F82F583A3A3AB56
:1003E00029AA2AA92BED12099C0528E52870B00539
:1003F0002780AC852327852428C3E5289404E52796
:1004000094005032E52824FCFFE527347FFE7D2050
:10041000122241E52825E0FFE527338F82F583A3EB
:10042000A3AB29AA2AA92B742012099C0528E52828
:1004300070C7052780C302072DD287C2870209072C
:1004400090E6BAE06005D2A0020907C2A00209073F
:1004500000000090E6BAE0752100F522A3E0FEEE70
:100460004221A3E0FDA3E0FEEEFCA3E0752300F52E
:1004700024A3E0FEEE4223E522120B8C0498010532
:10048000F90205F90305FB0405530504FF06054DB4
:100490000706D508000005F953B0E7852317852422
:1004A00018E52445236055E490E68AF090E68BF049
:1004B00000000090E6A0E020E1F990E68BE07525D1
:1004C00000F526E4F527F528C3E5289526E52795C8
:1004D00025501A74402528F582E434E7F583E0FFBF
:1004E00012269A0528E52870DF052780DBC3E5245E
:1004F0009526F524E5239525F52380A50206B8E584
:1005000024640645236002D322E490E68AF090E654
:100510008BF000000090E6A0E020E1F9C2B0E4F525
:1005200027F52874402528F582E434E7F583E0FFB9
:100530001226780528E52870020527C39406E527CA
:10054000940040DFD2B00000D2B102072A1228FC8A
:1005500002072AE490E68AF090E68BF00000009013
:06056000E6A0E020E1F935
:1005660090E740E0139204E030E103D38001C392A8
:100576000590E6BCE0F52CA3E014602414603B145F
:10058600605224037068E52C30040442808003F432
:100596005280E52C300505F452B2805442B28050A8
:1005A600E52C30040442A08003F452A0E52C30056B
:1005B60005F452B4803A42B48036E52C3004044245
:1005C600B08003F452B0E52C300505F452B5802016
:1005D60042B5801CE52C30040442B18003F452B1CC
:1005E600E52C300505F452B6800642B68002D322C9
:1005F60002072AD32253B0D790E6BBE0FF7D07124D
:1006060023EE00000000000000000043B1020000DD
:100616000000000000000053B1FD000000000000D3
:100626000043B0380000000000000053B0CFA3E044
:10063600541FFF7D051223EEA3E033333354F8FF36
:1006460090E6BCE0FEC41354074FFF7D051223EE6F
:100656007879E654FEF6E4F527F5281227DE052814
:10066600E52870020527C39408E527940040EC901E
:10067600E6BDE0C2B700000000000000000043B184
:100686000200000000000000000053B1FD7879E68A
:100696004401F6E4F527F5281227DE0528E528703B
:1006A600020527C39408E527940040EC90E6BDE0D8
:1006B600C2B700000000000000000043B1020000C5
:1006C6000000000000000053B1FD43B0388055E43F
:1006D60090E68AF090E68BF000000090E6A0E0201D
:1006E600E1F9E4F527F528C3E5289524E5279523C0
:1006F600502E74402528F582E434E7F583E0FF1296
:1007060027E5AF2874402FF582E434E7F583E0FE51
:1007160074792FF8A6060528E52870CB052780C72B
:10072600C2A2D2A263B140E490E68AF090E68BF0D2
:10073600C32290E6BAE0600543B104800353B1FBDF
:1007460090E74074B9F0000000E490E68AF090E685
:100756008B04F000000090E6A0E04480F002090758
:1007660090E6B9E090E740F0A281E433A3F0E4908C
:10077600E68AF090E68B740202091890E6BAE075F4
:100786002100F522A3E0FEEE422190E6BEE07523AD
:1007960000F524A3E0FEEE422390E6B8E064C060D4
:1007A6000302086DE5244523700302090390E6A0C1
:1007B600E020E1F9C3E5249440E523940050088540
:1007C6002325852426800675250075264090E6B9E2
:1007D600E0B4A335E4F527F528C3E5289526E527F3
:1007E6009525505EE5222528F582E5213527F583F6
:1007F600E0FF74402528F582E434E7F583EFF00541
:1008060028E52870D4052780D0E4F527F528C3E528
:10081600289526E5279525501874402528F582E465
:1008260034E7F58374CDF00528E52870E1052780C7
:10083600DDAD267AE779407F40AB07AF22AE2112C5
:1008460021E8E490E68AF090E68BE526F02522F58D
:1008560022E5253521F521C3E5249526F524E52352
:100866009525F5230207AA90E6B8E06440600302E6
:100876000903E52445237003020903E490E68AF0A0
:1008860090E68BF090E6A0E020E1F990E68BE0752B
:100896002500F52690E6B9E0B4A335E4F527F5285A
:1008A600C3E5289526E5279525503674402528F575
:1008B60082E434E7F583E0FFE5222528F582E52189
:1008C6003527F583EFF00528E52870D4052780D075
:1008D600AD267AE779407F40AB07AF22AE211224DE
:1008E60029E5262522F522E5253521F521C3E5242E
:1008F6009526F524E5239525F523020878C322D30A
:100906002290E6B9E090E740F0E490E68AF090E6BF
:0B0916008B04F090E6A0E04480F0C3EA
:0109210022B3
:10287100C0E0C083C082D2015391EF90E65D740144
:08288100F0D082D083D0E032D8
:10288900C0E0C083C0825391EF90E65D7404F0D03C
:0628990082D083D0E03282
:10289F00C0E0C083C0825391EF90E65D7402F0D028
:0628AF0082D083D0E0326C
:10250800C0E0C083C08290E680E030E70E85080C0A
:1025180085090D85100E85110F800C85100C85110D
:102528000D85080E85090F5391EF90E65D7410F044
:07253800D082D083D0E03215
:011CFF0032B2
:10253F00C0E0C083C08290E680E030E70E85080CD3
:10254F0085090D85100E85110F800C85100C8511D6
:10255F000D85080E85090F5391EF90E65D7420F0FD
:07256F00D082D083D0E032DE
:012972003232
:012973003231
:012974003230
:01297500322F
:01297600322E
:01297700322D
:01297800322C
:01297900322B
:01297A00322A
:01297B003229
:01297C003228
:01297D003227
:01297E003226
:01297F003225
:012980003224
:012981003223
:012982003222
:012983003221
:012984003220
:01298500321F
:01298600321E
:01298700321D
:01298800321C
:01298900321B
:01298A00321A
:01298B003219
:01298C003218
:01298D003217
:01298E003216
:01298F003215
:012990003214
:012991003213
:012992003212
:012993003211
:012994003210
:01299500320F
:0422920002740000D2
:0D291900ED4C7005EFF452A022EF42A02219
:0C292600E4FDFC7F201229190D02291984
:102772008B458A468947AB76AA77A9780575E575B0
:10278200AE747002057414F5828E8312093BAB4558
:07279200AA46A94702098ACB
:0C293200E4F574F5758B768A77897822BD
:0B293E00E5A05440C413135403FF2213
:04281C00AB07AA0656
:10282000900000C3E5829BEA6480F8E583648098A9
:082830005006122926A380EBDB
:01283800227D
:1022960060483000FF2953FF271FFF17D0FF189D06
:1022A600FF25AAFF28B5FF28B5FF290BFF20ACFFA5
:1022B6001AB8FF28B5FF28B5FF1C04FF1C04FF1C35
:1022C60004FF1B62FF1B62FF1B62FF2461FF2124C8
:0C22D600FF2124FF16E0FF28C9FF195962
:101C9D00E412098A90000112099C900002120B4374
:101CAD0000000000900006E4F5F0120A4090000BD1
:101CBD00E412099C900008E412099C90000974013B
:101CCD0012099C90000A740112099C900010120BCD
:101CDD004300000000900014E4F5F0120A4090005B
:0C1CED000C120B4300000000E4FEFF227C
:06274900AF24E4FCFDFEDC
:10274F008F298E288D278C26E5292407FFE435282D
:10275F00FEE43527FDE43526FCE47B08FAF9F81290
:03276F00236D22B5
:0427FE007F017E00D9
:10280200AD07AC067F10122919E4FDFC7F201229C6
:0A281200197D017C007F20022919C6
:080D2900AB40AA41A9427D0183
:080D31008B5A8A5B895C8D5D21
:100D3900E49034CAF0A3F0E55D704DF55EF55F050A
:100D49005FE55F7002055EB4D0F5E55EB407F012A9
:100D590027FEE4F55EF55FE4FDFC7F201229197D8D
:100D6900017C007F20122919055FE55F7002055E8D
:100D7900C39405E55E6480948040DCAB5AAA5BA904
:100D89005CE412098A020FC0AB5AAA5BA95C12097A
:100D990022FF655D601FE55DB40704EFB4060AE54F
:100DA9005DB40E11EF640D600C9034CAE4F0A374C5
:100DB90005F0020FC0E55DB5070EB40603020E9CEF
:100DC900E55DB40D03020F58AB5AAA5BA95C120981
:100DD90022FF655D7003020FC0EF120B8C0E1A0023
:100DE9000E1D010E20020E46030E6A040E78050E32
:100DF9009C060EAA070ECE080EF2090F030A0F274A
:100E09000B0F350C0F580D0F650E0F870F00000FD4
:100E1900A9020ED3020EE4E55DC39409400E122720
:100E2900FEAB5AAA5BA95C7409020FBAE4FFFE1271
:100E39002802AB5AAA5BA95C7403020FBAE55DB438
:100E49000411E4FFFE122802AB5AAA5BA95C7404E0
:100E5900020FBA1227FEAB5AAA5BA95C7405020FEE
:100E6900BA1227FEAB5AAA5BA95C7405020FBAE550
:100E79005DB40611E4FFFE122802AB5AAA5BA95C15
:100E89007406020FBA1227FEAB5AAA5BA95C740852
:100E9900020FBA1227FEAB5AAA5BA95C7407020FAC
:100EA900BAE55DB40411E4FFFE122802AB5AAA5B4D
:100EB900A95C7404020FBA1227FEAB5AAA5BA95C9B
:100EC9007408020FBAE55DB40111E4FFFE122802AD
:100ED900AB5AAA5BA95C7401020FBA1227FEAB5A7E
:100EE900AA5BA95C7402020FBAE4FFFE122802ABE6
:100EF9005AAA5BA95C740A020FBAE55DB40B11E446
:100F0900FFFE122802AB5AAA5BA95C740B020FBA46
:100F19001227FEAB5AAA5BA95C740C020FBA1227FE
:100F2900FEAB5AAA5BA95C740C020FBAE55DB40D5D
:100F390011E4FFFE122802AB5AAA5BA95C740D02E8
:100F49000FBA1227FEAB5AAA5BA95C740F80621212
:100F590027FEAB5AAA5BA95C740E8055E55DB40BFC
:100F690010E4FFFE122802AB5AAA5BA95C740B803D
:100F7900401227FEAB5AAA5BA95C740F8033E55D6A
:100F8900B40110E4FFFE122802AB5AAA5BA95C74F3
:100F990001801E1227FEAB5AAA5BA95C740280115C
:100FA9009034CAE4F0A37405F0AB5AAA5BA95CE5D6
:0F0FB9005D12098A020DD19034CAE0FEA3E0FF59
:010FC8002206
:0E136B008F5D8E5C8D5B8C5A8B5E8A5F896015
:10137900756900756A00756B00E5624563456160D2
:101389003C1209BEFFAB61AA62A963E5F08FF012B6
:101399000A21AB61E5632402F9E43562FAC003C0AE
:1013A90002C001AB5EAA5FA9601209BED001D002DA
:1013B900D00329F9EA35F08B69F56A896BAB5EE5EB
:1013C900602402F9E4355FFAC002C001AA5FA9608E
:1013D9001209BED001D00229F9EA35F08B66F5670A
:1013E9008968AF5DAE5CAD5BAC5AEC4D4E4F700396
:1013F9000214D2786674FFF5F0120B731209229069
:101409003345F0E4A3F0F56CF56DAF5DAE5CAD5B13
:10141900AC5AEC4D4E4F70030214B2C3E56D9408FB
:10142900E56C6480948040030214B274FFFBFAF9FE
:10143900F8120A6D8F5D8E5C8D5B8C5AE56545648B
:10144900600EEC4D4E4F70087D01FC7F101229197A
:10145900903345E05401FD7C007F801229199033B7
:1014690045E0C313F0E4FDFC7F20122919E56A4524
:101479006B4569602012293E903347EFF09033465F
:10148900E0FFAE6DA3E0FDA806088002C333D8FCD7
:101499004F903346F07D017C007F20122919056D9C
:1014A900E56D7002056C021413E56A456B456970B8
:1014B900030213EB903346E0FF786974FFF5F012ED
:0914C9000B73EF12098A0213EB08
:0114D20022F7
:0811CA008B408A4189428D43EC
:1011D200E490333EF0A3F0A3F0A3F0A3F0E543655F
:1011E200547E0060047F0180027F00903343EEF062
:1011F200A3EFF0AF47AE46AD45AC44EC4D4E4F7059
:101202001EAF58AE57AD56AC55EC4D4E4F70030263
:101212001337120D29AE57AF5812281C021337ABE1
:1012220040AA41A942AD43120D31AF47AE46AD458A
:10123200AC44854B61854C62854D63903343E0F548
:1012420064A3E0F565AB48AA49A94A12136BE54FBE
:101252004550454E602D854B5D854C5E854D5F85C5
:101262005160855261855362AB4EAA4FA950121F3D
:1012720032EF4E70047F0180027F00903340E4F031
:10128200A3EFF0903343E07002A3E0700302131D5A
:10129200AB40AA41A9427401120968903340E07040
:1012A20002A3E06053AF58AE57AD56AC55EC4D4E6D
:1012B2004F6045903342E0C39559503CAB40AA4140
:1012C200A9427D06120D31AB40AA41A9427D04120A
:1012D2000D31AF58AE57AD56AC557802120A90E5B3
:1012E200582FFFE5573EFEE5563DFDE5553C8F582C
:1012F2008E578D56F555800BAB40AA41A942AD548D
:10130200120D31AF58AE57AD56AC55EC4D4E4F6045
:101312000A120D29AE57AF5812281C903340E070C4
:1013220002A3E06010903342E0FF04F0EFC395594E
:101332005003021221903340E07002A3E06021E5E5
:10134200596014903342E0D39559400B90333EE4F8
:10135200F0A37403F0800990333EE4F0A37402F02A
:0813620090333EE0FEA3E0FF22
:01136A002260
:101FB2008B258A2689278F2B8E2A8D298C28AB2E5A
:101FC200AA2FA930AD2DAC2C1223B1E535453645EB
:101FD20034600DAB34AA35A936AD2DAC2C1223B129
:101FE200852B47852A46852945852844852E48859F
:101FF2002F4985304A85314B85324C85334D8534A6
:102002004E85354F8536508537518538528539533F
:10201200853A54853E58853D57853C56853B5585C6
:0E2022003F59AB25AA26A9277D041211CA2218
:1028B500900006E475F004120A409000061209E93A
:0428C500FFAEF02250
:09295300740112098AE4FEFF225E
:10271F008B218A228923E9243BF9EA3402FAC00289
:10272F00C001AA22A9239000141209E9FDACF0D030
:0A273F0001D0021223B1E4FEFF22D4
:0617D0008B218A2289230F
:1017D6007B007A007924122772122749D3EF94B43A
:1017E600EE648094804010AB21AA22A923900006C3
:1017F600E475F00602188A122749AC06AD07AB213C
:10180600E5232416F9E43522FA1223B1AB21E523A8
:101816002408F9E43522FAC003C002C001E4852495
:1018260047F546F545F544E5232416F9E435228BBC
:1018360048F549894A754B00754C00754D00754E43
:1018460000754F00755000755100755200755300B4
:10185600AA22A92390000912093BF55490000C1204
:101866000AB78F588E578D568C55E4F559D001D04E
:1018760002D0037D0B1211CAAB21AA22A923900024
:1018860006EE8FF0120A40AB21AA22A92390000689
:061896001209E9FFAEF0AB
:01189C002229
:0616E0008B218A22892300
:1016E600E92416F9E43AFA7D027C001223B1AB2113
:1016F600E5232416F9E43522FA12203090333A1203
:101706000B3790333A120B0B12274FD3EF94B4EEEC
:101716006480948040097524007525060217B490EC
:10172600333A120B0B12274FAC06AD07AB21E5235C
:101736002416F9E43522FA1223B1AB21E523240855
:10174600F9E43522FAC003C002C00190333A120B05
:101756000B8F478E468D458C44E5232416F9E435D8
:10176600228B48F549894A754B00754C00754D002A
:10177600754E00754F007550007551007552007515
:101786005300AA22A92390000912093BF5549000A0
:101796000C120AB78F588E578D568C55E4F559D0D2
:1017A60001D002D0037D0B1211CA8E248F25E525A8
:1017B60045246011AB21AA22A923900006E52485C1
:0917C60025F0120A40AE24AF2503
:0117CF0022F7
:06189D008B218A22892341
:1018A300E92416F9E43AFAC002C001AA22A9239056
:1018B30000141209E9FDACF0D001D0021223B1AB40
:1018C30021E5232408F9E43522FAC003C002C0014C
:1018D300AA22A923900010120AB78F478E468D457E
:1018E3008C44E92416F9E43A8B48F549894AE523FF
:1018F3002484F9EA34018B4BF54C894DE52324CD3F
:10190300F9E43A8B4EF54F8950E523243BF9EA3449
:10191300028B51F5528953A92390000A12093BF512
:101923005490000C120AB78F588E578D568C5590D1
:10193300000B12093BF559D001D002D0037D0412EC
:1019430011CAEF4E600FAB21AA22A923900006EE25
:051953008FF0120A40B4
:01195800226C
:1025AA008B218A228923E92416F9E43AFA7D047CEC
:1025BA00001223B1AB21E5232416F9E43522FA12DD
:1025CA002030AB21AA22A92390000C120AE7E4FECC
:0225DA00FF22DE
:0E290B00E9240BF9E43AFA122772E4FEFF22E7
:0620AC008B218A2289232A
:1020B200E4F524F525E92416F9E43AFA7D047C00D6
:1020C2001223B1AB21E5232416F9E43522FA1220BA
:1020D20030AB21AA22A923900010120AE790001027
:1020E200120AB712274FAB21AA22A923900014EE9D
:1020F2008FF0120A409000141209E9D394B4E5F06B
:10210200648094804017752400752506AB21AA22AD
:10211200A923900006E5248525F0120A40AE24AFDB
:012122002597
:012123002299
:061AB8008B218A22892324
:101ABE00E92408F9E43AFAC003C002C001AA22A937
:101ACE0023900010120AB7C004C005C006C00790CC
:101ADE0000141209E9F52D85F02CE92416F9E43AE3
:101AEE008B2EF52F8930E5232484F9EA34018B31CE
:101AFE00F5328933E52324CDF9E43A8B34F5358973
:101B0E0036E523243BF9EA34028B37F5388939A9B7
:101B1E002390000A12093BF53A90000C120AB78F77
:101B2E003E8E3D8D3C8C3B90000B12093BF53FD019
:101B3E0007D006D005D004D001D002D003121FB2B8
:101B4E00EF4E600FAB21AA22A923900006EE8FF074
:031B5E00120A4028
:011B61002261
:061C04008B218A228923D6
:101C0A0090000112093BB40E0990000A12093BFF29
:101C1A0080027F048F24AB21E5232408F9E43522CE
:101C2A00FAC003C002C001AA22A923900010120A16
:101C3A00B79000141209E9F52D85F02CE92416F95C
:101C4A00E43A8B2EF52F89307531007532007533E1
:101C5A000075340075350075360075370075380023
:101C6A0075390085243AE4F53EF53DF53CF53BF53A
:101C7A003FD001D002D003121FB2AB21AA22A9235E
:101C8A00900006EE8FF0120A409000061209E9FF52
:021C9A00AEF0AA
:011C9C002225
:061B62008B218A22892379
:101B680090000112093BB4110990000A12093BFFC9
:101B780080027F048F24AB21E5232408F9E4352271
:101B8800FAC003C002C001AA22A923900010120AB9
:101B9800B79000141209E9F52D85F02CE92416F9FF
:101BA800E43A8B2EF52F8930E5232484F9EA3401B1
:101BB8008B31F5328933E52324CDF9E43A8B34F5BA
:101BC80035893675370075380075390085243AE44B
:101BD800F53EF53DF53CF53BF53FD001D002D0038D
:101BE800121FB2AB21AA22A923900006EE8FF01291
:0B1BF8000A409000061209E9FFAEF061
:011C030022BE
:062461008B218A22892371
:102467007B007A007924122772AB21E5232408F92F
:10247700E43522FAAD24120D31AB21AA22A923900B
:102487000006EE8FF0120A409000061209E9FFAE2F
:01249700F054
:012498002221
:062124008B218A228923B1
:10212A00E4F524F525FB7A007926122772E5266064
:10213A000C64016008752400752505802BAB21AA63
:10214A0022A92390000112093BB4130DE526900041
:10215A00097002800B740D800CE52690000A70034A
:10216A00048002740612099CE52545246011AB21FE
:10217A00AA22A923900006E5248525F0120A40AE7A
:03218A0024AF255A
:01218D00222F
:061959008B218A22892384
:10195F00E92416F9E43AFA7D017C001223B1AB2198
:10196F00AA22A92390001812093BF524E92416F99D
:10197F00E43AFA7D017C001223B1AB21AA22A923FC
:10198F0090001812093BF525E92416F9E43AFA7D7F
:10199F00047C001223B1AB21E5232416F9E4352290
:1019AF00FA12203090333A120B37AB21AA22A92317
:1019BF0090000812093B6524600CE92408F9E43A09
:1019CF00FAAD24120D3190333A120B0B12281CABC7
:1019DF0021AA22A92390000812093B6525600CE972
:0E19EF002408F9E43AFAAD25120D31E4FEFFAA
:0119FD0022C7
:1028C900900006E4F5F0120A409000061209E9FFAB
:0328D900AEF0223C
:10218E00751D01751E30751F48AB1DAA1EA91F12A5
:10219E001C9DAB1DAA1EA91F900006EE8FF0120A01
:1021AE00409000061209E945F0701FAB1DE51F2493
:1021BE0008F9E4351EFAE4FD120D31AB1DAA1EA975
:1021CE001F900006EE8FF0120A40AB1DAA1EA91F2B
:0A21DE009000061209E9FFAEF0229E
:101EA700AB1DAA1EA91F9000061209E945F0706B29
:101EB7001209227066E92401F9E43AFA122772AB93
:101EC7001DAA1EA91F900002120AB7E47B01FAF9A6
:101ED700F8120A6DAB1DAA1EA91F900002120AE78D
:101EE70090000112093BFFC39418AB1DAA1EA91F3E
:101EF7005026C003C002C001EF75F003A42400F50B
:101F070082E43430F583120B8389828A83D001D02F
:101F170002D003120BB680031228B5AB1DAA1EA967
:0B1F27001F9000061209E9FFAEF02237
:062030008B268A27892897
:10203600E4F52CF52BF52AF529F52DF52EAB26AA78
:1020460027A9281209BEFFC3E52E9FE5F06480F894
:10205600E52D6480985046AF2CAE2BAD2AAC29787E
:1020660008120AA48F2C8E2B8D2A8C29E92402F9BA
:10207600E43AFAE9252EF9EA352DFA120922FFE5A6
:102086002C4FFFE52BFEE52AFDE5298F2C8E2B8DA7
:102096002AF529052EE52E70A4052D80A0AF2CAEBD
:0520A6002BAD2AAC295E
:0120AB002212
:061F32008B5A8A5B895CFA
:101F38007563007564011209BEFFAEF0E564456380
:101F48006063EF1FAC0670011E4C6059AB5AE55C2C
:101F58002402F9E4355BFAE92FF9EA3EFA1209227C
:101F6800F565AB5DE55F2402F9E4355EFAE92FF922
:101F7800EA3EFA120922F566E56145624560601895
:101F8800AB60E5622402F9E43561FAE92FF9EA3E2B
:101F9800FA12092252655266E5656566609EE4F5A7
:091FA80063F5648097AE63AF6439
:011FB100220D
:0423B1008C408D418E
:1023B500E5408541F0120A21E92402F9E43A8B420D
:1023C500F5438944E5414540601EAB42AA43A94413
:1023D500122772E54115417002154074012544F537
:0823E50044E43543F54380DCBC
:0123ED0022CD
:1026C80090E682E030E004E020E60B90E682E0301D
:1026D800E119E030E71590E680E04401F07F147ED0
:0C26E800001222E390E680E054FEF02295
:10263D0030040990E680E0440AF0800790E680E0DF
:10264D004408F07FDC7E051222E390E65D74FFF016
:0F265D0090E65FF05391EF90E680E054F7F022A3
:08295C00E4F573D2E9D2AF22C9
:10249900AD0790E678E020E6F9C2E990E678E044F5
:1024A90080F0ED25E090E679F090E678E030E0F90B
:1024B90090E678E04440F090E678E020E6F990E68E
:0824C90078E030E1D6D2E922EF
:1025DC00AC0790E678E020E6F9E573702390E67896
:1025EC00E04480F0EC25E090E679F08D6EAF03A925
:1025FC0007756F018A708971E4F572757301D322C6
:02260C00C322E7
:10257600AC0790E678E020E6F9E573702590E678FA
:10258600E04480F0EC25E0440190E679F08D6EAFF2
:1025960003A907756F018A708971E4F57275730373
:0425A600D322C32257
:03004B000214D3C9
:1014D300C0E0C083C082C085C084C086758600C05A
:1014E300D075D000C000C001C002C003C006C00751
:1014F30090E678E030E2067573060215BD90E67853
:10150300E020E10CE573640260067573070215BD04
:10151300E57324FE605F14603624FE70030215AE8B
:1015230024FC70030215BA240860030215BDAB6FD7
:10153300AA70A971AF7205728F8275830012093B7D
:1015430090E679F0E572656E7070757305806B9047
:10155300E679E0AB6FAA70A971AE728E82758300D3
:1015630012099C757302E56E6401704E90E678E093
:101573004420F08045E56E24FEB5720790E678E0DE
:101583004420F0E56E14B5720A90E678E04440F02A
:1015930075730090E679E0AB6FAA70A971AE728E95
:1015A3008275830012099C0572800F90E678E044EF
:1015B30040F075730080037573005391DFD007D03B
:1015C30006D003D002D001D000D0D0D086D084D0B2
:0815D30085D082D083D0E03204
:0226F400A90734
:1026F600AE14AF158F828E83A3E064037017AD010D
:1027060019ED7001228F828E83E07C002FFDEC3E56
:08271600FEAF0580DFE4FEFFC9
:01271E002298
:10283900122576E57324FA600E146006240770F3F6
:0C284900D322E4F573D322E4F573D3220C
:102855001225DCE57324FA600E146006240770F374
:0C286500D322E4F573D322E4F573D322F0
:1027990090E682E044C0F090E681F04387010000B2
:0427A900000000220A
:1022E3008E218F2290E600E054187012E52224011B
:1022F300FFE43521C313F521EF13F522801590E692
:1023030000E05418FFBF100BE52225E0F522E5217C
:1023130033F521E5221522AE21700215214E600509
:062323001227AD80EE223E
:1027AD007400F58690FDA57C05A3E582458370F93F
:0127BD0022F9
:03004300021A009E
:03005300021A008E
:101A00000228710002289F0002288900021CFF00A2
:101A10000225080002253F000229720002297300F6
:101A20000229740002297500022976000229770034
:101A3000022978000229790002297A0002297B0014
:101A400002297C000229730002297D0002297E0000
:101A500002297F00022980000229810002298200D8
:101A600002298300022973000229730002297300EE
:101A700002298400022985000229860002298700A4
:101A8000022988000229890002298A0002298B0084
:101A900002298C0002298D0002298E0002298F0064
:101AA0000229900002299100022992000229930044
:081AB0000229940002299500AF
:03000000021E1BC2
:0C1E1B00787FE4F6D8FD758180021E621D
:10092200BB010689828A83E0225002E722BBFE02D3
:09093200E32289828A83E4932206
:10093B00BB010CE58229F582E5833AF583E0225071
:10094B0006E92582F8E622BBFE06E92582F8E222BB
:0D095B00E58229F582E5833AF583E49322D5
:10096800BB010989828A83F8E028F022500327F71F
:1009780022BBFE05F8E328F3228A838982F8E493F0
:02098800282223
:10098A00BB010689828A83F0225002F722BBFE014C
:02099A00F32246
:10099C00F8BB010DE58229F582E5833AF583E8F091
:1009AC00225006E92582C8F622BBFE05E92582C83D
:0209BC00F22225
:1009BE00BB010A89828A83E0F5F0A3E02250068704
:1009CE00F009E71922BBFE07E3F5F009E3192289C6
:0B09DE00828A83E493F5F074019322F9
:1009E900BB0110E58229F582E5833AF583E0F5F04C
:1009F900A3E0225009E92582F886F008E622BBFE29
:100A09000AE92582F8E2F5F008E222E5832AF5836E
:080A1900E993F5F0A3E9932233
:100A2100BB010A89828A83F0E5F0A3F0225006F720
:0F0A310009A7F01922BBFE06F3E5F009F319221D
:100A4000F8BB0111E58229F582E5833AF583E8F0E8
:100A5000E5F0A3F0225009E92582C8F608A6F022A5
:0D0A6000BBFE09E92582C8F2E5F008F2228C
:0D0A6D00EF2BFFEE3AFEED39FDEC38FC22D8
:10236D00C2D5E830E70FB2D5E4C39BFBE49AFAE49B
:10237D0099F9E498F8EC30E717B2D51223A3120BB4
:10238D00F4E4C39BFBE49AFAE499F9E498F880032A
:10239D00120BF430D50DE4C39FFFE49EFEE49DFDCA
:0423AD00E49CFC228E
:100A7A00EB9FF5F0EA9E42F0E99D42F0EC6480C8F3
:060A8A0064809845F02293
:100A9000E86010ECA2E713FCED13FDEE13FEEF137C
:040AA000FFD8F02269
:100AA400E8600FEFC333FFEE33FEED33FDEC33FCB0
:030AB400D8F12254
:100AB700BB010DE58229F582E5833AF583020B0B2D
:100AC7005007E92582F8020C86BBFE07E92582F864
:100AD700020C92E58229F582E5833AF583020C9EA2
:100AE700BB010DE58229F582E5833AF583020B37D1
:100AF7005007E92582F8020CAEBBFE07E92582F80C
:040B0700020CBA2200
:0C0B0B00E0FCA3E0FDA3E0FEA3E0FF225D
:100B17007401FF3395E0FEFDFC080808E6CF2FF6C9
:100B270018E6CE3EF618E6CD3DF618E6CC3CF622A2
:0C0B3700ECF0A3EDF0A3EEF0A3EFF02231
:100B4300BB010DE58229F582E5833AF583020CDFCB
:100B53005007E92582F8020CC6BBFE07E92582F897
:040B6300020D10224D
:0C0B6700A42582F582E5F03583F5832299
:100B7300FAE6FB0808E625F0F9F618E63AFAF62253
:090B8300E0FBA3E0FAA3E0F92273
:100B8C00D083D082F8E4937012740193700DA3A3F8
:100B9C0093F8740193F5828883E47374029368600C
:060BAC00EFA3A3A380DF0C
:060BB2008A838982E473CE
:101E2700021D8EE493A3F8E493A34003F68001F226
:101E370008DFF48029E493A3F85407240CC8C333BC
:101E4700C4540F4420C8834004F456800146F6DF8B
:101E5700E4800B0102040810204080902292E47E67
:101E6700019360BCA3FF543F30E509541FFEE49380
:101E7700A360010ECF54C025E060A840B8E493A347
:101E8700FAE493A3F8E493A3C8C582C8CAC583CA72
:101E9700F0A3C8C582C8CAC583CADFE9DEE780BE2A
:0122E20000FB
:100BB80075F008758200EF2FFFEE33FECD33CDCCF4
:100BC80033CCC58233C5829BED9AEC99E582984077
:100BD8000CF582EE9BFEED9AFDEC99FC0FD5F0D654
:100BE800E4CEFBE4CDFAE4CCF9A88222B800C1B97E
:100BF8000059BA002DEC8BF084CFCECDFCE5F0CBBC
:100C0800F97818EF2FFFEE33FEED33FDEC33FCEBF4
:100C180033FB10D703994004EB99FB0FD8E5E4F9AF
:100C2800FA227818EF2FFFEE33FEED33FDEC33FC9C
:100C3800C933C910D7059BE99A4007EC9BFCE99A90
:100C4800F90FD8E0E4C9FAE4CCFB2275F010EF2FD5
:100C5800FFEE33FEED33FDCC33CCC833C810D707D5
:100C68009BEC9AE899400AED9BFDEC9AFCE899F810
:0E0C78000FD5F0DAE4CDFBE4CCFAE4C8F922A3
:0C0C8600E6FC08E6FD08E6FE08E6FF229A
:0C0C9200E2FC08E2FD08E2FE08E2FF229E
:100C9E00E493FC740193FD740293FE740393FF229C
:0C0CAE00ECF608EDF608EEF608EFF62272
:0C0CBA00ECF208EDF208EEF208EFF22276
:100CC600D083D082E493F608740193F608740293F5
:090CD600F608740393F67404732C
:100CDF00A8828583F0D083D082120CF6120CF61204
:100CEF000CF6120CF6E473E493A3C583C5F0C58329
:100CFF00C8C582C8F0A3C583C5F0C583C8C582C85F
:010D0F0022C1
:100D1000D083D082E493F208740193F208740293B2
:090D2000F208740393F2740473E9
:00000001FF
