:0A278A000001020203030404050528
:101B9800C200C202C201121344C2AF750A1E750BFD
:101BA8000075121E75131275081E75091C75101E16
:101BB80075113C75141E75155CD2E890E668E04412
:101BC80009F090E65CE04435F0D2AF90E680E02082
:101BD800E105D2061224D990E680E054F7F0538E3E
:101BE800F8121DBC12262D300105120E3AC2013022
:101BF80003F21227A950EDC20312260820001690FE
:101C0800E682E030E704E020E1EF90E682E030E6AB
:0D1C180004E020E0E41225371227AD80C75C
:0218FE00D322F3
:100E3A0090E6B9E01209FD0ED8000F4D010FC80364
:100E4A000E5D060ED2080ECC090EC60A10330B0030
:100E5A0000102790E6BBE024FE602714603824FDCA
:100E6A00601114602724067050E50A90E6B3F0E595
:100E7A000B803C1218FE503EE51290E6B3F0E513E3
:100E8A00802DE50C90E6B3F0E50D8023E50E90E6A3
:100E9A00B3F0E50F801990E6BAE0FF122563AA06BF
:100EAA00A9077B01EA494B600DEE90E6B3F0EF909B
:100EBA00E6B4F002103302102202102212273C027A
:100ECA00103312250802103312272C02103390E631
:100EDA00B8E0247F601514601924027063A200E44C
:100EEA003325E0FFA202E4334F8041E490E740F06B
:100EFA00803F90E6BCE0547EFF7E00E0D394807C85
:100F0A000040047D0180027D00EC4EFEED4F248AF4
:100F1A00F58274273EF583E493FF3395E0FEEF24D0
:100F2A00A1FFEE34E68F82F583E0540190E740F0AA
:100F3A00E4A3F090E68AF090E68B7402F002103394
:100F4A0002102290E6B8E024FE6016240260030232
:100F5A00103390E6BAE0B40105C200021033021061
:100F6A002290E6BAE0705590E6BCE0547EFF7E001F
:100F7A00E0D394807C0040047D0180027D00EC4E29
:100F8A00FEED4F248AF58274273EF583E493FF33FE
:100F9A0095E0FEEF24A1FFEE34E68F82F583E0545C
:100FAA00FEF090E6BCE05480131313541FFFE05484
:100FBA000F2F90E683F0E04420F0806D805A90E68F
:100FCA00B8E024FE60192402704E90E6BAE0B4013B
:100FDA0004D200805490E6BAE06402604C803990F2
:100FEA00E6BCE0547EFF7E00E0D394807C0040049F
:100FFA007D0180027D00EC4EFEED4F248AF582745D
:10100A00273EF583E493FF3395E0FEEF24A1FFEE3C
:10101A0034E68F82F583800D90E6A08008120200E4
:10102A00500790E6A0E04401F090E6A0E04480F08A
:01103A002293
:030033000227A5FC
:0427A50053D8EF32E4
:101E000012010002000000402A1500840C000102AB
:101E100003010A0600020000004001000902200040
:101E200001010080640904000002FF0000000705B2
:101E3000810240000007058602000200090220001E
:101E400001010080640904000002FF000000070592
:101E500081024000000705860240000004030904D7
:101E6000080349004E004900140344005600530083
:101E70003100320038002D00560031000A033000D6
:081E80003000300030000000CA
:1025370090E682E030E004E020E60B90E682E030AF
:10254700E119E030E71590E680E04401F07F147E62
:0C255700001221EC90E680E054FEF0221F
:1024D90030060990E680E0440AF0800790E680E043
:1024E9004408F07FDC7E051221EC90E65D74FFF074
:0F24F90090E65FF05391EF90E680E054F7F02209
:02256300A907C6
:10256500AE14AF158F828E83A3E064037017AD019F
:1025750019ED7001228F828E83E07C002FFDEC3EE9
:08258500FEAF0580DFE4FEFF5C
:01258D00222B
:1026080090E682E044C0F090E681F0438701000044
:04261800000000229C
:1021EC008E228F2390E600E054187012E523240110
:1021FC00FFE43522C313F522EF13F523801590E687
:10220C0000E05418FFBF100BE52325E0F523E52271
:10221C0033F522E5231523AE22700215224E6005FC
:06222C0012261C80EE22C8
:10261C007400F58690FDA57C05A3E582458370F9D1
:01262C00228B
:030043000219009F
:030053000219008F
:101900000226C1000226EF000226D9000227B100FC
:1019100002239E000223D5000227B2000227B30053
:101920000227B4000227B5000227B6000227B7003D
:101930000227B8000227B9000227BA000227BB001D
:101940000227BC000227B3000227BD000227BE0009
:101950000227BF000227C0000227C1000227C200E1
:101960000227C3000227B3000227B3000227B300F7
:101970000227C4000227C5000227C6000227C700AD
:101980000227C8000227C9000227CA000227CB008D
:101990000227CC000227CD000227CE000227CF006D
:1019A0000227D0000227D1000227D2000227D3004D
:0819B0000227D4000227D50034
:1018B1007E0874E755B1F9740845B1FA74EF5AFA24
:1018C100741045B1FB74F75BFB741845B1FCEF3341
:1018D100FF401089B1000000008BB10000000089B9
:1018E100B1800E8AB1000000008CB1000000008AB6
:0818F100B100000000DED72267
:101F8200602436CD0007C810E98CFFFFFF7C7FF587
:101F9200000084026DAB0003C9FFFFFF03344C0055
:081FA200334500010F00010F9F
:1013440090E6007410F090E60174A3F075A80053C1
:10135400E8E3000000E490E671F000000090E6701D
:10136400F000000090E672F0F5A0F58075B102750A
:10137400B40D75B6FE75B28990E610F000000090C9
:10138400E61174A0F0000000E490E612F000000002
:1013940090E613F000000090E61474E0F000000002
:1013A400E490E615F000000090E60B7403F00000F2
:1013B4000090E6047480F00000007406F000000061
:1013C400E4F000000090E6247402F0000000E490D1
:1013D400E625F000000090E61A7409F00000009081
:1013E400E60274E6F000000090E6347418F00000A1
:1013F4000090E6357490F0E4F51CF51BF51AF51928
:10140400C287D20543B11053B1F743B10253B1FBC4
:10141400AFB1EF54DFF5B1F5B1E4F52143B10453B5
:10142400B1FB0521E521B414F37F0A7E001221ECFF
:10143400E4F52174CD2521F582E43436F583E0FF0B
:101444001218B10521E521C3942440E753B1FD00EE
:10145400000000000000000043B1027F647E00121F
:1014640021ECAFB1EF4420F5B1F5B112279DD204C0
:10147400D288C2A8D28AC2AAAFB1EF4440F5B1F56E
:01148400B1B6
:011485002244
:10262D0030051D7819120988E47B507AC3F9F8D367
:10263D001208EB500BB287E4F51CF51BF51AF519D2
:01264D00226A
:101DBC007F03122563AA06A9077521018A228923AC
:101DCC007A357B3A7D047FFC7E7F122193E4FF748D
:101DDC003A2FF582E43435F583E0FEAB21AA22A933
:101DEC002375F002EF9000021209D8EE12080D0FC5
:031DFC00BF04DC45
:011DFF0022C1
:0518F900D283D2802221
:1022F600C28090E61A7401F000000090E6A9E07032
:102306000990E6487406F000000090E6047480F038
:102316000000007406F0000000E4F000000090E603
:082326001A7409F00000002206
:04227600AA06AC0503
:10227A00E4FD7E000DEE24CAF582E43436F583EAE5
:10228A00F00E0D74CA2EF582E43436F583EFF00DA4
:10229A0074CA2402F582E43436F583ECF0D2877AE4
:0F22AA00367BCA7F511226A5C2877F5102236659
:0A240C008E2C8F2D8D2E8A2F8B3021
:10241600E4F531E531C3952E5020052DE52DAE2C82
:102426007002052C14FFE5302531F582E4352FF5D1
:0A24360083E0FD122276053180D903
:012440002279
:0A2193008E2C8F2D8D2E8A2F8B309D
:10219D00E4FDE52CFF7E000DEE24CAF582E4343615
:1021AD00F583EFF00E0D74CA2EF582E43436F58307
:1021BD00E52DF07A367BCA7F511226A5E4FFEFC3D9
:1021CD00952E5010E5302FF582E4352FF58374CD23
:0F21DD00F00F80EAAB30AA2FAD2E7F510226897A
:0427A900C283D322F2
:0427AD00D283D322DE
:1025080090E680E030E71200000090E6247402F0C4
:10251800000000E490E6258010000000E490E62426
:0F252800F000000090E6257440F0000000D32280
:10272C00E490E740F090E68AF090E68B04F0D32238
:10273C00E490E740F090E68AF090E68B04F0D32228
:1002000090E6B9E01209FD05F2A205F2A3023BB3A4
:100210000241B4044AB8051BB9044ABA0443BB05F9
:1002200046BC057FBD0563BE035AC20247C40270C7
:10023000C505A6CB05C1CD000007761218F9020747
:10024000781222F602077800000090E61A7401F096
:1002500000000090E6047480F00000007406F000D6
:100260000000E4F000000090E61A7409F00207783C
:1002700090E6B8E06440600302034C30040AF5A045
:1002800075B4BD122139C20490E6BEE0752300F5B5
:1002900024A3E0FEEE4223D3E5249490E5239401C9
:1002A000400675160A020344E4F521F5227B017A23
:1002B00035793A122773E52445236071E490E68A84
:1002C000F090E68BF090E6A0E020E1F990E68BE07C
:1002D000752500F526E4F527F528C3E5289526E5DC
:1002E000279525502D74402528F582E434E7F583C1
:1002F000E0FFE5222528FDE5213527FC743A2DF5A0
:100300008274353CF583EFF00528E52870CC05278D
:1003100080C8E5262522F522E5253521F521C3E50E
:10032000249526F524E5239525F523808990E6BAC2
:10033000E07002800F121CB18F16E516D3940050A6
:100340000302077875B40DD20402077890E6B9E08D
:1003500090E740F0A3E5160205B390E6B9E090E718
:1003600040F0E490E68AF090E68B04F090E6A0E09E
:100370004480F090E6A0E020E1F97F03122563AA13
:1003800006A9077529018A2A892B90E68BE0D39468
:10039000044008752300752404800990E68BE075FD
:1003A0002300F524E4F527F528C3E5289524E5275F
:1003B00095235049E52824FCFFE527347FFE74404F
:1003C0002528F582E434E7F583E0FD1222767440B7
:1003D0002528F582E434E7F583E0FDE52825E0FFF4
:1003E000E527338F82F583A3A3AB29AA2AA92BED96
:1003F00012080D0528E52870B0052780AC85232755
:10040000852428C3E5289404E52794005032E52884
:1004100024FCFFE527347FFE7D20122276E5282587
:10042000E0FFE527338F82F583A3A3AB29AA2AA98E
:100430002B742012080D0528E52870C7052780C3F6
:10044000020510D2A0C2A002077800000090E6BA10
:10045000E0752100F522A3E0FEEE422190E6BEE029
:10046000752300F524A3E0FEEE422385231785249F
:1004700018E524452370030204FAE490E68AF0901C
:10048000E68BF090E6A0E020E1F990E68BE07525A0
:1004900000F52690E6B9E064B87043F527F528C367
:1004A000E5289526E5279525503474402528F582C2
:1004B000E434E7F583E0FF1218B1AF2874402FF55C
:1004C00082E434E7F583E0FE74CD2FF582E4343620
:1004D000F583EEF00528E52870C5052780C1E526DF
:1004E0002522F522E5253521F521C3E5249526F5BC
:1004F00024E5239525F52302047190E6B9E0B4B80C
:100500000F53B1FD00000000000000000043B102E5
:10051000E490E68AF090E68BF0C32290E6BAE060C1
:100520000543B104800353B1FB90E74074B9F00078
:100530000000E490E68AF090E68B04F090E6A0E0FC
:100540004480F002077890E6BAE0AFB130E005EF02
:1005500054DF8003EF4420F5B1F5B190E74074BC5F
:100560000205E290E6BAE0AFB130E005EF4440802A
:1005700003EF54BFF5B1F5B190E74074BE8063AFAF
:10058000B1EF54DFF5B1F5B100000000000000004C
:10059000000000000000AFB1EF4420F5B1F5B190CC
:1005A000E74074BD803C90E6B9E090E740F0A2A13E
:1005B000E433A3F0E490E68AF090E68B740202073D
:1005C0008990E6BAE014600D1460102402700EC227
:1005D00087C2058008D287C2058002D20590E74015
:1005E00074CDF0000000E490E68AF090E68B0402FF
:1005F000078990E6BAE0752100F522A3E0FEEE42FD
:100600002190E6BEE0752300F524A3E0FEEE422330
:1006100090E6B8E064C060030206DEE5244523707E
:100620000302077490E6A0E020E1F9C3E5249440BA
:10063000E52394005008852325852426800675250A
:100640000075264090E6B9E0B4A335E4F527F52817
:10065000C3E5289526E5279525505EE5222528F552
:1006600082E5213527F583E0FF74402528F582E4F3
:1006700034E7F583EFF00528E52870D4052780D00E
:10068000E4F527F528C3E5289526E5279525501894
:1006900074402528F582E434E7F58374CDF005280D
:1006A000E52870E1052780DDAD267AE779407F40B7
:1006B000AB07AF22AE21122193E490E68AF090E6D8
:1006C0008BE526F02522F522E5253521F521C3E528
:1006D000249526F524E5239525F52302061B90E6AF
:1006E000B8E064406003020774E524452370030208
:1006F0000774E490E68AF090E68BF090E6A0E020A4
:10070000E1F990E68BE0752500F52690E6B9E0B4B6
:10071000A335E4F527F528C3E5289526E527952593
:10072000503674402528F582E434E7F583E0FFE590
:10073000222528F582E5213527F583EFF00528E508
:100740002870D4052780D0AD267AE779407F40AB6A
:1007500007AF22AE2112240CE5262522F522E5253D
:100760003521F521C3E5249526F524E5239525F5C6
:10077000230206E9C322D32290E6B9E090E740F0D5
:10078000E490E68AF090E68B04F090E6A0E04480E6
:02079000F0C3B4
:010792002244
:1026C100C0E0C083C082D2015391EF90E65D7401F6
:0826D100F0D082D083D0E0328A
:1026D900C0E0C083C0825391EF90E65D7404F0D0EE
:0626E90082D083D0E03234
:1026EF00C0E0C083C0825391EF90E65D7402F0D0DA
:0626FF0082D083D0E0321E
:10239E00C0E0C083C08290E680E030E70E85080C76
:1023AE0085090D85100E85110F800C85100C851179
:1023BE000D85080E85090F5391EF90E65D7410F0B0
:0723CE00D082D083D0E03281
:0127B10032F5
:1023D500C0E0C083C08290E680E030E70E85080C3F
:1023E50085090D85100E85110F800C85100C851142
:1023F5000D85080E85090F5391EF90E65D7420F069
:07240500D082D083D0E03249
:0127B20032F4
:0127B30032F3
:0127B40032F2
:0127B50032F1
:0127B60032F0
:0127B70032EF
:0127B80032EE
:0127B90032ED
:0127BA0032EC
:0127BB0032EB
:0127BC0032EA
:0127BD0032E9
:0127BE0032E8
:0127BF0032E7
:0127C00032E6
:0127C10032E5
:0127C20032E4
:0127C30032E3
:0127C40032E2
:0127C50032E1
:0127C60032E0
:0127C70032DF
:0127C80032DE
:0127C90032DD
:0127CA0032DC
:0127CB0032DB
:0127CC0032DA
:0127CD0032D9
:0127CE0032D8
:0127CF0032D7
:0127D00032D6
:0127D10032D5
:0127D20032D4
:0127D30032D3
:0127D40032D2
:0127D50032D1
:041FAA0002740000BD
:0D275A00ED4C7005EFF452A022EF42A022DA
:0C276700E4FDFC7F2012275A0D02275AC7
:1025E1008B458A468947AB76AA77A9780575E57543
:1025F100AE747002057414F5828E831207ACAB457C
:07260100AA46A9470207FBEE
:0C277300E4F574F5758B768A778978227E
:0B277F00E5A05440C413135403FF22D4
:04266C00AB07AA0608
:10267000900000C3E5829BEA6480F8E5836480985B
:082680005006122767A380EB4E
:01268800222F
:101FAE0060483200FF2794FF258EFF167EFF174BE9
:101FBE00FF2475FF2705FF2705FF274CFF1FFBFF9B
:101FCE001807FF2705FF2705FF1AFFFF1AFFFF1A45
:101FDE00FFFF1A5DFF1A5DFF1A5DFF232EFF2073B0
:0C1FEE00FF2073FF158EFF2719FF19B8A4
:1020DD00E41207FB90000112080D9000021209B4E2
:1020ED0000000000900006E4F5F01208B190000B1E
:1020FD00E412080D900008E412080D900009740117
:10210D0012080D90000A740112080D9000101209AA
:10211D00B400000000900014E4F5F01208B1900036
:0C212D000C1209B400000000E4FEFF22C8
:0625B800AF24E4FCFDFE6F
:1025BE008F298E288D278C26E5292407FFE43528C0
:1025CE00FEE43527FDE43526FCE47B08FAF9F81223
:0325DE0022322284
:04264E007F017E008A
:10265200AD07AC067F1012275AE4FDFC7F2012273B
:0A2662005A7D017C007F2002275AF8
:080B9A00AB40AA41A9427D0114
:080BA2008B5A8A5B895C8D5DB2
:100BAA00E49036CAF0A3F0E55D704DF55EF55F0599
:100BBA005FE55F7002055EB4D0F5E55EB407F0123A
:100BCA00264EE4F55EF55FE4FDFC7F2012275A7D90
:100BDA00017C007F2012275A055FE55F7002055EDF
:100BEA00C39405E55E6480948040DCAB5AAA5BA995
:100BFA005CE41207FB020E31AB5AAA5BA95C12072E
:100C0A0093FF655D601FE55DB40704EFB4060AE56E
:100C1A005DB40E11EF640D600C9036CAE4F0A37453
:100C2A0005F0020E31E55DB5070EB40603020D0D9F
:100C3A00E55DB40D03020DC9AB5AAA5BA95C1207A4
:100C4A0093FF655D7003020E31EF1209FD0C8B00F4
:100C5A000C8E010C91020CB7030CDB040CE9050D98
:100C6A000D060D1B070D3F080D63090D740A0D983B
:100C7A000B0DA60C0DC90D0DD60E0DF80F00000EAA
:100C8A001A020D44020D55E55DC39409400E122661
:100C9A004EAB5AAA5BA95C7409020E2BE4FFFE1242
:100CAA002652AB5AAA5BA95C7403020E2BE55DB40B
:100CBA000411E4FFFE122652AB5AAA5BA95C740423
:100CCA00020E2B12264EAB5AAA5BA95C7405020EC1
:100CDA002B12264EAB5AAA5BA95C7405020E2BE5B1
:100CEA005DB40611E4FFFE122652AB5AAA5BA95C58
:100CFA007406020E2B12264EAB5AAA5BA95C740824
:100D0A00020E2B12264EAB5AAA5BA95C7407020E7E
:100D1A002BE55DB40411E4FFFE122652AB5AAA5B1E
:100D2A00A95C7404020E2B12264EAB5AAA5BA95C6C
:100D3A007408020E2BE55DB40111E4FFFE1226527F
:100D4A00AB5AAA5BA95C7401020E2B12264EAB5A4F
:100D5A00AA5BA95C7402020E2BE4FFFE122652ABB8
:100D6A005AAA5BA95C740A020E2BE55DB40B11E466
:100D7A00FFFE122652AB5AAA5BA95C740B020E2B19
:100D8A0012264EAB5AAA5BA95C740C020E2B1226D1
:100D9A004EAB5AAA5BA95C740C020E2BE55DB40D2E
:100DAA0011E4FFFE122652AB5AAA5BA95C740D022B
:100DBA000E2B12264EAB5AAA5BA95C740F806212E4
:100DCA00264EAB5AAA5BA95C740E8055E55DB40B3E
:100DDA0010E4FFFE122652AB5AAA5BA95C740B8080
:100DEA004012264EAB5AAA5BA95C740F8033E55DAC
:100DFA00B40110E4FFFE122652AB5AAA5BA95C7436
:100E0A0001801E12264EAB5AAA5BA95C740280119D
:100E1A009036CAE4F0A37405F0AB5AAA5BA95CE564
:0F0E2A005D1207FB020C429036CAE0FEA3E0FF08
:010E39002296
:0E11DC008F5D8E5C8D5B8C5A8B5E8A5F8960A6
:1011EA00756900756A00756B00E562456345616063
:1011FA003C12082FFFAB61AA62A963E5F08FF012D7
:10120A000892AB61E5632402F9E43562FAC003C0CF
:10121A0002C001AB5EAA5FA96012082FD001D002FA
:10122A00D00329F9EA35F08B69F56A896BAB5EE57B
:10123A00602402F9E4355FFAC002C001AA5FA9601E
:10124A0012082FD001D00229F9EA35F08B66F5672A
:10125A008968AF5DAE5CAD5BAC5AEC4D4E4F700326
:10126A00021343786674FFF5F01209E412079390AB
:10127A003545F0E4A3F0F56CF56DAF5DAE5CAD5BA2
:10128A00AC5AEC4D4E4F7003021323C3E56D94081C
:10129A00E56C64809480400302132374FFFBFAF91F
:1012AA00F81208DE8F5D8E5C8D5B8C5AE5654564AD
:1012BA00600EEC4D4E4F70087D01FC7F1012275ACC
:1012CA00903545E05401FD7C007F8012275A903505
:1012DA0045E0C313F0E4FDFC7F2012275AE56A4576
:1012EA006B4569602012277F903547EFF0903546AD
:1012FA00E0FFAE6DA3E0FDA806088002C333D8FC68
:10130A004F903546F07D017C007F2012275A056DEB
:10131A00E56D7002056C021284E56A456B456970D9
:10132A000302125C903546E0FF786974FFF5F0120B
:09133A0009E4EF1207FB02125C4A
:011343002287
:08103B008B408A4189428D437C
:10104300E490353EF0A3F0A3F0A3F0A3F0E54365ED
:10105300547E0060047F0180027F00903543EEF0F0
:10106300A3EFF0AF47AE46AD45AC44EC4D4E4F70E9
:101073001EAF58AE57AD56AC55EC4D4E4F700302F4
:1010830011A8120B9AAE57AF5812266C0211A8ABD7
:1010930040AA41A942AD43120BA2AF47AE46AD45AC
:1010A300AC44854B61854C62854D63903543E0F5D7
:1010B30064A3E0F565AB48AA49A94A1211DCE54FE0
:1010C3004550454E602D854B5D854C5E854D5F8556
:1010D3005160855261855362AB4EAA4FA950121DD0
:1010E3003CEF4E70047F0180027F00903540E4F0B6
:1010F300A3EFF0903543E07002A3E0700302118E7A
:10110300AB40AA41A94274011207D9903540E0705F
:1011130002A3E06053AF58AE57AD56AC55EC4D4EFD
:101123004F6045903542E0C39559503CAB40AA41CE
:10113300A9427D06120BA2AB40AA41A9427D04122B
:101143000BA2AF58AE57AD56AC557802120901E564
:10115300582FFFE5573EFEE5563DFDE5553C8F58BC
:101163008E578D56F555800BAB40AA41A942AD541D
:10117300120BA2AF58AE57AD56AC55EC4D4E4F6067
:101183000A120B9AAE57AF5812266C903540E07096
:1011930002A3E06010903542E0FF04F0EFC39559DD
:1011A3005003021092903540E07002A3E06021E505
:1011B300596014903542E0D39559400B90353EE485
:1011C300F0A37403F0800990353EE4F0A37402F0B9
:0811D30090353EE0FEA3E0FFB1
:0111DB0022F1
:101E88008B258A2689278F2B8E2A8D298C28AB2E85
:101E9800AA2FA930AD2DAC2C1222B9E5354536450F
:101EA80034600DAB34AA35A936AD2DAC2C1222B94D
:101EB800852B47852A46852945852844852E4885CA
:101EC8002F4985304A85314B85324C85334D8534D1
:101ED8004E85354F8536508537518538528539536B
:101EE800853A54853E58853D57853C56853B5585F2
:0E1EF8003F59AB25AA26A9277D0412103B22D4
:10270500900006E475F0041208B190000612085A0C
:04271500FFAEF02201
:0927940074011207FBE4FEFF22B0
:10258E008B218A228923E9243BF9EA3402FAC0021C
:10259E00C001AA22A92390001412085AFDACF0D053
:0A25AE0001D0021222B9E4FEFF2260
:06167E008B218A22892362
:101684007B007A0079241225E11225B8D3EF94B4B3
:10169400EE648094804010AB21AA22A92390000616
:1016A400E475F0060217381225B8AC06AD07AB2175
:1016B400E5232416F9E43522FA1222B9AB21E523F5
:1016C4002408F9E43522FAC003C002C001E48524E9
:1016D40047F546F545F544E5232416F9E435228B10
:1016E40048F549894A754B00754C00754D00754E97
:1016F40000754F0075500075510075520075530008
:10170400AA22A9239000091207ACF55490000C12E8
:1017140009288F588E578D568C55E4F559D001D031
:1017240002D0037D0B12103BAB21AA22A923900007
:1017340006EE8FF01208B1AB21AA22A9239000066D
:0617440012085AFFAEF08E
:01174A00227C
:06158E008B218A22892353
:10159400E92416F9E43AFA7D027C001222B9AB215F
:1015A400E5232416F9E43522FA121F0690353A127F
:1015B40009A890353A12097C1225BED3EF94B4EEF3
:1015C4006480948040097524007525060216629093
:1015D400353A12097C1225BEAC06AD07AB21E523D2
:1015E4002416F9E43522FA1222B9AB21E5232408A2
:1015F400F9E43522FAC003C002C00190353A120959
:101604007C8F478E468D458C44E5232416F9E435BA
:10161400228B48F549894A754B00754C00754D007D
:10162400754E00754F007550007551007552007568
:101634005300AA22A9239000091207ACF554900084
:101644000C1209288F588E578D568C55E4F559D0B5
:1016540001D002D0037D0B12103B8E248F25E5258B
:1016640045246011AB21AA22A923900006E5248514
:0916740025F01208B1AE24AF25E7
:01167D00224A
:06174B008B218A22892394
:10175100E92416F9E43AFAC002C001AA22A92390A9
:10176100001412085AFDACF0D001D0021222B9AB1C
:1017710021E5232408F9E43522FAC003C002C0019F
:10178100AA22A9239000101209288F478E468D4561
:101791008C44E92416F9E43A8B48F549894AE52352
:1017A1002484F9EA34018B4BF54C894DE52324CD92
:1017B100F9E43A8B4EF54F8950E523243BF9EA349D
:1017C100028B51F5528953A92390000A1207ACF5F7
:1017D1005490000C1209288F588E578D568C5590B5
:1017E100000B1207ACF559D001D002D0037D0412D1
:1017F100103BEF4E600FAB21AA22A923900006EE09
:051801008FF01208B198
:0118060022BF
:102475008B218A228923E92416F9E43AFA7D047C22
:10248500001222B9AB21E5232416F9E43522FA120C
:102495001F06AB21AA22A92390000C120958E4FEBD
:0224A500FF2214
:0E274C00E9240BF9E43AFA1225E1E4FEFF223B
:061FFB008B218A228923DC
:10200100E4F524F525E92416F9E43AFA7D047C0087
:102011001222B9AB21E5232416F9E43522FA121F65
:1020210006AB21AA22A92390001012095890001092
:102031001209281225BEAB21AA22A923900014EE71
:102041008FF01208B190001412085AD394B4E5F03D
:10205100648094804017752400752506AB21AA225F
:10206100A923900006E5248525F01208B1AE24AF1E
:012071002549
:01207200224B
:061807008B218A228923D7
:10180D00E92408F9E43AFAC003C002C001AA22A9EA
:10181D0023900010120928C004C005C006C007900F
:10182D00001412085AF52D85F02CE92416F9E43A26
:10183D008B2EF52F8930E5232484F9EA34018B3181
:10184D00F5328933E52324CDF9E43A8B34F5358926
:10185D0036E523243BF9EA34028B37F5388939A96B
:10186D002390000A1207ACF53A90000C1209288F4C
:10187D003E8E3D8D3C8C3B90000B1207ACF53FD05E
:10188D0007D006D005D004D001D002D003121E8897
:10189D00EF4E600FAB21AA22A923900006EE8FF028
:0318AD001208B16D
:0118B0002215
:061AFF008B218A228923DD
:101B05009000011207ACB40E0990000A1207ACFF51
:101B150080027F048F24AB21E5232408F9E43522D4
:101B2500FAC003C002C001AA22A92390001012091D
:101B35002890001412085AF52D85F02CE92416F981
:101B4500E43A8B2EF52F89307531007532007533E7
:101B55000075340075350075360075370075380029
:101B650075390085243AE4F53EF53DF53CF53BF540
:101B75003FD001D002D003121E88AB21AA22A9238F
:101B8500900006EE8FF01208B190000612085AFF79
:021B9500AEF0B0
:011B9700222B
:061A5D008B218A2289237F
:101A63009000011207ACB4110990000A1207ACFFF1
:101A730080027F048F24AB21E5232408F9E4352277
:101A8300FAC003C002C001AA22A9239000101209C0
:101A93002890001412085AF52D85F02CE92416F924
:101AA300E43A8B2EF52F8930E5232484F9EA3401B7
:101AB3008B31F5328933E52324CDF9E43A8B34F5C0
:101AC30035893675370075380075390085243AE451
:101AD300F53EF53DF53CF53BF53FD001D002D00393
:101AE300121E88AB21AA22A923900006EE8FF012C2
:0B1AF30008B190000612085AFFAEF088
:011AFE0022C5
:06232E008B218A228923A5
:102334007B007A0079241225E1AB21E5232408F9F6
:10234400E43522FAAD24120BA2AB21AA22A92390D0
:102354000006EE8FF01208B190000612085AFFAE84
:01236400F088
:012365002255
:062073008B218A22892363
:10207900E4F524F525FB7A0079261225E1E52660A9
:102089000C64016008752400752505802BAB21AA15
:1020990022A9239000011207ACB4130DE526900084
:1020A900097002800B740D800CE52690000A7003FC
:1020B900048002740612080DE52545246011AB2140
:1020C900AA22A923900006E5248525F01208B1AEBD
:0320D90024AF250C
:0120DC0022E1
:0619B8008B218A22892325
:1019BE00E92416F9E43AFA7D017C001222B9AB2132
:1019CE00AA22A9239000181207ACF524E92416F9CF
:1019DE00E43AFA7D017C001222B9AB21AA22A92396
:1019EE009000181207ACF525E92416F9E43AFA7DB1
:1019FE00047C001222B9AB21E5232416F9E435222A
:101A0E00FA121F0690353A1209A8AB21AA22A92371
:101A1E009000081207AC6524600CE92408F9E43A3A
:101A2E00FAAD24120BA290353A12097C12266CAB39
:101A3E0021AA22A9239000081207AC6525600CE9A3
:0E1A4E002408F9E43AFAAD25120BA2E4FEFFDB
:011A5C002267
:10271900900006E4F5F01208B190000612085AFF7D
:03272900AEF022ED
:10213900751D01751E32751F48AB1DAA1EA91F12F8
:1021490020DDAB1DAA1EA91F900006EE8FF0120814
:10215900B190000612085A45F0701FAB1DE51F2407
:1021690008F9E4351EFAE4FD120BA2AB1DAA1EA95B
:102179001F900006EE8FF01208B1AB1DAA1EA91F11
:0A21890090000612085AFFAEF02283
:101CB100AB1DAA1EA91F90000612085A45F0706BB1
:101CC1001207937066E92401F9E43AFA1225E1ABAF
:101CD1001DAA1EA91F900002120928E47B01FAF92E
:101CE100F81208DEAB1DAA1EA91F900002120958A6
:101CF1009000011207ACFFC39418AB1DAA1EA91FC7
:101D01005026C003C002C001EF75F003A42400F502
:101D110082E43432F5831209F489828A83D001D0B6
:101D210002D003120A278003122705AB1DAA1EA9A0
:0B1D31001F90000612085AFFAEF022BF
:061F06008B268A278928C2
:101F0C00E4F52CF52BF52AF529F52DF52EAB26AAA3
:101F1C0027A92812082FFFC3E52E9FE5F06480F84F
:101F2C00E52D6480985046AF2CAE2BAD2AAC2978A9
:101F3C00081209158F2C8E2B8D2A8C29E92402F975
:101F4C00E43AFAE9252EF9EA352DFA120793FFE562
:101F5C002C4FFFE52BFEE52AFDE5298F2C8E2B8DD2
:101F6C002AF529052EE52E70A4052D80A0AF2CAEE8
:051F7C002BAD2AAC2989
:011F8100223D
:061D3C008B5A8A5B895CF2
:101D420075630075640112082FFFAEF0E564456308
:101D52006063EF1FAC0670011E4C6059AB5AE55C24
:101D62002402F9E4355BFAE92FF9EA3EFA12079305
:101D7200F565AB5DE55F2402F9E4355EFAE92FF91A
:101D8200EA3EFA120793F566E5614562456060181E
:101D9200AB60E5622402F9E43561FAE92FF9EA3E23
:101DA200FA12079352655266E5656566609EE4F530
:091DB20063F5648097AE63AF6431
:011DBB002205
:0422B9008C408D4187
:1022BD00E5408541F0120892E92402F9E43A8B4297
:1022CD00F5438944E5414540601EAB42AA43A9440C
:1022DD001225E1E54115417002154074012544F5C3
:0822ED0044E43543F54380DCB5
:0122F50022C6
:08279D00E4F573D2E9D2AF228A
:10236600AD0790E678E020E6F9C2E990E678E04429
:1023760080F0ED25E090E679F090E678E030E0F93F
:1023860090E678E04440F090E678E020E6F990E6C2
:0823960078E030E1D6D2E92223
:1024A700AC0790E678E020E6F9E573702390E678CC
:1024B700E04480F0EC25E090E679F08D6EAF03A95B
:1024C70007756F018A708971E4F572757301D322FC
:0224D700C3221E
:10244100AC0790E678E020E6F9E573702590E67830
:10245100E04480F0EC25E0440190E679F08D6EAF28
:1024610003A907756F018A708971E4F572757303A9
:04247100D322C3228D
:03004B0002148616
:10148600C0E0C083C082C085C084C086758600C0A7
:10149600D075D000C000C001C002C003C006C0079E
:1014A60090E678E030E20675730602157090E678ED
:1014B600E020E10CE573640260067573070215709F
:1014C600E57324FE605F14603624FE700302156126
:1014D60024FC700302156D24086003021570AB6FBF
:1014E600AA70A971AF7205728F827583001207AC5C
:1014F60090E679F0E572656E7070757305806B9095
:10150600E679E0AB6FAA70A971AE728E8275830020
:1015160012080D757302E56E6401704E90E678E070
:101526004420F08045E56E24FEB5720790E678E02B
:101536004420F0E56E14B5720A90E678E04440F077
:1015460075730090E679E0AB6FAA70A971AE728EE2
:101556008275830012080D0572800F90E678E044CC
:1015660040F075730080037573005391DFD007D088
:1015760006D003D002D001D000D0D0D086D084D0FF
:0815860085D082D083D0E03251
:10268900122441E57324FA600E146006240770F3DE
:0C269900D322E4F573D322E4F573D322BE
:1026A5001224A7E57324FA600E146006240770F35C
:0C26B500D322E4F573D322E4F573D322A2
:03000000021C25BA
:0C1C2500787FE4F6D8FD758178021C6C15
:10079300BB010689828A83E0225002E722BBFE0264
:0907A300E32289828A83E4932297
:1007AC00BB010CE58229F582E5833AF583E0225002
:1007BC0006E92582F8E622BBFE06E92582F8E2224C
:0D07CC00E58229F582E5833AF583E4932266
:1007D900BB010989828A83F8E028F022500327F7B0
:1007E90022BBFE05F8E328F3228A838982F8E49381
:0207F9002822B4
:1007FB00BB010689828A83F0225002F722BBFE01DD
:02080B00F322D6
:10080D00F8BB010DE58229F582E5833AF583E8F021
:10081D00225006E92582C8F622BBFE05E92582C8CD
:02082D00F222B5
:10082F00BB010A89828A83E0F5F0A3E02250068794
:10083F00F009E71922BBFE07E3F5F009E319228956
:0B084F00828A83E493F5F07401932289
:10085A00BB0110E58229F582E5833AF583E0F5F0DC
:10086A00A3E0225009E92582F886F008E622BBFEB9
:10087A000AE92582F8E2F5F008E222E5832AF583FF
:08088A00E993F5F0A3E99322C4
:10089200BB010A89828A83F0E5F0A3F0225006F7B1
:0F08A20009A7F01922BBFE06F3E5F009F31922AE
:1008B100F8BB0111E58229F582E5833AF583E8F079
:1008C100E5F0A3F0225009E92582C8F608A6F02236
:0D08D100BBFE09E92582C8F2E5F008F2221D
:0D08DE00EF2BFFEE3AFEED39FDEC38FC2269
:10223200C2D5E830E70FB2D5E4C39BFBE49AFAE4D7
:1022420099F9E498F8EC30E717B2D5122268120A2D
:1022520065E4C39BFBE49AFAE499F9E498F88003F5
:10226200120A6530D50DE4C39FFFE49EFEE49DFD96
:04227200E49CFC22CA
:1008EB00EB9FF5F0EA9E42F0E99D42F0EC6480C884
:0608FB0064809845F02224
:10090100E86010ECA2E713FCED13FDEE13FEEF130C
:04091100FFD8F022F9
:10091500E8600FEFC333FFEE33FEED33FDEC33FC40
:03092500D8F122E4
:10092800BB010DE58229F582E5833AF58302097C4E
:100938005007E92582F8020AF7BBFE07E92582F885
:10094800020B03E58229F582E5833AF583020B0F52
:10095800BB010DE58229F582E5833AF5830209A8F2
:100968005007E92582F8020B1FBBFE07E92582F82C
:04097800020B2B2221
:0C097C00E0FCA3E0FDA3E0FEA3E0FF22EE
:100988007401FF3395E0FEFDFC080808E6CF2FF65A
:1009980018E6CE3EF618E6CD3DF618E6CC3CF62233
:0C09A800ECF0A3EDF0A3EEF0A3EFF022C2
:1009B400BB010DE58229F582E5833AF583020B50EC
:1009C4005007E92582F8020B37BBFE07E92582F8B8
:0409D400020B81226F
:0C09D800A42582F582E5F03583F583222A
:1009E400FAE6FB0808E625F0F9F618E63AFAF622E4
:0909F400E0FBA3E0FAA3E0F92204
:1009FD00D083D082F8E4937012740193700DA3A389
:100A0D0093F8740193F5828883E47374029368609C
:060A1D00EFA3A3A380DF9C
:060A23008A838982E4735E
:101C3100021B98E493A3F8E493A34003F68001F216
:101C410008DFF48029E493A3F85407240CC8C333B4
:101C5100C4540F4420C8834004F456800146F6DF83
:101C6100E4800B0102040810204080901F82E47E72
:101C7100019360BCA3FF543F30E509541FFEE49378
:101C8100A360010ECF54C025E060A840B8E493A33F
:101C9100FAE493A3F8E493A3C8C582C8CAC583CA6A
:101CA100F0A3C8C582C8CAC583CADFE9DEE780BE22
:011FFA0000E6
:100A290075F008758200EF2FFFEE33FECD33CDCC84
:100A390033CCC58233C5829BED9AEC99E582984007
:100A49000CF582EE9BFEED9AFDEC99FC0FD5F0D6E4
:100A5900E4CEFBE4CDFAE4CCF9A88222B800C1B90E
:100A69000059BA002DEC8BF084CFCECDFCE5F0CB4C
:100A7900F97818EF2FFFEE33FEED33FDEC33FCEB85
:100A890033FB10D703994004EB99FB0FD8E5E4F940
:100A9900FA227818EF2FFFEE33FEED33FDEC33FC2D
:100AA900C933C910D7059BE99A4007EC9BFCE99A21
:100AB900F90FD8E0E4C9FAE4CCFB2275F010EF2F66
:100AC900FFEE33FEED33FDCC33CCC833C810D70766
:100AD9009BEC9AE899400AED9BFDEC9AFCE899F8A1
:0E0AE9000FD5F0DAE4CDFBE4CCFAE4C8F92234
:0C0AF700E6FC08E6FD08E6FE08E6FF222B
:0C0B0300E2FC08E2FD08E2FE08E2FF222E
:100B0F00E493FC740193FD740293FE740393FF222C
:0C0B1F00ECF608EDF608EEF608EFF62202
:0C0B2B00ECF208EDF208EEF208EFF22206
:100B3700D083D082E493F608740193F60874029385
:090B4700F608740393F6740473BC
:100B5000A8828583F0D083D082120B67120B6712B4
:100B60000B67120B67E473E493A3C583C5F0C583D9
:100B7000C8C582C8F0A3C583C5F0C583C8C582C8EF
:010B80002252
:100B8100D083D082E493F208740193F20874029343
:090B9100F208740393F27404737A
:00000001FF
