:0A125A00000102020303040405056D
:100E2D00C200C202C201120A19C2AF75230D752488
:100E3D0000752B0D752C1275210D75221C75290D44
:100E4D00752A43752D0D752E6AD2E890E668E0443B
:100E5D0009F090E65CE04435F0D2AF90E680E020FA
:100E6D00E105D2041210C390E680E054F7F0538EE2
:100E7D00F8120BB212111D3001FA120706C20180D1
:010E8D00F371
:0B124F0090E50DE030E402C322D32242
:1007060090E6B9E070030207AE14700302082324D2
:10071600FE700302089E24FB70030207A8147003F0
:10072600020909146076147003020909240560039E
:100736000208FD90E6BBE024FE602714603824FD25
:10074600601114602724067050E52390E6B3F0E5A7
:1007560024803C12124F503EE52B90E6B3F0E52C78
:10076600802DE52590E6B3F0E5268023E52790E683
:10077600B3F0E528801990E6BAE0FF1210F2AA0657
:10078600A9077B01EA494B600DEE90E6B3F0EF90C6
:10079600E6B4F00209090208F80208F81212330258
:1007A600090912122302090990E6B8E0247F6015B0
:1007B60014601924027063A200E43325E0FFA2024C
:1007C600E4334F8041E490E740F0803F90E6BCE0A0
:1007D600547EFF7E00E0D394807C0040047D01803F
:1007E600027D00EC4EFEED4F245AF58274123EF562
:1007F60083E493FF3395E0FEEF24A1FFEE34E68F0A
:1008060082F583E0540190E740F0E4A3F090E68A95
:10081600F090E68B7402F00209090208F890E6B837
:10082600E024FE60162402600302090990E6BAE09D
:10083600B40105C2000209090208F890E6BAE070A0
:100846005590E6BCE0547EFF7E00E0D394807C00A9
:1008560040047D0180027D00EC4EFEED4F245AF5EA
:100866008274123EF583E493FF3395E0FEEF24A1F4
:10087600FFEE34E68F82F583E054FEF090E6BCE0AE
:100886005480131313541FFFE0540F2F90E683F088
:10089600E04420F0806D805A90E6B8E024FE6019AE
:1008A6002402704E90E6BAE0B40104D2008054905F
:1008B600E6BAE06402604C803990E6BCE0547EFF04
:1008C6007E00E0D394807C0040047D0180027D00A0
:1008D600EC4EFEED4F245AF58274123EF583E493F6
:1008E600FF3395E0FEEF24A1FFEE34E68F82F58319
:1008F600800D90E6A08008120200500790E6A0E066
:0A0906004401F090E6A0E04480F008
:0109100022C4
:03003300020BFAC3
:040BFA0053D8EF32AB
:100D000012010002000000404705008900000102B6
:100D100003010A060002000000400100090227004A
:100D200001010040000904000003FF000000070566
:100D3000810240000007050202000200070586024A
:100D40000002000902270001010040000904000020
:100D500003FF0000000705810240000007050202B2
:100D60004000000705860240000004030904140344
:100D700041005400430020002600200049004E009E
:100D800049001C0355005300420032004100450059
:100D900052006D0061007000700065007200120367
:100DA000640065006600610075006C00740020003E
:020DB000000041
:1010C30030040990E680E0440AF0800790E680E06F
:1010D3004408F07FDC7E05120CB890E65D74FFF0E7
:0F10E30090E65FF05391EF90E680E054F7F02233
:0210F200A9074C
:1010F400AE2DAF2E8F828E83A3E064037017AD01F3
:1011040019ED7001228F828E83E07C002FFDEC3E6E
:08111400FEAF0580DFE4FEFFE1
:01111C0022B0
:100CB8008E088F0990E600E054187012E5092401A7
:100CC800FFE43508C313F508EF13F509801590E61E
:100CD80000E05418FFBF100BE50925E0F509E50809
:100CE80033F508E5091509AE08700215084E6005C8
:060CF80012121280EE2230
:101212007400F58690FDA57C05A3E582458370F9EF
:0112220022A9
:03004300020C00AC
:03005300020C009C
:100C00000211CE000211FC000211E600020BFE00F0
:100C1000020FF100020F7C00020BFF00020CFE002D
:100C2000020CFF0002126C0002126D0002126E0034
:100C300002126F00021270000212710002127200A2
:100C400002127300020CFE00021274000212750000
:100C50000212760002127700021278000212790066
:100C600002127A00020CFE00020CFE00020CFE00D2
:100C700002127B0002127C0002127D0002127E0032
:100C800002127F0002128000021281000212820012
:100C900002128300021284000212850002128600F2
:100CA00002128700021288000212890002128A00D2
:080CB00002128B0002128C00FD
:03000300020EE703
:100A190090E600E054E74412F090E6017403F075A3
:100A2900A80053E8E3E490E610F000000090E61116
:100A390074A0F000000090E612F0000000E490E6D7
:100A490013F000000090E61474E0F0000000E49058
:100A5900E615F000000090E60B7403F0000000902A
:100A6900E62414F0000000E490E625F00000009070
:100A7900E6047480F00000007402F0000000E4F065
:100A890000000090E6497482F0000000F0000000C8
:100A9900F0000000F000000090E6187410F000006B
:100AA9000090E61A7408F0000000E490E619F000DE
:100AB900000090E61BF000000090E60274E8F000E8
:100AC9000000E490E671F000000090E672F000008A
:100AD9000090E67004F075B4BB75B5FF75B28AE491
:100AE900F5B6F5A0F5B0C281F52FC203F533F5329D
:0E0AF900F531F530D287121264D288D2A822CD
:10111D007830120B6CE47B507AC3F9F8D3120B566E
:10112D005010B287A287B392B2E4F533F532F531A0
:03113D00F5302268
:100BB2007F031210F2AA06A9077508018A09890A99
:100BC2007A187B007D087FF87E3F120E8EE4FF7458
:100BD200002FF582E43418F583E0FEAB08AA09A9D8
:100BE2000A75F002EFA42402F582E435F0F583EEF3
:070BF200120B340FBF08D8FD
:010BF90022D9
:1011B400D2B1C2A1C2A375B6FFE4F5B143B140C236
:0A11C400A0D2A0C2A0F5B6D2A1226D
:10115F00D2B0C2A1C2A375B6FFE4F5B143B18043CB
:0D116F00B120C2A0D2A0C2A0F5B6D2A1222C
:10114000D2B0D2B1C2A1C2A375B6FFE4F5B143B12A
:0F1150004043B180C2A0D2A0C2A0F5B6D2A12266
:100DB200C2A1C2B0C2B100000000000000E490E68F
:100DC20018F000000090E61AF000000090E6A9E09A
:100DD200700990E6487406F000000090E604748002
:100DE200F00000007406F00000007402F000000041
:100DF200E4F000000000000090E6497482F0000078
:100E020000F0000000F0000000F000000090E61A80
:100E12007408F000000090E6187410F0000000E47E
:0B0E2200F5B6C2B0C2B1C2B2C2B3222A
:040F3900AA06AC0553
:100F3D00E4FD7E000DEE2400F582E43418F583EA1D
:100F4D00F00E0D74002EF582E43418F583EFF00DDC
:100F5D0074002402F582E43418F583ECF0D2877A1C
:0F0F6D00187B007F51121198C2877F51020FB974
:0A1028008E138F148D158A168B1796
:10103200E4F518E518C3951550200514E514AE1310
:101042007002051314FFE5172518F582E43516F52D
:0A10520083E0FD120F39051880D964
:01105C002271
:0A0E8E008E138F148D158A168B1732
:100E9800E4FDE513FF7E000DEE2408F582E4341826
:100EA800F583EFF00E0D74082EF582E43418F583FF
:100EB800E514F07A187B087F51121198E4FFEFC30C
:100EC80095155010E5172FF582E43516F58374CD86
:0F0ED800F00F80EAAB17AA16AD157F5102117CFF
:10122300E490E740F090E68AF090E68B04F0D32256
:10123300E490E740F090E68AF090E68B04F0D32246
:1002000090E6B9E0120B8C0565A20565A30238B330
:100210000244B40396BB0244C102A5C204C0C30297
:1002200052C4039DC50246C60244C70525CB0540FE
:10023000CC023ED0000006E912115F0206EB12115B
:10024000B40206EB80061211400206EB120DB20258
:1002500006EB000000E490E618F000000090E61ABB
:10026000F000000090E6047480F00000007402F0DA
:100270000000007406F0000000E4F000000090E6CA
:10028000497482F0000000F0000000F0000000F06F
:1002900000000090E6187410F000000090E61A7458
:1002A00008F00206EB90E6B9E090E740F0E490E653
:1002B0008AF090E68B04F090E6A0E04480F090E6AF
:1002C000A0E020E1F97F031210F2AA06A907751039
:1002D000018A11891290E68BE0D394084008750AD0
:1002E00000750B08800990E68BE0750A00F50BE4B9
:1002F000F50EF50FC3E50F950BE50E950A5049E590
:100300000F24F8FFE50E343FFE7440250FF582E41C
:1003100034E7F583E0FD120F397440250FF582E4D0
:1003200034E7F583E0FDE50F25E0FFE50E338F822E
:10033000F583A3A3AB10AA11A912ED120B34050F7C
:10034000E50F70B0050E80AC850A0E850B0FC3E576
:100350000F9408E50E94005032E50F24F8FFE50EE7
:10036000343FFE7D20120F39E50F25E0FFE50E3307
:100370008F82F583A3A3AB10AA11A9127420120BCC
:1003800034050FE50F70C7050E80C3E490E68AF0D0
:1003900090E68BF0C322D2A3C2A30206EB90E6BE86
:1003A000E0750A00F50BA3E0FEEE420A200326D218
:1003B00003E490E601F075B4BB75B5FF75B28AF53C
:1003C000B6F5B075B3FFD2B1C2A5000000000000C1
:1003D000D2A530A2FDE50B450A7003020468E49043
:1003E000E68AF090E68BF0B2B390E6A0E020E1F967
:1003F00090E68BE0750C00F50DE4F50EF50F7440FA
:10040000250FF582E434E7F583E0FFC2A733929726
:10041000D2A7C2A7EFA2E69297D2A7C2A7A2E5925F
:1004200097D2A7C2A7A2E49297D2A7C2A7A2E392AB
:1004300097D2A7C2A7A2E29297D2A7C2A7A2E1929F
:1004400097D2A7C2A7139297D2A7050FE50F700204
:10045000050E6440450E70A6C3E50B950DF50BE542
:100460000A950CF50A0203D590E6BAE06050C20383
:1004700090E6017403F000000090E6187410F0009C
:10048000000090E61A7408F0000000E490E619F00D
:1004900000000090E61BF075B4BB75B5FF75B28A1D
:1004A000F5B6C2B3C2B120A602D322C2A3C281C292
:1004B000A0C2A4C2A100000090E60274E8F0C3222A
:1004C00090E6B8E0B4C016A3E090E740F0A3E52FB3
:1004D000F0E490E68AF090E68B7402803E90E6BAF3
:1004E000E0F52F7006C281C2A4801FE52FB401067B
:1004F000D281C2A48014E52FB40206C281D2A480A6
:1005000009E52FB40304D281D2A490E6B9E090E7C4
:1005100040F0E490E68AF090E68B04F090E6A0E0EC
:100520004480F0C32290E6B9E090E740F0A2A2E454
:1005300033A3F0E490E68AF090E68B74020206FCA6
:1005400090E6B9E090E740F0E490E744F090E743AC
:10055000F090E742F090E741F090E68AF090E68B69
:1005600074050206FC90E6BAE0750800F509A3E000
:10057000FEEE420890E6BEE0750A00F50BA3E0FE31
:10058000EE420A90E6B8E064C06003020651E50B53
:10059000450A70030206E790E6A0E020E1F9C3E512
:1005A0000B9440E50A94005008850A0C850B0D80D9
:1005B00006750C00750D4090E6B9E0B4A335E4F57E
:1005C0000EF50FC3E50F950DE50E950C505EE50990
:1005D000250FF582E508350EF583E0FF7440250F01
:1005E000F582E434E7F583EFF0050FE50F70D405ED
:1005F0000E80D0E4F50EF50FC3E50F950DE50E95D1
:100600000C50187440250FF582E434E7F58374CD5F
:10061000F0050FE50F70E1050E80DDAD0D7AE7798D
:10062000407F40AB07AF09AE08120E8EE490E68A19
:10063000F090E68BE50DF02509F509E50C3508F598
:1006400008C3E50B950DF50BE50A950CF50A0205B7
:100650008E90E6B8E0644060030206E7E50B450AC9
:1006600070030206E7E490E68AF090E68BF090E6ED
:10067000A0E020E1F990E68BE0750C00F50D90E626
:10068000B9E0B4A335E4F50EF50FC3E50F950DE51C
:100690000E950C50367440250FF582E434E7F5834F
:1006A000E0FFE509250FF582E508350EF583EFF04B
:1006B000050FE50F70D4050E80D0AD0D7AE77940B7
:1006C0007F40AB07AF09AE08121028E50D2509F5EC
:1006D00009E50C3508F508C3E50B950DF50BE50AA2
:1006E000950CF50A02065CC322D32290E6B9E0908D
:1006F000E740F0E490E68AF090E68B04F090E6A004
:05070000E04480F0C39D
:0107050022D1
:100EE700C0E0C083C082C28700000090E61AE4F029
:100EF70000000090E6047480F00000007406F00023
:100F07000000E4F000000090E61A7408F090E6A2F2
:100F1700E06402601690E7C07401F000000090E6FC
:100F27008FF0000000C289D2A8D287D082D083D0A8
:020F3700E032A6
:1011CE00C0E0C083C082D2015391EF90E65D7401FE
:0811DE00F0D082D083D0E03292
:1011E600C0E0C083C0825391EF90E65D7404F0D0F6
:0611F60082D083D0E0323C
:1011FC00C0E0C083C0825391EF90E65D7402F0D0E2
:06120C0082D083D0E03225
:100FF100C0E0C083C08290E680E030E70E85212505
:10100100852226852927852A28800C852925852A58
:10101100268521278522285391EF90E65D7410F0F3
:07102100D082D083D0E03241
:010BFE0032C4
:100F7C00C0E0C083C08290E680E030E70E8521257A
:100F8C00852226852927852A28800C852925852ACE
:100F9C00268521278522285391EF90E65DE030E5E8
:0D0FAC00057420F080F4D082D083D0E032B4
:010BFF0032C3
:010CFE0032C3
:010CFF0032C2
:01126C00324F
:01126D00324E
:01126E00324D
:01126F00324C
:01127000324B
:01127100324A
:011272003249
:011273003248
:011274003247
:011275003246
:011276003245
:011277003244
:011278003243
:011279003242
:01127A003241
:01127B003240
:01127C00323F
:01127D00323E
:01127E00323D
:01127F00323C
:01128000323B
:01128100323A
:011282003239
:011283003238
:011284003237
:011285003236
:011286003235
:011287003234
:011288003233
:011289003232
:01128A003231
:01128B003230
:01128C00322F
:08126400E4F51ED2E9D2AF222D
:100FB900AD0790E678E020E6F9C2E990E678E044EA
:100FC90080F0ED25E090E679F090E678E030E0F900
:100FD90090E678E04440F090E678E020E6F990E683
:080FE90078E030E1D6D2E922E4
:10109100AC0790E678E020E6F9E51E702390E6784B
:1010A100E04480F0EC25E090E679F08D19AF03A9DA
:1010B10007751A018A1B891CE4F51D751E01D322CF
:0210C100C32248
:10105D00AC0790E678E020E6F9E51E702590E6787D
:10106D00E04480F0EC25E0440190E679F08D19AF75
:10107D0003A907751A018A1B891CE4F51D751E034A
:04108D00D322C32285
:03004B0002091196
:10091100C0E0C083C082C085C084C086758600C027
:10092100D075D000C000C001C002C003C006C0071E
:1009310090E678E030E206751E060209FB90E67843
:10094100E020E10CE51E64026006751E070209FB4A
:10095100E51E24FE605F14603624FE70030209EC7C
:1009610024FC70030209F8240860030209FBAB1A96
:10097100AA1BA91CAF1D051D8F82758300120B07D1
:1009810090E679F0E51D65197070751E05806B9014
:10099100E679E0AB1AAA1BA91CAE1D8E82758300F5
:1009A100120B34751E02E5196401704E90E678E071
:1009B1004420F08045E51924FEB51D0790E678E056
:1009C1004420F0E51914B51D0A90E678E04440F0A2
:1009D100751E0090E679E0AB1AAA1BA91CAE1D8E0C
:1009E10082758300120B34051D800F90E678E04478
:1009F10040F0751E008003751E005391DFD007D0B3
:100A010006D003D002D001D000D0D0D086D084D07F
:080A110085D082D083D0E032D1
:10117C0012105DE51E24FA600E146006240770F34D
:0C118C00D322E4F51ED322E4F51ED3228A
:10119800121091E51E24FA600E146006240770F3FD
:0C11A800D322E4F51ED322E4F51ED3226E
:03000000021243A6
:0C124300787FE4F6D8FD758133020E2D93
:100B0700BB010CE58229F582E5833AF583E02250A3
:100B170006E92582F8E622BBFE06E92582F8E222ED
:0D0B2700E58229F582E5833AF583E4932207
:100B3400F8BB010DE58229F582E5833AF583E8F0F7
:100B4400225006E92582C8F622BBFE05E92582C8A3
:020B5400F2228B
:100B5600EB9FF5F0EA9E42F0E99D42F0EC6480C816
:060B660064809845F022B6
:100B6C007401FF3395E0FEFDFC080808E6CF2FF674
:100B7C0018E6CE3EF618E6CD3DF618E6CC3CF6224D
:100B8C00D083D082F8E4937012740193700DA3A3F8
:100B9C0093F8740193F5828883E47374029368600C
:060BAC00EFA3A3A380DF0C
:00000001FF
