:0A0AF60000010202030304040505D9
:100A9800C200C202C2011209D8C2AF750A0C750B96
:100AA8000075120C75131275080C75091C75100C5D
:100AB80075114375140C75156AD2E890E668E04420
:100AC80009F090E65CE04435F0D2AF90E680E02093
:100AD800E105D203120EE390E680E054F7F0538E5E
:0E0AE800F8120F3D3001FA1205F3C20180F33F
:02102300D322D6
:1005F30090E6B9E0700302069B147003020710240F
:10060300FE700302078B24FB70030206951470032C
:100613000207F61460761470030207F624056003DC
:100623000207EA90E6BBE024FE602714603824FD4D
:10063300601114602724067050E50A90E6B3F0E5D4
:100643000B803C121023503EE51290E6B3F0E51305
:10065300802DE50C90E6B3F0E50D8023E50E90E6E2
:10066300B3F0E50F801990E6BAE0FF120F12AA0665
:10067300A9077B01EA494B600DEE90E6B3F0EF90DA
:10068300E6B4F00207F60207E50207E5120FF802E7
:1006930007F6120FE80207F690E6B8E0247F60152C
:1006A30014601924027063A200E43325E0FFA20260
:1006B300E4334F8041E490E740F0803F90E6BCE0B4
:1006C300547EFF7E00E0D394807C0040047D018053
:1006D300027D00EC4EFEED4F24F6F582740A3EF5E2
:1006E30083E493FF3395E0FEEF24A1FFEE34E68F1E
:1006F30082F583E0540190E740F0E4A3F090E68AAA
:10070300F090E68B7402F00207F60207E590E6B874
:10071300E024FE6016240260030207F690E6BAE0C6
:10072300B40105C2000207F60207E590E6BAE070DD
:100733005590E6BCE0547EFF7E00E0D394807C00BD
:1007430040047D0180027D00EC4EFEED4F24F6F562
:1007530082740A3EF583E493FF3395E0FEEF24A110
:10076300FFEE34E68F82F583E054FEF090E6BCE0C2
:100773005480131313541FFFE0540F2F90E683F09C
:10078300E04420F0806D805A90E6B8E024FE6019C2
:100793002402704E90E6BAE0B40104D20080549073
:1007A300E6BAE06402604C803990E6BCE0547EFF18
:1007B3007E00E0D394807C0040047D0180027D00B4
:1007C300EC4EFEED4F24F6F582740A3EF583E49376
:1007D300FF3395E0FEEF24A1FFEE34E68F82F5832D
:1007E300800D90E6A08008120200500790E6A0E07A
:0A07F3004401F090E6A0E04480F01D
:0107FD0022D9
:0300330002101C9C
:04101C0053D8EF3284
:100C0000120100020000004047050287082001028F
:100C100000010A060002000000400100090227004E
:100C200001010080960904000003FF000000070591
:100C3000810240000007050202000200070586024B
:100C4000000200090227000101008096090400004B
:100C500003FF0000000705810240000007050202B3
:100C60004000000705860240000004030904080351
:100C700049004E0049001003540043005600530041
:080C80003300320030000000D7
:100EE30030030990E680E0440AF0800790E680E052
:100EF3004408F07FDC7E05120CE190E65D74FFF0A0
:0F0F030090E65FF05391EF90E680E054F7F02214
:020F1200A9072D
:100F1400AE14AF158F828E83A3E064037017AD0106
:100F240019ED7001228F828E83E07C002FFDEC3E50
:080F3400FEAF0580DFE4FEFFC3
:010F3C002292
:100CE1008E218F2290E600E054187012E522240133
:100CF100FFE43521C313F521EF13F522801590E6AA
:100D010000E05418FFBF100BE52225E0F522E52194
:100D110033F521E5221522AE21700215214E600521
:060D2100120FD780EE2244
:100FD7007400F58690FDA57C05A3E582458370F92D
:010FE70022E7
:03004300020B00AD
:03005300020B009D
:100B0000020F9300020FC100020FAB00021025007C
:100B1000020DDA00020E110002102600021027005A
:100B2000021028000210290002102A0002102B00D7
:100B300002102C0002102D0002102E0002102F00B7
:100B400002103000021027000210310002103200A3
:100B5000021033000210340002103500021036007B
:100B60000210370002102700021027000210270091
:100B7000021038000210390002103A0002103B0047
:100B800002103C0002103D0002103E0002103F0027
:100B90000210400002104100021042000210430007
:100BA00002104400021045000210460002104700E7
:080BB000021048000210490088
:100BB8007E0874E755B1F9740845B1FA74EF5AFA2A
:100BC800741045B1FB74F75BFB741845B1FCEF3347
:100BD800FF40108BB10000000089B1000000008BBD
:100BE800B1800E8CB1000000008AB1000000008CBA
:080BF800B100000000DED7226D
:1009D80090E600E054E74410F0E054FDF090E601A2
:1009E80074A3F075A80053E8E3E490E610F0000063
:1009F8000090E61174A0F0000000E490E612F00008
:100A0800000090E613F000000090E61474E0F00097
:100A18000000E490E615F000000090E60B7403F087
:100A280090E62414F0E490E625F000000090E61A21
:100A38007409F000000090E60274E8F0000000E499
:100A480090E671F000000090E670F000000090E67B
:100A580072F075B40D75B6FE75B288F5A0F580759F
:100A6800B110F51AF51EF51DF51CF51B74FFF519E7
:100A7800F518F517F516C28743B11053B1F743B10E
:100A88000253B1FB121014D288D2A8D28AD2AA2259
:100F3D00781B120992E47B507AC3F9F8D312095544
:0E0F4D00500BB287E4F51EF51DF51CF51B22B6
:03102000D2832256
:100D6A00C28390E61A7401F000000090E6A9E070D0
:100D7A000990E6487406F000000090E6047480F0DA
:100D8A000000007406F0000000E4F000000090E6A5
:080D9A001A7409F000000022A8
:040D2700AA06AC0567
:100D2B00E4FD7E000DEE2401F582E43419F583EA2F
:100D3B00F00E0D74012EF582E43419F583EFF00DEE
:100D4B0074012402F582E43419F583ECF0D2877A2E
:0F0D5B00197B017F51120F77C2877F51020DA2C2
:0A0E48008E298F2A8D2B8A2C8B2D0A
:100E5200E4F52EE52EC3952B5020052AE52AAE296E
:100E62007002052914FFE52D252EF582E4352CF5B7
:0A0E720083E0FD120D27052E80D944
:010E7C002253
:0A0C88008E298F2A8D2B8A2C8B2DCC
:100C9200E4FDE529FF7E000DEE2401F582E434191E
:100CA200F583EFF00E0D74012EF582E43419F5830D
:100CB200E52AF07A197B017F51120F77E4FFEFC327
:100CC200952B5010E52D2FF582E4352CF58374CD4C
:0F0CD200F00F80EAAB2DAA2CAD2B7F51020F5BE8
:100FE800E490E740F090E68AF090E68B04F0D32294
:100FF800E490E740F090E68AF090E68B04F0D32284
:1002000090E6B9E01209B20452A20452A3022FB33D
:100210000235B4026BB80340B9026BBA0264BB0387
:100220006BC3023BC403D0CB03EBCC000005D6125A
:1002300010200205D8120D6A0205D800000090E6D1
:100240001A7401F000000090E6047480F0000000D1
:100250007406F0000000E4F000000090E61A740953
:10026000F00205D8D2A0C2A00205D800000090E696
:10027000BAE0752100F522A3E0FEEE422190E6BE31
:10028000E0752300F524A3E0FEEE42239018FFE57D
:1002900023F0A3E524F0E5244523700302031FE4C3
:1002A00090E68AF090E68BF090E6A0E020E1F990ED
:1002B000E68BE0752500F52690E6B9E064B870435A
:1002C000F527F528C3E5289526E5279525503474AC
:1002D000402528F582E434E7F583E0FF120BB8AF40
:1002E0002874402FF582E434E7F583E0FE74002F94
:1002F000F582E43418F583EEF00528E52870C5058D
:100300002780C1E5262522F522E5253521F521C3E3
:10031000E5249526F524E5239525F52302029690FC
:10032000E6B9E0B4B80F53B1FD00000000000000D2
:10033000000043B102E490E68AF090E68BF0C3221D
:1003400090E6BAE0600543B104800353B1FB90E747
:100350004074B9F0000000E490E68AF090E68B0467
:10036000F090E6A0E04480F00205D890E6B8E0B452
:10037000C016A3E090E740F0A3E51AF0E490E68A07
:10038000F090E68B7402803E90E6BAE0F51A7006B3
:10039000C2A3C2A2801FE51AB40106D2A2C2A380E2
:1003A00014E51AB40206C2A2D2A38009E51AB40366
:1003B00004D2A2D2A390E6B9E090E740F0E490E640
:1003C0008AF090E68B04F090E6A0E04480F0C3222F
:1003D00090E6B9E090E740F0A2A1E433A3F0E49006
:1003E000E68AF090E68B74020205E9C2AA90E6B9AB
:1003F000E090E740F0AC16E4FFFEFDE51678181239
:10040000096B90E744EFF0E4FFFEE517FDE4FC78AC
:100410001012097E90E743EFF0E4FFE518FEE4FDDB
:10042000FC780812097E90E742EFF0E519FF90E7AB
:1004300041EFF0E490E68AF090E68B7405F090E6E8
:10044000A0E04480F0E4F519F518F517F516D2AAE6
:10045000C32290E6BAE0752100F522A3E0FEEE4249
:100460002190E6BEE0752300F524A3E0FEEE4223D2
:1004700090E6B8E064C0600302053EE524452370C1
:10048000030205D490E6A0E020E1F9C3E5249440FE
:10049000E5239400500885232585242680067525AC
:1004A0000075264090E6B9E0B4A335E4F527F528B9
:1004B000C3E5289526E5279525505EE5222528F5F4
:1004C00082E5213527F583E0FF74402528F582E495
:1004D00034E7F583EFF00528E52870D4052780D0B0
:1004E000E4F527F528C3E5289526E5279525501836
:1004F00074402528F582E434E7F58374CDF00528AF
:10050000E52870E1052780DDAD267AE779407F4058
:10051000AB07AF22AE21120C88E490E68AF090E699
:100520008BE526F02522F522E5253521F521C3E5C9
:10053000249526F524E5239525F52302047B90E6F2
:10054000B8E0644060030205D4E52445237003024B
:1005500005D4E490E68AF090E68BF090E6A0E020E7
:10056000E1F990E68BE0752500F52690E6B9E0B458
:10057000A335E4F527F528C3E5289526E527952535
:10058000503674402528F582E434E7F583E0FFE532
:10059000222528F582E5213527F583EFF00528E5AA
:1005A0002870D4052780D0AD267AE779407F40AB0C
:1005B00007AF22AE21120E48E5262522F522E525B9
:1005C0003521F521C3E5249526F524E5239525F568
:1005D00023020549C322D32290E6B9E090E740F018
:1005E000E490E68AF090E68B04F090E6A0E0448088
:0205F000F0C356
:0105F20022E6
:100F9300C0E0C083C082D2015391EF90E65D74013B
:080FA300F0D082D083D0E032CF
:100FAB00C0E0C083C0825391EF90E65D7404F0D033
:060FBB0082D083D0E03279
:100FC100C0E0C083C0825391EF90E65D7402F0D01F
:060FD10082D083D0E03263
:100DDA00C0E0C083C08290E680E030E70E85080C50
:100DEA0085090D85100E85110F800C85100C851153
:100DFA000D85080E85090F5391EF90E65D7410F08A
:070E0A00D082D083D0E0325A
:011025003298
:100E1100C0E0C083C08290E680E030E70E85080C18
:100E210085090D85100E85110F800C85100C85111B
:100E31000D85080E85090F5391EF90E65D7420F042
:070E4100D082D083D0E03223
:011026003297
:011027003296
:011028003295
:011029003294
:01102A003293
:01102B003292
:01102C003291
:01102D003290
:01102E00328F
:01102F00328E
:01103000328D
:01103100328C
:01103200328B
:01103300328A
:011034003289
:011035003288
:011036003287
:011037003286
:011038003285
:011039003284
:01103A003283
:01103B003282
:01103C003281
:01103D003280
:01103E00327F
:01103F00327E
:01104000327D
:01104100327C
:01104200327B
:01104300327A
:011044003279
:011045003278
:011046003277
:011047003276
:011048003275
:011049003274
:08101400E4F534D2E9D2AF2269
:100DA200AD0790E678E020E6F9C2E990E678E04403
:100DB20080F0ED25E090E679F090E678E030E0F919
:100DC20090E678E04440F090E678E020E6F990E69C
:080DD20078E030E1D6D2E922FD
:100EB100AC0790E678E020E6F9E534702390E67817
:100EC100E04480F0EC25E090E679F08D2FAF03A9A6
:100ED100077530018A318932E4F533753401D32243
:020EE100C3222A
:100E7D00AC0790E678E020E6F9E534702590E67849
:100E8D00E04480F0EC25E0440190E679F08D2FAF41
:100E9D0003A9077530018A318932E4F533753403BE
:040EAD00D322C32267
:03004B000207FEAB
:1007FE00C0E0C083C082C085C084C086758600C03C
:10080E00D075D000C000C001C002C003C006C00732
:10081E0090E678E030E2067534060208E890E67855
:10082E00E020E10CE534640260067534070208E846
:10083E00E53424FE605F14603624FE70030208D98E
:10084E0024FC70030208E5240860030208E8AB30BC
:10085E00AA31A932AF3305338F8275830012090690
:10086E0090E679F0E533652F7070753405806B90E6
:10087E00E679E0AB30AA31A932AE338E82758300B1
:10088E00120933753402E52F6401704E90E678E05C
:10089E004420F08045E52F24FEB5330790E678E03E
:1008AE004420F0E52F14B5330A90E678E04440F08A
:1008BE0075340090E679E0AB30AA31A932AE338EB2
:1008CE00827583001209330533800F90E678E04479
:1008DE0040F075340080037534005391DFD007D09B
:1008EE0006D003D002D001D000D0D0D086D084D094
:0808FE0085D082D083D0E032E6
:100F5B00120E7DE53424FA600E146006240770F33C
:0C0F6B00D322E4F534D322E4F534D32281
:100F7700120EB1E53424FA600E146006240770F3EC
:0C0F8700D322E4F534D322E4F534D32265
:03000000021008E3
:0C100800787FE4F6D8FD758134020A9868
:10090600BB010CE58229F582E5833AF583E02250A6
:1009160006E92582F8E622BBFE06E92582F8E222F0
:0D092600E58229F582E5833AF583E493220A
:10093300F8BB010DE58229F582E5833AF583E8F0FA
:10094300225006E92582C8F622BBFE05E92582C8A6
:02095300F2228E
:10095500EB9FF5F0EA9E42F0E99D42F0EC6480C819
:0609650064809845F022B9
:10096B00E8600FECC313FCED13FDEE13FEEF13FF6A
:03097B00D8F1228E
:10097E00E86010ECA2E713FCED13FDEE13FEEF138F
:04098E00FFD8F0227C
:100992007401FF3395E0FEFDFC080808E6CF2FF650
:1009A20018E6CE3EF618E6CD3DF618E6CC3CF62229
:1009B200D083D082F8E4937012740193700DA3A3D4
:1009C20093F8740193F5828883E4737402936860E8
:0609D200EFA3A3A380DFE8
:00000001FF
