:0A247B00000102020303040405053A
:101D5F00C200C202C20112147FC2AF750A1B750BFB
:101D6F000075121B75131275081B75091C75101B56
:101D7F0075114375141B75156AD2E890E668E04437
:101D8F0009F090E65CE04435F0D2AF90E680E020B9
:101D9F00E105D20412228390E680E054F7F0538ECF
:0E1DAF00F8121ADD3001FA120C8DC20180F319
:021AFB00D322F4
:100C8D0090E6B9E07003020D35147003020DAA242D
:100C9D00FE7003020E2524FB7003020D2F1470034A
:100CAD00020E90146076147003020E9024056003FA
:100CBD00020E8490E6BBE024FE602714603824FD0C
:100CCD00601114602724067050E50A90E6B3F0E534
:100CDD000B803C121AFB503EE51290E6B3F0E51383
:100CED00802DE50C90E6B3F0E50D8023E50E90E642
:100CFD00B3F0E50F801990E6BAE0FF1222B2AA0612
:100D0D00A9077B01EA494B600DEE90E6B3F0EF9039
:100D1D00E6B4F0020E90020E7F020E7F12242D0219
:100D2D000E9012241D020E9090E6B8E0247F6015FF
:100D3D0014601924027063A200E43325E0FFA202BF
:100D4D00E4334F8041E490E740F0803F90E6BCE013
:100D5D00547EFF7E00E0D394807C0040047D0180B2
:100D6D00027D00EC4EFEED4F247BF58274243EF5A2
:100D7D0083E493FF3395E0FEEF24A1FFEE34E68F7D
:100D8D0082F583E0540190E740F0E4A3F090E68A09
:100D9D00F090E68B7402F0020E90020E7F90E6B892
:100DAD00E024FE601624026003020E9090E6BAE085
:100DBD00B40105C200020E90020E7F90E6BAE070FB
:100DCD005590E6BCE0547EFF7E00E0D394807C001D
:100DDD0040047D0180027D00EC4EFEED4F247BF53D
:100DED008274243EF583E493FF3395E0FEEF24A156
:100DFD00FFEE34E68F82F583E054FEF090E6BCE022
:100E0D005480131313541FFFE0540F2F90E683F0FB
:100E1D00E04420F0806D805A90E6B8E024FE601921
:100E2D002402704E90E6BAE0B40104D200805490D2
:100E3D00E6BAE06402604C803990E6BCE0547EFF77
:100E4D007E00E0D394807C0040047D0180027D0013
:100E5D00EC4EFEED4F247BF58274243EF583E49336
:100E6D00FF3395E0FEEF24A1FFEE34E68F82F5838C
:100E7D00800D90E6A08008120200500790E6A0E0D9
:0A0E8D004401F090E6A0E04480F07C
:010E97002238
:030033000215FBB8
:0415FB0053D8EF32A0
:101B000012010002000000402A15018408100102A1
:101B100000010A060002000000400100090227003F
:101B200001010080960904000003FF000000070582
:101B3000810240000007050202000200070586023C
:101B4000000200090227000101008096090400003C
:101B500003FF0000000705810240000007050202A4
:101B60004000000705860240000004030904080342
:101B700049004E0049000E03440056005300330054
:061B8000320030000000FD
:1022830030040990E680E0440AF0800790E680E09D
:102293004408F07FDC7E05121F6590E65D74FFF055
:0F22A30090E65FF05391EF90E680E054F7F02261
:0222B200A9077A
:1022B400AE14AF158F828E83A3E064037017AD0153
:1022C40019ED7001228F828E83E07C002FFDEC3E9D
:0822D400FEAF0580DFE4FEFF10
:0122DC0022DF
:101F65008E218F2290E600E054187012E52224019C
:101F7500FFE43521C313F521EF13F522801590E613
:101F850000E05418FFBF100BE52225E0F522E521FE
:101F950033F521E5221522AE21700215214E60058B
:061FA50012240C80EE2264
:10240C007400F58690FDA57C05A3E582458370F9E3
:01241C00229D
:03004300021600A2
:0300530002160092
:101600000223A1000223CF000223B9000215FF002C
:101610000221170002214E00021AFD00021AFE00EC
:10162000021AFF0002249E0002249F000224A00050
:101630000224A1000224A2000224A3000224A40088
:101640000224A500021AFE000224A6000224A7001C
:101650000224A8000224A9000224AA000224AB004C
:101660000224AC00021AFE00021AFE00021AFE005A
:101670000224AD000224AE000224AF000224B00018
:101680000224B1000224B2000224B3000224B400F8
:101690000224B5000224B6000224B7000224B800D8
:1016A0000224B9000224BA000224BB000224BC00B8
:0816B0000224BD000224BE006B
:101F1D007E0874CF55B1F9741045B1FA74DF5AFAD1
:101F2D00742045B1FB74EF5BFB743045B1FCEF33AE
:101F3D00FF40108BB10000000089B1000000008B44
:101F4D00B1800E8CB1000000008AB1000000008C41
:081F5D00B100000000DED722F4
:10147F0090E600E054E74410F0E054FDF090E601F0
:10148F0074A3F075A80053E8E3E490E610F00000B1
:10149F000090E61174A0F0000000E490E612F00056
:1014AF00000090E613F000000090E61474E0F000E6
:1014BF000000E490E615F000000090E60B7403F0D6
:1014CF0090E62414F0E490E625F000000090E61A70
:1014DF007409F000000090E60274E8F0000000E4E8
:1014EF0090E671F000000090E670F000000090E6CA
:1014FF0072F075B40D75B6FE75B288F5A0F58075EE
:10150F00B120F51BF51FF51EF51DF51C74FFF51920
:10151F00F518F517F516D28743B12053B1EF43B144
:10152F000253B1FB122496D288D2A8D28AD2AA2211
:101ADD00781C1207ECE47B507AC3F9F8D312075B3C
:0E1AED00500BB287E4F51FF51EF51DF51C2207
:08248E00D283D2A343B108225E
:10206F00D2A390E61A7401F000000090E6A9E07088
:10207F000990E6487406F000000090E6047480F0C2
:10208F000000007406F0000000E4F000000090E68D
:08209F001A7409F00000002290
:041FEF00AA06AC058D
:101FF300E4FD7E000DEE24CAF582E4342CF583EA79
:10200300F00E0D74CA2EF582E4342CF583EFF00D37
:1020130074CA2402F582E4342CF583ECF0D2877A77
:0F2023002C7BCA7F51122385C2877F510220DF99
:0A2185008E298F2A8D2B8A2C8B2DBA
:10218F00E4F52EE52EC3952B5020052AE52AAE291E
:10219F007002052914FFE52D252EF582E4352CF567
:0A21AF0083E0FD121FEF052E80D91A
:0121B9002203
:0A1E73008E298F2A8D2B8A2C8B2DCF
:101E7D00E4FDE529FF7E000DEE24CAF582E4342C45
:101E8D00F583EFF00E0D74CA2EF582E4342CF58334
:101E9D00E52AF07A2C7BCA7F51122385E4FFEFC32C
:101EAD00952B5010E52D2FF582E4352CF58374CD4F
:0F1EBD00F00F80EAAB2DAA2CAD2B7F51022369C9
:10241D00E490E740F090E68AF090E68B04F0D3224A
:10242D00E490E740F090E68AF090E68B04F0D3223A
:1002000090E6B9E012083C046FA2046FA3022CB37D
:100210000232B40352B80429B90352BA034BBB02E9
:1002200038C40261C50454CB000005F312248E02C9
:1002300005F512206F0205F500000090E61A740122
:10024000F000000090E6047480F00000007406F0F6
:10025000000000E4F000000090E61A7409F00205C6
:10026000F590E6B8E06440600302033D30030AF510
:10027000A075B4BD121E19C20390E6BEE07523003E
:10028000F524A3E0FEEE4223D3E5249490E52394E5
:10029000014006751A0A020335E4F521F5227B01B7
:1002A0007A2B793A122464E52445236071E490E6C0
:1002B0008AF090E68BF090E6A0E020E1F990E68BE2
:1002C000E0752500F526E4F527F528C3E5289526F1
:1002D000E5279525502D74402528F582E434E7F56F
:1002E00083E0FFE5222528FDE5213527FC743A2D22
:1002F000F582742B3CF583EFF00528E52870CC05DA
:100300002780C8E5262522F522E5253521F521C3DC
:10031000E5249526F524E5239525F523808990E6A7
:10032000BAE07002800F1219D28F1AE51AD3940026
:1003300050030205F575B40DD2030205F590E6B938
:10034000E090E740F0A3E51A020461D2A0C2A00247
:1003500005F500000090E6BAE0752100F522A3E063
:10036000FEEE422190E6BEE0752300F524A3E0FEF8
:10037000EE4223902DCCE523F0A3E524F0E52445BF
:10038000237003020406E490E68AF090E68BF09076
:10039000E6A0E020E1F990E68BE0752500F52690D7
:1003A000E6B9E064B87043F527F528C3E52895263B
:1003B000E5279525503474402528F582E434E7F587
:1003C00083E0FF121F1DAF2874402FF582E434E74D
:1003D000F583E0FE74CD2FF582E4342CF583EEF046
:1003E0000528E52870C5052780C1E5262522F522C8
:1003F000E5253521F521C3E5249526F524E523954A
:1004000025F52302037D90E6B9E0B4B80F53B1FDA2
:1004100000000000000000000043B102E490E68A02
:10042000F090E68BF0B287C32290E6BAE060054315
:10043000B104800353B1FB90E74074B9F0000000B1
:10044000E490E68AF090E68B04F090E6A0E0448029
:10045000F00205F590E6B9E090E740F0A2A1E433A0
:10046000A3F0E490E68AF090E68B74020206069010
:10047000E6BAE0752100F522A3E0FEEE422190E607
:10048000BEE0752300F524A3E0FEEE422390E6B81B
:10049000E064C0600302055BE524452370030205A8
:1004A000F190E6A0E020E1F9C3E5249440E523942F
:1004B000005008852325852426800675250075268D
:1004C0004090E6B9E0B4A335E4F527F528C3E52864
:1004D0009526E5279525505EE5222528F582E5211C
:1004E0003527F583E0FF74402528F582E434E7F5ED
:1004F00083EFF00528E52870D4052780D0E4F527A0
:10050000F528C3E5289526E527952550187440253C
:1005100028F582E434E7F58374CDF00528E52870EA
:10052000E1052780DDAD267AE779407F40AB07AF54
:1005300022AE21121E73E490E68AF090E68BE52647
:10054000F02522F522E5253521F521C3E524952660
:10055000F524E5239525F52302049890E6B8E06498
:100560004060030205F1E524452370030205F1E430
:1005700090E68AF090E68BF090E6A0E020E1F9901A
:10058000E68BE0752500F52690E6B9E0B4A335E4E6
:10059000F527F528C3E5289526E5279525503674D7
:1005A000402528F582E434E7F583E0FFE52225289D
:1005B000F582E5213527F583EFF00528E52870D48D
:1005C000052780D0AD267AE779407F40AB07AF2280
:1005D000AE21122185E5262522F522E5253521F5D6
:1005E00021C3E5249526F524E5239525F523020569
:1005F00066C322D32290E6B9E090E740F0E490E6AB
:0F0600008AF090E68B04F090E6A0E04480F0C30F
:01060F0022C8
:1023A100C0E0C083C082D2015391EF90E65D740119
:0823B100F0D082D083D0E032AD
:1023B900C0E0C083C0825391EF90E65D7404F0D011
:0623C90082D083D0E03257
:1023CF00C0E0C083C0825391EF90E65D7402F0D0FD
:0623DF0082D083D0E03241
:10211700C0E0C083C08290E680E030E70E85080CFF
:1021270085090D85100E85110F800C85100C851102
:102137000D85080E85090F5391EF90E65D7410F039
:07214700D082D083D0E0320A
:0115FF0032B9
:10214E00C0E0C083C08290E680E030E70E85080CC8
:10215E0085090D85100E85110F800C85100C8511CB
:10216E000D85080E85090F5391EF90E65D7420F0F2
:07217E00D082D083D0E032D3
:011AFD0032B6
:011AFE0032B5
:011AFF0032B4
:01249E00320B
:01249F00320A
:0124A0003209
:0124A1003208
:0124A2003207
:0124A3003206
:0124A4003205
:0124A5003204
:0124A6003203
:0124A7003202
:0124A8003201
:0124A9003200
:0124AA0032FF
:0124AB0032FE
:0124AC0032FD
:0124AD0032FC
:0124AE0032FB
:0124AF0032FA
:0124B00032F9
:0124B10032F8
:0124B20032F7
:0124B30032F6
:0124B40032F5
:0124B50032F4
:0124B60032F3
:0124B70032F2
:0124B80032F1
:0124B90032F0
:0124BA0032EF
:0124BB0032EE
:0124BC0032ED
:0124BD0032EC
:0124BE0032EB
:101ECC0060482800FF2485FF22DDFF13A6FF153F85
:101EDC00FF21EEFF23E5FF23E5FF243DFF1C7DFFE3
:101EEC0016B8FF23E5FF23E5FF18ADFF18ADFF186B
:101EFC00ADFF180BFF180BFF180BFF20A7FF1CF5ED
:0C1F0C00FF1CF5FF12BBFF23F9FF17625A
:101DBD00E412067890000112068A900002120818AB
:101DCD0000000000900006E4F5F012072E90000BC5
:101DDD00E412068A900008E412068A900009740144
:101DED0012068A90000A740112068A9000101208D9
:101DFD001800000000900014E4F5F012072E90007A
:0C1E0D000C12081800000000E4FEFF2288
:0E225200902B3AE0FCA3E0FDA3E0FEA3E0FF2A
:102260008F298E288D278C26E5292407FFE4352821
:10227000FEE43527FDE43526FCE47B08FAF9F81284
:032280001FAB226F
:04232E007F017E00AD
:10233200AD07AC067F1012244BE4FDFC7F20122473
:0A2342004B7D017C007F2002244B3C
:0809E500AB40AA41A9427D01CB
:0809ED008B5A8A5B895C8D5D69
:1009F500E4902CCAF0A3F0E55D704DF55EF55F055A
:100A05005FE55F7002055EB4D0F5E55EB407F012F0
:100A1500232EE4F55EF55FE4FDFC7F2012244B7D7B
:100A2500017C007F2012244B055FE55F7002055EA7
:100A3500C39405E55E6480948040DCAB5AAA5BA94B
:100A45005CE4120678020C84AB5AAA5BA95C120618
:100A550010FF655D601FE55DB40704EFB4060AE5A8
:100A65005DB40E11EF640D600C902CCAE4F0A37414
:100A750005F0020C84E55DB5070EB40603020B60B4
:100A8500E55DB40D03020C1CAB5AAA5BA95C12060A
:100A950010FF655D7003020C84EFB4100040030283
:100AA5000C6D900AAEF8282873020ADE020AE102EC
:100AB5000AE4020B0A020B2E020B3C020B60020B2E
:100AC5006E020B92020BB6020BC7020BEB020BF97F
:100AD500020C1C020C29020C4B020B97020BA8E519
:100AE5005DC39409400E12232EAB5AAA5BA95C7410
:100AF50009020C7EE4FFFE122332AB5AAA5BA95C05
:100B05007403020C7EE55DB40411E4FFFE1223328A
:100B1500AB5AAA5BA95C7404020C7E12232EAB5A55
:100B2500AA5BA95C7405020C7E12232EAB5AAA5B44
:100B3500A95C7405020C7EE55DB40611E4FFFE12A6
:100B45002332AB5AAA5BA95C7406020C7E12232ED3
:100B5500AB5AAA5BA95C7408020C7E12232EAB5A11
:100B6500AA5BA95C7407020C7EE55DB40411E4FF81
:100B7500FE122332AB5AAA5BA95C7404020C7E12E6
:100B8500232EAB5AAA5BA95C7408020C7EE55DB402
:100B95000111E4FFFE122332AB5AAA5BA95C740172
:100BA500020C7E12232EAB5AAA5BA95C7402020CBE
:100BB5007EE4FFFE122332AB5AAA5BA95C740A02DB
:100BC5000C7EE55DB40B11E4FFFE122332AB5AAA8D
:100BD5005BA95C740B020C7E12232EAB5AAA5BA98F
:100BE5005C740C020C7E12232EAB5AAA5BA95C74B2
:100BF5000C020C7EE55DB40D11E4FFFE122332AB51
:100C05005AAA5BA95C740D020C7E12232EAB5AAA5C
:100C15005BA95C740F806212232EAB5AAA5BA95C98
:100C2500740E8055E55DB40B10E4FFFE122332AB64
:100C35005AAA5BA95C740B804012232EAB5AAA5B9F
:100C4500A95C740F8033E55DB40110E4FFFE122347
:100C550032AB5AAA5BA95C7401801E12232EAB5AD3
:100C6500AA5BA95C74028011902CCAE4F0A37405F8
:100C7500F0AB5AAA5BA95CE55D120678020A8D9075
:070C85002CCAE0FEA3E0FF12
:010C8C002245
:0E1036008F5D8E5C8D5B8C5A8B5E8A5F89604D
:10104400756900756A00756B00E56245634561600A
:101054003C1206ACFFAB61AA62A963E5F08FF01203
:10106400070FAB61E5632402F9E43562FAC003C0FB
:1010740002C001AB5EAA5FA9601206ACD001D00227
:10108400D00329F9EA35F08B69F56A896BAB5EE523
:10109400602402F9E4355FFAC002C001AA5FA960C6
:1010A4001206ACD001D00229F9EA35F08B66F56757
:1010B4008968AF5DAE5CAD5BAC5AEC4D4E4F7003CE
:1010C4000211B2AB66E56815687002156714F9AAD7
:1010D40067120610902B45F0E4A3F0F56CF56DAFA4
:1010E4005DAE5CAD5BAC5AEC4D4E4F700302118D9E
:1010F400C3E56D9408E56C64809480400302118D0F
:1011040074FF2FF55DEE34FFF55CED34FFF55BEC19
:1011140034FFF55AE56545646016AF5DAE5CAD5BC2
:10112400AC5AEC4D4E4F70087D01FC7F1012244BDD
:10113400902B45E05401FD7C007F8012244B902BC2
:1011440045E0C313F0E4FDFC7F2012244BE56A451F
:101154006B45696020122470902B47EFF0902B466A
:10116400E0FFAE6DA3E0FDA806088002C333D8FCFF
:101174004F902B46F07D017C007F2012244B056D9F
:10118400E56D7002056C0210E3E56A456B45697014
:10119400030210B6902B46E0FFAB69E56B156B704C
:0E11A40002156A14F9AA6AEF1206780210B654
:0111B200221A
:080E98008B408A4189428D4321
:100EA000E4902B3EF0A3F0A3F0A3F0A3F0E543659C
:100EB000547E0060047F0180027F00902B43EEF09F
:100EC000A3EFF0AF47AE46AD45AC44EC4D4E4F708E
:100ED0001EAF58AE57AD56AC55EC4D4E4F70030299
:100EE00010021209E5AE57AF5812234C021002ABA4
:100EF00040AA41A942AD431209EDAF47AE46AD4508
:100F0000AC44854B61854C62854D63902B43E0F585
:100F100064A3E0F565AB48AA49A94A121036E54F2B
:100F20004550454E602D854B5D854C5E854D5F85FA
:100F30005160855261855362AB4EAA4FA950121A77
:100F40005DEF4E70047F0180027F00902B40E4F043
:100F5000A3EFF0902B43E07002A3E07003020FE8D0
:100F6000AB40AA41A9427401120656902B40E07092
:100F700002A3E06050AF58AE57AD56AC55EC4D4EA5
:100F80004F6042902B42E0C395595039AB40AA4183
:100F9000A9427D061209EDAB40AA41A9427D041287
:100FA00009EDAF58AE57AD56AC557802120771E552
:100FB000582FF558E5573EF557E5563DF556E5559A
:100FC0003CF555800BAB40AA41A942AD541209ED46
:100FD000AF58AE57AD56AC55EC4D4E4F600A1209A6
:100FE000E5AE57AF5812234C902B40E07002A3E0BF
:100FF0006010902B42E0FF04F0EFC39559500302BC
:101000000EEF902B40E07002A3E06021E5596014E0
:10101000902B42E0D39559400B902B3EE4F0A37403
:1010200003F08009902B3EE4F0A37402F0902B3E75
:05103000E0FEA3E0FF5B
:011035002298
:101B86008B258A2689278F2B8E2A8D298C28AB2E8A
:101B9600AA2FA930AD2DAC2C122032E5354536459D
:101BA60034600DAB34AA35A936AD2DAC2C122032DB
:101BB600852B47852A46852945852844852E4885CF
:101BC6002F4985304A85314B85324C85334D8534D6
:101BD6004E85354F85365085375185385285395370
:101BE600853A54853E58853D57853C56853B5585F7
:0E1BF6003F59AB25AA26A9277D04120E98227E
:1023E500900006E475F00412072E9000061206D739
:0423F500FFAEF02225
:092485007401120678E4FEFF2246
:1022DD008B218A228923E9243BF9EA3402FAC002D0
:1022ED00C001AA22A9239000141206D7FDACF0D08C
:0A22FD0001D002122032E4FEFF229D
:0613A6008B218A2289233D
:1013AC007B007A007924122307AF24E4FCFDFE12A3
:1013BC002260D3EF94B4EE648094804010AB21AAE9
:1013CC0022A923900006E475F00602146CAF24E405
:1013DC00FCFDFE122260AC06AD07AB21E523241602
:1013EC00F9E43522FA122032AB21E5232408F9E482
:1013FC003522FAC003C002C001E4852447F546F546
:10140C0045F544E5232416F9E435228B48F5498942
:10141C004A754B00754C00754D00754E00754F00AC
:10142C00755000755100755200755300AA22A923FE
:10143C00900009120629F55490000C1207988F5849
:10144C008E578D568C55E4F559D001D002D0037DC2
:10145C000B120E98AB21AA22A923900006EE8FF056
:10146C0012072EAB21AA22A9239000061206D7FF41
:02147C00AEF0D0
:01147E00224B
:0612BB008B218A22892329
:1012C100E92416F9E43AFA7D027C00122032AB21BE
:1012D100E5232416F9E43522FA121C04902B3A1264
:1012E100080C122252D3EF94B4EE6480948040092A
:1012F10075240075250602138A122252AC06AD0729
:10130100AB21E5232416F9E43522FA122032AB2170
:10131100E5232408F9E43522FAC003C002C0019094
:101321002B3AE0FCA3E0FDA3E0FEA3E0F5478E46E7
:101331008D458C44E5232416F9E435228B48F54983
:10134100894A754B00754C00754D00754E00754FFF
:1013510000755000755100755200755300AA22A9FD
:1013610023900009120629F55490000C1207988F5A
:10137100588E578D568C55E4F559D001D002D003C3
:101381007D0B120E988E248F25E52545246011AB27
:1013910021AA22A923900006E5248525F012072E13
:0413A100AE24AF25A2
:0113A5002225
:06153F008B218A228923A2
:10154500E92416F9E43AFAC002C001AA22A92390B7
:1015550000141206D7FDACF0D001D002122032AB38
:1015650021E5232408F9E43522FAC003C002C001AD
:10157500AA22A9239000101207988F478E468D4501
:101585008C44E92416F9E43A8B48F549894AE52360
:101595002484F9EA34018B4BF54C894DE52324CDA0
:1015A500F9E43A8B4EF54F8950E523243BF9EA34AB
:1015B500028B51F5528953A92390000A120629F589
:1015C5005490000C1207988F588E578D568C559055
:1015D500000B120629F559D001D002D0037D041263
:1015E5000E98EF4E600FAB21AA22A923900006EEBC
:0515F5008FF012072E2B
:0115FA0022CE
:1021EE008B218A228923E92416F9E43AFA7D047CAC
:1021FE0000122032AB21E5232416F9E43522FA121F
:10220E001C04AB21AA22A92390000C1207C8E4FEDD
:02221E00FF229D
:0E243D00E9240BF9E43AFA122307E4FEFF2229
:061C7D008B218A2289235D
:101C8300E4F524F525E92416F9E43AFA7D047C0009
:101C9300122032AB21E5232416F9E43522FA121C73
:101CA30004AB21AA22A9239000101207C8900010A8
:101CB300120798122260AB21AA22A923900014EEE6
:101CC3008FF012072E9000141206D7D394B4E5F0C8
:101CD300648094804017752400752506AB21AA22E1
:101CE300A923900006E5248525F012072EAE24AF24
:011CF30025CB
:011CF40022CD
:0616B8008B218A22892328
:1016BE00E92408F9E43AFAC003C002C001AA22A93B
:1016CE0023900010120798C004C005C006C00790F2
:1016DE0000141206D7F52D85F02CE92416F9E43AFC
:1016EE008B2EF52F8930E5232484F9EA34018B31D2
:1016FE00F5328933E52324CDF9E43A8B34F5358977
:10170E0036E523243BF9EA34028B37F5388939A9BB
:10171E002390000A120629F53A90000C1207988FB2
:10172E003E8E3D8D3C8C3B90000B120629F53FD032
:10173E0007D006D005D004D001D002D003121B86EC
:10174E00EF4E600FAB21AA22A923900006EE8FF078
:03175E0012072E41
:011761002265
:0618AD008B218A22892331
:1018B300900001120629B40E0990000A120629FFAE
:1018C30080027F048F24AB21E5232408F9E4352229
:1018D300FAC003C002C001AA22A923900010120774
:1018E300989000141206D7F52D85F02CE92416F9EB
:1018F300E43A8B2EF52F893075310075320075333C
:10190300007534007535007536007537007538007D
:1019130075390085243AE4F53EF53DF53CF53BF594
:101923003FD001D002D003121B86AB21AA22A923E8
:10193300900006EE8FF012072E9000061206D7FFD6
:02194300AEF004
:01194500227F
:06180B008B218A228923D3
:10181100900001120629B4110990000A120629FF4D
:1018210080027F048F24AB21E5232408F9E43522CB
:10183100FAC003C002C001AA22A923900010120716
:10184100989000141206D7F52D85F02CE92416F98D
:10185100E43A8B2EF52F8930E5232484F9EA34010B
:101861008B31F5328933E52324CDF9E43A8B34F514
:1018710035893675370075380075390085243AE4A5
:10188100F53EF53DF53CF53BF53FD001D002D003E7
:10189100121B86AB21AA22A923900006EE8FF0121B
:0B18A100072E9000061206D7FFAEF0E5
:0118AC002219
:0620A7008B218A2289232F
:1020AD007B007A007924122307AB21E5232408F95C
:1020BD00E43522FAAD241209EDAB21AA22A9239011
:1020CD000006EE8FF012072E9000061206D7FFAE17
:0120DD00F012
:0120DE0022DF
:061CF5008B218A228923E5
:101CFB00E4F524F525FB7A007926122307E5266007
:101D0B000C64016008752400752505802BAB21AA96
:101D1B0022A923900001120629B4130DE526900089
:101D2B00097002800B740D800CE52690000A70037D
:101D3B00048002740612068AE52545246011AB2146
:101D4B00AA22A923900006E5248525F012072EAEC2
:031D5B0024AF258D
:011D5E002262
:061762008B218A2289237D
:10176800E92416F9E43AFA7D017C00122032AB2113
:10177800AA22A923900018120629F524E92416F9AB
:10178800E43AFA7D017C00122032AB21AA22A92377
:10179800900018120629F525E92416F9E43AFA7D8D
:1017A800047C00122032AB21E5232416F9E435220B
:1017B800FA121C04902B3A12080CAB21AA22A92376
:1017C8009000081206296524600CE92408F9E43A17
:1017D800FAAD241209ED902B3AA3A3E0FEA3E0FF93
:1017E80012234CAB21AA22A92390000812062965CE
:1017F80025600CE92408F9E43AFAAD251209EDE46C
:02180800FEFFE1
:01180A0022BB
:1023F900900006E4F5F012072E9000061206D7FFAA
:03240900AEF02210
:101E1900757901757A28757B48AB79AA7AA97B12FD
:101E29001DBDAB79AA7AA97B900006EE8FF0120747
:101E39002E9000061206D745F0701FAB79E57B247A
:101E490008F9E4357AFAE4FD1209EDAB79AA7AA921
:101E59007B900006EE8FF012072EAB79AA7AA97B48
:0A1E69009000061206D7FFAEF0222B
:1019D200AB79AA7AA97B9000061206D745F0706B04
:1019E2001206107066E92401F9E43AFA122307ABF1
:1019F20079AA7AA97B900002120798E4FAF9F8EF23
:101A02002401FFEA3EFEE93DFDE83CFCAA7AA97BFF
:101A12009000021207C8900001120629FFC3941811
:101A2200AB79AA7AA97B5020C002EF75F003A424F7
:101A320000F582E43428F583A3E0FAA3E0F5828A74
:101A420083D00212086680031223E5AB79AA7AA931
:0B1A52007B9000061206D7FFAEF022CA
:061C04008B268A278928C7
:101C0A00E4F52CF52BF52AF529F52DF52EAB26AAA8
:101C1A0027A9281206ACFFC3E52E9FE5F06480F8D9
:101C2A00E52D6480985043AF2CAE2BAD2AAC2978B1
:101C3A00081207858F2C8E2B8D2A8C29E92402F90C
:101C4A00E43AFAE9252EF9EA352DFA120610FFE5EB
:101C5A002C4FF52CE52BF52BE52AF52AE529F52954
:101C6A00052EE52E70A7052D80A3AF2CAE2BAD2A2D
:021C7A00AC2993
:011C7C002245
:061A5D008B5A8A5B895CD4
:101A63007563007564011206ACFFAEF0E56445636F
:101A73006063EF1FAC0670011E4C6059AB5AE55C06
:101A83002402F9E4355BFAE92FF9EA3EFA1206106B
:101A9300F565AB5DE55F2402F9E4355EFAE92FF9FC
:101AA300EA3EFA120610F566E56145624560601884
:101AB300AB60E5622402F9E43561FAE92FF9EA3E05
:101AC300FA12061052655266E5656566609EE4F596
:091AD30063F5648097AE63AF6413
:011ADC0022E7
:042032008C408D4110
:10203600E5408541F012070FE92402F9E43A8B42A4
:10204600F5438944E5414540601EAB42AA43A94495
:10205600122307E54115417002154074012544F528
:0820660044E43543F54380DC3E
:01206E00224F
:041F1800027400004F
:0D244B00ED4C7005EFF452A022EF42A022EC
:0C245800E4FDFC7F2012244B0D02244BFD
:102307008B458A468947AB76AA77A9780575E5751F
:10231700AE747002057414F5828E83120629AB45DC
:07232700AA46A9470206784F
:0C246400E4F574F5758B768A7789782290
:0B247000E5A05440C413135403FF22E6
:04234C00AB07AA062B
:10235000900000C3E5829BEA6480F8E5836480987E
:082360005006122458A380EB83
:012368002252
:08249600E4F573D2E9D2AF2294
:1020DF00AD0790E678E020E6F9C2E990E678E044B3
:1020EF0080F0ED25E090E679F090E678E030E0F9C9
:1020FF0090E678E04440F090E678E020E6F990E64C
:08210F0078E030E1D6D2E922AC
:10222000AC0790E678E020E6F9E573702390E67855
:10223000E04480F0EC25E090E679F08D6EAF03A9E4
:1022400007756F018A708971E4F572757301D32285
:02225000C322A7
:1021BA00AC0790E678E020E6F9E573702590E678BA
:1021CA00E04480F0EC25E0440190E679F08D6EAFB2
:1021DA0003A907756F018A708971E4F57275730333
:0421EA00D322C32217
:03004B000211B3EC
:1011B300C0E0C083C082C085C084C086758600C07D
:1011C300D075D000C000C001C002C003C006C00774
:1011D30090E678E030E20675730602129D90E67899
:1011E300E020E10CE5736402600675730702129D4B
:1011F300E57324FE605F14603624FE700302128ED2
:1012030024FC700302129A2408600302129DAB6F40
:10121300AA70A971AF7205728F82758300120629B5
:1012230090E679F0E572656E7070757305806B906A
:10123300E679E0AB6FAA70A971AE728E82758300F6
:1012430012068A757302E56E6401704E90E678E0CB
:101253004420F08045E56E24FEB5720790E678E001
:101263004420F0E56E14B5720A90E678E04440F04D
:1012730075730090E679E0AB6FAA70A971AE728EB8
:101283008275830012068A0572800F90E678E04427
:1012930040F075730080037573005391DFD007D05E
:1012A30006D003D002D001D000D0D0D086D084D0D5
:0812B30085D082D083D0E03227
:102369001221BAE57324FA600E146006240770F38B
:0C237900D322E4F573D322E4F573D322E1
:10238500122220E57324FA600E146006240770F308
:0C239500D322E4F573D322E4F573D322C5
:030000000219469C
:0C194600787FE4F6D8FD75817B02198DD6
:10061000BB010689828A83E0225002E722BBFE02E8
:09062000E32289828A83E493221B
:10062900BB010CE58229F582E5833AF583E0225086
:1006390006E92582F8E622BBFE06E92582F8E222D0
:0D064900E58229F582E5833AF583E49322EA
:10065600BB010989828A83F8E028F022500327F734
:1006660022BBFE05F8E328F3228A838982F8E49305
:02067600282238
:10067800BB010689828A83F0225002F722BBFE0161
:02068800F3225B
:10068A00F8BB010DE58229F582E5833AF583E8F0A6
:10069A00225006E92582C8F622BBFE05E92582C852
:0206AA00F2223A
:1006AC00BB010A89828A83E0F5F0A3E02250068719
:1006BC00F009E71922BBFE07E3F5F009E3192289DB
:0B06CC00828A83E493F5F0740193220E
:1006D700BB0110E58229F582E5833AF583E0F5F061
:1006E700A3E0225009E92582F886F008E622BBFE3E
:1006F7000AE92582F8E2F5F008E222E5832AF58384
:08070700E993F5F0A3E9932248
:10070F00BB010A89828A83F0E5F0A3F0225006F735
:0F071F0009A7F01922BBFE06F3E5F009F3192232
:10072E00F8BB0111E58229F582E5833AF583E8F0FD
:10073E00E5F0A3F0225009E92582C8F608A6F022BA
:0D074E00BBFE09E92582C8F2E5F008F222A1
:101FAB00C2D5E830E70FB2D5E4C39BFBE49AFAE461
:101FBB0099F9E498F8EC30E717B2D5121FE1120843
:101FCB00A4E4C39BFBE49AFAE499F9E498F8800340
:101FDB001208A430D50DE4C39FFFE49EFEE49DFDE3
:041FEB00E49CFC2254
:10075B00EB9FF5F0EA9E42F0E99D42F0EC6480C815
:06076B0064809845F022B5
:10077100E86010ECA2E713FCED13FDEE13FEEF139E
:04078100FFD8F0228B
:10078500E8600FEFC333FFEE33FEED33FDEC33FCD2
:03079500D8F12276
:10079800BB010DE58229F582E5833AF5830209421A
:1007A8005007E92582F8020936BBFE07E92582F8D9
:1007B80002094EE58229F582E5833AF58302095A52
:1007C800BB010DE58229F582E5833AF58302080C21
:1007D8005007E92582F802096ABBFE07E92582F875
:0407E800020976226A
:1007EC007401FF3395E0FEFDFC080808E6CF2FF6F8
:1007FC0018E6CE3EF618E6CD3DF618E6CC3CF622D1
:0C080C00ECF0A3EDF0A3EEF0A3EFF0225F
:10081800BB010DE58229F582E5833AF58302099B40
:100828005007E92582F8020982BBFE07E92582F80C
:040838000209CC22C3
:10083C00D083D082F8E4937012740193700DA3A34B
:10084C0093F8740193F5828883E47374029368605F
:06085C00EFA3A3A380DF5F
:060862008A838982E47321
:10195200021D5FE493A3F8E493A34003F68001F22F
:1019620008DFF48029E493A3F85407240CC8C33396
:10197200C4540F4420C8834004F456800146F6DF65
:10198200E4800B0102040810204080901ECCE47E0B
:10199200019360BCA3FF543F30E509541FFEE4935A
:1019A200A360010ECF54C025E060A840B8E493A321
:1019B200FAE493A3F8E493A3C8C582C8CAC583CA4C
:1019C200F0A3C8C582C8CAC583CADFE9DEE780BE04
:011F1C0000C4
:1008680075F008758200EF2FFFEE33FECD33CDCC47
:1008780033CCC58233C5829BED9AEC99E5829840CA
:100888000CF582EE9BFEED9AFDEC99FC0FD5F0D6A7
:10089800E4CEFBE4CDFAE4CCF9A88222B800C1B9D1
:1008A8000059BA002DEC8BF084CFCECDFCE5F0CB0F
:1008B800F97818EF2FFFEE33FEED33FDEC33FCEB48
:1008C80033FB10D703994004EB99FB0FD8E5E4F903
:1008D800FA227818EF2FFFEE33FEED33FDEC33FCF0
:1008E800C933C910D7059BE99A4007EC9BFCE99AE4
:1008F800F90FD8E0E4C9FAE4CCFB2275F010EF2F29
:10090800FFEE33FEED33FDCC33CCC833C810D70728
:100918009BEC9AE899400AED9BFDEC9AFCE899F863
:0E0928000FD5F0DAE4CDFBE4CCFAE4C8F922F6
:0C093600E6FC08E6FD08E6FE08E6FF22ED
:0C094200E0FCA3E0FDA3E0FEA3E0FF2228
:0C094E00E2FC08E2FD08E2FE08E2FF22E5
:10095A00E493FC740193FD740293FE740393FF22E3
:0C096A00ECF608EDF608EEF608EFF622B9
:0C097600ECF208EDF208EEF208EFF222BD
:10098200D083D082E493F608740193F6087402933C
:09099200F608740393F674047373
:10099B00A8828583F0D083D0821209B21209B212D9
:1009AB0009B21209B2E473E493A3C583C5F0C583FE
:1009BB00C8C582C8F0A3C583C5F0C583C8C582C8A6
:0109CB002209
:1009CC00D083D082E493F208740193F208740293FA
:0909DC00F208740393F274047331
:00000001FF
